{
	"contracts/AutionFactory.sol": {
		"AutionFactory": {
			"abi": [
				{
					"inputs": [
						{
							"internalType": "bool",
							"name": "isHardHat",
							"type": "bool"
						}
					],
					"stateMutability": "nonpayable",
					"type": "constructor"
				},
				{
					"anonymous": false,
					"inputs": [
						{
							"indexed": true,
							"internalType": "address",
							"name": "autionAddress",
							"type": "address"
						}
					],
					"name": "AutionCreated",
					"type": "event"
				},
				{
					"inputs": [
						{
							"internalType": "address",
							"name": "autionAddress",
							"type": "address"
						}
					],
					"name": "autionEnd",
					"outputs": [],
					"stateMutability": "nonpayable",
					"type": "function"
				},
				{
					"inputs": [
						{
							"internalType": "uint256",
							"name": "",
							"type": "uint256"
						}
					],
					"name": "autions",
					"outputs": [
						{
							"internalType": "address",
							"name": "",
							"type": "address"
						}
					],
					"stateMutability": "view",
					"type": "function"
				},
				{
					"inputs": [
						{
							"internalType": "address",
							"name": "_nftContract",
							"type": "address"
						},
						{
							"internalType": "uint256",
							"name": "_nftTokenId",
							"type": "uint256"
						},
						{
							"internalType": "uint256",
							"name": "_startingPrice",
							"type": "uint256"
						},
						{
							"internalType": "uint256",
							"name": "_duraion",
							"type": "uint256"
						}
					],
					"name": "createAution",
					"outputs": [
						{
							"internalType": "uint256",
							"name": "",
							"type": "uint256"
						}
					],
					"stateMutability": "nonpayable",
					"type": "function"
				},
				{
					"inputs": [
						{
							"internalType": "uint256",
							"name": "amount",
							"type": "uint256"
						}
					],
					"name": "formatEthToUsdtPrice",
					"outputs": [
						{
							"internalType": "uint256",
							"name": "",
							"type": "uint256"
						}
					],
					"stateMutability": "view",
					"type": "function"
				},
				{
					"inputs": [
						{
							"internalType": "uint256",
							"name": "amount",
							"type": "uint256"
						}
					],
					"name": "formatLinkToUsdtPrice",
					"outputs": [
						{
							"internalType": "uint256",
							"name": "",
							"type": "uint256"
						}
					],
					"stateMutability": "view",
					"type": "function"
				},
				{
					"inputs": [
						{
							"internalType": "uint256",
							"name": "_autionId",
							"type": "uint256"
						}
					],
					"name": "getAutionContract",
					"outputs": [
						{
							"internalType": "address",
							"name": "",
							"type": "address"
						}
					],
					"stateMutability": "view",
					"type": "function"
				},
				{
					"inputs": [],
					"name": "getAutionCount",
					"outputs": [
						{
							"internalType": "uint256",
							"name": "",
							"type": "uint256"
						}
					],
					"stateMutability": "view",
					"type": "function"
				}
			],
			"devdoc": {
				"kind": "dev",
				"methods": {},
				"version": 1
			},
			"evm": {
				"assembly": "    /* \"contracts/AutionFactory.sol\":299:3613  contract AutionFactory is IAutionFactory {... */\n  mstore(0x40, 0x80)\n    /* \"contracts/AutionFactory.sol\":520:521  1 */\n  0x01\n    /* \"contracts/AutionFactory.sol\":488:521  uint256 private _nextAutionId = 1 */\n  0x02\n  sstore\n    /* \"contracts/AutionFactory.sol\":758:800  0x779877A7B0D9E8603169DdbD7836e478b4624789 */\n  0x779877a7b0d9e8603169ddbd7836e478b4624789\n    /* \"contracts/AutionFactory.sol\":736:800  address linkAddress = 0x779877A7B0D9E8603169DdbD7836e478b4624789 */\n  0x05\n  exp(0x0100, 0x00)\n  dup2\n  sload\n  dup2\n  0xffffffffffffffffffffffffffffffffffffffff\n  mul\n  not\n  and\n  swap1\n  dup4\n  0xffffffffffffffffffffffffffffffffffffffff\n  and\n  mul\n  or\n  swap1\n  sstore\n  pop\n    /* \"contracts/AutionFactory.sol\":828:870  0x0000000000000000000000000000000000000000 */\n  0x00\n    /* \"contracts/AutionFactory.sol\":807:870  address ethAddress = 0x0000000000000000000000000000000000000000 */\n  0x06\n  exp(0x0100, 0x00)\n  dup2\n  sload\n  dup2\n  0xffffffffffffffffffffffffffffffffffffffff\n  mul\n  not\n  and\n  swap1\n  dup4\n  0xffffffffffffffffffffffffffffffffffffffff\n  and\n  mul\n  or\n  swap1\n  sstore\n  pop\n    /* \"contracts/AutionFactory.sol\":964:969  false */\n  0x00\n    /* \"contracts/AutionFactory.sol\":938:969  bool private _isHardHat = false */\n  0x06\n  exp(0x0100, 0x14)\n  dup2\n  sload\n  dup2\n  0xff\n  mul\n  not\n  and\n  swap1\n  dup4\n  iszero\n  iszero\n  mul\n  or\n  swap1\n  sstore\n  pop\n    /* \"contracts/AutionFactory.sol\":978:1287  constructor(bool isHardHat) {... */\n  callvalue\n  dup1\n  iszero\n  tag_1\n  jumpi\n  revert(0x00, 0x00)\ntag_1:\n  pop\n  mload(0x40)\n  sub(codesize, bytecodeSize)\n  dup1\n  bytecodeSize\n  dup4\n  codecopy\n  dup2\n  dup2\n  add\n  0x40\n  mstore\n  dup2\n  add\n  swap1\n  tag_2\n  swap2\n  swap1\n  tag_3\n  jump\t// in\ntag_2:\n    /* \"contracts/AutionFactory.sol\":1031:1041  msg.sender */\n  caller\n    /* \"contracts/AutionFactory.sol\":1017:1028  marketOwner */\n  0x01\n  0x00\n    /* \"contracts/AutionFactory.sol\":1017:1041  marketOwner = msg.sender */\n  0x0100\n  exp\n  dup2\n  sload\n  dup2\n  0xffffffffffffffffffffffffffffffffffffffff\n  mul\n  not\n  and\n  swap1\n  dup4\n  0xffffffffffffffffffffffffffffffffffffffff\n  and\n  mul\n  or\n  swap1\n  sstore\n  pop\n    /* \"contracts/AutionFactory.sol\":1101:1143  0xc59E3633BAAC79493d908e63626716e204A45EdF */\n  0xc59e3633baac79493d908e63626716e204a45edf\n    /* \"contracts/AutionFactory.sol\":1052:1063  _priceFeeds */\n  0x04\n    /* \"contracts/AutionFactory.sol\":1052:1076  _priceFeeds[linkAddress] */\n  0x00\n    /* \"contracts/AutionFactory.sol\":1064:1075  linkAddress */\n  0x05\n  0x00\n  swap1\n  sload\n  swap1\n  0x0100\n  exp\n  swap1\n  div\n  0xffffffffffffffffffffffffffffffffffffffff\n  and\n    /* \"contracts/AutionFactory.sol\":1052:1076  _priceFeeds[linkAddress] */\n  0xffffffffffffffffffffffffffffffffffffffff\n  and\n  0xffffffffffffffffffffffffffffffffffffffff\n  and\n  dup2\n  mstore\n  0x20\n  add\n  swap1\n  dup2\n  mstore\n  0x20\n  add\n  0x00\n  keccak256\n  0x00\n    /* \"contracts/AutionFactory.sol\":1052:1144  _priceFeeds[linkAddress] = AggregatorV3Interface(0xc59E3633BAAC79493d908e63626716e204A45EdF) */\n  0x0100\n  exp\n  dup2\n  sload\n  dup2\n  0xffffffffffffffffffffffffffffffffffffffff\n  mul\n  not\n  and\n  swap1\n  dup4\n  0xffffffffffffffffffffffffffffffffffffffff\n  and\n  mul\n  or\n  swap1\n  sstore\n  pop\n    /* \"contracts/AutionFactory.sol\":1203:1245  0x694AA1769357215DE4FAC081bf1f309aDC325306 */\n  0x694aa1769357215de4fac081bf1f309adc325306\n    /* \"contracts/AutionFactory.sol\":1155:1166  _priceFeeds */\n  0x04\n    /* \"contracts/AutionFactory.sol\":1155:1178  _priceFeeds[ethAddress] */\n  0x00\n    /* \"contracts/AutionFactory.sol\":1167:1177  ethAddress */\n  0x06\n  0x00\n  swap1\n  sload\n  swap1\n  0x0100\n  exp\n  swap1\n  div\n  0xffffffffffffffffffffffffffffffffffffffff\n  and\n    /* \"contracts/AutionFactory.sol\":1155:1178  _priceFeeds[ethAddress] */\n  0xffffffffffffffffffffffffffffffffffffffff\n  and\n  0xffffffffffffffffffffffffffffffffffffffff\n  and\n  dup2\n  mstore\n  0x20\n  add\n  swap1\n  dup2\n  mstore\n  0x20\n  add\n  0x00\n  keccak256\n  0x00\n    /* \"contracts/AutionFactory.sol\":1155:1246  _priceFeeds[ethAddress] = AggregatorV3Interface(0x694AA1769357215DE4FAC081bf1f309aDC325306) */\n  0x0100\n  exp\n  dup2\n  sload\n  dup2\n  0xffffffffffffffffffffffffffffffffffffffff\n  mul\n  not\n  and\n  swap1\n  dup4\n  0xffffffffffffffffffffffffffffffffffffffff\n  and\n  mul\n  or\n  swap1\n  sstore\n  pop\n    /* \"contracts/AutionFactory.sol\":1270:1279  isHardHat */\n  dup1\n    /* \"contracts/AutionFactory.sol\":1257:1267  _isHardHat */\n  0x06\n  0x14\n    /* \"contracts/AutionFactory.sol\":1257:1279  _isHardHat = isHardHat */\n  0x0100\n  exp\n  dup2\n  sload\n  dup2\n  0xff\n  mul\n  not\n  and\n  swap1\n  dup4\n  iszero\n  iszero\n  mul\n  or\n  swap1\n  sstore\n  pop\n    /* \"contracts/AutionFactory.sol\":978:1287  constructor(bool isHardHat) {... */\n  pop\n    /* \"contracts/AutionFactory.sol\":299:3613  contract AutionFactory is IAutionFactory {... */\n  jump(tag_6)\n    /* \"#utility.yul\":88:205   */\ntag_8:\n    /* \"#utility.yul\":197:198   */\n  0x00\n    /* \"#utility.yul\":194:195   */\n  0x00\n    /* \"#utility.yul\":187:199   */\n  revert\n    /* \"#utility.yul\":334:424   */\ntag_10:\n    /* \"#utility.yul\":368:375   */\n  0x00\n    /* \"#utility.yul\":411:416   */\n  dup2\n    /* \"#utility.yul\":404:417   */\n  iszero\n    /* \"#utility.yul\":397:418   */\n  iszero\n    /* \"#utility.yul\":386:418   */\n  swap1\n  pop\n    /* \"#utility.yul\":334:424   */\n  swap2\n  swap1\n  pop\n  jump\t// out\n    /* \"#utility.yul\":430:546   */\ntag_11:\n    /* \"#utility.yul\":500:521   */\n  tag_19\n    /* \"#utility.yul\":515:520   */\n  dup2\n    /* \"#utility.yul\":500:521   */\n  tag_10\n  jump\t// in\ntag_19:\n    /* \"#utility.yul\":493:498   */\n  dup2\n    /* \"#utility.yul\":490:522   */\n  eq\n    /* \"#utility.yul\":480:540   */\n  tag_20\n  jumpi\n    /* \"#utility.yul\":536:537   */\n  0x00\n    /* \"#utility.yul\":533:534   */\n  0x00\n    /* \"#utility.yul\":526:538   */\n  revert\n    /* \"#utility.yul\":480:540   */\ntag_20:\n    /* \"#utility.yul\":430:546   */\n  pop\n  jump\t// out\n    /* \"#utility.yul\":552:689   */\ntag_12:\n    /* \"#utility.yul\":606:611   */\n  0x00\n    /* \"#utility.yul\":637:643   */\n  dup2\n    /* \"#utility.yul\":631:644   */\n  mload\n    /* \"#utility.yul\":622:644   */\n  swap1\n  pop\n    /* \"#utility.yul\":653:683   */\n  tag_22\n    /* \"#utility.yul\":677:682   */\n  dup2\n    /* \"#utility.yul\":653:683   */\n  tag_11\n  jump\t// in\ntag_22:\n    /* \"#utility.yul\":552:689   */\n  swap3\n  swap2\n  pop\n  pop\n  jump\t// out\n    /* \"#utility.yul\":695:1040   */\ntag_3:\n    /* \"#utility.yul\":762:768   */\n  0x00\n    /* \"#utility.yul\":811:813   */\n  0x20\n    /* \"#utility.yul\":799:808   */\n  dup3\n    /* \"#utility.yul\":790:797   */\n  dup5\n    /* \"#utility.yul\":786:809   */\n  sub\n    /* \"#utility.yul\":782:814   */\n  slt\n    /* \"#utility.yul\":779:898   */\n  iszero\n  tag_24\n  jumpi\n    /* \"#utility.yul\":817:896   */\n  tag_25\n  tag_8\n  jump\t// in\ntag_25:\n    /* \"#utility.yul\":779:898   */\ntag_24:\n    /* \"#utility.yul\":937:938   */\n  0x00\n    /* \"#utility.yul\":962:1023   */\n  tag_26\n    /* \"#utility.yul\":1015:1022   */\n  dup5\n    /* \"#utility.yul\":1006:1012   */\n  dup3\n    /* \"#utility.yul\":995:1004   */\n  dup6\n    /* \"#utility.yul\":991:1013   */\n  add\n    /* \"#utility.yul\":962:1023   */\n  tag_12\n  jump\t// in\ntag_26:\n    /* \"#utility.yul\":952:1023   */\n  swap2\n  pop\n    /* \"#utility.yul\":908:1033   */\n  pop\n    /* \"#utility.yul\":695:1040   */\n  swap3\n  swap2\n  pop\n  pop\n  jump\t// out\n    /* \"contracts/AutionFactory.sol\":299:3613  contract AutionFactory is IAutionFactory {... */\ntag_6:\n  dataSize(sub_0)\n  dup1\n  dataOffset(sub_0)\n  0x00\n  codecopy\n  0x00\n  return\nstop\n\nsub_0: assembly {\n        /* \"contracts/AutionFactory.sol\":299:3613  contract AutionFactory is IAutionFactory {... */\n      mstore(0x40, 0x80)\n      callvalue\n      dup1\n      iszero\n      tag_1\n      jumpi\n      revert(0x00, 0x00)\n    tag_1:\n      pop\n      jumpi(tag_2, lt(calldatasize, 0x04))\n      shr(0xe0, calldataload(0x00))\n      dup1\n      0x697b6a07\n      gt\n      tag_10\n      jumpi\n      dup1\n      0x697b6a07\n      eq\n      tag_6\n      jumpi\n      dup1\n      0x72ccb1a3\n      eq\n      tag_7\n      jumpi\n      dup1\n      0xc01895bb\n      eq\n      tag_8\n      jumpi\n      dup1\n      0xd0ff630f\n      eq\n      tag_9\n      jumpi\n      jump(tag_2)\n    tag_10:\n      dup1\n      0x135597fd\n      eq\n      tag_3\n      jumpi\n      dup1\n      0x1ca54219\n      eq\n      tag_4\n      jumpi\n      dup1\n      0x6097ee20\n      eq\n      tag_5\n      jumpi\n    tag_2:\n      revert(0x00, 0x00)\n        /* \"contracts/AutionFactory.sol\":2952:3314  function formatLinkToUsdtPrice(uint256 amount) public view override returns(uint256) {... */\n    tag_3:\n      tag_11\n      0x04\n      dup1\n      calldatasize\n      sub\n      dup2\n      add\n      swap1\n      tag_12\n      swap2\n      swap1\n      tag_13\n      jump\t// in\n    tag_12:\n      tag_14\n      jump\t// in\n    tag_11:\n      mload(0x40)\n      tag_15\n      swap2\n      swap1\n      tag_16\n      jump\t// in\n    tag_15:\n      mload(0x40)\n      dup1\n      swap2\n      sub\n      swap1\n      return\n        /* \"contracts/AutionFactory.sol\":2602:2915  function autionEnd(address autionAddress) external override {... */\n    tag_4:\n      tag_17\n      0x04\n      dup1\n      calldatasize\n      sub\n      dup2\n      add\n      swap1\n      tag_18\n      swap2\n      swap1\n      tag_19\n      jump\t// in\n    tag_18:\n      tag_20\n      jump\t// in\n    tag_17:\n      stop\n        /* \"contracts/AutionFactory.sol\":2443:2567  function getAutionContract(uint256 _autionId) public view returns (address) {... */\n    tag_5:\n      tag_21\n      0x04\n      dup1\n      calldatasize\n      sub\n      dup2\n      add\n      swap1\n      tag_22\n      swap2\n      swap1\n      tag_13\n      jump\t// in\n    tag_22:\n      tag_23\n      jump\t// in\n    tag_21:\n      mload(0x40)\n      tag_24\n      swap2\n      swap1\n      tag_25\n      jump\t// in\n    tag_24:\n      mload(0x40)\n      dup1\n      swap2\n      sub\n      swap1\n      return\n        /* \"contracts/AutionFactory.sol\":2292:2388  function getAutionCount() public view returns (uint256) {... */\n    tag_6:\n      tag_26\n      tag_27\n      jump\t// in\n    tag_26:\n      mload(0x40)\n      tag_28\n      swap2\n      swap1\n      tag_16\n      jump\t// in\n    tag_28:\n      mload(0x40)\n      dup1\n      swap2\n      sub\n      swap1\n      return\n        /* \"contracts/AutionFactory.sol\":370:394  address[] public autions */\n    tag_7:\n      tag_29\n      0x04\n      dup1\n      calldatasize\n      sub\n      dup2\n      add\n      swap1\n      tag_30\n      swap2\n      swap1\n      tag_13\n      jump\t// in\n    tag_30:\n      tag_31\n      jump\t// in\n    tag_29:\n      mload(0x40)\n      tag_32\n      swap2\n      swap1\n      tag_25\n      jump\t// in\n    tag_32:\n      mload(0x40)\n      dup1\n      swap2\n      sub\n      swap1\n      return\n        /* \"contracts/AutionFactory.sol\":3350:3610  function formatEthToUsdtPrice(uint256 amount) public view override returns(uint256) {... */\n    tag_8:\n      tag_33\n      0x04\n      dup1\n      calldatasize\n      sub\n      dup2\n      add\n      swap1\n      tag_34\n      swap2\n      swap1\n      tag_13\n      jump\t// in\n    tag_34:\n      tag_35\n      jump\t// in\n    tag_33:\n      mload(0x40)\n      tag_36\n      swap2\n      swap1\n      tag_16\n      jump\t// in\n    tag_36:\n      mload(0x40)\n      dup1\n      swap2\n      sub\n      swap1\n      return\n        /* \"contracts/AutionFactory.sol\":1315:2251  function createAution(... */\n    tag_9:\n      tag_37\n      0x04\n      dup1\n      calldatasize\n      sub\n      dup2\n      add\n      swap1\n      tag_38\n      swap2\n      swap1\n      tag_39\n      jump\t// in\n    tag_38:\n      tag_40\n      jump\t// in\n    tag_37:\n      mload(0x40)\n      tag_41\n      swap2\n      swap1\n      tag_16\n      jump\t// in\n    tag_41:\n      mload(0x40)\n      dup1\n      swap2\n      sub\n      swap1\n      return\n        /* \"contracts/AutionFactory.sol\":2952:3314  function formatLinkToUsdtPrice(uint256 amount) public view override returns(uint256) {... */\n    tag_14:\n        /* \"contracts/AutionFactory.sol\":3028:3035  uint256 */\n      0x00\n        /* \"contracts/AutionFactory.sol\":3052:3062  _isHardHat */\n      0x06\n      0x14\n      swap1\n      sload\n      swap1\n      0x0100\n      exp\n      swap1\n      div\n      0xff\n      and\n        /* \"contracts/AutionFactory.sol\":3048:3128  if (_isHardHat) {... */\n      iszero\n      tag_43\n      jumpi\n        /* \"contracts/AutionFactory.sol\":3103:3115  276869763895 */\n      0x4076b95337\n        /* \"contracts/AutionFactory.sol\":3086:3092  amount */\n      dup3\n        /* \"contracts/AutionFactory.sol\":3086:3116  amount * uint256(276869763895) */\n      tag_44\n      swap2\n      swap1\n      tag_45\n      jump\t// in\n    tag_44:\n        /* \"contracts/AutionFactory.sol\":3079:3116  return amount * uint256(276869763895) */\n      swap1\n      pop\n      jump(tag_42)\n        /* \"contracts/AutionFactory.sol\":3048:3128  if (_isHardHat) {... */\n    tag_43:\n        /* \"contracts/AutionFactory.sol\":3148:3179  AggregatorV3Interface priceFeed */\n      0x00\n        /* \"contracts/AutionFactory.sol\":3182:3193  _priceFeeds */\n      0x04\n        /* \"contracts/AutionFactory.sol\":3182:3206  _priceFeeds[linkAddress] */\n      0x00\n        /* \"contracts/AutionFactory.sol\":3194:3205  linkAddress */\n      0x05\n      0x00\n      swap1\n      sload\n      swap1\n      0x0100\n      exp\n      swap1\n      div\n      0xffffffffffffffffffffffffffffffffffffffff\n      and\n        /* \"contracts/AutionFactory.sol\":3182:3206  _priceFeeds[linkAddress] */\n      0xffffffffffffffffffffffffffffffffffffffff\n      and\n      0xffffffffffffffffffffffffffffffffffffffff\n      and\n      dup2\n      mstore\n      0x20\n      add\n      swap1\n      dup2\n      mstore\n      0x20\n      add\n      0x00\n      keccak256\n      0x00\n      swap1\n      sload\n      swap1\n      0x0100\n      exp\n      swap1\n      div\n      0xffffffffffffffffffffffffffffffffffffffff\n      and\n        /* \"contracts/AutionFactory.sol\":3148:3206  AggregatorV3Interface priceFeed = _priceFeeds[linkAddress] */\n      swap1\n      pop\n        /* \"contracts/AutionFactory.sol\":3219:3231  int256 price */\n      0x00\n        /* \"contracts/AutionFactory.sol\":3238:3247  priceFeed */\n      dup2\n        /* \"contracts/AutionFactory.sol\":3238:3263  priceFeed.latestRoundData */\n      0xffffffffffffffffffffffffffffffffffffffff\n      and\n      0xfeaf968c\n        /* \"contracts/AutionFactory.sol\":3238:3265  priceFeed.latestRoundData() */\n      mload(0x40)\n      dup2\n      0xffffffff\n      and\n      0xe0\n      shl\n      dup2\n      mstore\n      0x04\n      add\n      0xa0\n      mload(0x40)\n      dup1\n      dup4\n      sub\n      dup2\n      dup7\n      gas\n      staticcall\n      iszero\n      dup1\n      iszero\n      tag_47\n      jumpi\n      returndatacopy(0x00, 0x00, returndatasize)\n      revert(0x00, returndatasize)\n    tag_47:\n      pop\n      pop\n      pop\n      pop\n      mload(0x40)\n      returndatasize\n      not(0x1f)\n      0x1f\n      dup3\n      add\n      and\n      dup3\n      add\n      dup1\n      0x40\n      mstore\n      pop\n      dup2\n      add\n      swap1\n      tag_48\n      swap2\n      swap1\n      tag_49\n      jump\t// in\n    tag_48:\n        /* \"contracts/AutionFactory.sol\":3217:3265  (,int256 price,,,) = priceFeed.latestRoundData() */\n      pop\n      pop\n      pop\n      swap2\n      pop\n      pop\n        /* \"contracts/AutionFactory.sol\":3300:3305  price */\n      dup1\n        /* \"contracts/AutionFactory.sol\":3283:3289  amount */\n      dup5\n        /* \"contracts/AutionFactory.sol\":3283:3306  amount * uint256(price) */\n      tag_50\n      swap2\n      swap1\n      tag_45\n      jump\t// in\n    tag_50:\n        /* \"contracts/AutionFactory.sol\":3276:3306  return amount * uint256(price) */\n      swap3\n      pop\n      pop\n      pop\n        /* \"contracts/AutionFactory.sol\":2952:3314  function formatLinkToUsdtPrice(uint256 amount) public view override returns(uint256) {... */\n    tag_42:\n      swap2\n      swap1\n      pop\n      jump\t// out\n        /* \"contracts/AutionFactory.sol\":2602:2915  function autionEnd(address autionAddress) external override {... */\n    tag_20:\n        /* \"contracts/AutionFactory.sol\":2678:2687  uint256 i */\n      0x00\n        /* \"contracts/AutionFactory.sol\":2690:2691  0 */\n      0x00\n        /* \"contracts/AutionFactory.sol\":2678:2691  uint256 i = 0 */\n      swap1\n      pop\n        /* \"contracts/AutionFactory.sol\":2673:2908  for (uint256 i = 0; i < autions.length; i++) {... */\n    tag_52:\n        /* \"contracts/AutionFactory.sol\":2697:2704  autions */\n      0x00\n        /* \"contracts/AutionFactory.sol\":2697:2711  autions.length */\n      dup1\n      sload\n      swap1\n      pop\n        /* \"contracts/AutionFactory.sol\":2693:2694  i */\n      dup2\n        /* \"contracts/AutionFactory.sol\":2693:2711  i < autions.length */\n      lt\n        /* \"contracts/AutionFactory.sol\":2673:2908  for (uint256 i = 0; i < autions.length; i++) {... */\n      iszero\n      tag_53\n      jumpi\n        /* \"contracts/AutionFactory.sol\":2751:2764  autionAddress */\n      dup2\n        /* \"contracts/AutionFactory.sol\":2737:2764  autions[i] == autionAddress */\n      0xffffffffffffffffffffffffffffffffffffffff\n      and\n        /* \"contracts/AutionFactory.sol\":2737:2744  autions */\n      0x00\n        /* \"contracts/AutionFactory.sol\":2745:2746  i */\n      dup3\n        /* \"contracts/AutionFactory.sol\":2737:2747  autions[i] */\n      dup2\n      sload\n      dup2\n      lt\n      tag_55\n      jumpi\n      tag_56\n      tag_57\n      jump\t// in\n    tag_56:\n    tag_55:\n      swap1\n      0x00\n      mstore\n      keccak256(0x00, 0x20)\n      add\n      0x00\n      swap1\n      sload\n      swap1\n      0x0100\n      exp\n      swap1\n      div\n      0xffffffffffffffffffffffffffffffffffffffff\n      and\n        /* \"contracts/AutionFactory.sol\":2737:2764  autions[i] == autionAddress */\n      0xffffffffffffffffffffffffffffffffffffffff\n      and\n      sub\n        /* \"contracts/AutionFactory.sol\":2733:2897  if (autions[i] == autionAddress) {... */\n      tag_59\n      jumpi\n        /* \"contracts/AutionFactory.sol\":2798:2805  autions */\n      0x00\n        /* \"contracts/AutionFactory.sol\":2823:2824  1 */\n      0x01\n        /* \"contracts/AutionFactory.sol\":2806:2813  autions */\n      0x00\n        /* \"contracts/AutionFactory.sol\":2806:2820  autions.length */\n      dup1\n      sload\n      swap1\n      pop\n        /* \"contracts/AutionFactory.sol\":2806:2824  autions.length - 1 */\n      tag_60\n      swap2\n      swap1\n      tag_61\n      jump\t// in\n    tag_60:\n        /* \"contracts/AutionFactory.sol\":2798:2825  autions[autions.length - 1] */\n      dup2\n      sload\n      dup2\n      lt\n      tag_62\n      jumpi\n      tag_63\n      tag_57\n      jump\t// in\n    tag_63:\n    tag_62:\n      swap1\n      0x00\n      mstore\n      keccak256(0x00, 0x20)\n      add\n      0x00\n      swap1\n      sload\n      swap1\n      0x0100\n      exp\n      swap1\n      div\n      0xffffffffffffffffffffffffffffffffffffffff\n      and\n        /* \"contracts/AutionFactory.sol\":2785:2792  autions */\n      0x00\n        /* \"contracts/AutionFactory.sol\":2793:2794  i */\n      dup3\n        /* \"contracts/AutionFactory.sol\":2785:2795  autions[i] */\n      dup2\n      sload\n      dup2\n      lt\n      tag_65\n      jumpi\n      tag_66\n      tag_57\n      jump\t// in\n    tag_66:\n    tag_65:\n      swap1\n      0x00\n      mstore\n      keccak256(0x00, 0x20)\n      add\n      0x00\n        /* \"contracts/AutionFactory.sol\":2785:2825  autions[i] = autions[autions.length - 1] */\n      0x0100\n      exp\n      dup2\n      sload\n      dup2\n      0xffffffffffffffffffffffffffffffffffffffff\n      mul\n      not\n      and\n      swap1\n      dup4\n      0xffffffffffffffffffffffffffffffffffffffff\n      and\n      mul\n      or\n      swap1\n      sstore\n      pop\n        /* \"contracts/AutionFactory.sol\":2844:2851  autions */\n      0x00\n        /* \"contracts/AutionFactory.sol\":2844:2857  autions.pop() */\n      dup1\n      sload\n      dup1\n      tag_68\n      jumpi\n      tag_69\n      tag_70\n      jump\t// in\n    tag_69:\n    tag_68:\n      0x01\n      swap1\n      sub\n      dup2\n      dup2\n      swap1\n      0x00\n      mstore\n      keccak256(0x00, 0x20)\n      add\n      exp(0x0100, 0x00)\n      dup2\n      sload\n      swap1\n      0xffffffffffffffffffffffffffffffffffffffff\n      mul\n      not\n      and\n      swap1\n      sstore\n      swap1\n      sstore\n        /* \"contracts/AutionFactory.sol\":2876:2881  break */\n      jump(tag_53)\n        /* \"contracts/AutionFactory.sol\":2733:2897  if (autions[i] == autionAddress) {... */\n    tag_59:\n        /* \"contracts/AutionFactory.sol\":2713:2716  i++ */\n      dup1\n      dup1\n      0x01\n      add\n      swap2\n      pop\n      pop\n        /* \"contracts/AutionFactory.sol\":2673:2908  for (uint256 i = 0; i < autions.length; i++) {... */\n      jump(tag_52)\n    tag_53:\n      pop\n        /* \"contracts/AutionFactory.sol\":2602:2915  function autionEnd(address autionAddress) external override {... */\n      pop\n      jump\t// out\n        /* \"contracts/AutionFactory.sol\":2443:2567  function getAutionContract(uint256 _autionId) public view returns (address) {... */\n    tag_23:\n        /* \"contracts/AutionFactory.sol\":2510:2517  address */\n      0x00\n        /* \"contracts/AutionFactory.sol\":2537:2548  _autionData */\n      0x03\n        /* \"contracts/AutionFactory.sol\":2537:2559  _autionData[_autionId] */\n      0x00\n        /* \"contracts/AutionFactory.sol\":2549:2558  _autionId */\n      dup4\n        /* \"contracts/AutionFactory.sol\":2537:2559  _autionData[_autionId] */\n      dup2\n      mstore\n      0x20\n      add\n      swap1\n      dup2\n      mstore\n      0x20\n      add\n      0x00\n      keccak256\n      0x00\n      swap1\n      sload\n      swap1\n      0x0100\n      exp\n      swap1\n      div\n      0xffffffffffffffffffffffffffffffffffffffff\n      and\n        /* \"contracts/AutionFactory.sol\":2530:2559  return _autionData[_autionId] */\n      swap1\n      pop\n        /* \"contracts/AutionFactory.sol\":2443:2567  function getAutionContract(uint256 _autionId) public view returns (address) {... */\n      swap2\n      swap1\n      pop\n      jump\t// out\n        /* \"contracts/AutionFactory.sol\":2292:2388  function getAutionCount() public view returns (uint256) {... */\n    tag_27:\n        /* \"contracts/AutionFactory.sol\":2339:2346  uint256 */\n      0x00\n        /* \"contracts/AutionFactory.sol\":2366:2373  autions */\n      0x00\n        /* \"contracts/AutionFactory.sol\":2366:2380  autions.length */\n      dup1\n      sload\n      swap1\n      pop\n        /* \"contracts/AutionFactory.sol\":2359:2380  return autions.length */\n      swap1\n      pop\n        /* \"contracts/AutionFactory.sol\":2292:2388  function getAutionCount() public view returns (uint256) {... */\n      swap1\n      jump\t// out\n        /* \"contracts/AutionFactory.sol\":370:394  address[] public autions */\n    tag_31:\n      0x00\n      dup2\n      dup2\n      sload\n      dup2\n      lt\n      tag_74\n      jumpi\n      0x00\n      dup1\n      revert\n    tag_74:\n      swap1\n      0x00\n      mstore\n      keccak256(0x00, 0x20)\n      add\n      0x00\n      swap2\n      pop\n      sload\n      swap1\n      0x0100\n      exp\n      swap1\n      div\n      0xffffffffffffffffffffffffffffffffffffffff\n      and\n      dup2\n      jump\t// out\n        /* \"contracts/AutionFactory.sol\":3350:3610  function formatEthToUsdtPrice(uint256 amount) public view override returns(uint256) {... */\n    tag_35:\n        /* \"contracts/AutionFactory.sol\":3425:3432  uint256 */\n      0x00\n        /* \"contracts/AutionFactory.sol\":3445:3476  AggregatorV3Interface priceFeed */\n      0x00\n        /* \"contracts/AutionFactory.sol\":3479:3490  _priceFeeds */\n      0x04\n        /* \"contracts/AutionFactory.sol\":3479:3502  _priceFeeds[ethAddress] */\n      0x00\n        /* \"contracts/AutionFactory.sol\":3491:3501  ethAddress */\n      0x06\n      0x00\n      swap1\n      sload\n      swap1\n      0x0100\n      exp\n      swap1\n      div\n      0xffffffffffffffffffffffffffffffffffffffff\n      and\n        /* \"contracts/AutionFactory.sol\":3479:3502  _priceFeeds[ethAddress] */\n      0xffffffffffffffffffffffffffffffffffffffff\n      and\n      0xffffffffffffffffffffffffffffffffffffffff\n      and\n      dup2\n      mstore\n      0x20\n      add\n      swap1\n      dup2\n      mstore\n      0x20\n      add\n      0x00\n      keccak256\n      0x00\n      swap1\n      sload\n      swap1\n      0x0100\n      exp\n      swap1\n      div\n      0xffffffffffffffffffffffffffffffffffffffff\n      and\n        /* \"contracts/AutionFactory.sol\":3445:3502  AggregatorV3Interface priceFeed = _priceFeeds[ethAddress] */\n      swap1\n      pop\n        /* \"contracts/AutionFactory.sol\":3515:3527  int256 price */\n      0x00\n        /* \"contracts/AutionFactory.sol\":3534:3543  priceFeed */\n      dup2\n        /* \"contracts/AutionFactory.sol\":3534:3559  priceFeed.latestRoundData */\n      0xffffffffffffffffffffffffffffffffffffffff\n      and\n      0xfeaf968c\n        /* \"contracts/AutionFactory.sol\":3534:3561  priceFeed.latestRoundData() */\n      mload(0x40)\n      dup2\n      0xffffffff\n      and\n      0xe0\n      shl\n      dup2\n      mstore\n      0x04\n      add\n      0xa0\n      mload(0x40)\n      dup1\n      dup4\n      sub\n      dup2\n      dup7\n      gas\n      staticcall\n      iszero\n      dup1\n      iszero\n      tag_78\n      jumpi\n      returndatacopy(0x00, 0x00, returndatasize)\n      revert(0x00, returndatasize)\n    tag_78:\n      pop\n      pop\n      pop\n      pop\n      mload(0x40)\n      returndatasize\n      not(0x1f)\n      0x1f\n      dup3\n      add\n      and\n      dup3\n      add\n      dup1\n      0x40\n      mstore\n      pop\n      dup2\n      add\n      swap1\n      tag_79\n      swap2\n      swap1\n      tag_49\n      jump\t// in\n    tag_79:\n        /* \"contracts/AutionFactory.sol\":3513:3561  (,int256 price,,,) = priceFeed.latestRoundData() */\n      pop\n      pop\n      pop\n      swap2\n      pop\n      pop\n        /* \"contracts/AutionFactory.sol\":3596:3601  price */\n      dup1\n        /* \"contracts/AutionFactory.sol\":3579:3585  amount */\n      dup5\n        /* \"contracts/AutionFactory.sol\":3579:3602  amount * uint256(price) */\n      tag_80\n      swap2\n      swap1\n      tag_45\n      jump\t// in\n    tag_80:\n        /* \"contracts/AutionFactory.sol\":3572:3602  return amount * uint256(price) */\n      swap3\n      pop\n      pop\n      pop\n        /* \"contracts/AutionFactory.sol\":3350:3610  function formatEthToUsdtPrice(uint256 amount) public view override returns(uint256) {... */\n      swap2\n      swap1\n      pop\n      jump\t// out\n        /* \"contracts/AutionFactory.sol\":1315:2251  function createAution(... */\n    tag_40:\n        /* \"contracts/AutionFactory.sol\":1481:1488  uint256 */\n      0x00\n        /* \"contracts/AutionFactory.sol\":1501:1514  Aution aution */\n      0x00\n        /* \"contracts/AutionFactory.sol\":1517:1529  new Aution() */\n      mload(0x40)\n      tag_82\n      swap1\n      tag_83\n      jump\t// in\n    tag_82:\n      mload(0x40)\n      dup1\n      swap2\n      sub\n      swap1\n      0x00\n      create\n      dup1\n      iszero\n      dup1\n      iszero\n      tag_84\n      jumpi\n      returndatacopy(0x00, 0x00, returndatasize)\n      revert(0x00, returndatasize)\n    tag_84:\n      pop\n        /* \"contracts/AutionFactory.sol\":1501:1529  Aution aution = new Aution() */\n      swap1\n      pop\n        /* \"contracts/AutionFactory.sol\":1542:1568  uint256 _startingPriceUsdt */\n      0x00\n        /* \"contracts/AutionFactory.sol\":1571:1607  formatEthToUsdtPrice(_startingPrice) */\n      tag_85\n        /* \"contracts/AutionFactory.sol\":1592:1606  _startingPrice */\n      dup6\n        /* \"contracts/AutionFactory.sol\":1571:1591  formatEthToUsdtPrice */\n      tag_35\n        /* \"contracts/AutionFactory.sol\":1571:1607  formatEthToUsdtPrice(_startingPrice) */\n      jump\t// in\n    tag_85:\n        /* \"contracts/AutionFactory.sol\":1542:1607  uint256 _startingPriceUsdt = formatEthToUsdtPrice(_startingPrice) */\n      swap1\n      pop\n        /* \"contracts/AutionFactory.sol\":1620:1626  aution */\n      dup2\n        /* \"contracts/AutionFactory.sol\":1620:1637  aution.initialize */\n      0xffffffffffffffffffffffffffffffffffffffff\n      and\n      0x86489ba9\n        /* \"contracts/AutionFactory.sol\":1652:1662  msg.sender */\n      caller\n        /* \"contracts/AutionFactory.sol\":1677:1689  _nftContract */\n      dup10\n        /* \"contracts/AutionFactory.sol\":1704:1715  _nftTokenId */\n      dup10\n        /* \"contracts/AutionFactory.sol\":1730:1748  _startingPriceUsdt */\n      dup6\n        /* \"contracts/AutionFactory.sol\":1763:1778  block.timestamp */\n      timestamp\n        /* \"contracts/AutionFactory.sol\":1793:1801  _duraion */\n      dup11\n        /* \"contracts/AutionFactory.sol\":1620:1812  aution.initialize(... */\n      mload(0x40)\n      dup8\n      0xffffffff\n      and\n      0xe0\n      shl\n      dup2\n      mstore\n      0x04\n      add\n      tag_86\n      swap7\n      swap6\n      swap5\n      swap4\n      swap3\n      swap2\n      swap1\n      tag_87\n      jump\t// in\n    tag_86:\n      0x00\n      mload(0x40)\n      dup1\n      dup4\n      sub\n      dup2\n      0x00\n      dup8\n      dup1\n      extcodesize\n      iszero\n      dup1\n      iszero\n      tag_88\n      jumpi\n      revert(0x00, 0x00)\n    tag_88:\n      pop\n      gas\n      call\n      iszero\n      dup1\n      iszero\n      tag_90\n      jumpi\n      returndatacopy(0x00, 0x00, returndatasize)\n      revert(0x00, returndatasize)\n    tag_90:\n      pop\n      pop\n      pop\n      pop\n        /* \"contracts/AutionFactory.sol\":1864:1882  IERC721 nftContrac */\n      0x00\n        /* \"contracts/AutionFactory.sol\":1893:1905  _nftContract */\n      dup8\n        /* \"contracts/AutionFactory.sol\":1864:1906  IERC721 nftContrac = IERC721(_nftContract) */\n      swap1\n      pop\n        /* \"contracts/AutionFactory.sol\":1917:1927  nftContrac */\n      dup1\n        /* \"contracts/AutionFactory.sol\":1917:1940  nftContrac.transferFrom */\n      0xffffffffffffffffffffffffffffffffffffffff\n      and\n      0x23b872dd\n        /* \"contracts/AutionFactory.sol\":1941:1951  msg.sender */\n      caller\n        /* \"contracts/AutionFactory.sol\":1961:1967  aution */\n      dup6\n        /* \"contracts/AutionFactory.sol\":1970:1981  _nftTokenId */\n      dup11\n        /* \"contracts/AutionFactory.sol\":1917:1982  nftContrac.transferFrom(msg.sender, address(aution), _nftTokenId) */\n      mload(0x40)\n      dup5\n      0xffffffff\n      and\n      0xe0\n      shl\n      dup2\n      mstore\n      0x04\n      add\n      tag_91\n      swap4\n      swap3\n      swap2\n      swap1\n      tag_92\n      jump\t// in\n    tag_91:\n      0x00\n      mload(0x40)\n      dup1\n      dup4\n      sub\n      dup2\n      0x00\n      dup8\n      dup1\n      extcodesize\n      iszero\n      dup1\n      iszero\n      tag_93\n      jumpi\n      revert(0x00, 0x00)\n    tag_93:\n      pop\n      gas\n      call\n      iszero\n      dup1\n      iszero\n      tag_95\n      jumpi\n      returndatacopy(0x00, 0x00, returndatasize)\n      revert(0x00, returndatasize)\n    tag_95:\n      pop\n      pop\n      pop\n      pop\n        /* \"contracts/AutionFactory.sol\":1995:2016  address autionAddress */\n      0x00\n        /* \"contracts/AutionFactory.sol\":2027:2033  aution */\n      dup4\n        /* \"contracts/AutionFactory.sol\":1995:2034  address autionAddress = address(aution) */\n      swap1\n      pop\n        /* \"contracts/AutionFactory.sol\":2047:2054  autions */\n      0x00\n        /* \"contracts/AutionFactory.sol\":2060:2073  autionAddress */\n      dup2\n        /* \"contracts/AutionFactory.sol\":2047:2074  autions.push(autionAddress) */\n      swap1\n      dup1\n      0x01\n      dup2\n      sload\n      add\n      dup1\n      dup3\n      sstore\n      dup1\n      swap2\n      pop\n      pop\n      0x01\n      swap1\n      sub\n      swap1\n      0x00\n      mstore\n      keccak256(0x00, 0x20)\n      add\n      0x00\n      swap1\n      swap2\n      swap1\n      swap2\n      swap1\n      swap2\n      0x0100\n      exp\n      dup2\n      sload\n      dup2\n      0xffffffffffffffffffffffffffffffffffffffff\n      mul\n      not\n      and\n      swap1\n      dup4\n      0xffffffffffffffffffffffffffffffffffffffff\n      and\n      mul\n      or\n      swap1\n      sstore\n      pop\n        /* \"contracts/AutionFactory.sol\":2087:2103  uint256 autionId */\n      0x00\n        /* \"contracts/AutionFactory.sol\":2106:2119  _nextAutionId */\n      0x02\n      0x00\n        /* \"contracts/AutionFactory.sol\":2106:2121  _nextAutionId++ */\n      dup2\n      sload\n      dup1\n      swap3\n      swap2\n      swap1\n      tag_97\n      swap1\n      tag_98\n      jump\t// in\n    tag_97:\n      swap2\n      swap1\n      pop\n      sstore\n        /* \"contracts/AutionFactory.sol\":2087:2121  uint256 autionId = _nextAutionId++ */\n      swap1\n      pop\n        /* \"contracts/AutionFactory.sol\":2156:2169  autionAddress */\n      dup2\n        /* \"contracts/AutionFactory.sol\":2132:2143  _autionData */\n      0x03\n        /* \"contracts/AutionFactory.sol\":2132:2153  _autionData[autionId] */\n      0x00\n        /* \"contracts/AutionFactory.sol\":2144:2152  autionId */\n      dup4\n        /* \"contracts/AutionFactory.sol\":2132:2153  _autionData[autionId] */\n      dup2\n      mstore\n      0x20\n      add\n      swap1\n      dup2\n      mstore\n      0x20\n      add\n      0x00\n      keccak256\n      0x00\n        /* \"contracts/AutionFactory.sol\":2132:2169  _autionData[autionId] = autionAddress */\n      0x0100\n      exp\n      dup2\n      sload\n      dup2\n      0xffffffffffffffffffffffffffffffffffffffff\n      mul\n      not\n      and\n      swap1\n      dup4\n      0xffffffffffffffffffffffffffffffffffffffff\n      and\n      mul\n      or\n      swap1\n      sstore\n      pop\n        /* \"contracts/AutionFactory.sol\":2201:2214  autionAddress */\n      dup2\n        /* \"contracts/AutionFactory.sol\":2187:2215  AutionCreated(autionAddress) */\n      0xffffffffffffffffffffffffffffffffffffffff\n      and\n      0x4b8c8dcac8794b5842d188a3bfaf7638b7a8eb60800ea3bc9bb18398a352fafb\n      mload(0x40)\n      mload(0x40)\n      dup1\n      swap2\n      sub\n      swap1\n      log2\n        /* \"contracts/AutionFactory.sol\":2235:2243  autionId */\n      dup1\n        /* \"contracts/AutionFactory.sol\":2228:2243  return autionId */\n      swap6\n      pop\n      pop\n      pop\n      pop\n      pop\n      pop\n        /* \"contracts/AutionFactory.sol\":1315:2251  function createAution(... */\n      swap5\n      swap4\n      pop\n      pop\n      pop\n      pop\n      jump\t// out\n    tag_83:\n      dataSize(sub_0)\n      dup1\n      dataOffset(sub_0)\n      dup4\n      codecopy\n      add\n      swap1\n      jump\t// out\n        /* \"#utility.yul\":88:205   */\n    tag_100:\n        /* \"#utility.yul\":197:198   */\n      0x00\n        /* \"#utility.yul\":194:195   */\n      0x00\n        /* \"#utility.yul\":187:199   */\n      revert\n        /* \"#utility.yul\":334:411   */\n    tag_102:\n        /* \"#utility.yul\":371:378   */\n      0x00\n        /* \"#utility.yul\":400:405   */\n      dup2\n        /* \"#utility.yul\":389:405   */\n      swap1\n      pop\n        /* \"#utility.yul\":334:411   */\n      swap2\n      swap1\n      pop\n      jump\t// out\n        /* \"#utility.yul\":417:539   */\n    tag_103:\n        /* \"#utility.yul\":490:514   */\n      tag_125\n        /* \"#utility.yul\":508:513   */\n      dup2\n        /* \"#utility.yul\":490:514   */\n      tag_102\n      jump\t// in\n    tag_125:\n        /* \"#utility.yul\":483:488   */\n      dup2\n        /* \"#utility.yul\":480:515   */\n      eq\n        /* \"#utility.yul\":470:533   */\n      tag_126\n      jumpi\n        /* \"#utility.yul\":529:530   */\n      0x00\n        /* \"#utility.yul\":526:527   */\n      0x00\n        /* \"#utility.yul\":519:531   */\n      revert\n        /* \"#utility.yul\":470:533   */\n    tag_126:\n        /* \"#utility.yul\":417:539   */\n      pop\n      jump\t// out\n        /* \"#utility.yul\":545:684   */\n    tag_104:\n        /* \"#utility.yul\":591:596   */\n      0x00\n        /* \"#utility.yul\":629:635   */\n      dup2\n        /* \"#utility.yul\":616:636   */\n      calldataload\n        /* \"#utility.yul\":607:636   */\n      swap1\n      pop\n        /* \"#utility.yul\":645:678   */\n      tag_128\n        /* \"#utility.yul\":672:677   */\n      dup2\n        /* \"#utility.yul\":645:678   */\n      tag_103\n      jump\t// in\n    tag_128:\n        /* \"#utility.yul\":545:684   */\n      swap3\n      swap2\n      pop\n      pop\n      jump\t// out\n        /* \"#utility.yul\":690:1019   */\n    tag_13:\n        /* \"#utility.yul\":749:755   */\n      0x00\n        /* \"#utility.yul\":798:800   */\n      0x20\n        /* \"#utility.yul\":786:795   */\n      dup3\n        /* \"#utility.yul\":777:784   */\n      dup5\n        /* \"#utility.yul\":773:796   */\n      sub\n        /* \"#utility.yul\":769:801   */\n      slt\n        /* \"#utility.yul\":766:885   */\n      iszero\n      tag_130\n      jumpi\n        /* \"#utility.yul\":804:883   */\n      tag_131\n      tag_100\n      jump\t// in\n    tag_131:\n        /* \"#utility.yul\":766:885   */\n    tag_130:\n        /* \"#utility.yul\":924:925   */\n      0x00\n        /* \"#utility.yul\":949:1002   */\n      tag_132\n        /* \"#utility.yul\":994:1001   */\n      dup5\n        /* \"#utility.yul\":985:991   */\n      dup3\n        /* \"#utility.yul\":974:983   */\n      dup6\n        /* \"#utility.yul\":970:992   */\n      add\n        /* \"#utility.yul\":949:1002   */\n      tag_104\n      jump\t// in\n    tag_132:\n        /* \"#utility.yul\":939:1002   */\n      swap2\n      pop\n        /* \"#utility.yul\":895:1012   */\n      pop\n        /* \"#utility.yul\":690:1019   */\n      swap3\n      swap2\n      pop\n      pop\n      jump\t// out\n        /* \"#utility.yul\":1025:1143   */\n    tag_105:\n        /* \"#utility.yul\":1112:1136   */\n      tag_134\n        /* \"#utility.yul\":1130:1135   */\n      dup2\n        /* \"#utility.yul\":1112:1136   */\n      tag_102\n      jump\t// in\n    tag_134:\n        /* \"#utility.yul\":1107:1110   */\n      dup3\n        /* \"#utility.yul\":1100:1137   */\n      mstore\n        /* \"#utility.yul\":1025:1143   */\n      pop\n      pop\n      jump\t// out\n        /* \"#utility.yul\":1149:1371   */\n    tag_16:\n        /* \"#utility.yul\":1242:1246   */\n      0x00\n        /* \"#utility.yul\":1280:1282   */\n      0x20\n        /* \"#utility.yul\":1269:1278   */\n      dup3\n        /* \"#utility.yul\":1265:1283   */\n      add\n        /* \"#utility.yul\":1257:1283   */\n      swap1\n      pop\n        /* \"#utility.yul\":1293:1364   */\n      tag_136\n        /* \"#utility.yul\":1361:1362   */\n      0x00\n        /* \"#utility.yul\":1350:1359   */\n      dup4\n        /* \"#utility.yul\":1346:1363   */\n      add\n        /* \"#utility.yul\":1337:1343   */\n      dup5\n        /* \"#utility.yul\":1293:1364   */\n      tag_105\n      jump\t// in\n    tag_136:\n        /* \"#utility.yul\":1149:1371   */\n      swap3\n      swap2\n      pop\n      pop\n      jump\t// out\n        /* \"#utility.yul\":1377:1503   */\n    tag_106:\n        /* \"#utility.yul\":1414:1421   */\n      0x00\n        /* \"#utility.yul\":1454:1496   */\n      0xffffffffffffffffffffffffffffffffffffffff\n        /* \"#utility.yul\":1447:1452   */\n      dup3\n        /* \"#utility.yul\":1443:1497   */\n      and\n        /* \"#utility.yul\":1432:1497   */\n      swap1\n      pop\n        /* \"#utility.yul\":1377:1503   */\n      swap2\n      swap1\n      pop\n      jump\t// out\n        /* \"#utility.yul\":1509:1605   */\n    tag_107:\n        /* \"#utility.yul\":1546:1553   */\n      0x00\n        /* \"#utility.yul\":1575:1599   */\n      tag_139\n        /* \"#utility.yul\":1593:1598   */\n      dup3\n        /* \"#utility.yul\":1575:1599   */\n      tag_106\n      jump\t// in\n    tag_139:\n        /* \"#utility.yul\":1564:1599   */\n      swap1\n      pop\n        /* \"#utility.yul\":1509:1605   */\n      swap2\n      swap1\n      pop\n      jump\t// out\n        /* \"#utility.yul\":1611:1733   */\n    tag_108:\n        /* \"#utility.yul\":1684:1708   */\n      tag_141\n        /* \"#utility.yul\":1702:1707   */\n      dup2\n        /* \"#utility.yul\":1684:1708   */\n      tag_107\n      jump\t// in\n    tag_141:\n        /* \"#utility.yul\":1677:1682   */\n      dup2\n        /* \"#utility.yul\":1674:1709   */\n      eq\n        /* \"#utility.yul\":1664:1727   */\n      tag_142\n      jumpi\n        /* \"#utility.yul\":1723:1724   */\n      0x00\n        /* \"#utility.yul\":1720:1721   */\n      0x00\n        /* \"#utility.yul\":1713:1725   */\n      revert\n        /* \"#utility.yul\":1664:1727   */\n    tag_142:\n        /* \"#utility.yul\":1611:1733   */\n      pop\n      jump\t// out\n        /* \"#utility.yul\":1739:1878   */\n    tag_109:\n        /* \"#utility.yul\":1785:1790   */\n      0x00\n        /* \"#utility.yul\":1823:1829   */\n      dup2\n        /* \"#utility.yul\":1810:1830   */\n      calldataload\n        /* \"#utility.yul\":1801:1830   */\n      swap1\n      pop\n        /* \"#utility.yul\":1839:1872   */\n      tag_144\n        /* \"#utility.yul\":1866:1871   */\n      dup2\n        /* \"#utility.yul\":1839:1872   */\n      tag_108\n      jump\t// in\n    tag_144:\n        /* \"#utility.yul\":1739:1878   */\n      swap3\n      swap2\n      pop\n      pop\n      jump\t// out\n        /* \"#utility.yul\":1884:2213   */\n    tag_19:\n        /* \"#utility.yul\":1943:1949   */\n      0x00\n        /* \"#utility.yul\":1992:1994   */\n      0x20\n        /* \"#utility.yul\":1980:1989   */\n      dup3\n        /* \"#utility.yul\":1971:1978   */\n      dup5\n        /* \"#utility.yul\":1967:1990   */\n      sub\n        /* \"#utility.yul\":1963:1995   */\n      slt\n        /* \"#utility.yul\":1960:2079   */\n      iszero\n      tag_146\n      jumpi\n        /* \"#utility.yul\":1998:2077   */\n      tag_147\n      tag_100\n      jump\t// in\n    tag_147:\n        /* \"#utility.yul\":1960:2079   */\n    tag_146:\n        /* \"#utility.yul\":2118:2119   */\n      0x00\n        /* \"#utility.yul\":2143:2196   */\n      tag_148\n        /* \"#utility.yul\":2188:2195   */\n      dup5\n        /* \"#utility.yul\":2179:2185   */\n      dup3\n        /* \"#utility.yul\":2168:2177   */\n      dup6\n        /* \"#utility.yul\":2164:2186   */\n      add\n        /* \"#utility.yul\":2143:2196   */\n      tag_109\n      jump\t// in\n    tag_148:\n        /* \"#utility.yul\":2133:2196   */\n      swap2\n      pop\n        /* \"#utility.yul\":2089:2206   */\n      pop\n        /* \"#utility.yul\":1884:2213   */\n      swap3\n      swap2\n      pop\n      pop\n      jump\t// out\n        /* \"#utility.yul\":2219:2337   */\n    tag_110:\n        /* \"#utility.yul\":2306:2330   */\n      tag_150\n        /* \"#utility.yul\":2324:2329   */\n      dup2\n        /* \"#utility.yul\":2306:2330   */\n      tag_107\n      jump\t// in\n    tag_150:\n        /* \"#utility.yul\":2301:2304   */\n      dup3\n        /* \"#utility.yul\":2294:2331   */\n      mstore\n        /* \"#utility.yul\":2219:2337   */\n      pop\n      pop\n      jump\t// out\n        /* \"#utility.yul\":2343:2565   */\n    tag_25:\n        /* \"#utility.yul\":2436:2440   */\n      0x00\n        /* \"#utility.yul\":2474:2476   */\n      0x20\n        /* \"#utility.yul\":2463:2472   */\n      dup3\n        /* \"#utility.yul\":2459:2477   */\n      add\n        /* \"#utility.yul\":2451:2477   */\n      swap1\n      pop\n        /* \"#utility.yul\":2487:2558   */\n      tag_152\n        /* \"#utility.yul\":2555:2556   */\n      0x00\n        /* \"#utility.yul\":2544:2553   */\n      dup4\n        /* \"#utility.yul\":2540:2557   */\n      add\n        /* \"#utility.yul\":2531:2537   */\n      dup5\n        /* \"#utility.yul\":2487:2558   */\n      tag_110\n      jump\t// in\n    tag_152:\n        /* \"#utility.yul\":2343:2565   */\n      swap3\n      swap2\n      pop\n      pop\n      jump\t// out\n        /* \"#utility.yul\":2571:3336   */\n    tag_39:\n        /* \"#utility.yul\":2657:2663   */\n      0x00\n        /* \"#utility.yul\":2665:2671   */\n      0x00\n        /* \"#utility.yul\":2673:2679   */\n      0x00\n        /* \"#utility.yul\":2681:2687   */\n      0x00\n        /* \"#utility.yul\":2730:2733   */\n      0x80\n        /* \"#utility.yul\":2718:2727   */\n      dup6\n        /* \"#utility.yul\":2709:2716   */\n      dup8\n        /* \"#utility.yul\":2705:2728   */\n      sub\n        /* \"#utility.yul\":2701:2734   */\n      slt\n        /* \"#utility.yul\":2698:2818   */\n      iszero\n      tag_154\n      jumpi\n        /* \"#utility.yul\":2737:2816   */\n      tag_155\n      tag_100\n      jump\t// in\n    tag_155:\n        /* \"#utility.yul\":2698:2818   */\n    tag_154:\n        /* \"#utility.yul\":2857:2858   */\n      0x00\n        /* \"#utility.yul\":2882:2935   */\n      tag_156\n        /* \"#utility.yul\":2927:2934   */\n      dup8\n        /* \"#utility.yul\":2918:2924   */\n      dup3\n        /* \"#utility.yul\":2907:2916   */\n      dup9\n        /* \"#utility.yul\":2903:2925   */\n      add\n        /* \"#utility.yul\":2882:2935   */\n      tag_109\n      jump\t// in\n    tag_156:\n        /* \"#utility.yul\":2872:2935   */\n      swap5\n      pop\n        /* \"#utility.yul\":2828:2945   */\n      pop\n        /* \"#utility.yul\":2984:2986   */\n      0x20\n        /* \"#utility.yul\":3010:3063   */\n      tag_157\n        /* \"#utility.yul\":3055:3062   */\n      dup8\n        /* \"#utility.yul\":3046:3052   */\n      dup3\n        /* \"#utility.yul\":3035:3044   */\n      dup9\n        /* \"#utility.yul\":3031:3053   */\n      add\n        /* \"#utility.yul\":3010:3063   */\n      tag_104\n      jump\t// in\n    tag_157:\n        /* \"#utility.yul\":3000:3063   */\n      swap4\n      pop\n        /* \"#utility.yul\":2955:3073   */\n      pop\n        /* \"#utility.yul\":3112:3114   */\n      0x40\n        /* \"#utility.yul\":3138:3191   */\n      tag_158\n        /* \"#utility.yul\":3183:3190   */\n      dup8\n        /* \"#utility.yul\":3174:3180   */\n      dup3\n        /* \"#utility.yul\":3163:3172   */\n      dup9\n        /* \"#utility.yul\":3159:3181   */\n      add\n        /* \"#utility.yul\":3138:3191   */\n      tag_104\n      jump\t// in\n    tag_158:\n        /* \"#utility.yul\":3128:3191   */\n      swap3\n      pop\n        /* \"#utility.yul\":3083:3201   */\n      pop\n        /* \"#utility.yul\":3240:3242   */\n      0x60\n        /* \"#utility.yul\":3266:3319   */\n      tag_159\n        /* \"#utility.yul\":3311:3318   */\n      dup8\n        /* \"#utility.yul\":3302:3308   */\n      dup3\n        /* \"#utility.yul\":3291:3300   */\n      dup9\n        /* \"#utility.yul\":3287:3309   */\n      add\n        /* \"#utility.yul\":3266:3319   */\n      tag_104\n      jump\t// in\n    tag_159:\n        /* \"#utility.yul\":3256:3319   */\n      swap2\n      pop\n        /* \"#utility.yul\":3211:3329   */\n      pop\n        /* \"#utility.yul\":2571:3336   */\n      swap3\n      swap6\n      swap2\n      swap5\n      pop\n      swap3\n      pop\n      jump\t// out\n        /* \"#utility.yul\":3342:3522   */\n    tag_111:\n        /* \"#utility.yul\":3390:3467   */\n      0x4e487b7100000000000000000000000000000000000000000000000000000000\n        /* \"#utility.yul\":3387:3388   */\n      0x00\n        /* \"#utility.yul\":3380:3468   */\n      mstore\n        /* \"#utility.yul\":3487:3491   */\n      0x11\n        /* \"#utility.yul\":3484:3485   */\n      0x04\n        /* \"#utility.yul\":3477:3492   */\n      mstore\n        /* \"#utility.yul\":3511:3515   */\n      0x24\n        /* \"#utility.yul\":3508:3509   */\n      0x00\n        /* \"#utility.yul\":3501:3516   */\n      revert\n        /* \"#utility.yul\":3528:3938   */\n    tag_45:\n        /* \"#utility.yul\":3568:3575   */\n      0x00\n        /* \"#utility.yul\":3591:3611   */\n      tag_162\n        /* \"#utility.yul\":3609:3610   */\n      dup3\n        /* \"#utility.yul\":3591:3611   */\n      tag_102\n      jump\t// in\n    tag_162:\n        /* \"#utility.yul\":3586:3611   */\n      swap2\n      pop\n        /* \"#utility.yul\":3625:3645   */\n      tag_163\n        /* \"#utility.yul\":3643:3644   */\n      dup4\n        /* \"#utility.yul\":3625:3645   */\n      tag_102\n      jump\t// in\n    tag_163:\n        /* \"#utility.yul\":3620:3645   */\n      swap3\n      pop\n        /* \"#utility.yul\":3680:3681   */\n      dup3\n        /* \"#utility.yul\":3677:3678   */\n      dup3\n        /* \"#utility.yul\":3673:3682   */\n      mul\n        /* \"#utility.yul\":3702:3732   */\n      tag_164\n        /* \"#utility.yul\":3720:3731   */\n      dup2\n        /* \"#utility.yul\":3702:3732   */\n      tag_102\n      jump\t// in\n    tag_164:\n        /* \"#utility.yul\":3691:3732   */\n      swap2\n      pop\n        /* \"#utility.yul\":3881:3882   */\n      dup3\n        /* \"#utility.yul\":3872:3879   */\n      dup3\n        /* \"#utility.yul\":3868:3883   */\n      div\n        /* \"#utility.yul\":3865:3866   */\n      dup5\n        /* \"#utility.yul\":3862:3884   */\n      eq\n        /* \"#utility.yul\":3842:3843   */\n      dup4\n        /* \"#utility.yul\":3835:3844   */\n      iszero\n        /* \"#utility.yul\":3815:3898   */\n      or\n        /* \"#utility.yul\":3792:3931   */\n      tag_165\n      jumpi\n        /* \"#utility.yul\":3911:3929   */\n      tag_166\n      tag_111\n      jump\t// in\n    tag_166:\n        /* \"#utility.yul\":3792:3931   */\n    tag_165:\n        /* \"#utility.yul\":3576:3938   */\n      pop\n        /* \"#utility.yul\":3528:3938   */\n      swap3\n      swap2\n      pop\n      pop\n      jump\t// out\n        /* \"#utility.yul\":3944:4049   */\n    tag_112:\n        /* \"#utility.yul\":3980:3987   */\n      0x00\n        /* \"#utility.yul\":4020:4042   */\n      0xffffffffffffffffffff\n        /* \"#utility.yul\":4013:4018   */\n      dup3\n        /* \"#utility.yul\":4009:4043   */\n      and\n        /* \"#utility.yul\":3998:4043   */\n      swap1\n      pop\n        /* \"#utility.yul\":3944:4049   */\n      swap2\n      swap1\n      pop\n      jump\t// out\n        /* \"#utility.yul\":4055:4175   */\n    tag_113:\n        /* \"#utility.yul\":4127:4150   */\n      tag_169\n        /* \"#utility.yul\":4144:4149   */\n      dup2\n        /* \"#utility.yul\":4127:4150   */\n      tag_112\n      jump\t// in\n    tag_169:\n        /* \"#utility.yul\":4120:4125   */\n      dup2\n        /* \"#utility.yul\":4117:4151   */\n      eq\n        /* \"#utility.yul\":4107:4169   */\n      tag_170\n      jumpi\n        /* \"#utility.yul\":4165:4166   */\n      0x00\n        /* \"#utility.yul\":4162:4163   */\n      0x00\n        /* \"#utility.yul\":4155:4167   */\n      revert\n        /* \"#utility.yul\":4107:4169   */\n    tag_170:\n        /* \"#utility.yul\":4055:4175   */\n      pop\n      jump\t// out\n        /* \"#utility.yul\":4181:4322   */\n    tag_114:\n        /* \"#utility.yul\":4237:4242   */\n      0x00\n        /* \"#utility.yul\":4268:4274   */\n      dup2\n        /* \"#utility.yul\":4262:4275   */\n      mload\n        /* \"#utility.yul\":4253:4275   */\n      swap1\n      pop\n        /* \"#utility.yul\":4284:4316   */\n      tag_172\n        /* \"#utility.yul\":4310:4315   */\n      dup2\n        /* \"#utility.yul\":4284:4316   */\n      tag_113\n      jump\t// in\n    tag_172:\n        /* \"#utility.yul\":4181:4322   */\n      swap3\n      swap2\n      pop\n      pop\n      jump\t// out\n        /* \"#utility.yul\":4328:4404   */\n    tag_115:\n        /* \"#utility.yul\":4364:4371   */\n      0x00\n        /* \"#utility.yul\":4393:4398   */\n      dup2\n        /* \"#utility.yul\":4382:4398   */\n      swap1\n      pop\n        /* \"#utility.yul\":4328:4404   */\n      swap2\n      swap1\n      pop\n      jump\t// out\n        /* \"#utility.yul\":4410:4530   */\n    tag_116:\n        /* \"#utility.yul\":4482:4505   */\n      tag_175\n        /* \"#utility.yul\":4499:4504   */\n      dup2\n        /* \"#utility.yul\":4482:4505   */\n      tag_115\n      jump\t// in\n    tag_175:\n        /* \"#utility.yul\":4475:4480   */\n      dup2\n        /* \"#utility.yul\":4472:4506   */\n      eq\n        /* \"#utility.yul\":4462:4524   */\n      tag_176\n      jumpi\n        /* \"#utility.yul\":4520:4521   */\n      0x00\n        /* \"#utility.yul\":4517:4518   */\n      0x00\n        /* \"#utility.yul\":4510:4522   */\n      revert\n        /* \"#utility.yul\":4462:4524   */\n    tag_176:\n        /* \"#utility.yul\":4410:4530   */\n      pop\n      jump\t// out\n        /* \"#utility.yul\":4536:4677   */\n    tag_117:\n        /* \"#utility.yul\":4592:4597   */\n      0x00\n        /* \"#utility.yul\":4623:4629   */\n      dup2\n        /* \"#utility.yul\":4617:4630   */\n      mload\n        /* \"#utility.yul\":4608:4630   */\n      swap1\n      pop\n        /* \"#utility.yul\":4639:4671   */\n      tag_178\n        /* \"#utility.yul\":4665:4670   */\n      dup2\n        /* \"#utility.yul\":4639:4671   */\n      tag_116\n      jump\t// in\n    tag_178:\n        /* \"#utility.yul\":4536:4677   */\n      swap3\n      swap2\n      pop\n      pop\n      jump\t// out\n        /* \"#utility.yul\":4683:4826   */\n    tag_118:\n        /* \"#utility.yul\":4740:4745   */\n      0x00\n        /* \"#utility.yul\":4771:4777   */\n      dup2\n        /* \"#utility.yul\":4765:4778   */\n      mload\n        /* \"#utility.yul\":4756:4778   */\n      swap1\n      pop\n        /* \"#utility.yul\":4787:4820   */\n      tag_180\n        /* \"#utility.yul\":4814:4819   */\n      dup2\n        /* \"#utility.yul\":4787:4820   */\n      tag_103\n      jump\t// in\n    tag_180:\n        /* \"#utility.yul\":4683:4826   */\n      swap3\n      swap2\n      pop\n      pop\n      jump\t// out\n        /* \"#utility.yul\":4832:5803   */\n    tag_49:\n        /* \"#utility.yul\":4935:4941   */\n      0x00\n        /* \"#utility.yul\":4943:4949   */\n      0x00\n        /* \"#utility.yul\":4951:4957   */\n      0x00\n        /* \"#utility.yul\":4959:4965   */\n      0x00\n        /* \"#utility.yul\":4967:4973   */\n      0x00\n        /* \"#utility.yul\":5016:5019   */\n      0xa0\n        /* \"#utility.yul\":5004:5013   */\n      dup7\n        /* \"#utility.yul\":4995:5002   */\n      dup9\n        /* \"#utility.yul\":4991:5014   */\n      sub\n        /* \"#utility.yul\":4987:5020   */\n      slt\n        /* \"#utility.yul\":4984:5104   */\n      iszero\n      tag_182\n      jumpi\n        /* \"#utility.yul\":5023:5102   */\n      tag_183\n      tag_100\n      jump\t// in\n    tag_183:\n        /* \"#utility.yul\":4984:5104   */\n    tag_182:\n        /* \"#utility.yul\":5143:5144   */\n      0x00\n        /* \"#utility.yul\":5168:5231   */\n      tag_184\n        /* \"#utility.yul\":5223:5230   */\n      dup9\n        /* \"#utility.yul\":5214:5220   */\n      dup3\n        /* \"#utility.yul\":5203:5212   */\n      dup10\n        /* \"#utility.yul\":5199:5221   */\n      add\n        /* \"#utility.yul\":5168:5231   */\n      tag_114\n      jump\t// in\n    tag_184:\n        /* \"#utility.yul\":5158:5231   */\n      swap6\n      pop\n        /* \"#utility.yul\":5114:5241   */\n      pop\n        /* \"#utility.yul\":5280:5282   */\n      0x20\n        /* \"#utility.yul\":5306:5369   */\n      tag_185\n        /* \"#utility.yul\":5361:5368   */\n      dup9\n        /* \"#utility.yul\":5352:5358   */\n      dup3\n        /* \"#utility.yul\":5341:5350   */\n      dup10\n        /* \"#utility.yul\":5337:5359   */\n      add\n        /* \"#utility.yul\":5306:5369   */\n      tag_117\n      jump\t// in\n    tag_185:\n        /* \"#utility.yul\":5296:5369   */\n      swap5\n      pop\n        /* \"#utility.yul\":5251:5379   */\n      pop\n        /* \"#utility.yul\":5418:5420   */\n      0x40\n        /* \"#utility.yul\":5444:5508   */\n      tag_186\n        /* \"#utility.yul\":5500:5507   */\n      dup9\n        /* \"#utility.yul\":5491:5497   */\n      dup3\n        /* \"#utility.yul\":5480:5489   */\n      dup10\n        /* \"#utility.yul\":5476:5498   */\n      add\n        /* \"#utility.yul\":5444:5508   */\n      tag_118\n      jump\t// in\n    tag_186:\n        /* \"#utility.yul\":5434:5508   */\n      swap4\n      pop\n        /* \"#utility.yul\":5389:5518   */\n      pop\n        /* \"#utility.yul\":5557:5559   */\n      0x60\n        /* \"#utility.yul\":5583:5647   */\n      tag_187\n        /* \"#utility.yul\":5639:5646   */\n      dup9\n        /* \"#utility.yul\":5630:5636   */\n      dup3\n        /* \"#utility.yul\":5619:5628   */\n      dup10\n        /* \"#utility.yul\":5615:5637   */\n      add\n        /* \"#utility.yul\":5583:5647   */\n      tag_118\n      jump\t// in\n    tag_187:\n        /* \"#utility.yul\":5573:5647   */\n      swap3\n      pop\n        /* \"#utility.yul\":5528:5657   */\n      pop\n        /* \"#utility.yul\":5696:5699   */\n      0x80\n        /* \"#utility.yul\":5723:5786   */\n      tag_188\n        /* \"#utility.yul\":5778:5785   */\n      dup9\n        /* \"#utility.yul\":5769:5775   */\n      dup3\n        /* \"#utility.yul\":5758:5767   */\n      dup10\n        /* \"#utility.yul\":5754:5776   */\n      add\n        /* \"#utility.yul\":5723:5786   */\n      tag_114\n      jump\t// in\n    tag_188:\n        /* \"#utility.yul\":5713:5786   */\n      swap2\n      pop\n        /* \"#utility.yul\":5667:5796   */\n      pop\n        /* \"#utility.yul\":4832:5803   */\n      swap3\n      swap6\n      pop\n      swap3\n      swap6\n      swap1\n      swap4\n      pop\n      jump\t// out\n        /* \"#utility.yul\":5809:5989   */\n    tag_57:\n        /* \"#utility.yul\":5857:5934   */\n      0x4e487b7100000000000000000000000000000000000000000000000000000000\n        /* \"#utility.yul\":5854:5855   */\n      0x00\n        /* \"#utility.yul\":5847:5935   */\n      mstore\n        /* \"#utility.yul\":5954:5958   */\n      0x32\n        /* \"#utility.yul\":5951:5952   */\n      0x04\n        /* \"#utility.yul\":5944:5959   */\n      mstore\n        /* \"#utility.yul\":5978:5982   */\n      0x24\n        /* \"#utility.yul\":5975:5976   */\n      0x00\n        /* \"#utility.yul\":5968:5983   */\n      revert\n        /* \"#utility.yul\":5995:6189   */\n    tag_61:\n        /* \"#utility.yul\":6035:6039   */\n      0x00\n        /* \"#utility.yul\":6055:6075   */\n      tag_191\n        /* \"#utility.yul\":6073:6074   */\n      dup3\n        /* \"#utility.yul\":6055:6075   */\n      tag_102\n      jump\t// in\n    tag_191:\n        /* \"#utility.yul\":6050:6075   */\n      swap2\n      pop\n        /* \"#utility.yul\":6089:6109   */\n      tag_192\n        /* \"#utility.yul\":6107:6108   */\n      dup4\n        /* \"#utility.yul\":6089:6109   */\n      tag_102\n      jump\t// in\n    tag_192:\n        /* \"#utility.yul\":6084:6109   */\n      swap3\n      pop\n        /* \"#utility.yul\":6133:6134   */\n      dup3\n        /* \"#utility.yul\":6130:6131   */\n      dup3\n        /* \"#utility.yul\":6126:6135   */\n      sub\n        /* \"#utility.yul\":6118:6135   */\n      swap1\n      pop\n        /* \"#utility.yul\":6157:6158   */\n      dup2\n        /* \"#utility.yul\":6151:6155   */\n      dup2\n        /* \"#utility.yul\":6148:6159   */\n      gt\n        /* \"#utility.yul\":6145:6182   */\n      iszero\n      tag_193\n      jumpi\n        /* \"#utility.yul\":6162:6180   */\n      tag_194\n      tag_111\n      jump\t// in\n    tag_194:\n        /* \"#utility.yul\":6145:6182   */\n    tag_193:\n        /* \"#utility.yul\":5995:6189   */\n      swap3\n      swap2\n      pop\n      pop\n      jump\t// out\n        /* \"#utility.yul\":6195:6375   */\n    tag_70:\n        /* \"#utility.yul\":6243:6320   */\n      0x4e487b7100000000000000000000000000000000000000000000000000000000\n        /* \"#utility.yul\":6240:6241   */\n      0x00\n        /* \"#utility.yul\":6233:6321   */\n      mstore\n        /* \"#utility.yul\":6340:6344   */\n      0x31\n        /* \"#utility.yul\":6337:6338   */\n      0x04\n        /* \"#utility.yul\":6330:6345   */\n      mstore\n        /* \"#utility.yul\":6364:6368   */\n      0x24\n        /* \"#utility.yul\":6361:6362   */\n      0x00\n        /* \"#utility.yul\":6354:6369   */\n      revert\n        /* \"#utility.yul\":6381:7156   */\n    tag_87:\n        /* \"#utility.yul\":6614:6618   */\n      0x00\n        /* \"#utility.yul\":6652:6655   */\n      0xc0\n        /* \"#utility.yul\":6641:6650   */\n      dup3\n        /* \"#utility.yul\":6637:6656   */\n      add\n        /* \"#utility.yul\":6629:6656   */\n      swap1\n      pop\n        /* \"#utility.yul\":6666:6737   */\n      tag_197\n        /* \"#utility.yul\":6734:6735   */\n      0x00\n        /* \"#utility.yul\":6723:6732   */\n      dup4\n        /* \"#utility.yul\":6719:6736   */\n      add\n        /* \"#utility.yul\":6710:6716   */\n      dup10\n        /* \"#utility.yul\":6666:6737   */\n      tag_110\n      jump\t// in\n    tag_197:\n        /* \"#utility.yul\":6747:6819   */\n      tag_198\n        /* \"#utility.yul\":6815:6817   */\n      0x20\n        /* \"#utility.yul\":6804:6813   */\n      dup4\n        /* \"#utility.yul\":6800:6818   */\n      add\n        /* \"#utility.yul\":6791:6797   */\n      dup9\n        /* \"#utility.yul\":6747:6819   */\n      tag_110\n      jump\t// in\n    tag_198:\n        /* \"#utility.yul\":6829:6901   */\n      tag_199\n        /* \"#utility.yul\":6897:6899   */\n      0x40\n        /* \"#utility.yul\":6886:6895   */\n      dup4\n        /* \"#utility.yul\":6882:6900   */\n      add\n        /* \"#utility.yul\":6873:6879   */\n      dup8\n        /* \"#utility.yul\":6829:6901   */\n      tag_105\n      jump\t// in\n    tag_199:\n        /* \"#utility.yul\":6911:6983   */\n      tag_200\n        /* \"#utility.yul\":6979:6981   */\n      0x60\n        /* \"#utility.yul\":6968:6977   */\n      dup4\n        /* \"#utility.yul\":6964:6982   */\n      add\n        /* \"#utility.yul\":6955:6961   */\n      dup7\n        /* \"#utility.yul\":6911:6983   */\n      tag_105\n      jump\t// in\n    tag_200:\n        /* \"#utility.yul\":6993:7066   */\n      tag_201\n        /* \"#utility.yul\":7061:7064   */\n      0x80\n        /* \"#utility.yul\":7050:7059   */\n      dup4\n        /* \"#utility.yul\":7046:7065   */\n      add\n        /* \"#utility.yul\":7037:7043   */\n      dup6\n        /* \"#utility.yul\":6993:7066   */\n      tag_105\n      jump\t// in\n    tag_201:\n        /* \"#utility.yul\":7076:7149   */\n      tag_202\n        /* \"#utility.yul\":7144:7147   */\n      0xa0\n        /* \"#utility.yul\":7133:7142   */\n      dup4\n        /* \"#utility.yul\":7129:7148   */\n      add\n        /* \"#utility.yul\":7120:7126   */\n      dup5\n        /* \"#utility.yul\":7076:7149   */\n      tag_105\n      jump\t// in\n    tag_202:\n        /* \"#utility.yul\":6381:7156   */\n      swap8\n      swap7\n      pop\n      pop\n      pop\n      pop\n      pop\n      pop\n      pop\n      jump\t// out\n        /* \"#utility.yul\":7162:7604   */\n    tag_92:\n        /* \"#utility.yul\":7311:7315   */\n      0x00\n        /* \"#utility.yul\":7349:7351   */\n      0x60\n        /* \"#utility.yul\":7338:7347   */\n      dup3\n        /* \"#utility.yul\":7334:7352   */\n      add\n        /* \"#utility.yul\":7326:7352   */\n      swap1\n      pop\n        /* \"#utility.yul\":7362:7433   */\n      tag_204\n        /* \"#utility.yul\":7430:7431   */\n      0x00\n        /* \"#utility.yul\":7419:7428   */\n      dup4\n        /* \"#utility.yul\":7415:7432   */\n      add\n        /* \"#utility.yul\":7406:7412   */\n      dup7\n        /* \"#utility.yul\":7362:7433   */\n      tag_110\n      jump\t// in\n    tag_204:\n        /* \"#utility.yul\":7443:7515   */\n      tag_205\n        /* \"#utility.yul\":7511:7513   */\n      0x20\n        /* \"#utility.yul\":7500:7509   */\n      dup4\n        /* \"#utility.yul\":7496:7514   */\n      add\n        /* \"#utility.yul\":7487:7493   */\n      dup6\n        /* \"#utility.yul\":7443:7515   */\n      tag_110\n      jump\t// in\n    tag_205:\n        /* \"#utility.yul\":7525:7597   */\n      tag_206\n        /* \"#utility.yul\":7593:7595   */\n      0x40\n        /* \"#utility.yul\":7582:7591   */\n      dup4\n        /* \"#utility.yul\":7578:7596   */\n      add\n        /* \"#utility.yul\":7569:7575   */\n      dup5\n        /* \"#utility.yul\":7525:7597   */\n      tag_105\n      jump\t// in\n    tag_206:\n        /* \"#utility.yul\":7162:7604   */\n      swap5\n      swap4\n      pop\n      pop\n      pop\n      pop\n      jump\t// out\n        /* \"#utility.yul\":7610:7843   */\n    tag_98:\n        /* \"#utility.yul\":7649:7652   */\n      0x00\n        /* \"#utility.yul\":7672:7696   */\n      tag_208\n        /* \"#utility.yul\":7690:7695   */\n      dup3\n        /* \"#utility.yul\":7672:7696   */\n      tag_102\n      jump\t// in\n    tag_208:\n        /* \"#utility.yul\":7663:7696   */\n      swap2\n      pop\n        /* \"#utility.yul\":7718:7784   */\n      0xffffffffffffffffffffffffffffffffffffffffffffffffffffffffffffffff\n        /* \"#utility.yul\":7711:7716   */\n      dup3\n        /* \"#utility.yul\":7708:7785   */\n      sub\n        /* \"#utility.yul\":7705:7808   */\n      tag_209\n      jumpi\n        /* \"#utility.yul\":7788:7806   */\n      tag_210\n      tag_111\n      jump\t// in\n    tag_210:\n        /* \"#utility.yul\":7705:7808   */\n    tag_209:\n        /* \"#utility.yul\":7835:7836   */\n      0x01\n        /* \"#utility.yul\":7828:7833   */\n      dup3\n        /* \"#utility.yul\":7824:7837   */\n      add\n        /* \"#utility.yul\":7817:7837   */\n      swap1\n      pop\n        /* \"#utility.yul\":7610:7843   */\n      swap2\n      swap1\n      pop\n      jump\t// out\n    stop\n\n    sub_0: assembly {\n            /* \"contracts/Aution.sol\":336:6625  contract Aution is ReentrancyGuard {... */\n          mstore(0x40, 0x80)\n            /* \"contracts/Aution.sol\":1016:1017  0 */\n          0x00\n            /* \"contracts/Aution.sol\":988:1017  uint256 public tokenValue = 0 */\n          0x0b\n          sstore\n            /* \"contracts/Aution.sol\":1674:1727  constructor() {... */\n          callvalue\n          dup1\n          iszero\n          tag_1\n          jumpi\n          revert(0x00, 0x00)\n        tag_1:\n          pop\n            /* \"@openzeppelin/contracts/utils/ReentrancyGuard.sol\":1857:1858  1 */\n          0x01\n            /* \"@openzeppelin/contracts/utils/ReentrancyGuard.sol\":2061:2068  _status */\n          0x00\n            /* \"@openzeppelin/contracts/utils/ReentrancyGuard.sol\":2061:2082  _status = NOT_ENTERED */\n          dup2\n          swap1\n          sstore\n          pop\n            /* \"contracts/Aution.sol\":1709:1719  msg.sender */\n          caller\n            /* \"contracts/Aution.sol\":1699:1706  factory */\n          0x01\n          0x00\n            /* \"contracts/Aution.sol\":1699:1719  factory = msg.sender */\n          0x0100\n          exp\n          dup2\n          sload\n          dup2\n          0xffffffffffffffffffffffffffffffffffffffff\n          mul\n          not\n          and\n          swap1\n          dup4\n          0xffffffffffffffffffffffffffffffffffffffff\n          and\n          mul\n          or\n          swap1\n          sstore\n          pop\n            /* \"contracts/Aution.sol\":336:6625  contract Aution is ReentrancyGuard {... */\n          dataSize(sub_0)\n          dup1\n          dataOffset(sub_0)\n          0x00\n          codecopy\n          0x00\n          return\n        stop\n\n        sub_0: assembly {\n                /* \"contracts/Aution.sol\":336:6625  contract Aution is ReentrancyGuard {... */\n              mstore(0x40, 0x80)\n              jumpi(tag_1, lt(calldatasize, 0x04))\n              shr(0xe0, calldataload(0x00))\n              dup1\n              0x86489ba9\n              gt\n              tag_22\n              jumpi\n              dup1\n              0xd56d229d\n              gt\n              tag_23\n              jumpi\n              dup1\n              0xd56d229d\n              eq\n              tag_17\n              jumpi\n              dup1\n              0xd57bde79\n              eq\n              tag_18\n              jumpi\n              dup1\n              0xde31c95b\n              eq\n              tag_19\n              jumpi\n              dup1\n              0xf1a9af89\n              eq\n              tag_20\n              jumpi\n              dup1\n              0xff9c1ffc\n              eq\n              tag_21\n              jumpi\n              jump(tag_2)\n            tag_23:\n              dup1\n              0x86489ba9\n              eq\n              tag_12\n              jumpi\n              dup1\n              0x91f90157\n              eq\n              tag_13\n              jumpi\n              dup1\n              0x9cf639d7\n              eq\n              tag_14\n              jumpi\n              dup1\n              0x9d76ea58\n              eq\n              tag_15\n              jumpi\n              dup1\n              0xc45a0155\n              eq\n              tag_16\n              jumpi\n              jump(tag_2)\n            tag_22:\n              dup1\n              0x3197cbb6\n              gt\n              tag_24\n              jumpi\n              dup1\n              0x3197cbb6\n              eq\n              tag_7\n              jumpi\n              dup1\n              0x70e11711\n              eq\n              tag_8\n              jumpi\n              dup1\n              0x78e97925\n              eq\n              tag_9\n              jumpi\n              dup1\n              0x7999f216\n              eq\n              tag_10\n              jumpi\n              dup1\n              0x7e830574\n              eq\n              tag_11\n              jumpi\n              jump(tag_2)\n            tag_24:\n              dup1\n              0x08551a53\n              eq\n              tag_3\n              jumpi\n              dup1\n              0x150b7a02\n              eq\n              tag_4\n              jumpi\n              dup1\n              0x1ec7e345\n              eq\n              tag_5\n              jumpi\n              dup1\n              0x2fc6e8b7\n              eq\n              tag_6\n              jumpi\n              jump(tag_2)\n            tag_1:\n            tag_2:\n              stop\n                /* \"contracts/Aution.sol\":467:488  address public seller */\n            tag_3:\n              callvalue\n              dup1\n              iszero\n              tag_29\n              jumpi\n              revert(0x00, 0x00)\n            tag_29:\n              pop\n              tag_30\n              tag_31\n              jump\t// in\n            tag_30:\n              mload(0x40)\n              tag_32\n              swap2\n              swap1\n              tag_33\n              jump\t// in\n            tag_32:\n              mload(0x40)\n              dup1\n              swap2\n              sub\n              swap1\n              return\n                /* \"contracts/Aution.sol\":6423:6622  function onERC721Received(... */\n            tag_4:\n              callvalue\n              dup1\n              iszero\n              tag_34\n              jumpi\n              revert(0x00, 0x00)\n            tag_34:\n              pop\n              tag_35\n              0x04\n              dup1\n              calldatasize\n              sub\n              dup2\n              add\n              swap1\n              tag_36\n              swap2\n              swap1\n              tag_37\n              jump\t// in\n            tag_36:\n              tag_38\n              jump\t// in\n            tag_35:\n              mload(0x40)\n              tag_39\n              swap2\n              swap1\n              tag_40\n              jump\t// in\n            tag_39:\n              mload(0x40)\n              dup1\n              swap2\n              sub\n              swap1\n              return\n                /* \"contracts/Aution.sol\":988:1017  uint256 public tokenValue = 0 */\n            tag_5:\n              callvalue\n              dup1\n              iszero\n              tag_41\n              jumpi\n              revert(0x00, 0x00)\n            tag_41:\n              pop\n              tag_42\n              tag_43\n              jump\t// in\n            tag_42:\n              mload(0x40)\n              tag_44\n              swap2\n              swap1\n              tag_45\n              jump\t// in\n            tag_44:\n              mload(0x40)\n              dup1\n              swap2\n              sub\n              swap1\n              return\n                /* \"contracts/Aution.sol\":1051:1068  bool public isEnd */\n            tag_6:\n              callvalue\n              dup1\n              iszero\n              tag_46\n              jumpi\n              revert(0x00, 0x00)\n            tag_46:\n              pop\n              tag_47\n              tag_48\n              jump\t// in\n            tag_47:\n              mload(0x40)\n              tag_49\n              swap2\n              swap1\n              tag_50\n              jump\t// in\n            tag_49:\n              mload(0x40)\n              dup1\n              swap2\n              sub\n              swap1\n              return\n                /* \"contracts/Aution.sol\":677:699  uint256 public endTime */\n            tag_7:\n              callvalue\n              dup1\n              iszero\n              tag_51\n              jumpi\n              revert(0x00, 0x00)\n            tag_51:\n              pop\n              tag_52\n              tag_53\n              jump\t// in\n            tag_52:\n              mload(0x40)\n              tag_54\n              swap2\n              swap1\n              tag_45\n              jump\t// in\n            tag_54:\n              mload(0x40)\n              dup1\n              swap2\n              sub\n              swap1\n              return\n                /* \"contracts/Aution.sol\":5126:6280  function endAution() external onlySeller timeToBid {... */\n            tag_8:\n              callvalue\n              dup1\n              iszero\n              tag_55\n              jumpi\n              revert(0x00, 0x00)\n            tag_55:\n              pop\n              tag_56\n              tag_57\n              jump\t// in\n            tag_56:\n              stop\n                /* \"contracts/Aution.sol\":625:649  uint256 public startTime */\n            tag_9:\n              callvalue\n              dup1\n              iszero\n              tag_58\n              jumpi\n              revert(0x00, 0x00)\n            tag_58:\n              pop\n              tag_59\n              tag_60\n              jump\t// in\n            tag_59:\n              mload(0x40)\n              tag_61\n              swap2\n              swap1\n              tag_45\n              jump\t// in\n            tag_61:\n              mload(0x40)\n              dup1\n              swap2\n              sub\n              swap1\n              return\n                /* \"contracts/Aution.sol\":1097:1140  mapping(address => uint256) public bidsData */\n            tag_10:\n              callvalue\n              dup1\n              iszero\n              tag_62\n              jumpi\n              revert(0x00, 0x00)\n            tag_62:\n              pop\n              tag_63\n              0x04\n              dup1\n              calldatasize\n              sub\n              dup2\n              add\n              swap1\n              tag_64\n              swap2\n              swap1\n              tag_65\n              jump\t// in\n            tag_64:\n              tag_66\n              jump\t// in\n            tag_63:\n              mload(0x40)\n              tag_67\n              swap2\n              swap1\n              tag_45\n              jump\t// in\n            tag_67:\n              mload(0x40)\n              dup1\n              swap2\n              sub\n              swap1\n              return\n                /* \"contracts/Aution.sol\":572:597  uint256 public nftTokenId */\n            tag_11:\n              callvalue\n              dup1\n              iszero\n              tag_68\n              jumpi\n              revert(0x00, 0x00)\n            tag_68:\n              pop\n              tag_69\n              tag_70\n              jump\t// in\n            tag_69:\n              mload(0x40)\n              tag_71\n              swap2\n              swap1\n              tag_45\n              jump\t// in\n            tag_71:\n              mload(0x40)\n              dup1\n              swap2\n              sub\n              swap1\n              return\n                /* \"contracts/Aution.sol\":1759:2199  function initialize(... */\n            tag_12:\n              callvalue\n              dup1\n              iszero\n              tag_72\n              jumpi\n              revert(0x00, 0x00)\n            tag_72:\n              pop\n              tag_73\n              0x04\n              dup1\n              calldatasize\n              sub\n              dup2\n              add\n              swap1\n              tag_74\n              swap2\n              swap1\n              tag_75\n              jump\t// in\n            tag_74:\n              tag_76\n              jump\t// in\n            tag_73:\n              stop\n                /* \"contracts/Aution.sol\":845:873  address public highestBidder */\n            tag_13:\n              callvalue\n              dup1\n              iszero\n              tag_77\n              jumpi\n              revert(0x00, 0x00)\n            tag_77:\n              pop\n              tag_78\n              tag_79\n              jump\t// in\n            tag_78:\n              mload(0x40)\n              tag_80\n              swap2\n              swap1\n              tag_33\n              jump\t// in\n            tag_80:\n              mload(0x40)\n              dup1\n              swap2\n              sub\n              swap1\n              return\n                /* \"contracts/Aution.sol\":2228:2999  function placeBidWithETH() external payable nonReentrant timeToBid {... */\n            tag_14:\n              tag_81\n              tag_82\n              jump\t// in\n            tag_81:\n              stop\n                /* \"contracts/Aution.sol\":924:951  address public tokenAddress */\n            tag_15:\n              callvalue\n              dup1\n              iszero\n              tag_83\n              jumpi\n              revert(0x00, 0x00)\n            tag_83:\n              pop\n              tag_84\n              tag_85\n              jump\t// in\n            tag_84:\n              mload(0x40)\n              tag_86\n              swap2\n              swap1\n              tag_33\n              jump\t// in\n            tag_86:\n              mload(0x40)\n              dup1\n              swap2\n              sub\n              swap1\n              return\n                /* \"contracts/Aution.sol\":405:427  address public factory */\n            tag_16:\n              callvalue\n              dup1\n              iszero\n              tag_87\n              jumpi\n              revert(0x00, 0x00)\n            tag_87:\n              pop\n              tag_88\n              tag_89\n              jump\t// in\n            tag_88:\n              mload(0x40)\n              tag_90\n              swap2\n              swap1\n              tag_33\n              jump\t// in\n            tag_90:\n              mload(0x40)\n              dup1\n              swap2\n              sub\n              swap1\n              return\n                /* \"contracts/Aution.sol\":519:545  address public nftContract */\n            tag_17:\n              callvalue\n              dup1\n              iszero\n              tag_91\n              jumpi\n              revert(0x00, 0x00)\n            tag_91:\n              pop\n              tag_92\n              tag_93\n              jump\t// in\n            tag_92:\n              mload(0x40)\n              tag_94\n              swap2\n              swap1\n              tag_33\n              jump\t// in\n            tag_94:\n              mload(0x40)\n              dup1\n              swap2\n              sub\n              swap1\n              return\n                /* \"contracts/Aution.sol\":783:808  uint256 public highestBid */\n            tag_18:\n              callvalue\n              dup1\n              iszero\n              tag_95\n              jumpi\n              revert(0x00, 0x00)\n            tag_95:\n              pop\n              tag_96\n              tag_97\n              jump\t// in\n            tag_96:\n              mload(0x40)\n              tag_98\n              swap2\n              swap1\n              tag_45\n              jump\t// in\n            tag_98:\n              mload(0x40)\n              dup1\n              swap2\n              sub\n              swap1\n              return\n                /* \"contracts/Aution.sol\":4807:5097  function cancelAution() external onlySeller timeToBid {... */\n            tag_19:\n              callvalue\n              dup1\n              iszero\n              tag_99\n              jumpi\n              revert(0x00, 0x00)\n            tag_99:\n              pop\n              tag_100\n              tag_101\n              jump\t// in\n            tag_100:\n              stop\n                /* \"contracts/Aution.sol\":724:749  uint256 public startPrice */\n            tag_20:\n              callvalue\n              dup1\n              iszero\n              tag_102\n              jumpi\n              revert(0x00, 0x00)\n            tag_102:\n              pop\n              tag_103\n              tag_104\n              jump\t// in\n            tag_103:\n              mload(0x40)\n              tag_105\n              swap2\n              swap1\n              tag_45\n              jump\t// in\n            tag_105:\n              mload(0x40)\n              dup1\n              swap2\n              sub\n              swap1\n              return\n                /* \"contracts/Aution.sol\":3038:4076  function placeBidWithERC20(address bidTokenAddress, uint256 value) external nonReentrant timeToBid {... */\n            tag_21:\n              callvalue\n              dup1\n              iszero\n              tag_106\n              jumpi\n              revert(0x00, 0x00)\n            tag_106:\n              pop\n              tag_107\n              0x04\n              dup1\n              calldatasize\n              sub\n              dup2\n              add\n              swap1\n              tag_108\n              swap2\n              swap1\n              tag_109\n              jump\t// in\n            tag_108:\n              tag_110\n              jump\t// in\n            tag_107:\n              stop\n                /* \"contracts/Aution.sol\":467:488  address public seller */\n            tag_31:\n              0x02\n              0x00\n              swap1\n              sload\n              swap1\n              0x0100\n              exp\n              swap1\n              div\n              0xffffffffffffffffffffffffffffffffffffffff\n              and\n              dup2\n              jump\t// out\n                /* \"contracts/Aution.sol\":6423:6622  function onERC721Received(... */\n            tag_38:\n                /* \"contracts/Aution.sol\":6558:6564  bytes4 */\n              0x00\n                /* \"contracts/Aution.sol\":6584:6614  this.onERC721Received.selector */\n              shl(0xe0, 0x150b7a02)\n                /* \"contracts/Aution.sol\":6577:6614  return this.onERC721Received.selector */\n              swap1\n              pop\n                /* \"contracts/Aution.sol\":6423:6622  function onERC721Received(... */\n              swap6\n              swap5\n              pop\n              pop\n              pop\n              pop\n              pop\n              jump\t// out\n                /* \"contracts/Aution.sol\":988:1017  uint256 public tokenValue = 0 */\n            tag_43:\n              sload(0x0b)\n              dup2\n              jump\t// out\n                /* \"contracts/Aution.sol\":1051:1068  bool public isEnd */\n            tag_48:\n              0x0c\n              0x00\n              swap1\n              sload\n              swap1\n              0x0100\n              exp\n              swap1\n              div\n              0xff\n              and\n              dup2\n              jump\t// out\n                /* \"contracts/Aution.sol\":677:699  uint256 public endTime */\n            tag_53:\n              sload(0x06)\n              dup2\n              jump\t// out\n                /* \"contracts/Aution.sol\":5126:6280  function endAution() external onlySeller timeToBid {... */\n            tag_57:\n                /* \"contracts/Aution.sol\":1335:1341  seller */\n              0x02\n              0x00\n              swap1\n              sload\n              swap1\n              0x0100\n              exp\n              swap1\n              div\n              0xffffffffffffffffffffffffffffffffffffffff\n              and\n                /* \"contracts/Aution.sol\":1321:1341  msg.sender == seller */\n              0xffffffffffffffffffffffffffffffffffffffff\n              and\n                /* \"contracts/Aution.sol\":1321:1331  msg.sender */\n              caller\n                /* \"contracts/Aution.sol\":1321:1341  msg.sender == seller */\n              0xffffffffffffffffffffffffffffffffffffffff\n              and\n              eq\n                /* \"contracts/Aution.sol\":1313:1380  require(msg.sender == seller, \"Only seller can call this function\") */\n              tag_113\n              jumpi\n              mload(0x40)\n              0x08c379a000000000000000000000000000000000000000000000000000000000\n              dup2\n              mstore\n              0x04\n              add\n              tag_114\n              swap1\n              tag_115\n              jump\t// in\n            tag_114:\n              mload(0x40)\n              dup1\n              swap2\n              sub\n              swap1\n              revert\n            tag_113:\n                /* \"contracts/Aution.sol\":1481:1490  startTime */\n              sload(0x05)\n                /* \"contracts/Aution.sol\":1462:1477  block.timestamp */\n              timestamp\n                /* \"contracts/Aution.sol\":1462:1490  block.timestamp >= startTime */\n              lt\n              iszero\n                /* \"contracts/Aution.sol\":1462:1520  block.timestamp >= startTime && block.timestamp <= endTime */\n              dup1\n              iszero\n              tag_117\n              jumpi\n              pop\n                /* \"contracts/Aution.sol\":1513:1520  endTime */\n              sload(0x06)\n                /* \"contracts/Aution.sol\":1494:1509  block.timestamp */\n              timestamp\n                /* \"contracts/Aution.sol\":1494:1520  block.timestamp <= endTime */\n              gt\n              iszero\n                /* \"contracts/Aution.sol\":1462:1520  block.timestamp >= startTime && block.timestamp <= endTime */\n            tag_117:\n                /* \"contracts/Aution.sol\":1440:1571  require(... */\n              tag_118\n              jumpi\n              mload(0x40)\n              0x08c379a000000000000000000000000000000000000000000000000000000000\n              dup2\n              mstore\n              0x04\n              add\n              tag_119\n              swap1\n              tag_120\n              jump\t// in\n            tag_119:\n              mload(0x40)\n              dup1\n              swap2\n              sub\n              swap1\n              revert\n            tag_118:\n                /* \"contracts/Aution.sol\":5197:5202  isEnd */\n              0x0c\n              0x00\n              swap1\n              sload\n              swap1\n              0x0100\n              exp\n              swap1\n              div\n              0xff\n              and\n                /* \"contracts/Aution.sol\":5196:5202  !isEnd */\n              iszero\n                /* \"contracts/Aution.sol\":5188:5221  require(!isEnd, \"Aution has end\") */\n              tag_122\n              jumpi\n              mload(0x40)\n              0x08c379a000000000000000000000000000000000000000000000000000000000\n              dup2\n              mstore\n              0x04\n              add\n              tag_123\n              swap1\n              tag_124\n              jump\t// in\n            tag_123:\n              mload(0x40)\n              dup1\n              swap2\n              sub\n              swap1\n              revert\n            tag_122:\n                /* \"contracts/Aution.sol\":5240:5244  true */\n              0x01\n                /* \"contracts/Aution.sol\":5232:5237  isEnd */\n              0x0c\n              0x00\n                /* \"contracts/Aution.sol\":5232:5244  isEnd = true */\n              0x0100\n              exp\n              dup2\n              sload\n              dup2\n              0xff\n              mul\n              not\n              and\n              swap1\n              dup4\n              iszero\n              iszero\n              mul\n              or\n              swap1\n              sstore\n              pop\n                /* \"contracts/Aution.sol\":5358:5359  0 */\n              0x00\n                /* \"contracts/Aution.sol\":5333:5360  highestBidder != address(0) */\n              0xffffffffffffffffffffffffffffffffffffffff\n              and\n                /* \"contracts/Aution.sol\":5333:5346  highestBidder */\n              0x09\n              0x00\n              swap1\n              sload\n              swap1\n              0x0100\n              exp\n              swap1\n              div\n              0xffffffffffffffffffffffffffffffffffffffff\n              and\n                /* \"contracts/Aution.sol\":5333:5360  highestBidder != address(0) */\n              0xffffffffffffffffffffffffffffffffffffffff\n              and\n              eq\n                /* \"contracts/Aution.sol\":5329:6212  if (highestBidder != address(0)) {... */\n              tag_125\n              jumpi\n                /* \"contracts/Aution.sol\":5385:5396  nftContract */\n              0x03\n              0x00\n              swap1\n              sload\n              swap1\n              0x0100\n              exp\n              swap1\n              div\n              0xffffffffffffffffffffffffffffffffffffffff\n              and\n                /* \"contracts/Aution.sol\":5377:5410  IERC721(nftContract).transferFrom */\n              0xffffffffffffffffffffffffffffffffffffffff\n              and\n              0x23b872dd\n                /* \"contracts/Aution.sol\":5437:5441  this */\n              address\n                /* \"contracts/Aution.sol\":5461:5474  highestBidder */\n              0x09\n              0x00\n              swap1\n              sload\n              swap1\n              0x0100\n              exp\n              swap1\n              div\n              0xffffffffffffffffffffffffffffffffffffffff\n              and\n                /* \"contracts/Aution.sol\":5493:5503  nftTokenId */\n              sload(0x04)\n                /* \"contracts/Aution.sol\":5377:5518  IERC721(nftContract).transferFrom(... */\n              mload(0x40)\n              dup5\n              0xffffffff\n              and\n              0xe0\n              shl\n              dup2\n              mstore\n              0x04\n              add\n              tag_126\n              swap4\n              swap3\n              swap2\n              swap1\n              tag_127\n              jump\t// in\n            tag_126:\n              0x00\n              mload(0x40)\n              dup1\n              dup4\n              sub\n              dup2\n              0x00\n              dup8\n              dup1\n              extcodesize\n              iszero\n              dup1\n              iszero\n              tag_128\n              jumpi\n              revert(0x00, 0x00)\n            tag_128:\n              pop\n              gas\n              call\n              iszero\n              dup1\n              iszero\n              tag_130\n              jumpi\n              returndatacopy(0x00, 0x00, returndatasize)\n              revert(0x00, returndatasize)\n            tag_130:\n              pop\n              pop\n              pop\n              pop\n                /* \"contracts/Aution.sol\":5617:5618  0 */\n              0x00\n                /* \"contracts/Aution.sol\":5593:5619  tokenAddress == address(0) */\n              0xffffffffffffffffffffffffffffffffffffffff\n              and\n                /* \"contracts/Aution.sol\":5593:5605  tokenAddress */\n              0x0a\n              0x00\n              swap1\n              sload\n              swap1\n              0x0100\n              exp\n              swap1\n              div\n              0xffffffffffffffffffffffffffffffffffffffff\n              and\n                /* \"contracts/Aution.sol\":5593:5619  tokenAddress == address(0) */\n              0xffffffffffffffffffffffffffffffffffffffff\n              and\n              sub\n                /* \"contracts/Aution.sol\":5589:5961  if (tokenAddress == address(0)) {... */\n              tag_131\n              jumpi\n                /* \"contracts/Aution.sol\":5641:5653  bool success */\n              0x00\n                /* \"contracts/Aution.sol\":5667:5673  seller */\n              0x02\n              0x00\n              swap1\n              sload\n              swap1\n              0x0100\n              exp\n              swap1\n              div\n              0xffffffffffffffffffffffffffffffffffffffff\n              and\n                /* \"contracts/Aution.sol\":5659:5679  payable(seller).call */\n              0xffffffffffffffffffffffffffffffffffffffff\n              and\n                /* \"contracts/Aution.sol\":5687:5697  tokenValue */\n              sload(0x0b)\n                /* \"contracts/Aution.sol\":5659:5702  payable(seller).call{value: tokenValue}(\"\") */\n              mload(0x40)\n              tag_132\n              swap1\n              tag_133\n              jump\t// in\n            tag_132:\n              0x00\n              mload(0x40)\n              dup1\n              dup4\n              sub\n              dup2\n              dup6\n              dup8\n              gas\n              call\n              swap3\n              pop\n              pop\n              pop\n              returndatasize\n              dup1\n              0x00\n              dup2\n              eq\n              tag_136\n              jumpi\n              mload(0x40)\n              swap2\n              pop\n              and(add(returndatasize, 0x3f), not(0x1f))\n              dup3\n              add\n              0x40\n              mstore\n              returndatasize\n              dup3\n              mstore\n              returndatasize\n              0x00\n              0x20\n              dup5\n              add\n              returndatacopy\n              jump(tag_135)\n            tag_136:\n              0x60\n              swap2\n              pop\n            tag_135:\n              pop\n                /* \"contracts/Aution.sol\":5640:5702  (bool success, ) = payable(seller).call{value: tokenValue}(\"\") */\n              pop\n              swap1\n              pop\n                /* \"contracts/Aution.sol\":5729:5736  success */\n              dup1\n                /* \"contracts/Aution.sol\":5721:5760  require(success, \"ETH transfer failed\") */\n              tag_137\n              jumpi\n              mload(0x40)\n              0x08c379a000000000000000000000000000000000000000000000000000000000\n              dup2\n              mstore\n              0x04\n              add\n              tag_138\n              swap1\n              tag_139\n              jump\t// in\n            tag_138:\n              mload(0x40)\n              dup1\n              swap2\n              sub\n              swap1\n              revert\n            tag_137:\n                /* \"contracts/Aution.sol\":5621:5776  {... */\n              pop\n                /* \"contracts/Aution.sol\":5589:5961  if (tokenAddress == address(0)) {... */\n              jump(tag_140)\n            tag_131:\n                /* \"contracts/Aution.sol\":5838:5850  tokenAddress */\n              0x0a\n              0x00\n              swap1\n              sload\n              swap1\n              0x0100\n              exp\n              swap1\n              div\n              0xffffffffffffffffffffffffffffffffffffffff\n              and\n                /* \"contracts/Aution.sol\":5831:5860  IERC20(tokenAddress).transfer */\n              0xffffffffffffffffffffffffffffffffffffffff\n              and\n              0xa9059cbb\n                /* \"contracts/Aution.sol\":5861:5867  seller */\n              0x02\n              0x00\n              swap1\n              sload\n              swap1\n              0x0100\n              exp\n              swap1\n              div\n              0xffffffffffffffffffffffffffffffffffffffff\n              and\n                /* \"contracts/Aution.sol\":5869:5879  tokenValue */\n              sload(0x0b)\n                /* \"contracts/Aution.sol\":5831:5880  IERC20(tokenAddress).transfer(seller, tokenValue) */\n              mload(0x40)\n              dup4\n              0xffffffff\n              and\n              0xe0\n              shl\n              dup2\n              mstore\n              0x04\n              add\n              tag_141\n              swap3\n              swap2\n              swap1\n              tag_142\n              jump\t// in\n            tag_141:\n              0x20\n              mload(0x40)\n              dup1\n              dup4\n              sub\n              dup2\n              0x00\n              dup8\n              gas\n              call\n              iszero\n              dup1\n              iszero\n              tag_144\n              jumpi\n              returndatacopy(0x00, 0x00, returndatasize)\n              revert(0x00, returndatasize)\n            tag_144:\n              pop\n              pop\n              pop\n              pop\n              mload(0x40)\n              returndatasize\n              not(0x1f)\n              0x1f\n              dup3\n              add\n              and\n              dup3\n              add\n              dup1\n              0x40\n              mstore\n              pop\n              dup2\n              add\n              swap1\n              tag_145\n              swap2\n              swap1\n              tag_146\n              jump\t// in\n            tag_145:\n                /* \"contracts/Aution.sol\":5801:5945  require(... */\n              tag_147\n              jumpi\n              mload(0x40)\n              0x08c379a000000000000000000000000000000000000000000000000000000000\n              dup2\n              mstore\n              0x04\n              add\n              tag_148\n              swap1\n              tag_149\n              jump\t// in\n            tag_148:\n              mload(0x40)\n              dup1\n              swap2\n              sub\n              swap1\n              revert\n            tag_147:\n                /* \"contracts/Aution.sol\":5589:5961  if (tokenAddress == address(0)) {... */\n            tag_140:\n                /* \"contracts/Aution.sol\":5329:6212  if (highestBidder != address(0)) {... */\n              jump(tag_150)\n            tag_125:\n                /* \"contracts/Aution.sol\":6074:6085  nftContract */\n              0x03\n              0x00\n              swap1\n              sload\n              swap1\n              0x0100\n              exp\n              swap1\n              div\n              0xffffffffffffffffffffffffffffffffffffffff\n              and\n                /* \"contracts/Aution.sol\":6066:6099  IERC721(nftContract).transferFrom */\n              0xffffffffffffffffffffffffffffffffffffffff\n              and\n              0x23b872dd\n                /* \"contracts/Aution.sol\":6126:6130  this */\n              address\n                /* \"contracts/Aution.sol\":6150:6156  seller */\n              0x02\n              0x00\n              swap1\n              sload\n              swap1\n              0x0100\n              exp\n              swap1\n              div\n              0xffffffffffffffffffffffffffffffffffffffff\n              and\n                /* \"contracts/Aution.sol\":6175:6185  nftTokenId */\n              sload(0x04)\n                /* \"contracts/Aution.sol\":6066:6200  IERC721(nftContract).transferFrom(... */\n              mload(0x40)\n              dup5\n              0xffffffff\n              and\n              0xe0\n              shl\n              dup2\n              mstore\n              0x04\n              add\n              tag_151\n              swap4\n              swap3\n              swap2\n              swap1\n              tag_127\n              jump\t// in\n            tag_151:\n              0x00\n              mload(0x40)\n              dup1\n              dup4\n              sub\n              dup2\n              0x00\n              dup8\n              dup1\n              extcodesize\n              iszero\n              dup1\n              iszero\n              tag_152\n              jumpi\n              revert(0x00, 0x00)\n            tag_152:\n              pop\n              gas\n              call\n              iszero\n              dup1\n              iszero\n              tag_154\n              jumpi\n              returndatacopy(0x00, 0x00, returndatasize)\n              revert(0x00, returndatasize)\n            tag_154:\n              pop\n              pop\n              pop\n              pop\n                /* \"contracts/Aution.sol\":5329:6212  if (highestBidder != address(0)) {... */\n            tag_150:\n                /* \"contracts/Aution.sol\":6239:6246  factory */\n              0x01\n              0x00\n              swap1\n              sload\n              swap1\n              0x0100\n              exp\n              swap1\n              div\n              0xffffffffffffffffffffffffffffffffffffffff\n              and\n                /* \"contracts/Aution.sol\":6224:6257  IAutionFactory(factory).autionEnd */\n              0xffffffffffffffffffffffffffffffffffffffff\n              and\n              0x1ca54219\n                /* \"contracts/Aution.sol\":6266:6270  this */\n              address\n                /* \"contracts/Aution.sol\":6224:6272  IAutionFactory(factory).autionEnd(address(this)) */\n              mload(0x40)\n              dup3\n              0xffffffff\n              and\n              0xe0\n              shl\n              dup2\n              mstore\n              0x04\n              add\n              tag_155\n              swap2\n              swap1\n              tag_33\n              jump\t// in\n            tag_155:\n              0x00\n              mload(0x40)\n              dup1\n              dup4\n              sub\n              dup2\n              0x00\n              dup8\n              dup1\n              extcodesize\n              iszero\n              dup1\n              iszero\n              tag_156\n              jumpi\n              revert(0x00, 0x00)\n            tag_156:\n              pop\n              gas\n              call\n              iszero\n              dup1\n              iszero\n              tag_158\n              jumpi\n              returndatacopy(0x00, 0x00, returndatasize)\n              revert(0x00, returndatasize)\n            tag_158:\n              pop\n              pop\n              pop\n              pop\n                /* \"contracts/Aution.sol\":5126:6280  function endAution() external onlySeller timeToBid {... */\n              jump\t// out\n                /* \"contracts/Aution.sol\":625:649  uint256 public startTime */\n            tag_60:\n              sload(0x05)\n              dup2\n              jump\t// out\n                /* \"contracts/Aution.sol\":1097:1140  mapping(address => uint256) public bidsData */\n            tag_66:\n              mstore(0x20, 0x0d)\n              dup1\n              0x00\n              mstore\n              keccak256(0x00, 0x40)\n              0x00\n              swap2\n              pop\n              swap1\n              pop\n              sload\n              dup2\n              jump\t// out\n                /* \"contracts/Aution.sol\":572:597  uint256 public nftTokenId */\n            tag_70:\n              sload(0x04)\n              dup2\n              jump\t// out\n                /* \"contracts/Aution.sol\":1759:2199  function initialize(... */\n            tag_76:\n                /* \"contracts/Aution.sol\":1205:1212  factory */\n              0x01\n              0x00\n              swap1\n              sload\n              swap1\n              0x0100\n              exp\n              swap1\n              div\n              0xffffffffffffffffffffffffffffffffffffffff\n              and\n                /* \"contracts/Aution.sol\":1191:1212  msg.sender == factory */\n              0xffffffffffffffffffffffffffffffffffffffff\n              and\n                /* \"contracts/Aution.sol\":1191:1201  msg.sender */\n              caller\n                /* \"contracts/Aution.sol\":1191:1212  msg.sender == factory */\n              0xffffffffffffffffffffffffffffffffffffffff\n              and\n              eq\n                /* \"contracts/Aution.sol\":1183:1252  require(msg.sender == factory, \"Only factory can call this function\") */\n              tag_160\n              jumpi\n              mload(0x40)\n              0x08c379a000000000000000000000000000000000000000000000000000000000\n              dup2\n              mstore\n              0x04\n              add\n              tag_161\n              swap1\n              tag_162\n              jump\t// in\n            tag_161:\n              mload(0x40)\n              dup1\n              swap2\n              sub\n              swap1\n              revert\n            tag_160:\n                /* \"contracts/Aution.sol\":2001:2008  _seller */\n              dup6\n                /* \"contracts/Aution.sol\":1992:1998  seller */\n              0x02\n              0x00\n                /* \"contracts/Aution.sol\":1992:2008  seller = _seller */\n              0x0100\n              exp\n              dup2\n              sload\n              dup2\n              0xffffffffffffffffffffffffffffffffffffffff\n              mul\n              not\n              and\n              swap1\n              dup4\n              0xffffffffffffffffffffffffffffffffffffffff\n              and\n              mul\n              or\n              swap1\n              sstore\n              pop\n                /* \"contracts/Aution.sol\":2033:2045  _nftContract */\n              dup5\n                /* \"contracts/Aution.sol\":2019:2030  nftContract */\n              0x03\n              0x00\n                /* \"contracts/Aution.sol\":2019:2045  nftContract = _nftContract */\n              0x0100\n              exp\n              dup2\n              sload\n              dup2\n              0xffffffffffffffffffffffffffffffffffffffff\n              mul\n              not\n              and\n              swap1\n              dup4\n              0xffffffffffffffffffffffffffffffffffffffff\n              and\n              mul\n              or\n              swap1\n              sstore\n              pop\n                /* \"contracts/Aution.sol\":2069:2080  _nftTokenId */\n              dup4\n                /* \"contracts/Aution.sol\":2056:2066  nftTokenId */\n              0x04\n                /* \"contracts/Aution.sol\":2056:2080  nftTokenId = _nftTokenId */\n              dup2\n              swap1\n              sstore\n              pop\n                /* \"contracts/Aution.sol\":2104:2115  _startPrice */\n              dup3\n                /* \"contracts/Aution.sol\":2091:2101  startPrice */\n              0x07\n                /* \"contracts/Aution.sol\":2091:2115  startPrice = _startPrice */\n              dup2\n              swap1\n              sstore\n              pop\n                /* \"contracts/Aution.sol\":2138:2148  _startTime */\n              dup2\n                /* \"contracts/Aution.sol\":2126:2135  startTime */\n              0x05\n                /* \"contracts/Aution.sol\":2126:2148  startTime = _startTime */\n              dup2\n              swap1\n              sstore\n              pop\n                /* \"contracts/Aution.sol\":2182:2191  _duration */\n              dup1\n                /* \"contracts/Aution.sol\":2169:2179  _startTime */\n              dup3\n                /* \"contracts/Aution.sol\":2169:2191  _startTime + _duration */\n              tag_164\n              swap2\n              swap1\n              tag_165\n              jump\t// in\n            tag_164:\n                /* \"contracts/Aution.sol\":2159:2166  endTime */\n              0x06\n                /* \"contracts/Aution.sol\":2159:2191  endTime = _startTime + _duration */\n              dup2\n              swap1\n              sstore\n              pop\n                /* \"contracts/Aution.sol\":1759:2199  function initialize(... */\n              pop\n              pop\n              pop\n              pop\n              pop\n              pop\n              jump\t// out\n                /* \"contracts/Aution.sol\":845:873  address public highestBidder */\n            tag_79:\n              0x09\n              0x00\n              swap1\n              sload\n              swap1\n              0x0100\n              exp\n              swap1\n              div\n              0xffffffffffffffffffffffffffffffffffffffff\n              and\n              dup2\n              jump\t// out\n                /* \"contracts/Aution.sol\":2228:2999  function placeBidWithETH() external payable nonReentrant timeToBid {... */\n            tag_82:\n                /* \"@openzeppelin/contracts/utils/ReentrancyGuard.sol\":2500:2521  _nonReentrantBefore() */\n              tag_167\n                /* \"@openzeppelin/contracts/utils/ReentrancyGuard.sol\":2500:2519  _nonReentrantBefore */\n              tag_168\n                /* \"@openzeppelin/contracts/utils/ReentrancyGuard.sol\":2500:2521  _nonReentrantBefore() */\n              jump\t// in\n            tag_167:\n                /* \"contracts/Aution.sol\":1481:1490  startTime */\n              sload(0x05)\n                /* \"contracts/Aution.sol\":1462:1477  block.timestamp */\n              timestamp\n                /* \"contracts/Aution.sol\":1462:1490  block.timestamp >= startTime */\n              lt\n              iszero\n                /* \"contracts/Aution.sol\":1462:1520  block.timestamp >= startTime && block.timestamp <= endTime */\n              dup1\n              iszero\n              tag_170\n              jumpi\n              pop\n                /* \"contracts/Aution.sol\":1513:1520  endTime */\n              sload(0x06)\n                /* \"contracts/Aution.sol\":1494:1509  block.timestamp */\n              timestamp\n                /* \"contracts/Aution.sol\":1494:1520  block.timestamp <= endTime */\n              gt\n              iszero\n                /* \"contracts/Aution.sol\":1462:1520  block.timestamp >= startTime && block.timestamp <= endTime */\n            tag_170:\n                /* \"contracts/Aution.sol\":1440:1571  require(... */\n              tag_171\n              jumpi\n              mload(0x40)\n              0x08c379a000000000000000000000000000000000000000000000000000000000\n              dup2\n              mstore\n              0x04\n              add\n              tag_172\n              swap1\n              tag_120\n              jump\t// in\n            tag_172:\n              mload(0x40)\n              dup1\n              swap2\n              sub\n              swap1\n              revert\n            tag_171:\n                /* \"contracts/Aution.sol\":2315:2320  isEnd */\n              0x0c\n              0x00\n              swap1\n              sload\n              swap1\n              0x0100\n              exp\n              swap1\n              div\n              0xff\n              and\n                /* \"contracts/Aution.sol\":2314:2320  !isEnd */\n              iszero\n                /* \"contracts/Aution.sol\":2306:2339  require(!isEnd, \"Aution has end\") */\n              tag_174\n              jumpi\n              mload(0x40)\n              0x08c379a000000000000000000000000000000000000000000000000000000000\n              dup2\n              mstore\n              0x04\n              add\n              tag_175\n              swap1\n              tag_124\n              jump\t// in\n            tag_175:\n              mload(0x40)\n              dup1\n              swap2\n              sub\n              swap1\n              revert\n            tag_174:\n                /* \"contracts/Aution.sol\":2352:2366  uint256 amount */\n              0x00\n                /* \"contracts/Aution.sol\":2384:2391  factory */\n              0x01\n              0x00\n              swap1\n              sload\n              swap1\n              0x0100\n              exp\n              swap1\n              div\n              0xffffffffffffffffffffffffffffffffffffffff\n              and\n                /* \"contracts/Aution.sol\":2369:2413  IAutionFactory(factory).formatEthToUsdtPrice */\n              0xffffffffffffffffffffffffffffffffffffffff\n              and\n              0xc01895bb\n                /* \"contracts/Aution.sol\":2414:2423  msg.value */\n              callvalue\n                /* \"contracts/Aution.sol\":2369:2424  IAutionFactory(factory).formatEthToUsdtPrice(msg.value) */\n              mload(0x40)\n              dup3\n              0xffffffff\n              and\n              0xe0\n              shl\n              dup2\n              mstore\n              0x04\n              add\n              tag_176\n              swap2\n              swap1\n              tag_45\n              jump\t// in\n            tag_176:\n              0x20\n              mload(0x40)\n              dup1\n              dup4\n              sub\n              dup2\n              0x00\n              dup8\n              gas\n              call\n              iszero\n              dup1\n              iszero\n              tag_178\n              jumpi\n              returndatacopy(0x00, 0x00, returndatasize)\n              revert(0x00, returndatasize)\n            tag_178:\n              pop\n              pop\n              pop\n              pop\n              mload(0x40)\n              returndatasize\n              not(0x1f)\n              0x1f\n              dup3\n              add\n              and\n              dup3\n              add\n              dup1\n              0x40\n              mstore\n              pop\n              dup2\n              add\n              swap1\n              tag_179\n              swap2\n              swap1\n              tag_180\n              jump\t// in\n            tag_179:\n                /* \"contracts/Aution.sol\":2352:2424  uint256 amount = IAutionFactory(factory).formatEthToUsdtPrice(msg.value) */\n              swap1\n              pop\n                /* \"contracts/Aution.sol\":2435:2457  uint256 startPriceUsdt */\n              0x00\n                /* \"contracts/Aution.sol\":2475:2482  factory */\n              0x01\n              0x00\n              swap1\n              sload\n              swap1\n              0x0100\n              exp\n              swap1\n              div\n              0xffffffffffffffffffffffffffffffffffffffff\n              and\n                /* \"contracts/Aution.sol\":2460:2504  IAutionFactory(factory).formatEthToUsdtPrice */\n              0xffffffffffffffffffffffffffffffffffffffff\n              and\n              0xc01895bb\n                /* \"contracts/Aution.sol\":2505:2515  startPrice */\n              sload(0x07)\n                /* \"contracts/Aution.sol\":2460:2516  IAutionFactory(factory).formatEthToUsdtPrice(startPrice) */\n              mload(0x40)\n              dup3\n              0xffffffff\n              and\n              0xe0\n              shl\n              dup2\n              mstore\n              0x04\n              add\n              tag_181\n              swap2\n              swap1\n              tag_45\n              jump\t// in\n            tag_181:\n              0x20\n              mload(0x40)\n              dup1\n              dup4\n              sub\n              dup2\n              0x00\n              dup8\n              gas\n              call\n              iszero\n              dup1\n              iszero\n              tag_183\n              jumpi\n              returndatacopy(0x00, 0x00, returndatasize)\n              revert(0x00, returndatasize)\n            tag_183:\n              pop\n              pop\n              pop\n              pop\n              mload(0x40)\n              returndatasize\n              not(0x1f)\n              0x1f\n              dup3\n              add\n              and\n              dup3\n              add\n              dup1\n              0x40\n              mstore\n              pop\n              dup2\n              add\n              swap1\n              tag_184\n              swap2\n              swap1\n              tag_180\n              jump\t// in\n            tag_184:\n                /* \"contracts/Aution.sol\":2435:2516  uint256 startPriceUsdt = IAutionFactory(factory).formatEthToUsdtPrice(startPrice) */\n              swap1\n              pop\n                /* \"contracts/Aution.sol\":2612:2622  highestBid */\n              sload(0x08)\n                /* \"contracts/Aution.sol\":2603:2609  amount */\n              dup3\n                /* \"contracts/Aution.sol\":2603:2622  amount > highestBid */\n              gt\n                /* \"contracts/Aution.sol\":2603:2650  amount > highestBid && amount >= startPriceUsdt */\n              dup1\n              iszero\n              tag_185\n              jumpi\n              pop\n                /* \"contracts/Aution.sol\":2636:2650  startPriceUsdt */\n              dup1\n                /* \"contracts/Aution.sol\":2626:2632  amount */\n              dup3\n                /* \"contracts/Aution.sol\":2626:2650  amount >= startPriceUsdt */\n              lt\n              iszero\n                /* \"contracts/Aution.sol\":2603:2650  amount > highestBid && amount >= startPriceUsdt */\n            tag_185:\n                /* \"contracts/Aution.sol\":2581:2697  require(... */\n              tag_186\n              jumpi\n              mload(0x40)\n              0x08c379a000000000000000000000000000000000000000000000000000000000\n              dup2\n              mstore\n              0x04\n              add\n              tag_187\n              swap1\n              tag_188\n              jump\t// in\n            tag_187:\n              mload(0x40)\n              dup1\n              swap2\n              sub\n              swap1\n              revert\n            tag_186:\n                /* \"contracts/Aution.sol\":2718:2731  returnToken() */\n              tag_189\n                /* \"contracts/Aution.sol\":2718:2729  returnToken */\n              tag_190\n                /* \"contracts/Aution.sol\":2718:2731  returnToken() */\n              jump\t// in\n            tag_189:\n                /* \"contracts/Aution.sol\":2809:2819  msg.sender */\n              caller\n                /* \"contracts/Aution.sol\":2793:2806  highestBidder */\n              0x09\n              0x00\n                /* \"contracts/Aution.sol\":2793:2819  highestBidder = msg.sender */\n              0x0100\n              exp\n              dup2\n              sload\n              dup2\n              0xffffffffffffffffffffffffffffffffffffffff\n              mul\n              not\n              and\n              swap1\n              dup4\n              0xffffffffffffffffffffffffffffffffffffffff\n              and\n              mul\n              or\n              swap1\n              sstore\n              pop\n                /* \"contracts/Aution.sol\":2843:2849  amount */\n              dup2\n                /* \"contracts/Aution.sol\":2830:2840  highestBid */\n              0x08\n                /* \"contracts/Aution.sol\":2830:2849  highestBid = amount */\n              dup2\n              swap1\n              sstore\n              pop\n                /* \"contracts/Aution.sol\":2883:2884  0 */\n              0x00\n                /* \"contracts/Aution.sol\":2860:2872  tokenAddress */\n              0x0a\n              0x00\n                /* \"contracts/Aution.sol\":2860:2885  tokenAddress = address(0) */\n              0x0100\n              exp\n              dup2\n              sload\n              dup2\n              0xffffffffffffffffffffffffffffffffffffffff\n              mul\n              not\n              and\n              swap1\n              dup4\n              0xffffffffffffffffffffffffffffffffffffffff\n              and\n              mul\n              or\n              swap1\n              sstore\n              pop\n                /* \"contracts/Aution.sol\":2909:2918  msg.value */\n              callvalue\n                /* \"contracts/Aution.sol\":2896:2906  tokenValue */\n              0x0b\n                /* \"contracts/Aution.sol\":2896:2918  tokenValue = msg.value */\n              dup2\n              swap1\n              sstore\n              pop\n                /* \"contracts/Aution.sol\":2985:2991  amount */\n              dup2\n                /* \"contracts/Aution.sol\":2962:2970  bidsData */\n              0x0d\n                /* \"contracts/Aution.sol\":2962:2982  bidsData[msg.sender] */\n              0x00\n                /* \"contracts/Aution.sol\":2971:2981  msg.sender */\n              caller\n                /* \"contracts/Aution.sol\":2962:2982  bidsData[msg.sender] */\n              0xffffffffffffffffffffffffffffffffffffffff\n              and\n              0xffffffffffffffffffffffffffffffffffffffff\n              and\n              dup2\n              mstore\n              0x20\n              add\n              swap1\n              dup2\n              mstore\n              0x20\n              add\n              0x00\n              keccak256\n                /* \"contracts/Aution.sol\":2962:2991  bidsData[msg.sender] = amount */\n              dup2\n              swap1\n              sstore\n              pop\n                /* \"contracts/Aution.sol\":2295:2999  {... */\n              pop\n              pop\n                /* \"@openzeppelin/contracts/utils/ReentrancyGuard.sol\":2542:2562  _nonReentrantAfter() */\n              tag_191\n                /* \"@openzeppelin/contracts/utils/ReentrancyGuard.sol\":2542:2560  _nonReentrantAfter */\n              tag_192\n                /* \"@openzeppelin/contracts/utils/ReentrancyGuard.sol\":2542:2562  _nonReentrantAfter() */\n              jump\t// in\n            tag_191:\n                /* \"contracts/Aution.sol\":2228:2999  function placeBidWithETH() external payable nonReentrant timeToBid {... */\n              jump\t// out\n                /* \"contracts/Aution.sol\":924:951  address public tokenAddress */\n            tag_85:\n              0x0a\n              0x00\n              swap1\n              sload\n              swap1\n              0x0100\n              exp\n              swap1\n              div\n              0xffffffffffffffffffffffffffffffffffffffff\n              and\n              dup2\n              jump\t// out\n                /* \"contracts/Aution.sol\":405:427  address public factory */\n            tag_89:\n              0x01\n              0x00\n              swap1\n              sload\n              swap1\n              0x0100\n              exp\n              swap1\n              div\n              0xffffffffffffffffffffffffffffffffffffffff\n              and\n              dup2\n              jump\t// out\n                /* \"contracts/Aution.sol\":519:545  address public nftContract */\n            tag_93:\n              0x03\n              0x00\n              swap1\n              sload\n              swap1\n              0x0100\n              exp\n              swap1\n              div\n              0xffffffffffffffffffffffffffffffffffffffff\n              and\n              dup2\n              jump\t// out\n                /* \"contracts/Aution.sol\":783:808  uint256 public highestBid */\n            tag_97:\n              sload(0x08)\n              dup2\n              jump\t// out\n                /* \"contracts/Aution.sol\":4807:5097  function cancelAution() external onlySeller timeToBid {... */\n            tag_101:\n                /* \"contracts/Aution.sol\":1335:1341  seller */\n              0x02\n              0x00\n              swap1\n              sload\n              swap1\n              0x0100\n              exp\n              swap1\n              div\n              0xffffffffffffffffffffffffffffffffffffffff\n              and\n                /* \"contracts/Aution.sol\":1321:1341  msg.sender == seller */\n              0xffffffffffffffffffffffffffffffffffffffff\n              and\n                /* \"contracts/Aution.sol\":1321:1331  msg.sender */\n              caller\n                /* \"contracts/Aution.sol\":1321:1341  msg.sender == seller */\n              0xffffffffffffffffffffffffffffffffffffffff\n              and\n              eq\n                /* \"contracts/Aution.sol\":1313:1380  require(msg.sender == seller, \"Only seller can call this function\") */\n              tag_194\n              jumpi\n              mload(0x40)\n              0x08c379a000000000000000000000000000000000000000000000000000000000\n              dup2\n              mstore\n              0x04\n              add\n              tag_195\n              swap1\n              tag_115\n              jump\t// in\n            tag_195:\n              mload(0x40)\n              dup1\n              swap2\n              sub\n              swap1\n              revert\n            tag_194:\n                /* \"contracts/Aution.sol\":1481:1490  startTime */\n              sload(0x05)\n                /* \"contracts/Aution.sol\":1462:1477  block.timestamp */\n              timestamp\n                /* \"contracts/Aution.sol\":1462:1490  block.timestamp >= startTime */\n              lt\n              iszero\n                /* \"contracts/Aution.sol\":1462:1520  block.timestamp >= startTime && block.timestamp <= endTime */\n              dup1\n              iszero\n              tag_197\n              jumpi\n              pop\n                /* \"contracts/Aution.sol\":1513:1520  endTime */\n              sload(0x06)\n                /* \"contracts/Aution.sol\":1494:1509  block.timestamp */\n              timestamp\n                /* \"contracts/Aution.sol\":1494:1520  block.timestamp <= endTime */\n              gt\n              iszero\n                /* \"contracts/Aution.sol\":1462:1520  block.timestamp >= startTime && block.timestamp <= endTime */\n            tag_197:\n                /* \"contracts/Aution.sol\":1440:1571  require(... */\n              tag_198\n              jumpi\n              mload(0x40)\n              0x08c379a000000000000000000000000000000000000000000000000000000000\n              dup2\n              mstore\n              0x04\n              add\n              tag_199\n              swap1\n              tag_120\n              jump\t// in\n            tag_199:\n              mload(0x40)\n              dup1\n              swap2\n              sub\n              swap1\n              revert\n            tag_198:\n                /* \"contracts/Aution.sol\":4880:4884  true */\n              0x01\n                /* \"contracts/Aution.sol\":4872:4877  isEnd */\n              0x0c\n              0x00\n                /* \"contracts/Aution.sol\":4872:4884  isEnd = true */\n              0x0100\n              exp\n              dup2\n              sload\n              dup2\n              0xff\n              mul\n              not\n              and\n              swap1\n              dup4\n              iszero\n              iszero\n              mul\n              or\n              swap1\n              sstore\n              pop\n                /* \"contracts/Aution.sol\":4942:4953  nftContract */\n              0x03\n              0x00\n              swap1\n              sload\n              swap1\n              0x0100\n              exp\n              swap1\n              div\n              0xffffffffffffffffffffffffffffffffffffffff\n              and\n                /* \"contracts/Aution.sol\":4934:4967  IERC721(nftContract).transferFrom */\n              0xffffffffffffffffffffffffffffffffffffffff\n              and\n              0x23b872dd\n                /* \"contracts/Aution.sol\":4976:4980  this */\n              address\n                /* \"contracts/Aution.sol\":4983:4989  seller */\n              0x02\n              0x00\n              swap1\n              sload\n              swap1\n              0x0100\n              exp\n              swap1\n              div\n              0xffffffffffffffffffffffffffffffffffffffff\n              and\n                /* \"contracts/Aution.sol\":4991:5001  nftTokenId */\n              sload(0x04)\n                /* \"contracts/Aution.sol\":4934:5002  IERC721(nftContract).transferFrom(address(this), seller, nftTokenId) */\n              mload(0x40)\n              dup5\n              0xffffffff\n              and\n              0xe0\n              shl\n              dup2\n              mstore\n              0x04\n              add\n              tag_201\n              swap4\n              swap3\n              swap2\n              swap1\n              tag_127\n              jump\t// in\n            tag_201:\n              0x00\n              mload(0x40)\n              dup1\n              dup4\n              sub\n              dup2\n              0x00\n              dup8\n              dup1\n              extcodesize\n              iszero\n              dup1\n              iszero\n              tag_202\n              jumpi\n              revert(0x00, 0x00)\n            tag_202:\n              pop\n              gas\n              call\n              iszero\n              dup1\n              iszero\n              tag_204\n              jumpi\n              returndatacopy(0x00, 0x00, returndatasize)\n              revert(0x00, returndatasize)\n            tag_204:\n              pop\n              pop\n              pop\n              pop\n                /* \"contracts/Aution.sol\":5015:5028  returnToken() */\n              tag_205\n                /* \"contracts/Aution.sol\":5015:5026  returnToken */\n              tag_190\n                /* \"contracts/Aution.sol\":5015:5028  returnToken() */\n              jump\t// in\n            tag_205:\n                /* \"contracts/Aution.sol\":5056:5063  factory */\n              0x01\n              0x00\n              swap1\n              sload\n              swap1\n              0x0100\n              exp\n              swap1\n              div\n              0xffffffffffffffffffffffffffffffffffffffff\n              and\n                /* \"contracts/Aution.sol\":5041:5074  IAutionFactory(factory).autionEnd */\n              0xffffffffffffffffffffffffffffffffffffffff\n              and\n              0x1ca54219\n                /* \"contracts/Aution.sol\":5083:5087  this */\n              address\n                /* \"contracts/Aution.sol\":5041:5089  IAutionFactory(factory).autionEnd(address(this)) */\n              mload(0x40)\n              dup3\n              0xffffffff\n              and\n              0xe0\n              shl\n              dup2\n              mstore\n              0x04\n              add\n              tag_206\n              swap2\n              swap1\n              tag_33\n              jump\t// in\n            tag_206:\n              0x00\n              mload(0x40)\n              dup1\n              dup4\n              sub\n              dup2\n              0x00\n              dup8\n              dup1\n              extcodesize\n              iszero\n              dup1\n              iszero\n              tag_207\n              jumpi\n              revert(0x00, 0x00)\n            tag_207:\n              pop\n              gas\n              call\n              iszero\n              dup1\n              iszero\n              tag_209\n              jumpi\n              returndatacopy(0x00, 0x00, returndatasize)\n              revert(0x00, returndatasize)\n            tag_209:\n              pop\n              pop\n              pop\n              pop\n                /* \"contracts/Aution.sol\":4807:5097  function cancelAution() external onlySeller timeToBid {... */\n              jump\t// out\n                /* \"contracts/Aution.sol\":724:749  uint256 public startPrice */\n            tag_104:\n              sload(0x07)\n              dup2\n              jump\t// out\n                /* \"contracts/Aution.sol\":3038:4076  function placeBidWithERC20(address bidTokenAddress, uint256 value) external nonReentrant timeToBid {... */\n            tag_110:\n                /* \"@openzeppelin/contracts/utils/ReentrancyGuard.sol\":2500:2521  _nonReentrantBefore() */\n              tag_211\n                /* \"@openzeppelin/contracts/utils/ReentrancyGuard.sol\":2500:2519  _nonReentrantBefore */\n              tag_168\n                /* \"@openzeppelin/contracts/utils/ReentrancyGuard.sol\":2500:2521  _nonReentrantBefore() */\n              jump\t// in\n            tag_211:\n                /* \"contracts/Aution.sol\":1481:1490  startTime */\n              sload(0x05)\n                /* \"contracts/Aution.sol\":1462:1477  block.timestamp */\n              timestamp\n                /* \"contracts/Aution.sol\":1462:1490  block.timestamp >= startTime */\n              lt\n              iszero\n                /* \"contracts/Aution.sol\":1462:1520  block.timestamp >= startTime && block.timestamp <= endTime */\n              dup1\n              iszero\n              tag_213\n              jumpi\n              pop\n                /* \"contracts/Aution.sol\":1513:1520  endTime */\n              sload(0x06)\n                /* \"contracts/Aution.sol\":1494:1509  block.timestamp */\n              timestamp\n                /* \"contracts/Aution.sol\":1494:1520  block.timestamp <= endTime */\n              gt\n              iszero\n                /* \"contracts/Aution.sol\":1462:1520  block.timestamp >= startTime && block.timestamp <= endTime */\n            tag_213:\n                /* \"contracts/Aution.sol\":1440:1571  require(... */\n              tag_214\n              jumpi\n              mload(0x40)\n              0x08c379a000000000000000000000000000000000000000000000000000000000\n              dup2\n              mstore\n              0x04\n              add\n              tag_215\n              swap1\n              tag_120\n              jump\t// in\n            tag_215:\n              mload(0x40)\n              dup1\n              swap2\n              sub\n              swap1\n              revert\n            tag_214:\n                /* \"contracts/Aution.sol\":3157:3162  isEnd */\n              0x0c\n              0x00\n              swap1\n              sload\n              swap1\n              0x0100\n              exp\n              swap1\n              div\n              0xff\n              and\n                /* \"contracts/Aution.sol\":3156:3162  !isEnd */\n              iszero\n                /* \"contracts/Aution.sol\":3148:3181  require(!isEnd, \"Aution has end\") */\n              tag_217\n              jumpi\n              mload(0x40)\n              0x08c379a000000000000000000000000000000000000000000000000000000000\n              dup2\n              mstore\n              0x04\n              add\n              tag_218\n              swap1\n              tag_124\n              jump\t// in\n            tag_218:\n              mload(0x40)\n              dup1\n              swap2\n              sub\n              swap1\n              revert\n            tag_217:\n                /* \"contracts/Aution.sol\":3219:3261  0x779877A7B0D9E8603169DdbD7836e478b4624789 */\n              0x779877a7b0d9e8603169ddbd7836e478b4624789\n                /* \"contracts/Aution.sol\":3200:3261  bidTokenAddress == 0x779877A7B0D9E8603169DdbD7836e478b4624789 */\n              0xffffffffffffffffffffffffffffffffffffffff\n              and\n                /* \"contracts/Aution.sol\":3200:3215  bidTokenAddress */\n              dup3\n                /* \"contracts/Aution.sol\":3200:3261  bidTokenAddress == 0x779877A7B0D9E8603169DdbD7836e478b4624789 */\n              0xffffffffffffffffffffffffffffffffffffffff\n              and\n              eq\n                /* \"contracts/Aution.sol\":3192:3282  require(bidTokenAddress == 0x779877A7B0D9E8603169DdbD7836e478b4624789, \"only accept link\") */\n              tag_219\n              jumpi\n              mload(0x40)\n              0x08c379a000000000000000000000000000000000000000000000000000000000\n              dup2\n              mstore\n              0x04\n              add\n              tag_220\n              swap1\n              tag_221\n              jump\t// in\n            tag_220:\n              mload(0x40)\n              dup1\n              swap2\n              sub\n              swap1\n              revert\n            tag_219:\n                /* \"contracts/Aution.sol\":3295:3309  uint256 amount */\n              0x00\n                /* \"contracts/Aution.sol\":3327:3334  factory */\n              0x01\n              0x00\n              swap1\n              sload\n              swap1\n              0x0100\n              exp\n              swap1\n              div\n              0xffffffffffffffffffffffffffffffffffffffff\n              and\n                /* \"contracts/Aution.sol\":3312:3357  IAutionFactory(factory).formatLinkToUsdtPrice */\n              0xffffffffffffffffffffffffffffffffffffffff\n              and\n              0x135597fd\n                /* \"contracts/Aution.sol\":3358:3363  value */\n              dup4\n                /* \"contracts/Aution.sol\":3312:3364  IAutionFactory(factory).formatLinkToUsdtPrice(value) */\n              mload(0x40)\n              dup3\n              0xffffffff\n              and\n              0xe0\n              shl\n              dup2\n              mstore\n              0x04\n              add\n              tag_222\n              swap2\n              swap1\n              tag_45\n              jump\t// in\n            tag_222:\n              0x20\n              mload(0x40)\n              dup1\n              dup4\n              sub\n              dup2\n              0x00\n              dup8\n              gas\n              call\n              iszero\n              dup1\n              iszero\n              tag_224\n              jumpi\n              returndatacopy(0x00, 0x00, returndatasize)\n              revert(0x00, returndatasize)\n            tag_224:\n              pop\n              pop\n              pop\n              pop\n              mload(0x40)\n              returndatasize\n              not(0x1f)\n              0x1f\n              dup3\n              add\n              and\n              dup3\n              add\n              dup1\n              0x40\n              mstore\n              pop\n              dup2\n              add\n              swap1\n              tag_225\n              swap2\n              swap1\n              tag_180\n              jump\t// in\n            tag_225:\n                /* \"contracts/Aution.sol\":3295:3364  uint256 amount = IAutionFactory(factory).formatLinkToUsdtPrice(value) */\n              swap1\n              pop\n                /* \"contracts/Aution.sol\":3375:3397  uint256 startPriceUsdt */\n              0x00\n                /* \"contracts/Aution.sol\":3415:3422  factory */\n              0x01\n              0x00\n              swap1\n              sload\n              swap1\n              0x0100\n              exp\n              swap1\n              div\n              0xffffffffffffffffffffffffffffffffffffffff\n              and\n                /* \"contracts/Aution.sol\":3400:3445  IAutionFactory(factory).formatLinkToUsdtPrice */\n              0xffffffffffffffffffffffffffffffffffffffff\n              and\n              0x135597fd\n                /* \"contracts/Aution.sol\":3446:3456  startPrice */\n              sload(0x07)\n                /* \"contracts/Aution.sol\":3400:3457  IAutionFactory(factory).formatLinkToUsdtPrice(startPrice) */\n              mload(0x40)\n              dup3\n              0xffffffff\n              and\n              0xe0\n              shl\n              dup2\n              mstore\n              0x04\n              add\n              tag_226\n              swap2\n              swap1\n              tag_45\n              jump\t// in\n            tag_226:\n              0x20\n              mload(0x40)\n              dup1\n              dup4\n              sub\n              dup2\n              0x00\n              dup8\n              gas\n              call\n              iszero\n              dup1\n              iszero\n              tag_228\n              jumpi\n              returndatacopy(0x00, 0x00, returndatasize)\n              revert(0x00, returndatasize)\n            tag_228:\n              pop\n              pop\n              pop\n              pop\n              mload(0x40)\n              returndatasize\n              not(0x1f)\n              0x1f\n              dup3\n              add\n              and\n              dup3\n              add\n              dup1\n              0x40\n              mstore\n              pop\n              dup2\n              add\n              swap1\n              tag_229\n              swap2\n              swap1\n              tag_180\n              jump\t// in\n            tag_229:\n                /* \"contracts/Aution.sol\":3375:3457  uint256 startPriceUsdt = IAutionFactory(factory).formatLinkToUsdtPrice(startPrice) */\n              swap1\n              pop\n                /* \"contracts/Aution.sol\":3553:3563  highestBid */\n              sload(0x08)\n                /* \"contracts/Aution.sol\":3544:3550  amount */\n              dup3\n                /* \"contracts/Aution.sol\":3544:3563  amount > highestBid */\n              gt\n                /* \"contracts/Aution.sol\":3544:3591  amount > highestBid && amount >= startPriceUsdt */\n              dup1\n              iszero\n              tag_230\n              jumpi\n              pop\n                /* \"contracts/Aution.sol\":3577:3591  startPriceUsdt */\n              dup1\n                /* \"contracts/Aution.sol\":3567:3573  amount */\n              dup3\n                /* \"contracts/Aution.sol\":3567:3591  amount >= startPriceUsdt */\n              lt\n              iszero\n                /* \"contracts/Aution.sol\":3544:3591  amount > highestBid && amount >= startPriceUsdt */\n            tag_230:\n                /* \"contracts/Aution.sol\":3522:3638  require(... */\n              tag_231\n              jumpi\n              mload(0x40)\n              0x08c379a000000000000000000000000000000000000000000000000000000000\n              dup2\n              mstore\n              0x04\n              add\n              tag_232\n              swap1\n              tag_188\n              jump\t// in\n            tag_232:\n              mload(0x40)\n              dup1\n              swap2\n              sub\n              swap1\n              revert\n            tag_231:\n                /* \"contracts/Aution.sol\":3706:3721  bidTokenAddress */\n              dup4\n                /* \"contracts/Aution.sol\":3699:3735  IERC20(bidTokenAddress).transferFrom */\n              0xffffffffffffffffffffffffffffffffffffffff\n              and\n              0x23b872dd\n                /* \"contracts/Aution.sol\":3736:3746  msg.sender */\n              caller\n                /* \"contracts/Aution.sol\":3756:3760  this */\n              address\n                /* \"contracts/Aution.sol\":3763:3768  value */\n              dup7\n                /* \"contracts/Aution.sol\":3699:3769  IERC20(bidTokenAddress).transferFrom(msg.sender, address(this), value) */\n              mload(0x40)\n              dup5\n              0xffffffff\n              and\n              0xe0\n              shl\n              dup2\n              mstore\n              0x04\n              add\n              tag_233\n              swap4\n              swap3\n              swap2\n              swap1\n              tag_127\n              jump\t// in\n            tag_233:\n              0x20\n              mload(0x40)\n              dup1\n              dup4\n              sub\n              dup2\n              0x00\n              dup8\n              gas\n              call\n              iszero\n              dup1\n              iszero\n              tag_235\n              jumpi\n              returndatacopy(0x00, 0x00, returndatasize)\n              revert(0x00, returndatasize)\n            tag_235:\n              pop\n              pop\n              pop\n              pop\n              mload(0x40)\n              returndatasize\n              not(0x1f)\n              0x1f\n              dup3\n              add\n              and\n              dup3\n              add\n              dup1\n              0x40\n              mstore\n              pop\n              dup2\n              add\n              swap1\n              tag_236\n              swap2\n              swap1\n              tag_146\n              jump\t// in\n            tag_236:\n              pop\n                /* \"contracts/Aution.sol\":3782:3795  returnToken() */\n              tag_237\n                /* \"contracts/Aution.sol\":3782:3793  returnToken */\n              tag_190\n                /* \"contracts/Aution.sol\":3782:3795  returnToken() */\n              jump\t// in\n            tag_237:\n                /* \"contracts/Aution.sol\":3873:3883  msg.sender */\n              caller\n                /* \"contracts/Aution.sol\":3857:3870  highestBidder */\n              0x09\n              0x00\n                /* \"contracts/Aution.sol\":3857:3883  highestBidder = msg.sender */\n              0x0100\n              exp\n              dup2\n              sload\n              dup2\n              0xffffffffffffffffffffffffffffffffffffffff\n              mul\n              not\n              and\n              swap1\n              dup4\n              0xffffffffffffffffffffffffffffffffffffffff\n              and\n              mul\n              or\n              swap1\n              sstore\n              pop\n                /* \"contracts/Aution.sol\":3907:3913  amount */\n              dup2\n                /* \"contracts/Aution.sol\":3894:3904  highestBid */\n              0x08\n                /* \"contracts/Aution.sol\":3894:3913  highestBid = amount */\n              dup2\n              swap1\n              sstore\n              pop\n                /* \"contracts/Aution.sol\":3939:3954  bidTokenAddress */\n              dup4\n                /* \"contracts/Aution.sol\":3924:3936  tokenAddress */\n              0x0a\n              0x00\n                /* \"contracts/Aution.sol\":3924:3954  tokenAddress = bidTokenAddress */\n              0x0100\n              exp\n              dup2\n              sload\n              dup2\n              0xffffffffffffffffffffffffffffffffffffffff\n              mul\n              not\n              and\n              swap1\n              dup4\n              0xffffffffffffffffffffffffffffffffffffffff\n              and\n              mul\n              or\n              swap1\n              sstore\n              pop\n                /* \"contracts/Aution.sol\":3978:3983  value */\n              dup3\n                /* \"contracts/Aution.sol\":3965:3975  tokenValue */\n              0x0b\n                /* \"contracts/Aution.sol\":3965:3983  tokenValue = value */\n              dup2\n              swap1\n              sstore\n              pop\n                /* \"contracts/Aution.sol\":4050:4056  amount */\n              dup2\n                /* \"contracts/Aution.sol\":4027:4035  bidsData */\n              0x0d\n                /* \"contracts/Aution.sol\":4027:4047  bidsData[msg.sender] */\n              0x00\n                /* \"contracts/Aution.sol\":4036:4046  msg.sender */\n              caller\n                /* \"contracts/Aution.sol\":4027:4047  bidsData[msg.sender] */\n              0xffffffffffffffffffffffffffffffffffffffff\n              and\n              0xffffffffffffffffffffffffffffffffffffffff\n              and\n              dup2\n              mstore\n              0x20\n              add\n              swap1\n              dup2\n              mstore\n              0x20\n              add\n              0x00\n              keccak256\n                /* \"contracts/Aution.sol\":4027:4056  bidsData[msg.sender] = amount */\n              dup2\n              swap1\n              sstore\n              pop\n                /* \"contracts/Aution.sol\":3137:4076  {... */\n              pop\n              pop\n                /* \"@openzeppelin/contracts/utils/ReentrancyGuard.sol\":2542:2562  _nonReentrantAfter() */\n              tag_238\n                /* \"@openzeppelin/contracts/utils/ReentrancyGuard.sol\":2542:2560  _nonReentrantAfter */\n              tag_192\n                /* \"@openzeppelin/contracts/utils/ReentrancyGuard.sol\":2542:2562  _nonReentrantAfter() */\n              jump\t// in\n            tag_238:\n                /* \"contracts/Aution.sol\":3038:4076  function placeBidWithERC20(address bidTokenAddress, uint256 value) external nonReentrant timeToBid {... */\n              pop\n              pop\n              jump\t// out\n                /* \"@openzeppelin/contracts/utils/ReentrancyGuard.sol\":2575:2882  function _nonReentrantBefore() private {... */\n            tag_168:\n                /* \"@openzeppelin/contracts/utils/ReentrancyGuard.sol\":1899:1900  2 */\n              0x02\n                /* \"@openzeppelin/contracts/utils/ReentrancyGuard.sol\":2702:2709  _status */\n              sload(0x00)\n                /* \"@openzeppelin/contracts/utils/ReentrancyGuard.sol\":2702:2720  _status == ENTERED */\n              sub\n                /* \"@openzeppelin/contracts/utils/ReentrancyGuard.sol\":2698:2784  if (_status == ENTERED) {... */\n              tag_240\n              jumpi\n                /* \"@openzeppelin/contracts/utils/ReentrancyGuard.sol\":2743:2773  ReentrancyGuardReentrantCall() */\n              mload(0x40)\n              0x3ee5aeb500000000000000000000000000000000000000000000000000000000\n              dup2\n              mstore\n              0x04\n              add\n              mload(0x40)\n              dup1\n              swap2\n              sub\n              swap1\n              revert\n                /* \"@openzeppelin/contracts/utils/ReentrancyGuard.sol\":2698:2784  if (_status == ENTERED) {... */\n            tag_240:\n                /* \"@openzeppelin/contracts/utils/ReentrancyGuard.sol\":1899:1900  2 */\n              0x02\n                /* \"@openzeppelin/contracts/utils/ReentrancyGuard.sol\":2858:2865  _status */\n              0x00\n                /* \"@openzeppelin/contracts/utils/ReentrancyGuard.sol\":2858:2875  _status = ENTERED */\n              dup2\n              swap1\n              sstore\n              pop\n                /* \"@openzeppelin/contracts/utils/ReentrancyGuard.sol\":2575:2882  function _nonReentrantBefore() private {... */\n              jump\t// out\n                /* \"contracts/Aution.sol\":4114:4778  function returnToken() private {... */\n            tag_190:\n                /* \"contracts/Aution.sol\":4246:4247  0 */\n              0x00\n                /* \"contracts/Aution.sol\":4221:4248  highestBidder != address(0) */\n              0xffffffffffffffffffffffffffffffffffffffff\n              and\n                /* \"contracts/Aution.sol\":4221:4234  highestBidder */\n              0x09\n              0x00\n              swap1\n              sload\n              swap1\n              0x0100\n              exp\n              swap1\n              div\n              0xffffffffffffffffffffffffffffffffffffffff\n              and\n                /* \"contracts/Aution.sol\":4221:4248  highestBidder != address(0) */\n              0xffffffffffffffffffffffffffffffffffffffff\n              and\n              eq\n                /* \"contracts/Aution.sol\":4217:4771  if (highestBidder != address(0)) {... */\n              tag_242\n              jumpi\n                /* \"contracts/Aution.sol\":4293:4294  0 */\n              0x00\n                /* \"contracts/Aution.sol\":4269:4295  tokenAddress == address(0) */\n              0xffffffffffffffffffffffffffffffffffffffff\n              and\n                /* \"contracts/Aution.sol\":4269:4281  tokenAddress */\n              0x0a\n              0x00\n              swap1\n              sload\n              swap1\n              0x0100\n              exp\n              swap1\n              div\n              0xffffffffffffffffffffffffffffffffffffffff\n              and\n                /* \"contracts/Aution.sol\":4269:4295  tokenAddress == address(0) */\n              0xffffffffffffffffffffffffffffffffffffffff\n              and\n              sub\n                /* \"contracts/Aution.sol\":4265:4760  if (tokenAddress == address(0)) {... */\n              tag_243\n              jumpi\n                /* \"contracts/Aution.sol\":4393:4405  bool success */\n              0x00\n                /* \"contracts/Aution.sol\":4419:4432  highestBidder */\n              0x09\n              0x00\n              swap1\n              sload\n              swap1\n              0x0100\n              exp\n              swap1\n              div\n              0xffffffffffffffffffffffffffffffffffffffff\n              and\n                /* \"contracts/Aution.sol\":4411:4438  payable(highestBidder).call */\n              0xffffffffffffffffffffffffffffffffffffffff\n              and\n                /* \"contracts/Aution.sol\":4446:4456  tokenValue */\n              sload(0x0b)\n                /* \"contracts/Aution.sol\":4411:4461  payable(highestBidder).call{value: tokenValue}(\"\") */\n              mload(0x40)\n              tag_244\n              swap1\n              tag_133\n              jump\t// in\n            tag_244:\n              0x00\n              mload(0x40)\n              dup1\n              dup4\n              sub\n              dup2\n              dup6\n              dup8\n              gas\n              call\n              swap3\n              pop\n              pop\n              pop\n              returndatasize\n              dup1\n              0x00\n              dup2\n              eq\n              tag_247\n              jumpi\n              mload(0x40)\n              swap2\n              pop\n              and(add(returndatasize, 0x3f), not(0x1f))\n              dup3\n              add\n              0x40\n              mstore\n              returndatasize\n              dup3\n              mstore\n              returndatasize\n              0x00\n              0x20\n              dup5\n              add\n              returndatacopy\n              jump(tag_246)\n            tag_247:\n              0x60\n              swap2\n              pop\n            tag_246:\n              pop\n                /* \"contracts/Aution.sol\":4392:4461  (bool success, ) = payable(highestBidder).call{value: tokenValue}(\"\") */\n              pop\n              swap1\n              pop\n                /* \"contracts/Aution.sol\":4488:4495  success */\n              dup1\n                /* \"contracts/Aution.sol\":4480:4519  require(success, \"ETH transfer failed\") */\n              tag_248\n              jumpi\n              mload(0x40)\n              0x08c379a000000000000000000000000000000000000000000000000000000000\n              dup2\n              mstore\n              0x04\n              add\n              tag_249\n              swap1\n              tag_139\n              jump\t// in\n            tag_249:\n              mload(0x40)\n              dup1\n              swap2\n              sub\n              swap1\n              revert\n            tag_248:\n                /* \"contracts/Aution.sol\":4297:4535  {... */\n              pop\n                /* \"contracts/Aution.sol\":4265:4760  if (tokenAddress == address(0)) {... */\n              jump(tag_250)\n            tag_243:\n                /* \"contracts/Aution.sol\":4630:4642  tokenAddress */\n              0x0a\n              0x00\n              swap1\n              sload\n              swap1\n              0x0100\n              exp\n              swap1\n              div\n              0xffffffffffffffffffffffffffffffffffffffff\n              and\n                /* \"contracts/Aution.sol\":4623:4652  IERC20(tokenAddress).transfer */\n              0xffffffffffffffffffffffffffffffffffffffff\n              and\n              0xa9059cbb\n                /* \"contracts/Aution.sol\":4653:4666  highestBidder */\n              0x09\n              0x00\n              swap1\n              sload\n              swap1\n              0x0100\n              exp\n              swap1\n              div\n              0xffffffffffffffffffffffffffffffffffffffff\n              and\n                /* \"contracts/Aution.sol\":4668:4678  tokenValue */\n              sload(0x0b)\n                /* \"contracts/Aution.sol\":4623:4679  IERC20(tokenAddress).transfer(highestBidder, tokenValue) */\n              mload(0x40)\n              dup4\n              0xffffffff\n              and\n              0xe0\n              shl\n              dup2\n              mstore\n              0x04\n              add\n              tag_251\n              swap3\n              swap2\n              swap1\n              tag_142\n              jump\t// in\n            tag_251:\n              0x20\n              mload(0x40)\n              dup1\n              dup4\n              sub\n              dup2\n              0x00\n              dup8\n              gas\n              call\n              iszero\n              dup1\n              iszero\n              tag_253\n              jumpi\n              returndatacopy(0x00, 0x00, returndatasize)\n              revert(0x00, returndatasize)\n            tag_253:\n              pop\n              pop\n              pop\n              pop\n              mload(0x40)\n              returndatasize\n              not(0x1f)\n              0x1f\n              dup3\n              add\n              and\n              dup3\n              add\n              dup1\n              0x40\n              mstore\n              pop\n              dup2\n              add\n              swap1\n              tag_254\n              swap2\n              swap1\n              tag_146\n              jump\t// in\n            tag_254:\n                /* \"contracts/Aution.sol\":4593:4744  require(... */\n              tag_255\n              jumpi\n              mload(0x40)\n              0x08c379a000000000000000000000000000000000000000000000000000000000\n              dup2\n              mstore\n              0x04\n              add\n              tag_256\n              swap1\n              tag_149\n              jump\t// in\n            tag_256:\n              mload(0x40)\n              dup1\n              swap2\n              sub\n              swap1\n              revert\n            tag_255:\n                /* \"contracts/Aution.sol\":4265:4760  if (tokenAddress == address(0)) {... */\n            tag_250:\n                /* \"contracts/Aution.sol\":4217:4771  if (highestBidder != address(0)) {... */\n            tag_242:\n                /* \"contracts/Aution.sol\":4114:4778  function returnToken() private {... */\n              jump\t// out\n                /* \"@openzeppelin/contracts/utils/ReentrancyGuard.sol\":2888:3096  function _nonReentrantAfter() private {... */\n            tag_192:\n                /* \"@openzeppelin/contracts/utils/ReentrancyGuard.sol\":1857:1858  1 */\n              0x01\n                /* \"@openzeppelin/contracts/utils/ReentrancyGuard.sol\":3068:3075  _status */\n              0x00\n                /* \"@openzeppelin/contracts/utils/ReentrancyGuard.sol\":3068:3089  _status = NOT_ENTERED */\n              dup2\n              swap1\n              sstore\n              pop\n                /* \"@openzeppelin/contracts/utils/ReentrancyGuard.sol\":2888:3096  function _nonReentrantAfter() private {... */\n              jump\t// out\n                /* \"#utility.yul\":7:133   */\n            tag_258:\n                /* \"#utility.yul\":44:51   */\n              0x00\n                /* \"#utility.yul\":84:126   */\n              0xffffffffffffffffffffffffffffffffffffffff\n                /* \"#utility.yul\":77:82   */\n              dup3\n                /* \"#utility.yul\":73:127   */\n              and\n                /* \"#utility.yul\":62:127   */\n              swap1\n              pop\n                /* \"#utility.yul\":7:133   */\n              swap2\n              swap1\n              pop\n              jump\t// out\n                /* \"#utility.yul\":139:235   */\n            tag_259:\n                /* \"#utility.yul\":176:183   */\n              0x00\n                /* \"#utility.yul\":205:229   */\n              tag_305\n                /* \"#utility.yul\":223:228   */\n              dup3\n                /* \"#utility.yul\":205:229   */\n              tag_258\n              jump\t// in\n            tag_305:\n                /* \"#utility.yul\":194:229   */\n              swap1\n              pop\n                /* \"#utility.yul\":139:235   */\n              swap2\n              swap1\n              pop\n              jump\t// out\n                /* \"#utility.yul\":241:359   */\n            tag_260:\n                /* \"#utility.yul\":328:352   */\n              tag_307\n                /* \"#utility.yul\":346:351   */\n              dup2\n                /* \"#utility.yul\":328:352   */\n              tag_259\n              jump\t// in\n            tag_307:\n                /* \"#utility.yul\":323:326   */\n              dup3\n                /* \"#utility.yul\":316:353   */\n              mstore\n                /* \"#utility.yul\":241:359   */\n              pop\n              pop\n              jump\t// out\n                /* \"#utility.yul\":365:587   */\n            tag_33:\n                /* \"#utility.yul\":458:462   */\n              0x00\n                /* \"#utility.yul\":496:498   */\n              0x20\n                /* \"#utility.yul\":485:494   */\n              dup3\n                /* \"#utility.yul\":481:499   */\n              add\n                /* \"#utility.yul\":473:499   */\n              swap1\n              pop\n                /* \"#utility.yul\":509:580   */\n              tag_309\n                /* \"#utility.yul\":577:578   */\n              0x00\n                /* \"#utility.yul\":566:575   */\n              dup4\n                /* \"#utility.yul\":562:579   */\n              add\n                /* \"#utility.yul\":553:559   */\n              dup5\n                /* \"#utility.yul\":509:580   */\n              tag_260\n              jump\t// in\n            tag_309:\n                /* \"#utility.yul\":365:587   */\n              swap3\n              swap2\n              pop\n              pop\n              jump\t// out\n                /* \"#utility.yul\":674:791   */\n            tag_262:\n                /* \"#utility.yul\":783:784   */\n              0x00\n                /* \"#utility.yul\":780:781   */\n              0x00\n                /* \"#utility.yul\":773:785   */\n              revert\n                /* \"#utility.yul\":797:914   */\n            tag_263:\n                /* \"#utility.yul\":906:907   */\n              0x00\n                /* \"#utility.yul\":903:904   */\n              0x00\n                /* \"#utility.yul\":896:908   */\n              revert\n                /* \"#utility.yul\":920:1042   */\n            tag_264:\n                /* \"#utility.yul\":993:1017   */\n              tag_314\n                /* \"#utility.yul\":1011:1016   */\n              dup2\n                /* \"#utility.yul\":993:1017   */\n              tag_259\n              jump\t// in\n            tag_314:\n                /* \"#utility.yul\":986:991   */\n              dup2\n                /* \"#utility.yul\":983:1018   */\n              eq\n                /* \"#utility.yul\":973:1036   */\n              tag_315\n              jumpi\n                /* \"#utility.yul\":1032:1033   */\n              0x00\n                /* \"#utility.yul\":1029:1030   */\n              0x00\n                /* \"#utility.yul\":1022:1034   */\n              revert\n                /* \"#utility.yul\":973:1036   */\n            tag_315:\n                /* \"#utility.yul\":920:1042   */\n              pop\n              jump\t// out\n                /* \"#utility.yul\":1048:1187   */\n            tag_265:\n                /* \"#utility.yul\":1094:1099   */\n              0x00\n                /* \"#utility.yul\":1132:1138   */\n              dup2\n                /* \"#utility.yul\":1119:1139   */\n              calldataload\n                /* \"#utility.yul\":1110:1139   */\n              swap1\n              pop\n                /* \"#utility.yul\":1148:1181   */\n              tag_317\n                /* \"#utility.yul\":1175:1180   */\n              dup2\n                /* \"#utility.yul\":1148:1181   */\n              tag_264\n              jump\t// in\n            tag_317:\n                /* \"#utility.yul\":1048:1187   */\n              swap3\n              swap2\n              pop\n              pop\n              jump\t// out\n                /* \"#utility.yul\":1193:1270   */\n            tag_266:\n                /* \"#utility.yul\":1230:1237   */\n              0x00\n                /* \"#utility.yul\":1259:1264   */\n              dup2\n                /* \"#utility.yul\":1248:1264   */\n              swap1\n              pop\n                /* \"#utility.yul\":1193:1270   */\n              swap2\n              swap1\n              pop\n              jump\t// out\n                /* \"#utility.yul\":1276:1398   */\n            tag_267:\n                /* \"#utility.yul\":1349:1373   */\n              tag_320\n                /* \"#utility.yul\":1367:1372   */\n              dup2\n                /* \"#utility.yul\":1349:1373   */\n              tag_266\n              jump\t// in\n            tag_320:\n                /* \"#utility.yul\":1342:1347   */\n              dup2\n                /* \"#utility.yul\":1339:1374   */\n              eq\n                /* \"#utility.yul\":1329:1392   */\n              tag_321\n              jumpi\n                /* \"#utility.yul\":1388:1389   */\n              0x00\n                /* \"#utility.yul\":1385:1386   */\n              0x00\n                /* \"#utility.yul\":1378:1390   */\n              revert\n                /* \"#utility.yul\":1329:1392   */\n            tag_321:\n                /* \"#utility.yul\":1276:1398   */\n              pop\n              jump\t// out\n                /* \"#utility.yul\":1404:1543   */\n            tag_268:\n                /* \"#utility.yul\":1450:1455   */\n              0x00\n                /* \"#utility.yul\":1488:1494   */\n              dup2\n                /* \"#utility.yul\":1475:1495   */\n              calldataload\n                /* \"#utility.yul\":1466:1495   */\n              swap1\n              pop\n                /* \"#utility.yul\":1504:1537   */\n              tag_323\n                /* \"#utility.yul\":1531:1536   */\n              dup2\n                /* \"#utility.yul\":1504:1537   */\n              tag_267\n              jump\t// in\n            tag_323:\n                /* \"#utility.yul\":1404:1543   */\n              swap3\n              swap2\n              pop\n              pop\n              jump\t// out\n                /* \"#utility.yul\":1549:1666   */\n            tag_269:\n                /* \"#utility.yul\":1658:1659   */\n              0x00\n                /* \"#utility.yul\":1655:1656   */\n              0x00\n                /* \"#utility.yul\":1648:1660   */\n              revert\n                /* \"#utility.yul\":1672:1789   */\n            tag_270:\n                /* \"#utility.yul\":1781:1782   */\n              0x00\n                /* \"#utility.yul\":1778:1779   */\n              0x00\n                /* \"#utility.yul\":1771:1783   */\n              revert\n                /* \"#utility.yul\":1795:1912   */\n            tag_271:\n                /* \"#utility.yul\":1904:1905   */\n              0x00\n                /* \"#utility.yul\":1901:1902   */\n              0x00\n                /* \"#utility.yul\":1894:1906   */\n              revert\n                /* \"#utility.yul\":1931:2483   */\n            tag_272:\n                /* \"#utility.yul\":1988:1996   */\n              0x00\n                /* \"#utility.yul\":1998:2004   */\n              0x00\n                /* \"#utility.yul\":2048:2051   */\n              dup4\n                /* \"#utility.yul\":2041:2045   */\n              0x1f\n                /* \"#utility.yul\":2033:2039   */\n              dup5\n                /* \"#utility.yul\":2029:2046   */\n              add\n                /* \"#utility.yul\":2025:2052   */\n              slt\n                /* \"#utility.yul\":2015:2137   */\n              tag_328\n              jumpi\n                /* \"#utility.yul\":2056:2135   */\n              tag_329\n              tag_269\n              jump\t// in\n            tag_329:\n                /* \"#utility.yul\":2015:2137   */\n            tag_328:\n                /* \"#utility.yul\":2169:2175   */\n              dup3\n                /* \"#utility.yul\":2156:2176   */\n              calldataload\n                /* \"#utility.yul\":2146:2176   */\n              swap1\n              pop\n                /* \"#utility.yul\":2199:2217   */\n              0xffffffffffffffff\n                /* \"#utility.yul\":2191:2197   */\n              dup2\n                /* \"#utility.yul\":2188:2218   */\n              gt\n                /* \"#utility.yul\":2185:2302   */\n              iszero\n              tag_330\n              jumpi\n                /* \"#utility.yul\":2221:2300   */\n              tag_331\n              tag_270\n              jump\t// in\n            tag_331:\n                /* \"#utility.yul\":2185:2302   */\n            tag_330:\n                /* \"#utility.yul\":2335:2339   */\n              0x20\n                /* \"#utility.yul\":2327:2333   */\n              dup4\n                /* \"#utility.yul\":2323:2340   */\n              add\n                /* \"#utility.yul\":2311:2340   */\n              swap2\n              pop\n                /* \"#utility.yul\":2389:2392   */\n              dup4\n                /* \"#utility.yul\":2381:2385   */\n              0x01\n                /* \"#utility.yul\":2373:2379   */\n              dup3\n                /* \"#utility.yul\":2369:2386   */\n              mul\n                /* \"#utility.yul\":2359:2367   */\n              dup4\n                /* \"#utility.yul\":2355:2387   */\n              add\n                /* \"#utility.yul\":2352:2393   */\n              gt\n                /* \"#utility.yul\":2349:2477   */\n              iszero\n              tag_332\n              jumpi\n                /* \"#utility.yul\":2396:2475   */\n              tag_333\n              tag_271\n              jump\t// in\n            tag_333:\n                /* \"#utility.yul\":2349:2477   */\n            tag_332:\n                /* \"#utility.yul\":1931:2483   */\n              swap3\n              pop\n              swap3\n              swap1\n              pop\n              jump\t// out\n                /* \"#utility.yul\":2489:3452   */\n            tag_37:\n                /* \"#utility.yul\":2586:2592   */\n              0x00\n                /* \"#utility.yul\":2594:2600   */\n              0x00\n                /* \"#utility.yul\":2602:2608   */\n              0x00\n                /* \"#utility.yul\":2610:2616   */\n              0x00\n                /* \"#utility.yul\":2618:2624   */\n              0x00\n                /* \"#utility.yul\":2667:2670   */\n              0x80\n                /* \"#utility.yul\":2655:2664   */\n              dup7\n                /* \"#utility.yul\":2646:2653   */\n              dup9\n                /* \"#utility.yul\":2642:2665   */\n              sub\n                /* \"#utility.yul\":2638:2671   */\n              slt\n                /* \"#utility.yul\":2635:2755   */\n              iszero\n              tag_335\n              jumpi\n                /* \"#utility.yul\":2674:2753   */\n              tag_336\n              tag_262\n              jump\t// in\n            tag_336:\n                /* \"#utility.yul\":2635:2755   */\n            tag_335:\n                /* \"#utility.yul\":2794:2795   */\n              0x00\n                /* \"#utility.yul\":2819:2872   */\n              tag_337\n                /* \"#utility.yul\":2864:2871   */\n              dup9\n                /* \"#utility.yul\":2855:2861   */\n              dup3\n                /* \"#utility.yul\":2844:2853   */\n              dup10\n                /* \"#utility.yul\":2840:2862   */\n              add\n                /* \"#utility.yul\":2819:2872   */\n              tag_265\n              jump\t// in\n            tag_337:\n                /* \"#utility.yul\":2809:2872   */\n              swap6\n              pop\n                /* \"#utility.yul\":2765:2882   */\n              pop\n                /* \"#utility.yul\":2921:2923   */\n              0x20\n                /* \"#utility.yul\":2947:3000   */\n              tag_338\n                /* \"#utility.yul\":2992:2999   */\n              dup9\n                /* \"#utility.yul\":2983:2989   */\n              dup3\n                /* \"#utility.yul\":2972:2981   */\n              dup10\n                /* \"#utility.yul\":2968:2990   */\n              add\n                /* \"#utility.yul\":2947:3000   */\n              tag_265\n              jump\t// in\n            tag_338:\n                /* \"#utility.yul\":2937:3000   */\n              swap5\n              pop\n                /* \"#utility.yul\":2892:3010   */\n              pop\n                /* \"#utility.yul\":3049:3051   */\n              0x40\n                /* \"#utility.yul\":3075:3128   */\n              tag_339\n                /* \"#utility.yul\":3120:3127   */\n              dup9\n                /* \"#utility.yul\":3111:3117   */\n              dup3\n                /* \"#utility.yul\":3100:3109   */\n              dup10\n                /* \"#utility.yul\":3096:3118   */\n              add\n                /* \"#utility.yul\":3075:3128   */\n              tag_268\n              jump\t// in\n            tag_339:\n                /* \"#utility.yul\":3065:3128   */\n              swap4\n              pop\n                /* \"#utility.yul\":3020:3138   */\n              pop\n                /* \"#utility.yul\":3205:3207   */\n              0x60\n                /* \"#utility.yul\":3194:3203   */\n              dup7\n                /* \"#utility.yul\":3190:3208   */\n              add\n                /* \"#utility.yul\":3177:3209   */\n              calldataload\n                /* \"#utility.yul\":3236:3254   */\n              0xffffffffffffffff\n                /* \"#utility.yul\":3228:3234   */\n              dup2\n                /* \"#utility.yul\":3225:3255   */\n              gt\n                /* \"#utility.yul\":3222:3339   */\n              iszero\n              tag_340\n              jumpi\n                /* \"#utility.yul\":3258:3337   */\n              tag_341\n              tag_263\n              jump\t// in\n            tag_341:\n                /* \"#utility.yul\":3222:3339   */\n            tag_340:\n                /* \"#utility.yul\":3371:3435   */\n              tag_342\n                /* \"#utility.yul\":3427:3434   */\n              dup9\n                /* \"#utility.yul\":3418:3424   */\n              dup3\n                /* \"#utility.yul\":3407:3416   */\n              dup10\n                /* \"#utility.yul\":3403:3425   */\n              add\n                /* \"#utility.yul\":3371:3435   */\n              tag_272\n              jump\t// in\n            tag_342:\n                /* \"#utility.yul\":3353:3435   */\n              swap3\n              pop\n              swap3\n              pop\n                /* \"#utility.yul\":3148:3445   */\n              pop\n                /* \"#utility.yul\":2489:3452   */\n              swap3\n              swap6\n              pop\n              swap3\n              swap6\n              swap1\n              swap4\n              pop\n              jump\t// out\n                /* \"#utility.yul\":3458:3607   */\n            tag_273:\n                /* \"#utility.yul\":3494:3501   */\n              0x00\n                /* \"#utility.yul\":3534:3600   */\n              0xffffffff00000000000000000000000000000000000000000000000000000000\n                /* \"#utility.yul\":3527:3532   */\n              dup3\n                /* \"#utility.yul\":3523:3601   */\n              and\n                /* \"#utility.yul\":3512:3601   */\n              swap1\n              pop\n                /* \"#utility.yul\":3458:3607   */\n              swap2\n              swap1\n              pop\n              jump\t// out\n                /* \"#utility.yul\":3613:3728   */\n            tag_274:\n                /* \"#utility.yul\":3698:3721   */\n              tag_345\n                /* \"#utility.yul\":3715:3720   */\n              dup2\n                /* \"#utility.yul\":3698:3721   */\n              tag_273\n              jump\t// in\n            tag_345:\n                /* \"#utility.yul\":3693:3696   */\n              dup3\n                /* \"#utility.yul\":3686:3722   */\n              mstore\n                /* \"#utility.yul\":3613:3728   */\n              pop\n              pop\n              jump\t// out\n                /* \"#utility.yul\":3734:3952   */\n            tag_40:\n                /* \"#utility.yul\":3825:3829   */\n              0x00\n                /* \"#utility.yul\":3863:3865   */\n              0x20\n                /* \"#utility.yul\":3852:3861   */\n              dup3\n                /* \"#utility.yul\":3848:3866   */\n              add\n                /* \"#utility.yul\":3840:3866   */\n              swap1\n              pop\n                /* \"#utility.yul\":3876:3945   */\n              tag_347\n                /* \"#utility.yul\":3942:3943   */\n              0x00\n                /* \"#utility.yul\":3931:3940   */\n              dup4\n                /* \"#utility.yul\":3927:3944   */\n              add\n                /* \"#utility.yul\":3918:3924   */\n              dup5\n                /* \"#utility.yul\":3876:3945   */\n              tag_274\n              jump\t// in\n            tag_347:\n                /* \"#utility.yul\":3734:3952   */\n              swap3\n              swap2\n              pop\n              pop\n              jump\t// out\n                /* \"#utility.yul\":3958:4076   */\n            tag_275:\n                /* \"#utility.yul\":4045:4069   */\n              tag_349\n                /* \"#utility.yul\":4063:4068   */\n              dup2\n                /* \"#utility.yul\":4045:4069   */\n              tag_266\n              jump\t// in\n            tag_349:\n                /* \"#utility.yul\":4040:4043   */\n              dup3\n                /* \"#utility.yul\":4033:4070   */\n              mstore\n                /* \"#utility.yul\":3958:4076   */\n              pop\n              pop\n              jump\t// out\n                /* \"#utility.yul\":4082:4304   */\n            tag_45:\n                /* \"#utility.yul\":4175:4179   */\n              0x00\n                /* \"#utility.yul\":4213:4215   */\n              0x20\n                /* \"#utility.yul\":4202:4211   */\n              dup3\n                /* \"#utility.yul\":4198:4216   */\n              add\n                /* \"#utility.yul\":4190:4216   */\n              swap1\n              pop\n                /* \"#utility.yul\":4226:4297   */\n              tag_351\n                /* \"#utility.yul\":4294:4295   */\n              0x00\n                /* \"#utility.yul\":4283:4292   */\n              dup4\n                /* \"#utility.yul\":4279:4296   */\n              add\n                /* \"#utility.yul\":4270:4276   */\n              dup5\n                /* \"#utility.yul\":4226:4297   */\n              tag_275\n              jump\t// in\n            tag_351:\n                /* \"#utility.yul\":4082:4304   */\n              swap3\n              swap2\n              pop\n              pop\n              jump\t// out\n                /* \"#utility.yul\":4310:4400   */\n            tag_276:\n                /* \"#utility.yul\":4344:4351   */\n              0x00\n                /* \"#utility.yul\":4387:4392   */\n              dup2\n                /* \"#utility.yul\":4380:4393   */\n              iszero\n                /* \"#utility.yul\":4373:4394   */\n              iszero\n                /* \"#utility.yul\":4362:4394   */\n              swap1\n              pop\n                /* \"#utility.yul\":4310:4400   */\n              swap2\n              swap1\n              pop\n              jump\t// out\n                /* \"#utility.yul\":4406:4515   */\n            tag_277:\n                /* \"#utility.yul\":4487:4508   */\n              tag_354\n                /* \"#utility.yul\":4502:4507   */\n              dup2\n                /* \"#utility.yul\":4487:4508   */\n              tag_276\n              jump\t// in\n            tag_354:\n                /* \"#utility.yul\":4482:4485   */\n              dup3\n                /* \"#utility.yul\":4475:4509   */\n              mstore\n                /* \"#utility.yul\":4406:4515   */\n              pop\n              pop\n              jump\t// out\n                /* \"#utility.yul\":4521:4731   */\n            tag_50:\n                /* \"#utility.yul\":4608:4612   */\n              0x00\n                /* \"#utility.yul\":4646:4648   */\n              0x20\n                /* \"#utility.yul\":4635:4644   */\n              dup3\n                /* \"#utility.yul\":4631:4649   */\n              add\n                /* \"#utility.yul\":4623:4649   */\n              swap1\n              pop\n                /* \"#utility.yul\":4659:4724   */\n              tag_356\n                /* \"#utility.yul\":4721:4722   */\n              0x00\n                /* \"#utility.yul\":4710:4719   */\n              dup4\n                /* \"#utility.yul\":4706:4723   */\n              add\n                /* \"#utility.yul\":4697:4703   */\n              dup5\n                /* \"#utility.yul\":4659:4724   */\n              tag_277\n              jump\t// in\n            tag_356:\n                /* \"#utility.yul\":4521:4731   */\n              swap3\n              swap2\n              pop\n              pop\n              jump\t// out\n                /* \"#utility.yul\":4737:5066   */\n            tag_65:\n                /* \"#utility.yul\":4796:4802   */\n              0x00\n                /* \"#utility.yul\":4845:4847   */\n              0x20\n                /* \"#utility.yul\":4833:4842   */\n              dup3\n                /* \"#utility.yul\":4824:4831   */\n              dup5\n                /* \"#utility.yul\":4820:4843   */\n              sub\n                /* \"#utility.yul\":4816:4848   */\n              slt\n                /* \"#utility.yul\":4813:4932   */\n              iszero\n              tag_358\n              jumpi\n                /* \"#utility.yul\":4851:4930   */\n              tag_359\n              tag_262\n              jump\t// in\n            tag_359:\n                /* \"#utility.yul\":4813:4932   */\n            tag_358:\n                /* \"#utility.yul\":4971:4972   */\n              0x00\n                /* \"#utility.yul\":4996:5049   */\n              tag_360\n                /* \"#utility.yul\":5041:5048   */\n              dup5\n                /* \"#utility.yul\":5032:5038   */\n              dup3\n                /* \"#utility.yul\":5021:5030   */\n              dup6\n                /* \"#utility.yul\":5017:5039   */\n              add\n                /* \"#utility.yul\":4996:5049   */\n              tag_265\n              jump\t// in\n            tag_360:\n                /* \"#utility.yul\":4986:5049   */\n              swap2\n              pop\n                /* \"#utility.yul\":4942:5059   */\n              pop\n                /* \"#utility.yul\":4737:5066   */\n              swap3\n              swap2\n              pop\n              pop\n              jump\t// out\n                /* \"#utility.yul\":5072:6129   */\n            tag_75:\n                /* \"#utility.yul\":5176:5182   */\n              0x00\n                /* \"#utility.yul\":5184:5190   */\n              0x00\n                /* \"#utility.yul\":5192:5198   */\n              0x00\n                /* \"#utility.yul\":5200:5206   */\n              0x00\n                /* \"#utility.yul\":5208:5214   */\n              0x00\n                /* \"#utility.yul\":5216:5222   */\n              0x00\n                /* \"#utility.yul\":5265:5268   */\n              0xc0\n                /* \"#utility.yul\":5253:5262   */\n              dup8\n                /* \"#utility.yul\":5244:5251   */\n              dup10\n                /* \"#utility.yul\":5240:5263   */\n              sub\n                /* \"#utility.yul\":5236:5269   */\n              slt\n                /* \"#utility.yul\":5233:5353   */\n              iszero\n              tag_362\n              jumpi\n                /* \"#utility.yul\":5272:5351   */\n              tag_363\n              tag_262\n              jump\t// in\n            tag_363:\n                /* \"#utility.yul\":5233:5353   */\n            tag_362:\n                /* \"#utility.yul\":5392:5393   */\n              0x00\n                /* \"#utility.yul\":5417:5470   */\n              tag_364\n                /* \"#utility.yul\":5462:5469   */\n              dup10\n                /* \"#utility.yul\":5453:5459   */\n              dup3\n                /* \"#utility.yul\":5442:5451   */\n              dup11\n                /* \"#utility.yul\":5438:5460   */\n              add\n                /* \"#utility.yul\":5417:5470   */\n              tag_265\n              jump\t// in\n            tag_364:\n                /* \"#utility.yul\":5407:5470   */\n              swap7\n              pop\n                /* \"#utility.yul\":5363:5480   */\n              pop\n                /* \"#utility.yul\":5519:5521   */\n              0x20\n                /* \"#utility.yul\":5545:5598   */\n              tag_365\n                /* \"#utility.yul\":5590:5597   */\n              dup10\n                /* \"#utility.yul\":5581:5587   */\n              dup3\n                /* \"#utility.yul\":5570:5579   */\n              dup11\n                /* \"#utility.yul\":5566:5588   */\n              add\n                /* \"#utility.yul\":5545:5598   */\n              tag_265\n              jump\t// in\n            tag_365:\n                /* \"#utility.yul\":5535:5598   */\n              swap6\n              pop\n                /* \"#utility.yul\":5490:5608   */\n              pop\n                /* \"#utility.yul\":5647:5649   */\n              0x40\n                /* \"#utility.yul\":5673:5726   */\n              tag_366\n                /* \"#utility.yul\":5718:5725   */\n              dup10\n                /* \"#utility.yul\":5709:5715   */\n              dup3\n                /* \"#utility.yul\":5698:5707   */\n              dup11\n                /* \"#utility.yul\":5694:5716   */\n              add\n                /* \"#utility.yul\":5673:5726   */\n              tag_268\n              jump\t// in\n            tag_366:\n                /* \"#utility.yul\":5663:5726   */\n              swap5\n              pop\n                /* \"#utility.yul\":5618:5736   */\n              pop\n                /* \"#utility.yul\":5775:5777   */\n              0x60\n                /* \"#utility.yul\":5801:5854   */\n              tag_367\n                /* \"#utility.yul\":5846:5853   */\n              dup10\n                /* \"#utility.yul\":5837:5843   */\n              dup3\n                /* \"#utility.yul\":5826:5835   */\n              dup11\n                /* \"#utility.yul\":5822:5844   */\n              add\n                /* \"#utility.yul\":5801:5854   */\n              tag_268\n              jump\t// in\n            tag_367:\n                /* \"#utility.yul\":5791:5854   */\n              swap4\n              pop\n                /* \"#utility.yul\":5746:5864   */\n              pop\n                /* \"#utility.yul\":5903:5906   */\n              0x80\n                /* \"#utility.yul\":5930:5983   */\n              tag_368\n                /* \"#utility.yul\":5975:5982   */\n              dup10\n                /* \"#utility.yul\":5966:5972   */\n              dup3\n                /* \"#utility.yul\":5955:5964   */\n              dup11\n                /* \"#utility.yul\":5951:5973   */\n              add\n                /* \"#utility.yul\":5930:5983   */\n              tag_268\n              jump\t// in\n            tag_368:\n                /* \"#utility.yul\":5920:5983   */\n              swap3\n              pop\n                /* \"#utility.yul\":5874:5993   */\n              pop\n                /* \"#utility.yul\":6032:6035   */\n              0xa0\n                /* \"#utility.yul\":6059:6112   */\n              tag_369\n                /* \"#utility.yul\":6104:6111   */\n              dup10\n                /* \"#utility.yul\":6095:6101   */\n              dup3\n                /* \"#utility.yul\":6084:6093   */\n              dup11\n                /* \"#utility.yul\":6080:6102   */\n              add\n                /* \"#utility.yul\":6059:6112   */\n              tag_268\n              jump\t// in\n            tag_369:\n                /* \"#utility.yul\":6049:6112   */\n              swap2\n              pop\n                /* \"#utility.yul\":6003:6122   */\n              pop\n                /* \"#utility.yul\":5072:6129   */\n              swap3\n              swap6\n              pop\n              swap3\n              swap6\n              pop\n              swap3\n              swap6\n              jump\t// out\n                /* \"#utility.yul\":6135:6609   */\n            tag_109:\n                /* \"#utility.yul\":6203:6209   */\n              0x00\n                /* \"#utility.yul\":6211:6217   */\n              0x00\n                /* \"#utility.yul\":6260:6262   */\n              0x40\n                /* \"#utility.yul\":6248:6257   */\n              dup4\n                /* \"#utility.yul\":6239:6246   */\n              dup6\n                /* \"#utility.yul\":6235:6258   */\n              sub\n                /* \"#utility.yul\":6231:6263   */\n              slt\n                /* \"#utility.yul\":6228:6347   */\n              iszero\n              tag_371\n              jumpi\n                /* \"#utility.yul\":6266:6345   */\n              tag_372\n              tag_262\n              jump\t// in\n            tag_372:\n                /* \"#utility.yul\":6228:6347   */\n            tag_371:\n                /* \"#utility.yul\":6386:6387   */\n              0x00\n                /* \"#utility.yul\":6411:6464   */\n              tag_373\n                /* \"#utility.yul\":6456:6463   */\n              dup6\n                /* \"#utility.yul\":6447:6453   */\n              dup3\n                /* \"#utility.yul\":6436:6445   */\n              dup7\n                /* \"#utility.yul\":6432:6454   */\n              add\n                /* \"#utility.yul\":6411:6464   */\n              tag_265\n              jump\t// in\n            tag_373:\n                /* \"#utility.yul\":6401:6464   */\n              swap3\n              pop\n                /* \"#utility.yul\":6357:6474   */\n              pop\n                /* \"#utility.yul\":6513:6515   */\n              0x20\n                /* \"#utility.yul\":6539:6592   */\n              tag_374\n                /* \"#utility.yul\":6584:6591   */\n              dup6\n                /* \"#utility.yul\":6575:6581   */\n              dup3\n                /* \"#utility.yul\":6564:6573   */\n              dup7\n                /* \"#utility.yul\":6560:6582   */\n              add\n                /* \"#utility.yul\":6539:6592   */\n              tag_268\n              jump\t// in\n            tag_374:\n                /* \"#utility.yul\":6529:6592   */\n              swap2\n              pop\n                /* \"#utility.yul\":6484:6602   */\n              pop\n                /* \"#utility.yul\":6135:6609   */\n              swap3\n              pop\n              swap3\n              swap1\n              pop\n              jump\t// out\n                /* \"#utility.yul\":6615:6784   */\n            tag_278:\n                /* \"#utility.yul\":6699:6710   */\n              0x00\n                /* \"#utility.yul\":6733:6739   */\n              dup3\n                /* \"#utility.yul\":6728:6731   */\n              dup3\n                /* \"#utility.yul\":6721:6740   */\n              mstore\n                /* \"#utility.yul\":6773:6777   */\n              0x20\n                /* \"#utility.yul\":6768:6771   */\n              dup3\n                /* \"#utility.yul\":6764:6778   */\n              add\n                /* \"#utility.yul\":6749:6778   */\n              swap1\n              pop\n                /* \"#utility.yul\":6615:6784   */\n              swap3\n              swap2\n              pop\n              pop\n              jump\t// out\n                /* \"#utility.yul\":6790:7011   */\n            tag_279:\n                /* \"#utility.yul\":6930:6964   */\n              0x4f6e6c792073656c6c65722063616e2063616c6c20746869732066756e637469\n                /* \"#utility.yul\":6926:6927   */\n              0x00\n                /* \"#utility.yul\":6918:6924   */\n              dup3\n                /* \"#utility.yul\":6914:6928   */\n              add\n                /* \"#utility.yul\":6907:6965   */\n              mstore\n                /* \"#utility.yul\":6999:7003   */\n              0x6f6e000000000000000000000000000000000000000000000000000000000000\n                /* \"#utility.yul\":6994:6996   */\n              0x20\n                /* \"#utility.yul\":6986:6992   */\n              dup3\n                /* \"#utility.yul\":6982:6997   */\n              add\n                /* \"#utility.yul\":6975:7004   */\n              mstore\n                /* \"#utility.yul\":6790:7011   */\n              pop\n              jump\t// out\n                /* \"#utility.yul\":7017:7383   */\n            tag_280:\n                /* \"#utility.yul\":7159:7162   */\n              0x00\n                /* \"#utility.yul\":7180:7247   */\n              tag_378\n                /* \"#utility.yul\":7244:7246   */\n              0x22\n                /* \"#utility.yul\":7239:7242   */\n              dup4\n                /* \"#utility.yul\":7180:7247   */\n              tag_278\n              jump\t// in\n            tag_378:\n                /* \"#utility.yul\":7173:7247   */\n              swap2\n              pop\n                /* \"#utility.yul\":7256:7349   */\n              tag_379\n                /* \"#utility.yul\":7345:7348   */\n              dup3\n                /* \"#utility.yul\":7256:7349   */\n              tag_279\n              jump\t// in\n            tag_379:\n                /* \"#utility.yul\":7374:7376   */\n              0x40\n                /* \"#utility.yul\":7369:7372   */\n              dup3\n                /* \"#utility.yul\":7365:7377   */\n              add\n                /* \"#utility.yul\":7358:7377   */\n              swap1\n              pop\n                /* \"#utility.yul\":7017:7383   */\n              swap2\n              swap1\n              pop\n              jump\t// out\n                /* \"#utility.yul\":7389:7808   */\n            tag_115:\n                /* \"#utility.yul\":7555:7559   */\n              0x00\n                /* \"#utility.yul\":7593:7595   */\n              0x20\n                /* \"#utility.yul\":7582:7591   */\n              dup3\n                /* \"#utility.yul\":7578:7596   */\n              add\n                /* \"#utility.yul\":7570:7596   */\n              swap1\n              pop\n                /* \"#utility.yul\":7642:7651   */\n              dup2\n                /* \"#utility.yul\":7636:7640   */\n              dup2\n                /* \"#utility.yul\":7632:7652   */\n              sub\n                /* \"#utility.yul\":7628:7629   */\n              0x00\n                /* \"#utility.yul\":7617:7626   */\n              dup4\n                /* \"#utility.yul\":7613:7630   */\n              add\n                /* \"#utility.yul\":7606:7653   */\n              mstore\n                /* \"#utility.yul\":7670:7801   */\n              tag_381\n                /* \"#utility.yul\":7796:7800   */\n              dup2\n                /* \"#utility.yul\":7670:7801   */\n              tag_280\n              jump\t// in\n            tag_381:\n                /* \"#utility.yul\":7662:7801   */\n              swap1\n              pop\n                /* \"#utility.yul\":7389:7808   */\n              swap2\n              swap1\n              pop\n              jump\t// out\n                /* \"#utility.yul\":7814:7987   */\n            tag_281:\n                /* \"#utility.yul\":7954:7979   */\n              0x417574696f6e206e6f74207374617274206f7220656e64000000000000000000\n                /* \"#utility.yul\":7950:7951   */\n              0x00\n                /* \"#utility.yul\":7942:7948   */\n              dup3\n                /* \"#utility.yul\":7938:7952   */\n              add\n                /* \"#utility.yul\":7931:7980   */\n              mstore\n                /* \"#utility.yul\":7814:7987   */\n              pop\n              jump\t// out\n                /* \"#utility.yul\":7993:8359   */\n            tag_282:\n                /* \"#utility.yul\":8135:8138   */\n              0x00\n                /* \"#utility.yul\":8156:8223   */\n              tag_384\n                /* \"#utility.yul\":8220:8222   */\n              0x17\n                /* \"#utility.yul\":8215:8218   */\n              dup4\n                /* \"#utility.yul\":8156:8223   */\n              tag_278\n              jump\t// in\n            tag_384:\n                /* \"#utility.yul\":8149:8223   */\n              swap2\n              pop\n                /* \"#utility.yul\":8232:8325   */\n              tag_385\n                /* \"#utility.yul\":8321:8324   */\n              dup3\n                /* \"#utility.yul\":8232:8325   */\n              tag_281\n              jump\t// in\n            tag_385:\n                /* \"#utility.yul\":8350:8352   */\n              0x20\n                /* \"#utility.yul\":8345:8348   */\n              dup3\n                /* \"#utility.yul\":8341:8353   */\n              add\n                /* \"#utility.yul\":8334:8353   */\n              swap1\n              pop\n                /* \"#utility.yul\":7993:8359   */\n              swap2\n              swap1\n              pop\n              jump\t// out\n                /* \"#utility.yul\":8365:8784   */\n            tag_120:\n                /* \"#utility.yul\":8531:8535   */\n              0x00\n                /* \"#utility.yul\":8569:8571   */\n              0x20\n                /* \"#utility.yul\":8558:8567   */\n              dup3\n                /* \"#utility.yul\":8554:8572   */\n              add\n                /* \"#utility.yul\":8546:8572   */\n              swap1\n              pop\n                /* \"#utility.yul\":8618:8627   */\n              dup2\n                /* \"#utility.yul\":8612:8616   */\n              dup2\n                /* \"#utility.yul\":8608:8628   */\n              sub\n                /* \"#utility.yul\":8604:8605   */\n              0x00\n                /* \"#utility.yul\":8593:8602   */\n              dup4\n                /* \"#utility.yul\":8589:8606   */\n              add\n                /* \"#utility.yul\":8582:8629   */\n              mstore\n                /* \"#utility.yul\":8646:8777   */\n              tag_387\n                /* \"#utility.yul\":8772:8776   */\n              dup2\n                /* \"#utility.yul\":8646:8777   */\n              tag_282\n              jump\t// in\n            tag_387:\n                /* \"#utility.yul\":8638:8777   */\n              swap1\n              pop\n                /* \"#utility.yul\":8365:8784   */\n              swap2\n              swap1\n              pop\n              jump\t// out\n                /* \"#utility.yul\":8790:8954   */\n            tag_283:\n                /* \"#utility.yul\":8930:8946   */\n              0x417574696f6e2068617320656e64000000000000000000000000000000000000\n                /* \"#utility.yul\":8926:8927   */\n              0x00\n                /* \"#utility.yul\":8918:8924   */\n              dup3\n                /* \"#utility.yul\":8914:8928   */\n              add\n                /* \"#utility.yul\":8907:8947   */\n              mstore\n                /* \"#utility.yul\":8790:8954   */\n              pop\n              jump\t// out\n                /* \"#utility.yul\":8960:9326   */\n            tag_284:\n                /* \"#utility.yul\":9102:9105   */\n              0x00\n                /* \"#utility.yul\":9123:9190   */\n              tag_390\n                /* \"#utility.yul\":9187:9189   */\n              0x0e\n                /* \"#utility.yul\":9182:9185   */\n              dup4\n                /* \"#utility.yul\":9123:9190   */\n              tag_278\n              jump\t// in\n            tag_390:\n                /* \"#utility.yul\":9116:9190   */\n              swap2\n              pop\n                /* \"#utility.yul\":9199:9292   */\n              tag_391\n                /* \"#utility.yul\":9288:9291   */\n              dup3\n                /* \"#utility.yul\":9199:9292   */\n              tag_283\n              jump\t// in\n            tag_391:\n                /* \"#utility.yul\":9317:9319   */\n              0x20\n                /* \"#utility.yul\":9312:9315   */\n              dup3\n                /* \"#utility.yul\":9308:9320   */\n              add\n                /* \"#utility.yul\":9301:9320   */\n              swap1\n              pop\n                /* \"#utility.yul\":8960:9326   */\n              swap2\n              swap1\n              pop\n              jump\t// out\n                /* \"#utility.yul\":9332:9751   */\n            tag_124:\n                /* \"#utility.yul\":9498:9502   */\n              0x00\n                /* \"#utility.yul\":9536:9538   */\n              0x20\n                /* \"#utility.yul\":9525:9534   */\n              dup3\n                /* \"#utility.yul\":9521:9539   */\n              add\n                /* \"#utility.yul\":9513:9539   */\n              swap1\n              pop\n                /* \"#utility.yul\":9585:9594   */\n              dup2\n                /* \"#utility.yul\":9579:9583   */\n              dup2\n                /* \"#utility.yul\":9575:9595   */\n              sub\n                /* \"#utility.yul\":9571:9572   */\n              0x00\n                /* \"#utility.yul\":9560:9569   */\n              dup4\n                /* \"#utility.yul\":9556:9573   */\n              add\n                /* \"#utility.yul\":9549:9596   */\n              mstore\n                /* \"#utility.yul\":9613:9744   */\n              tag_393\n                /* \"#utility.yul\":9739:9743   */\n              dup2\n                /* \"#utility.yul\":9613:9744   */\n              tag_284\n              jump\t// in\n            tag_393:\n                /* \"#utility.yul\":9605:9744   */\n              swap1\n              pop\n                /* \"#utility.yul\":9332:9751   */\n              swap2\n              swap1\n              pop\n              jump\t// out\n                /* \"#utility.yul\":9757:10199   */\n            tag_127:\n                /* \"#utility.yul\":9906:9910   */\n              0x00\n                /* \"#utility.yul\":9944:9946   */\n              0x60\n                /* \"#utility.yul\":9933:9942   */\n              dup3\n                /* \"#utility.yul\":9929:9947   */\n              add\n                /* \"#utility.yul\":9921:9947   */\n              swap1\n              pop\n                /* \"#utility.yul\":9957:10028   */\n              tag_395\n                /* \"#utility.yul\":10025:10026   */\n              0x00\n                /* \"#utility.yul\":10014:10023   */\n              dup4\n                /* \"#utility.yul\":10010:10027   */\n              add\n                /* \"#utility.yul\":10001:10007   */\n              dup7\n                /* \"#utility.yul\":9957:10028   */\n              tag_260\n              jump\t// in\n            tag_395:\n                /* \"#utility.yul\":10038:10110   */\n              tag_396\n                /* \"#utility.yul\":10106:10108   */\n              0x20\n                /* \"#utility.yul\":10095:10104   */\n              dup4\n                /* \"#utility.yul\":10091:10109   */\n              add\n                /* \"#utility.yul\":10082:10088   */\n              dup6\n                /* \"#utility.yul\":10038:10110   */\n              tag_260\n              jump\t// in\n            tag_396:\n                /* \"#utility.yul\":10120:10192   */\n              tag_397\n                /* \"#utility.yul\":10188:10190   */\n              0x40\n                /* \"#utility.yul\":10177:10186   */\n              dup4\n                /* \"#utility.yul\":10173:10191   */\n              add\n                /* \"#utility.yul\":10164:10170   */\n              dup5\n                /* \"#utility.yul\":10120:10192   */\n              tag_275\n              jump\t// in\n            tag_397:\n                /* \"#utility.yul\":9757:10199   */\n              swap5\n              swap4\n              pop\n              pop\n              pop\n              pop\n              jump\t// out\n                /* \"#utility.yul\":10205:10352   */\n            tag_285:\n                /* \"#utility.yul\":10306:10317   */\n              0x00\n                /* \"#utility.yul\":10343:10346   */\n              dup2\n                /* \"#utility.yul\":10328:10346   */\n              swap1\n              pop\n                /* \"#utility.yul\":10205:10352   */\n              swap3\n              swap2\n              pop\n              pop\n              jump\t// out\n                /* \"#utility.yul\":10358:10472   */\n            tag_286:\n              pop\n              jump\t// out\n                /* \"#utility.yul\":10478:10876   */\n            tag_287:\n                /* \"#utility.yul\":10637:10640   */\n              0x00\n                /* \"#utility.yul\":10658:10741   */\n              tag_401\n                /* \"#utility.yul\":10739:10740   */\n              0x00\n                /* \"#utility.yul\":10734:10737   */\n              dup4\n                /* \"#utility.yul\":10658:10741   */\n              tag_285\n              jump\t// in\n            tag_401:\n                /* \"#utility.yul\":10651:10741   */\n              swap2\n              pop\n                /* \"#utility.yul\":10750:10843   */\n              tag_402\n                /* \"#utility.yul\":10839:10842   */\n              dup3\n                /* \"#utility.yul\":10750:10843   */\n              tag_286\n              jump\t// in\n            tag_402:\n                /* \"#utility.yul\":10868:10869   */\n              0x00\n                /* \"#utility.yul\":10863:10866   */\n              dup3\n                /* \"#utility.yul\":10859:10870   */\n              add\n                /* \"#utility.yul\":10852:10870   */\n              swap1\n              pop\n                /* \"#utility.yul\":10478:10876   */\n              swap2\n              swap1\n              pop\n              jump\t// out\n                /* \"#utility.yul\":10882:11261   */\n            tag_133:\n                /* \"#utility.yul\":11066:11069   */\n              0x00\n                /* \"#utility.yul\":11088:11235   */\n              tag_404\n                /* \"#utility.yul\":11231:11234   */\n              dup3\n                /* \"#utility.yul\":11088:11235   */\n              tag_287\n              jump\t// in\n            tag_404:\n                /* \"#utility.yul\":11081:11235   */\n              swap2\n              pop\n                /* \"#utility.yul\":11252:11255   */\n              dup2\n                /* \"#utility.yul\":11245:11255   */\n              swap1\n              pop\n                /* \"#utility.yul\":10882:11261   */\n              swap2\n              swap1\n              pop\n              jump\t// out\n                /* \"#utility.yul\":11267:11436   */\n            tag_288:\n                /* \"#utility.yul\":11407:11428   */\n              0x455448207472616e73666572206661696c656400000000000000000000000000\n                /* \"#utility.yul\":11403:11404   */\n              0x00\n                /* \"#utility.yul\":11395:11401   */\n              dup3\n                /* \"#utility.yul\":11391:11405   */\n              add\n                /* \"#utility.yul\":11384:11429   */\n              mstore\n                /* \"#utility.yul\":11267:11436   */\n              pop\n              jump\t// out\n                /* \"#utility.yul\":11442:11808   */\n            tag_289:\n                /* \"#utility.yul\":11584:11587   */\n              0x00\n                /* \"#utility.yul\":11605:11672   */\n              tag_407\n                /* \"#utility.yul\":11669:11671   */\n              0x13\n                /* \"#utility.yul\":11664:11667   */\n              dup4\n                /* \"#utility.yul\":11605:11672   */\n              tag_278\n              jump\t// in\n            tag_407:\n                /* \"#utility.yul\":11598:11672   */\n              swap2\n              pop\n                /* \"#utility.yul\":11681:11774   */\n              tag_408\n                /* \"#utility.yul\":11770:11773   */\n              dup3\n                /* \"#utility.yul\":11681:11774   */\n              tag_288\n              jump\t// in\n            tag_408:\n                /* \"#utility.yul\":11799:11801   */\n              0x20\n                /* \"#utility.yul\":11794:11797   */\n              dup3\n                /* \"#utility.yul\":11790:11802   */\n              add\n                /* \"#utility.yul\":11783:11802   */\n              swap1\n              pop\n                /* \"#utility.yul\":11442:11808   */\n              swap2\n              swap1\n              pop\n              jump\t// out\n                /* \"#utility.yul\":11814:12233   */\n            tag_139:\n                /* \"#utility.yul\":11980:11984   */\n              0x00\n                /* \"#utility.yul\":12018:12020   */\n              0x20\n                /* \"#utility.yul\":12007:12016   */\n              dup3\n                /* \"#utility.yul\":12003:12021   */\n              add\n                /* \"#utility.yul\":11995:12021   */\n              swap1\n              pop\n                /* \"#utility.yul\":12067:12076   */\n              dup2\n                /* \"#utility.yul\":12061:12065   */\n              dup2\n                /* \"#utility.yul\":12057:12077   */\n              sub\n                /* \"#utility.yul\":12053:12054   */\n              0x00\n                /* \"#utility.yul\":12042:12051   */\n              dup4\n                /* \"#utility.yul\":12038:12055   */\n              add\n                /* \"#utility.yul\":12031:12078   */\n              mstore\n                /* \"#utility.yul\":12095:12226   */\n              tag_410\n                /* \"#utility.yul\":12221:12225   */\n              dup2\n                /* \"#utility.yul\":12095:12226   */\n              tag_289\n              jump\t// in\n            tag_410:\n                /* \"#utility.yul\":12087:12226   */\n              swap1\n              pop\n                /* \"#utility.yul\":11814:12233   */\n              swap2\n              swap1\n              pop\n              jump\t// out\n                /* \"#utility.yul\":12239:12571   */\n            tag_142:\n                /* \"#utility.yul\":12360:12364   */\n              0x00\n                /* \"#utility.yul\":12398:12400   */\n              0x40\n                /* \"#utility.yul\":12387:12396   */\n              dup3\n                /* \"#utility.yul\":12383:12401   */\n              add\n                /* \"#utility.yul\":12375:12401   */\n              swap1\n              pop\n                /* \"#utility.yul\":12411:12482   */\n              tag_412\n                /* \"#utility.yul\":12479:12480   */\n              0x00\n                /* \"#utility.yul\":12468:12477   */\n              dup4\n                /* \"#utility.yul\":12464:12481   */\n              add\n                /* \"#utility.yul\":12455:12461   */\n              dup6\n                /* \"#utility.yul\":12411:12482   */\n              tag_260\n              jump\t// in\n            tag_412:\n                /* \"#utility.yul\":12492:12564   */\n              tag_413\n                /* \"#utility.yul\":12560:12562   */\n              0x20\n                /* \"#utility.yul\":12549:12558   */\n              dup4\n                /* \"#utility.yul\":12545:12563   */\n              add\n                /* \"#utility.yul\":12536:12542   */\n              dup5\n                /* \"#utility.yul\":12492:12564   */\n              tag_275\n              jump\t// in\n            tag_413:\n                /* \"#utility.yul\":12239:12571   */\n              swap4\n              swap3\n              pop\n              pop\n              pop\n              jump\t// out\n                /* \"#utility.yul\":12577:12693   */\n            tag_290:\n                /* \"#utility.yul\":12647:12668   */\n              tag_415\n                /* \"#utility.yul\":12662:12667   */\n              dup2\n                /* \"#utility.yul\":12647:12668   */\n              tag_276\n              jump\t// in\n            tag_415:\n                /* \"#utility.yul\":12640:12645   */\n              dup2\n                /* \"#utility.yul\":12637:12669   */\n              eq\n                /* \"#utility.yul\":12627:12687   */\n              tag_416\n              jumpi\n                /* \"#utility.yul\":12683:12684   */\n              0x00\n                /* \"#utility.yul\":12680:12681   */\n              0x00\n                /* \"#utility.yul\":12673:12685   */\n              revert\n                /* \"#utility.yul\":12627:12687   */\n            tag_416:\n                /* \"#utility.yul\":12577:12693   */\n              pop\n              jump\t// out\n                /* \"#utility.yul\":12699:12836   */\n            tag_291:\n                /* \"#utility.yul\":12753:12758   */\n              0x00\n                /* \"#utility.yul\":12784:12790   */\n              dup2\n                /* \"#utility.yul\":12778:12791   */\n              mload\n                /* \"#utility.yul\":12769:12791   */\n              swap1\n              pop\n                /* \"#utility.yul\":12800:12830   */\n              tag_418\n                /* \"#utility.yul\":12824:12829   */\n              dup2\n                /* \"#utility.yul\":12800:12830   */\n              tag_290\n              jump\t// in\n            tag_418:\n                /* \"#utility.yul\":12699:12836   */\n              swap3\n              swap2\n              pop\n              pop\n              jump\t// out\n                /* \"#utility.yul\":12842:13187   */\n            tag_146:\n                /* \"#utility.yul\":12909:12915   */\n              0x00\n                /* \"#utility.yul\":12958:12960   */\n              0x20\n                /* \"#utility.yul\":12946:12955   */\n              dup3\n                /* \"#utility.yul\":12937:12944   */\n              dup5\n                /* \"#utility.yul\":12933:12956   */\n              sub\n                /* \"#utility.yul\":12929:12961   */\n              slt\n                /* \"#utility.yul\":12926:13045   */\n              iszero\n              tag_420\n              jumpi\n                /* \"#utility.yul\":12964:13043   */\n              tag_421\n              tag_262\n              jump\t// in\n            tag_421:\n                /* \"#utility.yul\":12926:13045   */\n            tag_420:\n                /* \"#utility.yul\":13084:13085   */\n              0x00\n                /* \"#utility.yul\":13109:13170   */\n              tag_422\n                /* \"#utility.yul\":13162:13169   */\n              dup5\n                /* \"#utility.yul\":13153:13159   */\n              dup3\n                /* \"#utility.yul\":13142:13151   */\n              dup6\n                /* \"#utility.yul\":13138:13160   */\n              add\n                /* \"#utility.yul\":13109:13170   */\n              tag_291\n              jump\t// in\n            tag_422:\n                /* \"#utility.yul\":13099:13170   */\n              swap2\n              pop\n                /* \"#utility.yul\":13055:13180   */\n              pop\n                /* \"#utility.yul\":12842:13187   */\n              swap3\n              swap2\n              pop\n              pop\n              jump\t// out\n                /* \"#utility.yul\":13193:13364   */\n            tag_292:\n                /* \"#utility.yul\":13333:13356   */\n              0x546f6b656e207472616e73666572206661696c65640000000000000000000000\n                /* \"#utility.yul\":13329:13330   */\n              0x00\n                /* \"#utility.yul\":13321:13327   */\n              dup3\n                /* \"#utility.yul\":13317:13331   */\n              add\n                /* \"#utility.yul\":13310:13357   */\n              mstore\n                /* \"#utility.yul\":13193:13364   */\n              pop\n              jump\t// out\n                /* \"#utility.yul\":13370:13736   */\n            tag_293:\n                /* \"#utility.yul\":13512:13515   */\n              0x00\n                /* \"#utility.yul\":13533:13600   */\n              tag_425\n                /* \"#utility.yul\":13597:13599   */\n              0x15\n                /* \"#utility.yul\":13592:13595   */\n              dup4\n                /* \"#utility.yul\":13533:13600   */\n              tag_278\n              jump\t// in\n            tag_425:\n                /* \"#utility.yul\":13526:13600   */\n              swap2\n              pop\n                /* \"#utility.yul\":13609:13702   */\n              tag_426\n                /* \"#utility.yul\":13698:13701   */\n              dup3\n                /* \"#utility.yul\":13609:13702   */\n              tag_292\n              jump\t// in\n            tag_426:\n                /* \"#utility.yul\":13727:13729   */\n              0x20\n                /* \"#utility.yul\":13722:13725   */\n              dup3\n                /* \"#utility.yul\":13718:13730   */\n              add\n                /* \"#utility.yul\":13711:13730   */\n              swap1\n              pop\n                /* \"#utility.yul\":13370:13736   */\n              swap2\n              swap1\n              pop\n              jump\t// out\n                /* \"#utility.yul\":13742:14161   */\n            tag_149:\n                /* \"#utility.yul\":13908:13912   */\n              0x00\n                /* \"#utility.yul\":13946:13948   */\n              0x20\n                /* \"#utility.yul\":13935:13944   */\n              dup3\n                /* \"#utility.yul\":13931:13949   */\n              add\n                /* \"#utility.yul\":13923:13949   */\n              swap1\n              pop\n                /* \"#utility.yul\":13995:14004   */\n              dup2\n                /* \"#utility.yul\":13989:13993   */\n              dup2\n                /* \"#utility.yul\":13985:14005   */\n              sub\n                /* \"#utility.yul\":13981:13982   */\n              0x00\n                /* \"#utility.yul\":13970:13979   */\n              dup4\n                /* \"#utility.yul\":13966:13983   */\n              add\n                /* \"#utility.yul\":13959:14006   */\n              mstore\n                /* \"#utility.yul\":14023:14154   */\n              tag_428\n                /* \"#utility.yul\":14149:14153   */\n              dup2\n                /* \"#utility.yul\":14023:14154   */\n              tag_293\n              jump\t// in\n            tag_428:\n                /* \"#utility.yul\":14015:14154   */\n              swap1\n              pop\n                /* \"#utility.yul\":13742:14161   */\n              swap2\n              swap1\n              pop\n              jump\t// out\n                /* \"#utility.yul\":14167:14389   */\n            tag_294:\n                /* \"#utility.yul\":14307:14341   */\n              0x4f6e6c7920666163746f72792063616e2063616c6c20746869732066756e6374\n                /* \"#utility.yul\":14303:14304   */\n              0x00\n                /* \"#utility.yul\":14295:14301   */\n              dup3\n                /* \"#utility.yul\":14291:14305   */\n              add\n                /* \"#utility.yul\":14284:14342   */\n              mstore\n                /* \"#utility.yul\":14376:14381   */\n              0x696f6e0000000000000000000000000000000000000000000000000000000000\n                /* \"#utility.yul\":14371:14373   */\n              0x20\n                /* \"#utility.yul\":14363:14369   */\n              dup3\n                /* \"#utility.yul\":14359:14374   */\n              add\n                /* \"#utility.yul\":14352:14382   */\n              mstore\n                /* \"#utility.yul\":14167:14389   */\n              pop\n              jump\t// out\n                /* \"#utility.yul\":14395:14761   */\n            tag_295:\n                /* \"#utility.yul\":14537:14540   */\n              0x00\n                /* \"#utility.yul\":14558:14625   */\n              tag_431\n                /* \"#utility.yul\":14622:14624   */\n              0x23\n                /* \"#utility.yul\":14617:14620   */\n              dup4\n                /* \"#utility.yul\":14558:14625   */\n              tag_278\n              jump\t// in\n            tag_431:\n                /* \"#utility.yul\":14551:14625   */\n              swap2\n              pop\n                /* \"#utility.yul\":14634:14727   */\n              tag_432\n                /* \"#utility.yul\":14723:14726   */\n              dup3\n                /* \"#utility.yul\":14634:14727   */\n              tag_294\n              jump\t// in\n            tag_432:\n                /* \"#utility.yul\":14752:14754   */\n              0x40\n                /* \"#utility.yul\":14747:14750   */\n              dup3\n                /* \"#utility.yul\":14743:14755   */\n              add\n                /* \"#utility.yul\":14736:14755   */\n              swap1\n              pop\n                /* \"#utility.yul\":14395:14761   */\n              swap2\n              swap1\n              pop\n              jump\t// out\n                /* \"#utility.yul\":14767:15186   */\n            tag_162:\n                /* \"#utility.yul\":14933:14937   */\n              0x00\n                /* \"#utility.yul\":14971:14973   */\n              0x20\n                /* \"#utility.yul\":14960:14969   */\n              dup3\n                /* \"#utility.yul\":14956:14974   */\n              add\n                /* \"#utility.yul\":14948:14974   */\n              swap1\n              pop\n                /* \"#utility.yul\":15020:15029   */\n              dup2\n                /* \"#utility.yul\":15014:15018   */\n              dup2\n                /* \"#utility.yul\":15010:15030   */\n              sub\n                /* \"#utility.yul\":15006:15007   */\n              0x00\n                /* \"#utility.yul\":14995:15004   */\n              dup4\n                /* \"#utility.yul\":14991:15008   */\n              add\n                /* \"#utility.yul\":14984:15031   */\n              mstore\n                /* \"#utility.yul\":15048:15179   */\n              tag_434\n                /* \"#utility.yul\":15174:15178   */\n              dup2\n                /* \"#utility.yul\":15048:15179   */\n              tag_295\n              jump\t// in\n            tag_434:\n                /* \"#utility.yul\":15040:15179   */\n              swap1\n              pop\n                /* \"#utility.yul\":14767:15186   */\n              swap2\n              swap1\n              pop\n              jump\t// out\n                /* \"#utility.yul\":15192:15372   */\n            tag_296:\n                /* \"#utility.yul\":15240:15317   */\n              0x4e487b7100000000000000000000000000000000000000000000000000000000\n                /* \"#utility.yul\":15237:15238   */\n              0x00\n                /* \"#utility.yul\":15230:15318   */\n              mstore\n                /* \"#utility.yul\":15337:15341   */\n              0x11\n                /* \"#utility.yul\":15334:15335   */\n              0x04\n                /* \"#utility.yul\":15327:15342   */\n              mstore\n                /* \"#utility.yul\":15361:15365   */\n              0x24\n                /* \"#utility.yul\":15358:15359   */\n              0x00\n                /* \"#utility.yul\":15351:15366   */\n              revert\n                /* \"#utility.yul\":15378:15569   */\n            tag_165:\n                /* \"#utility.yul\":15418:15421   */\n              0x00\n                /* \"#utility.yul\":15437:15457   */\n              tag_437\n                /* \"#utility.yul\":15455:15456   */\n              dup3\n                /* \"#utility.yul\":15437:15457   */\n              tag_266\n              jump\t// in\n            tag_437:\n                /* \"#utility.yul\":15432:15457   */\n              swap2\n              pop\n                /* \"#utility.yul\":15471:15491   */\n              tag_438\n                /* \"#utility.yul\":15489:15490   */\n              dup4\n                /* \"#utility.yul\":15471:15491   */\n              tag_266\n              jump\t// in\n            tag_438:\n                /* \"#utility.yul\":15466:15491   */\n              swap3\n              pop\n                /* \"#utility.yul\":15514:15515   */\n              dup3\n                /* \"#utility.yul\":15511:15512   */\n              dup3\n                /* \"#utility.yul\":15507:15516   */\n              add\n                /* \"#utility.yul\":15500:15516   */\n              swap1\n              pop\n                /* \"#utility.yul\":15535:15538   */\n              dup1\n                /* \"#utility.yul\":15532:15533   */\n              dup3\n                /* \"#utility.yul\":15529:15539   */\n              gt\n                /* \"#utility.yul\":15526:15562   */\n              iszero\n              tag_439\n              jumpi\n                /* \"#utility.yul\":15542:15560   */\n              tag_440\n              tag_296\n              jump\t// in\n            tag_440:\n                /* \"#utility.yul\":15526:15562   */\n            tag_439:\n                /* \"#utility.yul\":15378:15569   */\n              swap3\n              swap2\n              pop\n              pop\n              jump\t// out\n                /* \"#utility.yul\":15575:15718   */\n            tag_297:\n                /* \"#utility.yul\":15632:15637   */\n              0x00\n                /* \"#utility.yul\":15663:15669   */\n              dup2\n                /* \"#utility.yul\":15657:15670   */\n              mload\n                /* \"#utility.yul\":15648:15670   */\n              swap1\n              pop\n                /* \"#utility.yul\":15679:15712   */\n              tag_442\n                /* \"#utility.yul\":15706:15711   */\n              dup2\n                /* \"#utility.yul\":15679:15712   */\n              tag_267\n              jump\t// in\n            tag_442:\n                /* \"#utility.yul\":15575:15718   */\n              swap3\n              swap2\n              pop\n              pop\n              jump\t// out\n                /* \"#utility.yul\":15724:16075   */\n            tag_180:\n                /* \"#utility.yul\":15794:15800   */\n              0x00\n                /* \"#utility.yul\":15843:15845   */\n              0x20\n                /* \"#utility.yul\":15831:15840   */\n              dup3\n                /* \"#utility.yul\":15822:15829   */\n              dup5\n                /* \"#utility.yul\":15818:15841   */\n              sub\n                /* \"#utility.yul\":15814:15846   */\n              slt\n                /* \"#utility.yul\":15811:15930   */\n              iszero\n              tag_444\n              jumpi\n                /* \"#utility.yul\":15849:15928   */\n              tag_445\n              tag_262\n              jump\t// in\n            tag_445:\n                /* \"#utility.yul\":15811:15930   */\n            tag_444:\n                /* \"#utility.yul\":15969:15970   */\n              0x00\n                /* \"#utility.yul\":15994:16058   */\n              tag_446\n                /* \"#utility.yul\":16050:16057   */\n              dup5\n                /* \"#utility.yul\":16041:16047   */\n              dup3\n                /* \"#utility.yul\":16030:16039   */\n              dup6\n                /* \"#utility.yul\":16026:16048   */\n              add\n                /* \"#utility.yul\":15994:16058   */\n              tag_297\n              jump\t// in\n            tag_446:\n                /* \"#utility.yul\":15984:16058   */\n              swap2\n              pop\n                /* \"#utility.yul\":15940:16068   */\n              pop\n                /* \"#utility.yul\":15724:16075   */\n              swap3\n              swap2\n              pop\n              pop\n              jump\t// out\n                /* \"#utility.yul\":16081:16250   */\n            tag_298:\n                /* \"#utility.yul\":16221:16242   */\n              0x426964206e6f74206869676820656e6f75676800000000000000000000000000\n                /* \"#utility.yul\":16217:16218   */\n              0x00\n                /* \"#utility.yul\":16209:16215   */\n              dup3\n                /* \"#utility.yul\":16205:16219   */\n              add\n                /* \"#utility.yul\":16198:16243   */\n              mstore\n                /* \"#utility.yul\":16081:16250   */\n              pop\n              jump\t// out\n                /* \"#utility.yul\":16256:16622   */\n            tag_299:\n                /* \"#utility.yul\":16398:16401   */\n              0x00\n                /* \"#utility.yul\":16419:16486   */\n              tag_449\n                /* \"#utility.yul\":16483:16485   */\n              0x13\n                /* \"#utility.yul\":16478:16481   */\n              dup4\n                /* \"#utility.yul\":16419:16486   */\n              tag_278\n              jump\t// in\n            tag_449:\n                /* \"#utility.yul\":16412:16486   */\n              swap2\n              pop\n                /* \"#utility.yul\":16495:16588   */\n              tag_450\n                /* \"#utility.yul\":16584:16587   */\n              dup3\n                /* \"#utility.yul\":16495:16588   */\n              tag_298\n              jump\t// in\n            tag_450:\n                /* \"#utility.yul\":16613:16615   */\n              0x20\n                /* \"#utility.yul\":16608:16611   */\n              dup3\n                /* \"#utility.yul\":16604:16616   */\n              add\n                /* \"#utility.yul\":16597:16616   */\n              swap1\n              pop\n                /* \"#utility.yul\":16256:16622   */\n              swap2\n              swap1\n              pop\n              jump\t// out\n                /* \"#utility.yul\":16628:17047   */\n            tag_188:\n                /* \"#utility.yul\":16794:16798   */\n              0x00\n                /* \"#utility.yul\":16832:16834   */\n              0x20\n                /* \"#utility.yul\":16821:16830   */\n              dup3\n                /* \"#utility.yul\":16817:16835   */\n              add\n                /* \"#utility.yul\":16809:16835   */\n              swap1\n              pop\n                /* \"#utility.yul\":16881:16890   */\n              dup2\n                /* \"#utility.yul\":16875:16879   */\n              dup2\n                /* \"#utility.yul\":16871:16891   */\n              sub\n                /* \"#utility.yul\":16867:16868   */\n              0x00\n                /* \"#utility.yul\":16856:16865   */\n              dup4\n                /* \"#utility.yul\":16852:16869   */\n              add\n                /* \"#utility.yul\":16845:16892   */\n              mstore\n                /* \"#utility.yul\":16909:17040   */\n              tag_452\n                /* \"#utility.yul\":17035:17039   */\n              dup2\n                /* \"#utility.yul\":16909:17040   */\n              tag_299\n              jump\t// in\n            tag_452:\n                /* \"#utility.yul\":16901:17040   */\n              swap1\n              pop\n                /* \"#utility.yul\":16628:17047   */\n              swap2\n              swap1\n              pop\n              jump\t// out\n                /* \"#utility.yul\":17053:17219   */\n            tag_300:\n                /* \"#utility.yul\":17193:17211   */\n              0x6f6e6c7920616363657074206c696e6b00000000000000000000000000000000\n                /* \"#utility.yul\":17189:17190   */\n              0x00\n                /* \"#utility.yul\":17181:17187   */\n              dup3\n                /* \"#utility.yul\":17177:17191   */\n              add\n                /* \"#utility.yul\":17170:17212   */\n              mstore\n                /* \"#utility.yul\":17053:17219   */\n              pop\n              jump\t// out\n                /* \"#utility.yul\":17225:17591   */\n            tag_301:\n                /* \"#utility.yul\":17367:17370   */\n              0x00\n                /* \"#utility.yul\":17388:17455   */\n              tag_455\n                /* \"#utility.yul\":17452:17454   */\n              0x10\n                /* \"#utility.yul\":17447:17450   */\n              dup4\n                /* \"#utility.yul\":17388:17455   */\n              tag_278\n              jump\t// in\n            tag_455:\n                /* \"#utility.yul\":17381:17455   */\n              swap2\n              pop\n                /* \"#utility.yul\":17464:17557   */\n              tag_456\n                /* \"#utility.yul\":17553:17556   */\n              dup3\n                /* \"#utility.yul\":17464:17557   */\n              tag_300\n              jump\t// in\n            tag_456:\n                /* \"#utility.yul\":17582:17584   */\n              0x20\n                /* \"#utility.yul\":17577:17580   */\n              dup3\n                /* \"#utility.yul\":17573:17585   */\n              add\n                /* \"#utility.yul\":17566:17585   */\n              swap1\n              pop\n                /* \"#utility.yul\":17225:17591   */\n              swap2\n              swap1\n              pop\n              jump\t// out\n                /* \"#utility.yul\":17597:18016   */\n            tag_221:\n                /* \"#utility.yul\":17763:17767   */\n              0x00\n                /* \"#utility.yul\":17801:17803   */\n              0x20\n                /* \"#utility.yul\":17790:17799   */\n              dup3\n                /* \"#utility.yul\":17786:17804   */\n              add\n                /* \"#utility.yul\":17778:17804   */\n              swap1\n              pop\n                /* \"#utility.yul\":17850:17859   */\n              dup2\n                /* \"#utility.yul\":17844:17848   */\n              dup2\n                /* \"#utility.yul\":17840:17860   */\n              sub\n                /* \"#utility.yul\":17836:17837   */\n              0x00\n                /* \"#utility.yul\":17825:17834   */\n              dup4\n                /* \"#utility.yul\":17821:17838   */\n              add\n                /* \"#utility.yul\":17814:17861   */\n              mstore\n                /* \"#utility.yul\":17878:18009   */\n              tag_458\n                /* \"#utility.yul\":18004:18008   */\n              dup2\n                /* \"#utility.yul\":17878:18009   */\n              tag_301\n              jump\t// in\n            tag_458:\n                /* \"#utility.yul\":17870:18009   */\n              swap1\n              pop\n                /* \"#utility.yul\":17597:18016   */\n              swap2\n              swap1\n              pop\n              jump\t// out\n\n            auxdata: 0xa2646970667358221220df9d1d6243934360fc5b34b4fe9a3ba9177e50c2d9d0370d6e49c7aaf2e36cf564736f6c634300081e0033\n        }\n    }\n\n    auxdata: 0xa2646970667358221220d3367b77086727662148cd34f46b5c2987734ef9d5bcd9f8884c9698a237453264736f6c634300081e0033\n}\n",
				"bytecode": {
					"linkReferences": {},
					"object": "6080604052600160025573779877a7b0d9e8603169ddbd7836e478b462478960055f6101000a81548173ffffffffffffffffffffffffffffffffffffffff021916908373ffffffffffffffffffffffffffffffffffffffff1602179055505f60065f6101000a81548173ffffffffffffffffffffffffffffffffffffffff021916908373ffffffffffffffffffffffffffffffffffffffff1602179055505f600660146101000a81548160ff0219169083151502179055503480156100c2575f5ffd5b5060405161313638038061313683398181016040528101906100e491906102dd565b3360015f6101000a81548173ffffffffffffffffffffffffffffffffffffffff021916908373ffffffffffffffffffffffffffffffffffffffff16021790555073c59e3633baac79493d908e63626716e204a45edf60045f60055f9054906101000a900473ffffffffffffffffffffffffffffffffffffffff1673ffffffffffffffffffffffffffffffffffffffff1673ffffffffffffffffffffffffffffffffffffffff1681526020019081526020015f205f6101000a81548173ffffffffffffffffffffffffffffffffffffffff021916908373ffffffffffffffffffffffffffffffffffffffff16021790555073694aa1769357215de4fac081bf1f309adc32530660045f60065f9054906101000a900473ffffffffffffffffffffffffffffffffffffffff1673ffffffffffffffffffffffffffffffffffffffff1673ffffffffffffffffffffffffffffffffffffffff1681526020019081526020015f205f6101000a81548173ffffffffffffffffffffffffffffffffffffffff021916908373ffffffffffffffffffffffffffffffffffffffff16021790555080600660146101000a81548160ff02191690831515021790555050610308565b5f5ffd5b5f8115159050919050565b6102bc816102a8565b81146102c6575f5ffd5b50565b5f815190506102d7816102b3565b92915050565b5f602082840312156102f2576102f16102a4565b5b5f6102ff848285016102c9565b91505092915050565b612e21806103155f395ff3fe608060405234801561000f575f5ffd5b506004361061007b575f3560e01c8063697b6a0711610059578063697b6a07146100fb57806372ccb1a314610119578063c01895bb14610149578063d0ff630f146101795761007b565b8063135597fd1461007f5780631ca54219146100af5780636097ee20146100cb575b5f5ffd5b6100996004803603810190610094919061085b565b6101a9565b6040516100a69190610895565b60405180910390f35b6100c960048036038101906100c49190610908565b6102e2565b005b6100e560048036038101906100e0919061085b565b61045c565b6040516100f29190610942565b60405180910390f35b610103610495565b6040516101109190610895565b60405180910390f35b610133600480360381019061012e919061085b565b6104a0565b6040516101409190610942565b60405180910390f35b610163600480360381019061015e919061085b565b6104da565b6040516101709190610895565b60405180910390f35b610193600480360381019061018e919061095b565b6105e5565b6040516101a09190610895565b60405180910390f35b5f600660149054906101000a900460ff16156101d757644076b95337826101d091906109ec565b90506102dd565b5f60045f60055f9054906101000a900473ffffffffffffffffffffffffffffffffffffffff1673ffffffffffffffffffffffffffffffffffffffff1673ffffffffffffffffffffffffffffffffffffffff1681526020019081526020015f205f9054906101000a900473ffffffffffffffffffffffffffffffffffffffff1690505f8173ffffffffffffffffffffffffffffffffffffffff1663feaf968c6040518163ffffffff1660e01b815260040160a060405180830381865afa1580156102a2573d5f5f3e3d5ffd5b505050506040513d601f19601f820116820180604052508101906102c69190610ab3565b50505091505080846102d891906109ec565b925050505b919050565b5f5f90505b5f80549050811015610458578173ffffffffffffffffffffffffffffffffffffffff165f828154811061031d5761031c610b2a565b5b905f5260205f20015f9054906101000a900473ffffffffffffffffffffffffffffffffffffffff1673ffffffffffffffffffffffffffffffffffffffff160361044b575f60015f805490506103729190610b57565b8154811061038357610382610b2a565b5b905f5260205f20015f9054906101000a900473ffffffffffffffffffffffffffffffffffffffff165f82815481106103be576103bd610b2a565b5b905f5260205f20015f6101000a81548173ffffffffffffffffffffffffffffffffffffffff021916908373ffffffffffffffffffffffffffffffffffffffff1602179055505f80548061041457610413610b8a565b5b600190038181905f5260205f20015f6101000a81549073ffffffffffffffffffffffffffffffffffffffff02191690559055610458565b80806001019150506102e7565b5050565b5f60035f8381526020019081526020015f205f9054906101000a900473ffffffffffffffffffffffffffffffffffffffff169050919050565b5f5f80549050905090565b5f81815481106104ae575f80fd5b905f5260205f20015f915054906101000a900473ffffffffffffffffffffffffffffffffffffffff1681565b5f5f60045f60065f9054906101000a900473ffffffffffffffffffffffffffffffffffffffff1673ffffffffffffffffffffffffffffffffffffffff1673ffffffffffffffffffffffffffffffffffffffff1681526020019081526020015f205f9054906101000a900473ffffffffffffffffffffffffffffffffffffffff1690505f8173ffffffffffffffffffffffffffffffffffffffff1663feaf968c6040518163ffffffff1660e01b815260040160a060405180830381865afa1580156105a6573d5f5f3e3d5ffd5b505050506040513d601f19601f820116820180604052508101906105ca9190610ab3565b50505091505080846105dc91906109ec565b92505050919050565b5f5f6040516105f390610817565b604051809103905ff08015801561060c573d5f5f3e3d5ffd5b5090505f610619856104da565b90508173ffffffffffffffffffffffffffffffffffffffff166386489ba933898985428a6040518763ffffffff1660e01b815260040161065e96959493929190610bb7565b5f604051808303815f87803b158015610675575f5ffd5b505af1158015610687573d5f5f3e3d5ffd5b505050505f8790508073ffffffffffffffffffffffffffffffffffffffff166323b872dd33858a6040518463ffffffff1660e01b81526004016106cc93929190610c16565b5f604051808303815f87803b1580156106e3575f5ffd5b505af11580156106f5573d5f5f3e3d5ffd5b505050505f8390505f81908060018154018082558091505060019003905f5260205f20015f9091909190916101000a81548173ffffffffffffffffffffffffffffffffffffffff021916908373ffffffffffffffffffffffffffffffffffffffff1602179055505f60025f81548092919061076f90610c4b565b9190505590508160035f8381526020019081526020015f205f6101000a81548173ffffffffffffffffffffffffffffffffffffffff021916908373ffffffffffffffffffffffffffffffffffffffff1602179055508173ffffffffffffffffffffffffffffffffffffffff167f4b8c8dcac8794b5842d188a3bfaf7638b7a8eb60800ea3bc9bb18398a352fafb60405160405180910390a28095505050505050949350505050565b61215980610c9383390190565b5f5ffd5b5f819050919050565b61083a81610828565b8114610844575f5ffd5b50565b5f8135905061085581610831565b92915050565b5f602082840312156108705761086f610824565b5b5f61087d84828501610847565b91505092915050565b61088f81610828565b82525050565b5f6020820190506108a85f830184610886565b92915050565b5f73ffffffffffffffffffffffffffffffffffffffff82169050919050565b5f6108d7826108ae565b9050919050565b6108e7816108cd565b81146108f1575f5ffd5b50565b5f81359050610902816108de565b92915050565b5f6020828403121561091d5761091c610824565b5b5f61092a848285016108f4565b91505092915050565b61093c816108cd565b82525050565b5f6020820190506109555f830184610933565b92915050565b5f5f5f5f6080858703121561097357610972610824565b5b5f610980878288016108f4565b945050602061099187828801610847565b93505060406109a287828801610847565b92505060606109b387828801610847565b91505092959194509250565b7f4e487b71000000000000000000000000000000000000000000000000000000005f52601160045260245ffd5b5f6109f682610828565b9150610a0183610828565b9250828202610a0f81610828565b91508282048414831517610a2657610a256109bf565b5b5092915050565b5f69ffffffffffffffffffff82169050919050565b610a4b81610a2d565b8114610a55575f5ffd5b50565b5f81519050610a6681610a42565b92915050565b5f819050919050565b610a7e81610a6c565b8114610a88575f5ffd5b50565b5f81519050610a9981610a75565b92915050565b5f81519050610aad81610831565b92915050565b5f5f5f5f5f60a08688031215610acc57610acb610824565b5b5f610ad988828901610a58565b9550506020610aea88828901610a8b565b9450506040610afb88828901610a9f565b9350506060610b0c88828901610a9f565b9250506080610b1d88828901610a58565b9150509295509295909350565b7f4e487b71000000000000000000000000000000000000000000000000000000005f52603260045260245ffd5b5f610b6182610828565b9150610b6c83610828565b9250828203905081811115610b8457610b836109bf565b5b92915050565b7f4e487b71000000000000000000000000000000000000000000000000000000005f52603160045260245ffd5b5f60c082019050610bca5f830189610933565b610bd76020830188610933565b610be46040830187610886565b610bf16060830186610886565b610bfe6080830185610886565b610c0b60a0830184610886565b979650505050505050565b5f606082019050610c295f830186610933565b610c366020830185610933565b610c436040830184610886565b949350505050565b5f610c5582610828565b91507fffffffffffffffffffffffffffffffffffffffffffffffffffffffffffffffff8203610c8757610c866109bf565b5b60018201905091905056fe60806040525f600b553480156012575f5ffd5b5060015f819055503360015f6101000a81548173ffffffffffffffffffffffffffffffffffffffff021916908373ffffffffffffffffffffffffffffffffffffffff1602179055506120f2806100675f395ff3fe608060405260043610610117575f3560e01c806386489ba91161009f578063d56d229d11610063578063d56d229d14610354578063d57bde791461037e578063de31c95b146103a8578063f1a9af89146103be578063ff9c1ffc146103e857610118565b806386489ba9146102a457806391f90157146102cc5780639cf639d7146102f65780639d76ea5814610300578063c45a01551461032a57610118565b80633197cbb6116100e65780633197cbb6146101d457806370e11711146101fe57806378e97925146102145780637999f2161461023e5780637e8305741461027a57610118565b806308551a531461011a578063150b7a02146101445780631ec7e345146101805780632fc6e8b7146101aa57610118565b5b005b348015610125575f5ffd5b5061012e610410565b60405161013b919061188c565b60405180910390f35b34801561014f575f5ffd5b5061016a6004803603810190610165919061196b565b610435565b6040516101779190611a29565b60405180910390f35b34801561018b575f5ffd5b50610194610449565b6040516101a19190611a51565b60405180910390f35b3480156101b5575f5ffd5b506101be61044f565b6040516101cb9190611a84565b60405180910390f35b3480156101df575f5ffd5b506101e8610461565b6040516101f59190611a51565b60405180910390f35b348015610209575f5ffd5b50610212610467565b005b34801561021f575f5ffd5b50610228610a15565b6040516102359190611a51565b60405180910390f35b348015610249575f5ffd5b50610264600480360381019061025f9190611a9d565b610a1b565b6040516102719190611a51565b60405180910390f35b348015610285575f5ffd5b5061028e610a30565b60405161029b9190611a51565b60405180910390f35b3480156102af575f5ffd5b506102ca60048036038101906102c59190611ac8565b610a36565b005b3480156102d7575f5ffd5b506102e0610b74565b6040516102ed919061188c565b60405180910390f35b6102fe610b99565b005b34801561030b575f5ffd5b50610314610eb3565b604051610321919061188c565b60405180910390f35b348015610335575f5ffd5b5061033e610ed8565b60405161034b919061188c565b60405180910390f35b34801561035f575f5ffd5b50610368610efd565b604051610375919061188c565b60405180910390f35b348015610389575f5ffd5b50610392610f22565b60405161039f9190611a51565b60405180910390f35b3480156103b3575f5ffd5b506103bc610f28565b005b3480156103c9575f5ffd5b506103d2611163565b6040516103df9190611a51565b60405180910390f35b3480156103f3575f5ffd5b5061040e60048036038101906104099190611b51565b611169565b005b60025f9054906101000a900473ffffffffffffffffffffffffffffffffffffffff1681565b5f63150b7a0260e01b905095945050505050565b600b5481565b600c5f9054906101000a900460ff1681565b60065481565b60025f9054906101000a900473ffffffffffffffffffffffffffffffffffffffff1673ffffffffffffffffffffffffffffffffffffffff163373ffffffffffffffffffffffffffffffffffffffff16146104f6576040517f08c379a00000000000000000000000000000000000000000000000000000000081526004016104ed90611c0f565b60405180910390fd5b600554421015801561050a57506006544211155b610549576040517f08c379a000000000000000000000000000000000000000000000000000000000815260040161054090611c77565b60405180910390fd5b600c5f9054906101000a900460ff1615610598576040517f08c379a000000000000000000000000000000000000000000000000000000000815260040161058f90611cdf565b60405180910390fd5b6001600c5f6101000a81548160ff0219169083151502179055505f73ffffffffffffffffffffffffffffffffffffffff1660095f9054906101000a900473ffffffffffffffffffffffffffffffffffffffff1673ffffffffffffffffffffffffffffffffffffffff16146108dd5760035f9054906101000a900473ffffffffffffffffffffffffffffffffffffffff1673ffffffffffffffffffffffffffffffffffffffff166323b872dd3060095f9054906101000a900473ffffffffffffffffffffffffffffffffffffffff166004546040518463ffffffff1660e01b815260040161068793929190611cfd565b5f604051808303815f87803b15801561069e575f5ffd5b505af11580156106b0573d5f5f3e3d5ffd5b505050505f73ffffffffffffffffffffffffffffffffffffffff16600a5f9054906101000a900473ffffffffffffffffffffffffffffffffffffffff1673ffffffffffffffffffffffffffffffffffffffff16036107d9575f60025f9054906101000a900473ffffffffffffffffffffffffffffffffffffffff1673ffffffffffffffffffffffffffffffffffffffff16600b5460405161075090611d5f565b5f6040518083038185875af1925050503d805f811461078a576040519150601f19603f3d011682016040523d82523d5f602084013e61078f565b606091505b50509050806107d3576040517f08c379a00000000000000000000000000000000000000000000000000000000081526004016107ca90611dbd565b60405180910390fd5b506108d8565b600a5f9054906101000a900473ffffffffffffffffffffffffffffffffffffffff1673ffffffffffffffffffffffffffffffffffffffff1663a9059cbb60025f9054906101000a900473ffffffffffffffffffffffffffffffffffffffff16600b546040518363ffffffff1660e01b8152600401610858929190611ddb565b6020604051808303815f875af1158015610874573d5f5f3e3d5ffd5b505050506040513d601f19601f820116820180604052508101906108989190611e2c565b6108d7576040517f08c379a00000000000000000000000000000000000000000000000000000000081526004016108ce90611ea1565b60405180910390fd5b5b61098c565b60035f9054906101000a900473ffffffffffffffffffffffffffffffffffffffff1673ffffffffffffffffffffffffffffffffffffffff166323b872dd3060025f9054906101000a900473ffffffffffffffffffffffffffffffffffffffff166004546040518463ffffffff1660e01b815260040161095e93929190611cfd565b5f604051808303815f87803b158015610975575f5ffd5b505af1158015610987573d5f5f3e3d5ffd5b505050505b60015f9054906101000a900473ffffffffffffffffffffffffffffffffffffffff1673ffffffffffffffffffffffffffffffffffffffff16631ca54219306040518263ffffffff1660e01b81526004016109e6919061188c565b5f604051808303815f87803b1580156109fd575f5ffd5b505af1158015610a0f573d5f5f3e3d5ffd5b50505050565b60055481565b600d602052805f5260405f205f915090505481565b60045481565b60015f9054906101000a900473ffffffffffffffffffffffffffffffffffffffff1673ffffffffffffffffffffffffffffffffffffffff163373ffffffffffffffffffffffffffffffffffffffff1614610ac5576040517f08c379a0000000000000000000000000000000000000000000000000000000008152600401610abc90611f2f565b60405180910390fd5b8560025f6101000a81548173ffffffffffffffffffffffffffffffffffffffff021916908373ffffffffffffffffffffffffffffffffffffffff1602179055508460035f6101000a81548173ffffffffffffffffffffffffffffffffffffffff021916908373ffffffffffffffffffffffffffffffffffffffff1602179055508360048190555082600781905550816005819055508082610b669190611f7a565b600681905550505050505050565b60095f9054906101000a900473ffffffffffffffffffffffffffffffffffffffff1681565b610ba1611585565b6005544210158015610bb557506006544211155b610bf4576040517f08c379a0000000000000000000000000000000000000000000000000000000008152600401610beb90611c77565b60405180910390fd5b600c5f9054906101000a900460ff1615610c43576040517f08c379a0000000000000000000000000000000000000000000000000000000008152600401610c3a90611cdf565b60405180910390fd5b5f60015f9054906101000a900473ffffffffffffffffffffffffffffffffffffffff1673ffffffffffffffffffffffffffffffffffffffff1663c01895bb346040518263ffffffff1660e01b8152600401610c9e9190611a51565b6020604051808303815f875af1158015610cba573d5f5f3e3d5ffd5b505050506040513d601f19601f82011682018060405250810190610cde9190611fc1565b90505f60015f9054906101000a900473ffffffffffffffffffffffffffffffffffffffff1673ffffffffffffffffffffffffffffffffffffffff1663c01895bb6007546040518263ffffffff1660e01b8152600401610d3d9190611a51565b6020604051808303815f875af1158015610d59573d5f5f3e3d5ffd5b505050506040513d601f19601f82011682018060405250810190610d7d9190611fc1565b905060085482118015610d905750808210155b610dcf576040517f08c379a0000000000000000000000000000000000000000000000000000000008152600401610dc690612036565b60405180910390fd5b610dd76115c9565b3360095f6101000a81548173ffffffffffffffffffffffffffffffffffffffff021916908373ffffffffffffffffffffffffffffffffffffffff160217905550816008819055505f600a5f6101000a81548173ffffffffffffffffffffffffffffffffffffffff021916908373ffffffffffffffffffffffffffffffffffffffff16021790555034600b8190555081600d5f3373ffffffffffffffffffffffffffffffffffffffff1673ffffffffffffffffffffffffffffffffffffffff1681526020019081526020015f20819055505050610eb1611844565b565b600a5f9054906101000a900473ffffffffffffffffffffffffffffffffffffffff1681565b60015f9054906101000a900473ffffffffffffffffffffffffffffffffffffffff1681565b60035f9054906101000a900473ffffffffffffffffffffffffffffffffffffffff1681565b60085481565b60025f9054906101000a900473ffffffffffffffffffffffffffffffffffffffff1673ffffffffffffffffffffffffffffffffffffffff163373ffffffffffffffffffffffffffffffffffffffff1614610fb7576040517f08c379a0000000000000000000000000000000000000000000000000000000008152600401610fae90611c0f565b60405180910390fd5b6005544210158015610fcb57506006544211155b61100a576040517f08c379a000000000000000000000000000000000000000000000000000000000815260040161100190611c77565b60405180910390fd5b6001600c5f6101000a81548160ff02191690831515021790555060035f9054906101000a900473ffffffffffffffffffffffffffffffffffffffff1673ffffffffffffffffffffffffffffffffffffffff166323b872dd3060025f9054906101000a900473ffffffffffffffffffffffffffffffffffffffff166004546040518463ffffffff1660e01b81526004016110a593929190611cfd565b5f604051808303815f87803b1580156110bc575f5ffd5b505af11580156110ce573d5f5f3e3d5ffd5b505050506110da6115c9565b60015f9054906101000a900473ffffffffffffffffffffffffffffffffffffffff1673ffffffffffffffffffffffffffffffffffffffff16631ca54219306040518263ffffffff1660e01b8152600401611134919061188c565b5f604051808303815f87803b15801561114b575f5ffd5b505af115801561115d573d5f5f3e3d5ffd5b50505050565b60075481565b611171611585565b600554421015801561118557506006544211155b6111c4576040517f08c379a00000000000000000000000000000000000000000000000000000000081526004016111bb90611c77565b60405180910390fd5b600c5f9054906101000a900460ff1615611213576040517f08c379a000000000000000000000000000000000000000000000000000000000815260040161120a90611cdf565b60405180910390fd5b73779877a7b0d9e8603169ddbd7836e478b462478973ffffffffffffffffffffffffffffffffffffffff168273ffffffffffffffffffffffffffffffffffffffff1614611295576040517f08c379a000000000000000000000000000000000000000000000000000000000815260040161128c9061209e565b60405180910390fd5b5f60015f9054906101000a900473ffffffffffffffffffffffffffffffffffffffff1673ffffffffffffffffffffffffffffffffffffffff1663135597fd836040518263ffffffff1660e01b81526004016112f09190611a51565b6020604051808303815f875af115801561130c573d5f5f3e3d5ffd5b505050506040513d601f19601f820116820180604052508101906113309190611fc1565b90505f60015f9054906101000a900473ffffffffffffffffffffffffffffffffffffffff1673ffffffffffffffffffffffffffffffffffffffff1663135597fd6007546040518263ffffffff1660e01b815260040161138f9190611a51565b6020604051808303815f875af11580156113ab573d5f5f3e3d5ffd5b505050506040513d601f19601f820116820180604052508101906113cf9190611fc1565b9050600854821180156113e25750808210155b611421576040517f08c379a000000000000000000000000000000000000000000000000000000000815260040161141890612036565b60405180910390fd5b8373ffffffffffffffffffffffffffffffffffffffff166323b872dd3330866040518463ffffffff1660e01b815260040161145e93929190611cfd565b6020604051808303815f875af115801561147a573d5f5f3e3d5ffd5b505050506040513d601f19601f8201168201806040525081019061149e9190611e2c565b506114a76115c9565b3360095f6101000a81548173ffffffffffffffffffffffffffffffffffffffff021916908373ffffffffffffffffffffffffffffffffffffffff1602179055508160088190555083600a5f6101000a81548173ffffffffffffffffffffffffffffffffffffffff021916908373ffffffffffffffffffffffffffffffffffffffff16021790555082600b8190555081600d5f3373ffffffffffffffffffffffffffffffffffffffff1673ffffffffffffffffffffffffffffffffffffffff1681526020019081526020015f20819055505050611581611844565b5050565b60025f54036115c0576040517f3ee5aeb500000000000000000000000000000000000000000000000000000000815260040160405180910390fd5b60025f81905550565b5f73ffffffffffffffffffffffffffffffffffffffff1660095f9054906101000a900473ffffffffffffffffffffffffffffffffffffffff1673ffffffffffffffffffffffffffffffffffffffff1614611842575f73ffffffffffffffffffffffffffffffffffffffff16600a5f9054906101000a900473ffffffffffffffffffffffffffffffffffffffff1673ffffffffffffffffffffffffffffffffffffffff1603611742575f60095f9054906101000a900473ffffffffffffffffffffffffffffffffffffffff1673ffffffffffffffffffffffffffffffffffffffff16600b546040516116b990611d5f565b5f6040518083038185875af1925050503d805f81146116f3576040519150601f19603f3d011682016040523d82523d5f602084013e6116f8565b606091505b505090508061173c576040517f08c379a000000000000000000000000000000000000000000000000000000000815260040161173390611dbd565b60405180910390fd5b50611841565b600a5f9054906101000a900473ffffffffffffffffffffffffffffffffffffffff1673ffffffffffffffffffffffffffffffffffffffff1663a9059cbb60095f9054906101000a900473ffffffffffffffffffffffffffffffffffffffff16600b546040518363ffffffff1660e01b81526004016117c1929190611ddb565b6020604051808303815f875af11580156117dd573d5f5f3e3d5ffd5b505050506040513d601f19601f820116820180604052508101906118019190611e2c565b611840576040517f08c379a000000000000000000000000000000000000000000000000000000000815260040161183790611ea1565b60405180910390fd5b5b5b565b60015f81905550565b5f73ffffffffffffffffffffffffffffffffffffffff82169050919050565b5f6118768261184d565b9050919050565b6118868161186c565b82525050565b5f60208201905061189f5f83018461187d565b92915050565b5f5ffd5b5f5ffd5b6118b68161186c565b81146118c0575f5ffd5b50565b5f813590506118d1816118ad565b92915050565b5f819050919050565b6118e9816118d7565b81146118f3575f5ffd5b50565b5f81359050611904816118e0565b92915050565b5f5ffd5b5f5ffd5b5f5ffd5b5f5f83601f84011261192b5761192a61190a565b5b8235905067ffffffffffffffff8111156119485761194761190e565b5b60208301915083600182028301111561196457611963611912565b5b9250929050565b5f5f5f5f5f60808688031215611984576119836118a5565b5b5f611991888289016118c3565b95505060206119a2888289016118c3565b94505060406119b3888289016118f6565b935050606086013567ffffffffffffffff8111156119d4576119d36118a9565b5b6119e088828901611916565b92509250509295509295909350565b5f7fffffffff0000000000000000000000000000000000000000000000000000000082169050919050565b611a23816119ef565b82525050565b5f602082019050611a3c5f830184611a1a565b92915050565b611a4b816118d7565b82525050565b5f602082019050611a645f830184611a42565b92915050565b5f8115159050919050565b611a7e81611a6a565b82525050565b5f602082019050611a975f830184611a75565b92915050565b5f60208284031215611ab257611ab16118a5565b5b5f611abf848285016118c3565b91505092915050565b5f5f5f5f5f5f60c08789031215611ae257611ae16118a5565b5b5f611aef89828a016118c3565b9650506020611b0089828a016118c3565b9550506040611b1189828a016118f6565b9450506060611b2289828a016118f6565b9350506080611b3389828a016118f6565b92505060a0611b4489828a016118f6565b9150509295509295509295565b5f5f60408385031215611b6757611b666118a5565b5b5f611b74858286016118c3565b9250506020611b85858286016118f6565b9150509250929050565b5f82825260208201905092915050565b7f4f6e6c792073656c6c65722063616e2063616c6c20746869732066756e6374695f8201527f6f6e000000000000000000000000000000000000000000000000000000000000602082015250565b5f611bf9602283611b8f565b9150611c0482611b9f565b604082019050919050565b5f6020820190508181035f830152611c2681611bed565b9050919050565b7f417574696f6e206e6f74207374617274206f7220656e640000000000000000005f82015250565b5f611c61601783611b8f565b9150611c6c82611c2d565b602082019050919050565b5f6020820190508181035f830152611c8e81611c55565b9050919050565b7f417574696f6e2068617320656e640000000000000000000000000000000000005f82015250565b5f611cc9600e83611b8f565b9150611cd482611c95565b602082019050919050565b5f6020820190508181035f830152611cf681611cbd565b9050919050565b5f606082019050611d105f83018661187d565b611d1d602083018561187d565b611d2a6040830184611a42565b949350505050565b5f81905092915050565b50565b5f611d4a5f83611d32565b9150611d5582611d3c565b5f82019050919050565b5f611d6982611d3f565b9150819050919050565b7f455448207472616e73666572206661696c6564000000000000000000000000005f82015250565b5f611da7601383611b8f565b9150611db282611d73565b602082019050919050565b5f6020820190508181035f830152611dd481611d9b565b9050919050565b5f604082019050611dee5f83018561187d565b611dfb6020830184611a42565b9392505050565b611e0b81611a6a565b8114611e15575f5ffd5b50565b5f81519050611e2681611e02565b92915050565b5f60208284031215611e4157611e406118a5565b5b5f611e4e84828501611e18565b91505092915050565b7f546f6b656e207472616e73666572206661696c656400000000000000000000005f82015250565b5f611e8b601583611b8f565b9150611e9682611e57565b602082019050919050565b5f6020820190508181035f830152611eb881611e7f565b9050919050565b7f4f6e6c7920666163746f72792063616e2063616c6c20746869732066756e63745f8201527f696f6e0000000000000000000000000000000000000000000000000000000000602082015250565b5f611f19602383611b8f565b9150611f2482611ebf565b604082019050919050565b5f6020820190508181035f830152611f4681611f0d565b9050919050565b7f4e487b71000000000000000000000000000000000000000000000000000000005f52601160045260245ffd5b5f611f84826118d7565b9150611f8f836118d7565b9250828201905080821115611fa757611fa6611f4d565b5b92915050565b5f81519050611fbb816118e0565b92915050565b5f60208284031215611fd657611fd56118a5565b5b5f611fe384828501611fad565b91505092915050565b7f426964206e6f74206869676820656e6f756768000000000000000000000000005f82015250565b5f612020601383611b8f565b915061202b82611fec565b602082019050919050565b5f6020820190508181035f83015261204d81612014565b9050919050565b7f6f6e6c7920616363657074206c696e6b000000000000000000000000000000005f82015250565b5f612088601083611b8f565b915061209382612054565b602082019050919050565b5f6020820190508181035f8301526120b58161207c565b905091905056fea2646970667358221220df9d1d6243934360fc5b34b4fe9a3ba9177e50c2d9d0370d6e49c7aaf2e36cf564736f6c634300081e0033a2646970667358221220d3367b77086727662148cd34f46b5c2987734ef9d5bcd9f8884c9698a237453264736f6c634300081e0033",
					"opcodes": "PUSH1 0x80 PUSH1 0x40 MSTORE PUSH1 0x1 PUSH1 0x2 SSTORE PUSH20 0x779877A7B0D9E8603169DDBD7836E478B4624789 PUSH1 0x5 PUSH0 PUSH2 0x100 EXP DUP2 SLOAD DUP2 PUSH20 0xFFFFFFFFFFFFFFFFFFFFFFFFFFFFFFFFFFFFFFFF MUL NOT AND SWAP1 DUP4 PUSH20 0xFFFFFFFFFFFFFFFFFFFFFFFFFFFFFFFFFFFFFFFF AND MUL OR SWAP1 SSTORE POP PUSH0 PUSH1 0x6 PUSH0 PUSH2 0x100 EXP DUP2 SLOAD DUP2 PUSH20 0xFFFFFFFFFFFFFFFFFFFFFFFFFFFFFFFFFFFFFFFF MUL NOT AND SWAP1 DUP4 PUSH20 0xFFFFFFFFFFFFFFFFFFFFFFFFFFFFFFFFFFFFFFFF AND MUL OR SWAP1 SSTORE POP PUSH0 PUSH1 0x6 PUSH1 0x14 PUSH2 0x100 EXP DUP2 SLOAD DUP2 PUSH1 0xFF MUL NOT AND SWAP1 DUP4 ISZERO ISZERO MUL OR SWAP1 SSTORE POP CALLVALUE DUP1 ISZERO PUSH2 0xC2 JUMPI PUSH0 PUSH0 REVERT JUMPDEST POP PUSH1 0x40 MLOAD PUSH2 0x3136 CODESIZE SUB DUP1 PUSH2 0x3136 DUP4 CODECOPY DUP2 DUP2 ADD PUSH1 0x40 MSTORE DUP2 ADD SWAP1 PUSH2 0xE4 SWAP2 SWAP1 PUSH2 0x2DD JUMP JUMPDEST CALLER PUSH1 0x1 PUSH0 PUSH2 0x100 EXP DUP2 SLOAD DUP2 PUSH20 0xFFFFFFFFFFFFFFFFFFFFFFFFFFFFFFFFFFFFFFFF MUL NOT AND SWAP1 DUP4 PUSH20 0xFFFFFFFFFFFFFFFFFFFFFFFFFFFFFFFFFFFFFFFF AND MUL OR SWAP1 SSTORE POP PUSH20 0xC59E3633BAAC79493D908E63626716E204A45EDF PUSH1 0x4 PUSH0 PUSH1 0x5 PUSH0 SWAP1 SLOAD SWAP1 PUSH2 0x100 EXP SWAP1 DIV PUSH20 0xFFFFFFFFFFFFFFFFFFFFFFFFFFFFFFFFFFFFFFFF AND PUSH20 0xFFFFFFFFFFFFFFFFFFFFFFFFFFFFFFFFFFFFFFFF AND PUSH20 0xFFFFFFFFFFFFFFFFFFFFFFFFFFFFFFFFFFFFFFFF AND DUP2 MSTORE PUSH1 0x20 ADD SWAP1 DUP2 MSTORE PUSH1 0x20 ADD PUSH0 KECCAK256 PUSH0 PUSH2 0x100 EXP DUP2 SLOAD DUP2 PUSH20 0xFFFFFFFFFFFFFFFFFFFFFFFFFFFFFFFFFFFFFFFF MUL NOT AND SWAP1 DUP4 PUSH20 0xFFFFFFFFFFFFFFFFFFFFFFFFFFFFFFFFFFFFFFFF AND MUL OR SWAP1 SSTORE POP PUSH20 0x694AA1769357215DE4FAC081BF1F309ADC325306 PUSH1 0x4 PUSH0 PUSH1 0x6 PUSH0 SWAP1 SLOAD SWAP1 PUSH2 0x100 EXP SWAP1 DIV PUSH20 0xFFFFFFFFFFFFFFFFFFFFFFFFFFFFFFFFFFFFFFFF AND PUSH20 0xFFFFFFFFFFFFFFFFFFFFFFFFFFFFFFFFFFFFFFFF AND PUSH20 0xFFFFFFFFFFFFFFFFFFFFFFFFFFFFFFFFFFFFFFFF AND DUP2 MSTORE PUSH1 0x20 ADD SWAP1 DUP2 MSTORE PUSH1 0x20 ADD PUSH0 KECCAK256 PUSH0 PUSH2 0x100 EXP DUP2 SLOAD DUP2 PUSH20 0xFFFFFFFFFFFFFFFFFFFFFFFFFFFFFFFFFFFFFFFF MUL NOT AND SWAP1 DUP4 PUSH20 0xFFFFFFFFFFFFFFFFFFFFFFFFFFFFFFFFFFFFFFFF AND MUL OR SWAP1 SSTORE POP DUP1 PUSH1 0x6 PUSH1 0x14 PUSH2 0x100 EXP DUP2 SLOAD DUP2 PUSH1 0xFF MUL NOT AND SWAP1 DUP4 ISZERO ISZERO MUL OR SWAP1 SSTORE POP POP PUSH2 0x308 JUMP JUMPDEST PUSH0 PUSH0 REVERT JUMPDEST PUSH0 DUP2 ISZERO ISZERO SWAP1 POP SWAP2 SWAP1 POP JUMP JUMPDEST PUSH2 0x2BC DUP2 PUSH2 0x2A8 JUMP JUMPDEST DUP2 EQ PUSH2 0x2C6 JUMPI PUSH0 PUSH0 REVERT JUMPDEST POP JUMP JUMPDEST PUSH0 DUP2 MLOAD SWAP1 POP PUSH2 0x2D7 DUP2 PUSH2 0x2B3 JUMP JUMPDEST SWAP3 SWAP2 POP POP JUMP JUMPDEST PUSH0 PUSH1 0x20 DUP3 DUP5 SUB SLT ISZERO PUSH2 0x2F2 JUMPI PUSH2 0x2F1 PUSH2 0x2A4 JUMP JUMPDEST JUMPDEST PUSH0 PUSH2 0x2FF DUP5 DUP3 DUP6 ADD PUSH2 0x2C9 JUMP JUMPDEST SWAP2 POP POP SWAP3 SWAP2 POP POP JUMP JUMPDEST PUSH2 0x2E21 DUP1 PUSH2 0x315 PUSH0 CODECOPY PUSH0 RETURN INVALID PUSH1 0x80 PUSH1 0x40 MSTORE CALLVALUE DUP1 ISZERO PUSH2 0xF JUMPI PUSH0 PUSH0 REVERT JUMPDEST POP PUSH1 0x4 CALLDATASIZE LT PUSH2 0x7B JUMPI PUSH0 CALLDATALOAD PUSH1 0xE0 SHR DUP1 PUSH4 0x697B6A07 GT PUSH2 0x59 JUMPI DUP1 PUSH4 0x697B6A07 EQ PUSH2 0xFB JUMPI DUP1 PUSH4 0x72CCB1A3 EQ PUSH2 0x119 JUMPI DUP1 PUSH4 0xC01895BB EQ PUSH2 0x149 JUMPI DUP1 PUSH4 0xD0FF630F EQ PUSH2 0x179 JUMPI PUSH2 0x7B JUMP JUMPDEST DUP1 PUSH4 0x135597FD EQ PUSH2 0x7F JUMPI DUP1 PUSH4 0x1CA54219 EQ PUSH2 0xAF JUMPI DUP1 PUSH4 0x6097EE20 EQ PUSH2 0xCB JUMPI JUMPDEST PUSH0 PUSH0 REVERT JUMPDEST PUSH2 0x99 PUSH1 0x4 DUP1 CALLDATASIZE SUB DUP2 ADD SWAP1 PUSH2 0x94 SWAP2 SWAP1 PUSH2 0x85B JUMP JUMPDEST PUSH2 0x1A9 JUMP JUMPDEST PUSH1 0x40 MLOAD PUSH2 0xA6 SWAP2 SWAP1 PUSH2 0x895 JUMP JUMPDEST PUSH1 0x40 MLOAD DUP1 SWAP2 SUB SWAP1 RETURN JUMPDEST PUSH2 0xC9 PUSH1 0x4 DUP1 CALLDATASIZE SUB DUP2 ADD SWAP1 PUSH2 0xC4 SWAP2 SWAP1 PUSH2 0x908 JUMP JUMPDEST PUSH2 0x2E2 JUMP JUMPDEST STOP JUMPDEST PUSH2 0xE5 PUSH1 0x4 DUP1 CALLDATASIZE SUB DUP2 ADD SWAP1 PUSH2 0xE0 SWAP2 SWAP1 PUSH2 0x85B JUMP JUMPDEST PUSH2 0x45C JUMP JUMPDEST PUSH1 0x40 MLOAD PUSH2 0xF2 SWAP2 SWAP1 PUSH2 0x942 JUMP JUMPDEST PUSH1 0x40 MLOAD DUP1 SWAP2 SUB SWAP1 RETURN JUMPDEST PUSH2 0x103 PUSH2 0x495 JUMP JUMPDEST PUSH1 0x40 MLOAD PUSH2 0x110 SWAP2 SWAP1 PUSH2 0x895 JUMP JUMPDEST PUSH1 0x40 MLOAD DUP1 SWAP2 SUB SWAP1 RETURN JUMPDEST PUSH2 0x133 PUSH1 0x4 DUP1 CALLDATASIZE SUB DUP2 ADD SWAP1 PUSH2 0x12E SWAP2 SWAP1 PUSH2 0x85B JUMP JUMPDEST PUSH2 0x4A0 JUMP JUMPDEST PUSH1 0x40 MLOAD PUSH2 0x140 SWAP2 SWAP1 PUSH2 0x942 JUMP JUMPDEST PUSH1 0x40 MLOAD DUP1 SWAP2 SUB SWAP1 RETURN JUMPDEST PUSH2 0x163 PUSH1 0x4 DUP1 CALLDATASIZE SUB DUP2 ADD SWAP1 PUSH2 0x15E SWAP2 SWAP1 PUSH2 0x85B JUMP JUMPDEST PUSH2 0x4DA JUMP JUMPDEST PUSH1 0x40 MLOAD PUSH2 0x170 SWAP2 SWAP1 PUSH2 0x895 JUMP JUMPDEST PUSH1 0x40 MLOAD DUP1 SWAP2 SUB SWAP1 RETURN JUMPDEST PUSH2 0x193 PUSH1 0x4 DUP1 CALLDATASIZE SUB DUP2 ADD SWAP1 PUSH2 0x18E SWAP2 SWAP1 PUSH2 0x95B JUMP JUMPDEST PUSH2 0x5E5 JUMP JUMPDEST PUSH1 0x40 MLOAD PUSH2 0x1A0 SWAP2 SWAP1 PUSH2 0x895 JUMP JUMPDEST PUSH1 0x40 MLOAD DUP1 SWAP2 SUB SWAP1 RETURN JUMPDEST PUSH0 PUSH1 0x6 PUSH1 0x14 SWAP1 SLOAD SWAP1 PUSH2 0x100 EXP SWAP1 DIV PUSH1 0xFF AND ISZERO PUSH2 0x1D7 JUMPI PUSH5 0x4076B95337 DUP3 PUSH2 0x1D0 SWAP2 SWAP1 PUSH2 0x9EC JUMP JUMPDEST SWAP1 POP PUSH2 0x2DD JUMP JUMPDEST PUSH0 PUSH1 0x4 PUSH0 PUSH1 0x5 PUSH0 SWAP1 SLOAD SWAP1 PUSH2 0x100 EXP SWAP1 DIV PUSH20 0xFFFFFFFFFFFFFFFFFFFFFFFFFFFFFFFFFFFFFFFF AND PUSH20 0xFFFFFFFFFFFFFFFFFFFFFFFFFFFFFFFFFFFFFFFF AND PUSH20 0xFFFFFFFFFFFFFFFFFFFFFFFFFFFFFFFFFFFFFFFF AND DUP2 MSTORE PUSH1 0x20 ADD SWAP1 DUP2 MSTORE PUSH1 0x20 ADD PUSH0 KECCAK256 PUSH0 SWAP1 SLOAD SWAP1 PUSH2 0x100 EXP SWAP1 DIV PUSH20 0xFFFFFFFFFFFFFFFFFFFFFFFFFFFFFFFFFFFFFFFF AND SWAP1 POP PUSH0 DUP2 PUSH20 0xFFFFFFFFFFFFFFFFFFFFFFFFFFFFFFFFFFFFFFFF AND PUSH4 0xFEAF968C PUSH1 0x40 MLOAD DUP2 PUSH4 0xFFFFFFFF AND PUSH1 0xE0 SHL DUP2 MSTORE PUSH1 0x4 ADD PUSH1 0xA0 PUSH1 0x40 MLOAD DUP1 DUP4 SUB DUP2 DUP7 GAS STATICCALL ISZERO DUP1 ISZERO PUSH2 0x2A2 JUMPI RETURNDATASIZE PUSH0 PUSH0 RETURNDATACOPY RETURNDATASIZE PUSH0 REVERT JUMPDEST POP POP POP POP PUSH1 0x40 MLOAD RETURNDATASIZE PUSH1 0x1F NOT PUSH1 0x1F DUP3 ADD AND DUP3 ADD DUP1 PUSH1 0x40 MSTORE POP DUP2 ADD SWAP1 PUSH2 0x2C6 SWAP2 SWAP1 PUSH2 0xAB3 JUMP JUMPDEST POP POP POP SWAP2 POP POP DUP1 DUP5 PUSH2 0x2D8 SWAP2 SWAP1 PUSH2 0x9EC JUMP JUMPDEST SWAP3 POP POP POP JUMPDEST SWAP2 SWAP1 POP JUMP JUMPDEST PUSH0 PUSH0 SWAP1 POP JUMPDEST PUSH0 DUP1 SLOAD SWAP1 POP DUP2 LT ISZERO PUSH2 0x458 JUMPI DUP2 PUSH20 0xFFFFFFFFFFFFFFFFFFFFFFFFFFFFFFFFFFFFFFFF AND PUSH0 DUP3 DUP2 SLOAD DUP2 LT PUSH2 0x31D JUMPI PUSH2 0x31C PUSH2 0xB2A JUMP JUMPDEST JUMPDEST SWAP1 PUSH0 MSTORE PUSH1 0x20 PUSH0 KECCAK256 ADD PUSH0 SWAP1 SLOAD SWAP1 PUSH2 0x100 EXP SWAP1 DIV PUSH20 0xFFFFFFFFFFFFFFFFFFFFFFFFFFFFFFFFFFFFFFFF AND PUSH20 0xFFFFFFFFFFFFFFFFFFFFFFFFFFFFFFFFFFFFFFFF AND SUB PUSH2 0x44B JUMPI PUSH0 PUSH1 0x1 PUSH0 DUP1 SLOAD SWAP1 POP PUSH2 0x372 SWAP2 SWAP1 PUSH2 0xB57 JUMP JUMPDEST DUP2 SLOAD DUP2 LT PUSH2 0x383 JUMPI PUSH2 0x382 PUSH2 0xB2A JUMP JUMPDEST JUMPDEST SWAP1 PUSH0 MSTORE PUSH1 0x20 PUSH0 KECCAK256 ADD PUSH0 SWAP1 SLOAD SWAP1 PUSH2 0x100 EXP SWAP1 DIV PUSH20 0xFFFFFFFFFFFFFFFFFFFFFFFFFFFFFFFFFFFFFFFF AND PUSH0 DUP3 DUP2 SLOAD DUP2 LT PUSH2 0x3BE JUMPI PUSH2 0x3BD PUSH2 0xB2A JUMP JUMPDEST JUMPDEST SWAP1 PUSH0 MSTORE PUSH1 0x20 PUSH0 KECCAK256 ADD PUSH0 PUSH2 0x100 EXP DUP2 SLOAD DUP2 PUSH20 0xFFFFFFFFFFFFFFFFFFFFFFFFFFFFFFFFFFFFFFFF MUL NOT AND SWAP1 DUP4 PUSH20 0xFFFFFFFFFFFFFFFFFFFFFFFFFFFFFFFFFFFFFFFF AND MUL OR SWAP1 SSTORE POP PUSH0 DUP1 SLOAD DUP1 PUSH2 0x414 JUMPI PUSH2 0x413 PUSH2 0xB8A JUMP JUMPDEST JUMPDEST PUSH1 0x1 SWAP1 SUB DUP2 DUP2 SWAP1 PUSH0 MSTORE PUSH1 0x20 PUSH0 KECCAK256 ADD PUSH0 PUSH2 0x100 EXP DUP2 SLOAD SWAP1 PUSH20 0xFFFFFFFFFFFFFFFFFFFFFFFFFFFFFFFFFFFFFFFF MUL NOT AND SWAP1 SSTORE SWAP1 SSTORE PUSH2 0x458 JUMP JUMPDEST DUP1 DUP1 PUSH1 0x1 ADD SWAP2 POP POP PUSH2 0x2E7 JUMP JUMPDEST POP POP JUMP JUMPDEST PUSH0 PUSH1 0x3 PUSH0 DUP4 DUP2 MSTORE PUSH1 0x20 ADD SWAP1 DUP2 MSTORE PUSH1 0x20 ADD PUSH0 KECCAK256 PUSH0 SWAP1 SLOAD SWAP1 PUSH2 0x100 EXP SWAP1 DIV PUSH20 0xFFFFFFFFFFFFFFFFFFFFFFFFFFFFFFFFFFFFFFFF AND SWAP1 POP SWAP2 SWAP1 POP JUMP JUMPDEST PUSH0 PUSH0 DUP1 SLOAD SWAP1 POP SWAP1 POP SWAP1 JUMP JUMPDEST PUSH0 DUP2 DUP2 SLOAD DUP2 LT PUSH2 0x4AE JUMPI PUSH0 DUP1 REVERT JUMPDEST SWAP1 PUSH0 MSTORE PUSH1 0x20 PUSH0 KECCAK256 ADD PUSH0 SWAP2 POP SLOAD SWAP1 PUSH2 0x100 EXP SWAP1 DIV PUSH20 0xFFFFFFFFFFFFFFFFFFFFFFFFFFFFFFFFFFFFFFFF AND DUP2 JUMP JUMPDEST PUSH0 PUSH0 PUSH1 0x4 PUSH0 PUSH1 0x6 PUSH0 SWAP1 SLOAD SWAP1 PUSH2 0x100 EXP SWAP1 DIV PUSH20 0xFFFFFFFFFFFFFFFFFFFFFFFFFFFFFFFFFFFFFFFF AND PUSH20 0xFFFFFFFFFFFFFFFFFFFFFFFFFFFFFFFFFFFFFFFF AND PUSH20 0xFFFFFFFFFFFFFFFFFFFFFFFFFFFFFFFFFFFFFFFF AND DUP2 MSTORE PUSH1 0x20 ADD SWAP1 DUP2 MSTORE PUSH1 0x20 ADD PUSH0 KECCAK256 PUSH0 SWAP1 SLOAD SWAP1 PUSH2 0x100 EXP SWAP1 DIV PUSH20 0xFFFFFFFFFFFFFFFFFFFFFFFFFFFFFFFFFFFFFFFF AND SWAP1 POP PUSH0 DUP2 PUSH20 0xFFFFFFFFFFFFFFFFFFFFFFFFFFFFFFFFFFFFFFFF AND PUSH4 0xFEAF968C PUSH1 0x40 MLOAD DUP2 PUSH4 0xFFFFFFFF AND PUSH1 0xE0 SHL DUP2 MSTORE PUSH1 0x4 ADD PUSH1 0xA0 PUSH1 0x40 MLOAD DUP1 DUP4 SUB DUP2 DUP7 GAS STATICCALL ISZERO DUP1 ISZERO PUSH2 0x5A6 JUMPI RETURNDATASIZE PUSH0 PUSH0 RETURNDATACOPY RETURNDATASIZE PUSH0 REVERT JUMPDEST POP POP POP POP PUSH1 0x40 MLOAD RETURNDATASIZE PUSH1 0x1F NOT PUSH1 0x1F DUP3 ADD AND DUP3 ADD DUP1 PUSH1 0x40 MSTORE POP DUP2 ADD SWAP1 PUSH2 0x5CA SWAP2 SWAP1 PUSH2 0xAB3 JUMP JUMPDEST POP POP POP SWAP2 POP POP DUP1 DUP5 PUSH2 0x5DC SWAP2 SWAP1 PUSH2 0x9EC JUMP JUMPDEST SWAP3 POP POP POP SWAP2 SWAP1 POP JUMP JUMPDEST PUSH0 PUSH0 PUSH1 0x40 MLOAD PUSH2 0x5F3 SWAP1 PUSH2 0x817 JUMP JUMPDEST PUSH1 0x40 MLOAD DUP1 SWAP2 SUB SWAP1 PUSH0 CREATE DUP1 ISZERO DUP1 ISZERO PUSH2 0x60C JUMPI RETURNDATASIZE PUSH0 PUSH0 RETURNDATACOPY RETURNDATASIZE PUSH0 REVERT JUMPDEST POP SWAP1 POP PUSH0 PUSH2 0x619 DUP6 PUSH2 0x4DA JUMP JUMPDEST SWAP1 POP DUP2 PUSH20 0xFFFFFFFFFFFFFFFFFFFFFFFFFFFFFFFFFFFFFFFF AND PUSH4 0x86489BA9 CALLER DUP10 DUP10 DUP6 TIMESTAMP DUP11 PUSH1 0x40 MLOAD DUP8 PUSH4 0xFFFFFFFF AND PUSH1 0xE0 SHL DUP2 MSTORE PUSH1 0x4 ADD PUSH2 0x65E SWAP7 SWAP6 SWAP5 SWAP4 SWAP3 SWAP2 SWAP1 PUSH2 0xBB7 JUMP JUMPDEST PUSH0 PUSH1 0x40 MLOAD DUP1 DUP4 SUB DUP2 PUSH0 DUP8 DUP1 EXTCODESIZE ISZERO DUP1 ISZERO PUSH2 0x675 JUMPI PUSH0 PUSH0 REVERT JUMPDEST POP GAS CALL ISZERO DUP1 ISZERO PUSH2 0x687 JUMPI RETURNDATASIZE PUSH0 PUSH0 RETURNDATACOPY RETURNDATASIZE PUSH0 REVERT JUMPDEST POP POP POP POP PUSH0 DUP8 SWAP1 POP DUP1 PUSH20 0xFFFFFFFFFFFFFFFFFFFFFFFFFFFFFFFFFFFFFFFF AND PUSH4 0x23B872DD CALLER DUP6 DUP11 PUSH1 0x40 MLOAD DUP5 PUSH4 0xFFFFFFFF AND PUSH1 0xE0 SHL DUP2 MSTORE PUSH1 0x4 ADD PUSH2 0x6CC SWAP4 SWAP3 SWAP2 SWAP1 PUSH2 0xC16 JUMP JUMPDEST PUSH0 PUSH1 0x40 MLOAD DUP1 DUP4 SUB DUP2 PUSH0 DUP8 DUP1 EXTCODESIZE ISZERO DUP1 ISZERO PUSH2 0x6E3 JUMPI PUSH0 PUSH0 REVERT JUMPDEST POP GAS CALL ISZERO DUP1 ISZERO PUSH2 0x6F5 JUMPI RETURNDATASIZE PUSH0 PUSH0 RETURNDATACOPY RETURNDATASIZE PUSH0 REVERT JUMPDEST POP POP POP POP PUSH0 DUP4 SWAP1 POP PUSH0 DUP2 SWAP1 DUP1 PUSH1 0x1 DUP2 SLOAD ADD DUP1 DUP3 SSTORE DUP1 SWAP2 POP POP PUSH1 0x1 SWAP1 SUB SWAP1 PUSH0 MSTORE PUSH1 0x20 PUSH0 KECCAK256 ADD PUSH0 SWAP1 SWAP2 SWAP1 SWAP2 SWAP1 SWAP2 PUSH2 0x100 EXP DUP2 SLOAD DUP2 PUSH20 0xFFFFFFFFFFFFFFFFFFFFFFFFFFFFFFFFFFFFFFFF MUL NOT AND SWAP1 DUP4 PUSH20 0xFFFFFFFFFFFFFFFFFFFFFFFFFFFFFFFFFFFFFFFF AND MUL OR SWAP1 SSTORE POP PUSH0 PUSH1 0x2 PUSH0 DUP2 SLOAD DUP1 SWAP3 SWAP2 SWAP1 PUSH2 0x76F SWAP1 PUSH2 0xC4B JUMP JUMPDEST SWAP2 SWAP1 POP SSTORE SWAP1 POP DUP2 PUSH1 0x3 PUSH0 DUP4 DUP2 MSTORE PUSH1 0x20 ADD SWAP1 DUP2 MSTORE PUSH1 0x20 ADD PUSH0 KECCAK256 PUSH0 PUSH2 0x100 EXP DUP2 SLOAD DUP2 PUSH20 0xFFFFFFFFFFFFFFFFFFFFFFFFFFFFFFFFFFFFFFFF MUL NOT AND SWAP1 DUP4 PUSH20 0xFFFFFFFFFFFFFFFFFFFFFFFFFFFFFFFFFFFFFFFF AND MUL OR SWAP1 SSTORE POP DUP2 PUSH20 0xFFFFFFFFFFFFFFFFFFFFFFFFFFFFFFFFFFFFFFFF AND PUSH32 0x4B8C8DCAC8794B5842D188A3BFAF7638B7A8EB60800EA3BC9BB18398A352FAFB PUSH1 0x40 MLOAD PUSH1 0x40 MLOAD DUP1 SWAP2 SUB SWAP1 LOG2 DUP1 SWAP6 POP POP POP POP POP POP SWAP5 SWAP4 POP POP POP POP JUMP JUMPDEST PUSH2 0x2159 DUP1 PUSH2 0xC93 DUP4 CODECOPY ADD SWAP1 JUMP JUMPDEST PUSH0 PUSH0 REVERT JUMPDEST PUSH0 DUP2 SWAP1 POP SWAP2 SWAP1 POP JUMP JUMPDEST PUSH2 0x83A DUP2 PUSH2 0x828 JUMP JUMPDEST DUP2 EQ PUSH2 0x844 JUMPI PUSH0 PUSH0 REVERT JUMPDEST POP JUMP JUMPDEST PUSH0 DUP2 CALLDATALOAD SWAP1 POP PUSH2 0x855 DUP2 PUSH2 0x831 JUMP JUMPDEST SWAP3 SWAP2 POP POP JUMP JUMPDEST PUSH0 PUSH1 0x20 DUP3 DUP5 SUB SLT ISZERO PUSH2 0x870 JUMPI PUSH2 0x86F PUSH2 0x824 JUMP JUMPDEST JUMPDEST PUSH0 PUSH2 0x87D DUP5 DUP3 DUP6 ADD PUSH2 0x847 JUMP JUMPDEST SWAP2 POP POP SWAP3 SWAP2 POP POP JUMP JUMPDEST PUSH2 0x88F DUP2 PUSH2 0x828 JUMP JUMPDEST DUP3 MSTORE POP POP JUMP JUMPDEST PUSH0 PUSH1 0x20 DUP3 ADD SWAP1 POP PUSH2 0x8A8 PUSH0 DUP4 ADD DUP5 PUSH2 0x886 JUMP JUMPDEST SWAP3 SWAP2 POP POP JUMP JUMPDEST PUSH0 PUSH20 0xFFFFFFFFFFFFFFFFFFFFFFFFFFFFFFFFFFFFFFFF DUP3 AND SWAP1 POP SWAP2 SWAP1 POP JUMP JUMPDEST PUSH0 PUSH2 0x8D7 DUP3 PUSH2 0x8AE JUMP JUMPDEST SWAP1 POP SWAP2 SWAP1 POP JUMP JUMPDEST PUSH2 0x8E7 DUP2 PUSH2 0x8CD JUMP JUMPDEST DUP2 EQ PUSH2 0x8F1 JUMPI PUSH0 PUSH0 REVERT JUMPDEST POP JUMP JUMPDEST PUSH0 DUP2 CALLDATALOAD SWAP1 POP PUSH2 0x902 DUP2 PUSH2 0x8DE JUMP JUMPDEST SWAP3 SWAP2 POP POP JUMP JUMPDEST PUSH0 PUSH1 0x20 DUP3 DUP5 SUB SLT ISZERO PUSH2 0x91D JUMPI PUSH2 0x91C PUSH2 0x824 JUMP JUMPDEST JUMPDEST PUSH0 PUSH2 0x92A DUP5 DUP3 DUP6 ADD PUSH2 0x8F4 JUMP JUMPDEST SWAP2 POP POP SWAP3 SWAP2 POP POP JUMP JUMPDEST PUSH2 0x93C DUP2 PUSH2 0x8CD JUMP JUMPDEST DUP3 MSTORE POP POP JUMP JUMPDEST PUSH0 PUSH1 0x20 DUP3 ADD SWAP1 POP PUSH2 0x955 PUSH0 DUP4 ADD DUP5 PUSH2 0x933 JUMP JUMPDEST SWAP3 SWAP2 POP POP JUMP JUMPDEST PUSH0 PUSH0 PUSH0 PUSH0 PUSH1 0x80 DUP6 DUP8 SUB SLT ISZERO PUSH2 0x973 JUMPI PUSH2 0x972 PUSH2 0x824 JUMP JUMPDEST JUMPDEST PUSH0 PUSH2 0x980 DUP8 DUP3 DUP9 ADD PUSH2 0x8F4 JUMP JUMPDEST SWAP5 POP POP PUSH1 0x20 PUSH2 0x991 DUP8 DUP3 DUP9 ADD PUSH2 0x847 JUMP JUMPDEST SWAP4 POP POP PUSH1 0x40 PUSH2 0x9A2 DUP8 DUP3 DUP9 ADD PUSH2 0x847 JUMP JUMPDEST SWAP3 POP POP PUSH1 0x60 PUSH2 0x9B3 DUP8 DUP3 DUP9 ADD PUSH2 0x847 JUMP JUMPDEST SWAP2 POP POP SWAP3 SWAP6 SWAP2 SWAP5 POP SWAP3 POP JUMP JUMPDEST PUSH32 0x4E487B7100000000000000000000000000000000000000000000000000000000 PUSH0 MSTORE PUSH1 0x11 PUSH1 0x4 MSTORE PUSH1 0x24 PUSH0 REVERT JUMPDEST PUSH0 PUSH2 0x9F6 DUP3 PUSH2 0x828 JUMP JUMPDEST SWAP2 POP PUSH2 0xA01 DUP4 PUSH2 0x828 JUMP JUMPDEST SWAP3 POP DUP3 DUP3 MUL PUSH2 0xA0F DUP2 PUSH2 0x828 JUMP JUMPDEST SWAP2 POP DUP3 DUP3 DIV DUP5 EQ DUP4 ISZERO OR PUSH2 0xA26 JUMPI PUSH2 0xA25 PUSH2 0x9BF JUMP JUMPDEST JUMPDEST POP SWAP3 SWAP2 POP POP JUMP JUMPDEST PUSH0 PUSH10 0xFFFFFFFFFFFFFFFFFFFF DUP3 AND SWAP1 POP SWAP2 SWAP1 POP JUMP JUMPDEST PUSH2 0xA4B DUP2 PUSH2 0xA2D JUMP JUMPDEST DUP2 EQ PUSH2 0xA55 JUMPI PUSH0 PUSH0 REVERT JUMPDEST POP JUMP JUMPDEST PUSH0 DUP2 MLOAD SWAP1 POP PUSH2 0xA66 DUP2 PUSH2 0xA42 JUMP JUMPDEST SWAP3 SWAP2 POP POP JUMP JUMPDEST PUSH0 DUP2 SWAP1 POP SWAP2 SWAP1 POP JUMP JUMPDEST PUSH2 0xA7E DUP2 PUSH2 0xA6C JUMP JUMPDEST DUP2 EQ PUSH2 0xA88 JUMPI PUSH0 PUSH0 REVERT JUMPDEST POP JUMP JUMPDEST PUSH0 DUP2 MLOAD SWAP1 POP PUSH2 0xA99 DUP2 PUSH2 0xA75 JUMP JUMPDEST SWAP3 SWAP2 POP POP JUMP JUMPDEST PUSH0 DUP2 MLOAD SWAP1 POP PUSH2 0xAAD DUP2 PUSH2 0x831 JUMP JUMPDEST SWAP3 SWAP2 POP POP JUMP JUMPDEST PUSH0 PUSH0 PUSH0 PUSH0 PUSH0 PUSH1 0xA0 DUP7 DUP9 SUB SLT ISZERO PUSH2 0xACC JUMPI PUSH2 0xACB PUSH2 0x824 JUMP JUMPDEST JUMPDEST PUSH0 PUSH2 0xAD9 DUP9 DUP3 DUP10 ADD PUSH2 0xA58 JUMP JUMPDEST SWAP6 POP POP PUSH1 0x20 PUSH2 0xAEA DUP9 DUP3 DUP10 ADD PUSH2 0xA8B JUMP JUMPDEST SWAP5 POP POP PUSH1 0x40 PUSH2 0xAFB DUP9 DUP3 DUP10 ADD PUSH2 0xA9F JUMP JUMPDEST SWAP4 POP POP PUSH1 0x60 PUSH2 0xB0C DUP9 DUP3 DUP10 ADD PUSH2 0xA9F JUMP JUMPDEST SWAP3 POP POP PUSH1 0x80 PUSH2 0xB1D DUP9 DUP3 DUP10 ADD PUSH2 0xA58 JUMP JUMPDEST SWAP2 POP POP SWAP3 SWAP6 POP SWAP3 SWAP6 SWAP1 SWAP4 POP JUMP JUMPDEST PUSH32 0x4E487B7100000000000000000000000000000000000000000000000000000000 PUSH0 MSTORE PUSH1 0x32 PUSH1 0x4 MSTORE PUSH1 0x24 PUSH0 REVERT JUMPDEST PUSH0 PUSH2 0xB61 DUP3 PUSH2 0x828 JUMP JUMPDEST SWAP2 POP PUSH2 0xB6C DUP4 PUSH2 0x828 JUMP JUMPDEST SWAP3 POP DUP3 DUP3 SUB SWAP1 POP DUP2 DUP2 GT ISZERO PUSH2 0xB84 JUMPI PUSH2 0xB83 PUSH2 0x9BF JUMP JUMPDEST JUMPDEST SWAP3 SWAP2 POP POP JUMP JUMPDEST PUSH32 0x4E487B7100000000000000000000000000000000000000000000000000000000 PUSH0 MSTORE PUSH1 0x31 PUSH1 0x4 MSTORE PUSH1 0x24 PUSH0 REVERT JUMPDEST PUSH0 PUSH1 0xC0 DUP3 ADD SWAP1 POP PUSH2 0xBCA PUSH0 DUP4 ADD DUP10 PUSH2 0x933 JUMP JUMPDEST PUSH2 0xBD7 PUSH1 0x20 DUP4 ADD DUP9 PUSH2 0x933 JUMP JUMPDEST PUSH2 0xBE4 PUSH1 0x40 DUP4 ADD DUP8 PUSH2 0x886 JUMP JUMPDEST PUSH2 0xBF1 PUSH1 0x60 DUP4 ADD DUP7 PUSH2 0x886 JUMP JUMPDEST PUSH2 0xBFE PUSH1 0x80 DUP4 ADD DUP6 PUSH2 0x886 JUMP JUMPDEST PUSH2 0xC0B PUSH1 0xA0 DUP4 ADD DUP5 PUSH2 0x886 JUMP JUMPDEST SWAP8 SWAP7 POP POP POP POP POP POP POP JUMP JUMPDEST PUSH0 PUSH1 0x60 DUP3 ADD SWAP1 POP PUSH2 0xC29 PUSH0 DUP4 ADD DUP7 PUSH2 0x933 JUMP JUMPDEST PUSH2 0xC36 PUSH1 0x20 DUP4 ADD DUP6 PUSH2 0x933 JUMP JUMPDEST PUSH2 0xC43 PUSH1 0x40 DUP4 ADD DUP5 PUSH2 0x886 JUMP JUMPDEST SWAP5 SWAP4 POP POP POP POP JUMP JUMPDEST PUSH0 PUSH2 0xC55 DUP3 PUSH2 0x828 JUMP JUMPDEST SWAP2 POP PUSH32 0xFFFFFFFFFFFFFFFFFFFFFFFFFFFFFFFFFFFFFFFFFFFFFFFFFFFFFFFFFFFFFFFF DUP3 SUB PUSH2 0xC87 JUMPI PUSH2 0xC86 PUSH2 0x9BF JUMP JUMPDEST JUMPDEST PUSH1 0x1 DUP3 ADD SWAP1 POP SWAP2 SWAP1 POP JUMP INVALID PUSH1 0x80 PUSH1 0x40 MSTORE PUSH0 PUSH1 0xB SSTORE CALLVALUE DUP1 ISZERO PUSH1 0x12 JUMPI PUSH0 PUSH0 REVERT JUMPDEST POP PUSH1 0x1 PUSH0 DUP2 SWAP1 SSTORE POP CALLER PUSH1 0x1 PUSH0 PUSH2 0x100 EXP DUP2 SLOAD DUP2 PUSH20 0xFFFFFFFFFFFFFFFFFFFFFFFFFFFFFFFFFFFFFFFF MUL NOT AND SWAP1 DUP4 PUSH20 0xFFFFFFFFFFFFFFFFFFFFFFFFFFFFFFFFFFFFFFFF AND MUL OR SWAP1 SSTORE POP PUSH2 0x20F2 DUP1 PUSH2 0x67 PUSH0 CODECOPY PUSH0 RETURN INVALID PUSH1 0x80 PUSH1 0x40 MSTORE PUSH1 0x4 CALLDATASIZE LT PUSH2 0x117 JUMPI PUSH0 CALLDATALOAD PUSH1 0xE0 SHR DUP1 PUSH4 0x86489BA9 GT PUSH2 0x9F JUMPI DUP1 PUSH4 0xD56D229D GT PUSH2 0x63 JUMPI DUP1 PUSH4 0xD56D229D EQ PUSH2 0x354 JUMPI DUP1 PUSH4 0xD57BDE79 EQ PUSH2 0x37E JUMPI DUP1 PUSH4 0xDE31C95B EQ PUSH2 0x3A8 JUMPI DUP1 PUSH4 0xF1A9AF89 EQ PUSH2 0x3BE JUMPI DUP1 PUSH4 0xFF9C1FFC EQ PUSH2 0x3E8 JUMPI PUSH2 0x118 JUMP JUMPDEST DUP1 PUSH4 0x86489BA9 EQ PUSH2 0x2A4 JUMPI DUP1 PUSH4 0x91F90157 EQ PUSH2 0x2CC JUMPI DUP1 PUSH4 0x9CF639D7 EQ PUSH2 0x2F6 JUMPI DUP1 PUSH4 0x9D76EA58 EQ PUSH2 0x300 JUMPI DUP1 PUSH4 0xC45A0155 EQ PUSH2 0x32A JUMPI PUSH2 0x118 JUMP JUMPDEST DUP1 PUSH4 0x3197CBB6 GT PUSH2 0xE6 JUMPI DUP1 PUSH4 0x3197CBB6 EQ PUSH2 0x1D4 JUMPI DUP1 PUSH4 0x70E11711 EQ PUSH2 0x1FE JUMPI DUP1 PUSH4 0x78E97925 EQ PUSH2 0x214 JUMPI DUP1 PUSH4 0x7999F216 EQ PUSH2 0x23E JUMPI DUP1 PUSH4 0x7E830574 EQ PUSH2 0x27A JUMPI PUSH2 0x118 JUMP JUMPDEST DUP1 PUSH4 0x8551A53 EQ PUSH2 0x11A JUMPI DUP1 PUSH4 0x150B7A02 EQ PUSH2 0x144 JUMPI DUP1 PUSH4 0x1EC7E345 EQ PUSH2 0x180 JUMPI DUP1 PUSH4 0x2FC6E8B7 EQ PUSH2 0x1AA JUMPI PUSH2 0x118 JUMP JUMPDEST JUMPDEST STOP JUMPDEST CALLVALUE DUP1 ISZERO PUSH2 0x125 JUMPI PUSH0 PUSH0 REVERT JUMPDEST POP PUSH2 0x12E PUSH2 0x410 JUMP JUMPDEST PUSH1 0x40 MLOAD PUSH2 0x13B SWAP2 SWAP1 PUSH2 0x188C JUMP JUMPDEST PUSH1 0x40 MLOAD DUP1 SWAP2 SUB SWAP1 RETURN JUMPDEST CALLVALUE DUP1 ISZERO PUSH2 0x14F JUMPI PUSH0 PUSH0 REVERT JUMPDEST POP PUSH2 0x16A PUSH1 0x4 DUP1 CALLDATASIZE SUB DUP2 ADD SWAP1 PUSH2 0x165 SWAP2 SWAP1 PUSH2 0x196B JUMP JUMPDEST PUSH2 0x435 JUMP JUMPDEST PUSH1 0x40 MLOAD PUSH2 0x177 SWAP2 SWAP1 PUSH2 0x1A29 JUMP JUMPDEST PUSH1 0x40 MLOAD DUP1 SWAP2 SUB SWAP1 RETURN JUMPDEST CALLVALUE DUP1 ISZERO PUSH2 0x18B JUMPI PUSH0 PUSH0 REVERT JUMPDEST POP PUSH2 0x194 PUSH2 0x449 JUMP JUMPDEST PUSH1 0x40 MLOAD PUSH2 0x1A1 SWAP2 SWAP1 PUSH2 0x1A51 JUMP JUMPDEST PUSH1 0x40 MLOAD DUP1 SWAP2 SUB SWAP1 RETURN JUMPDEST CALLVALUE DUP1 ISZERO PUSH2 0x1B5 JUMPI PUSH0 PUSH0 REVERT JUMPDEST POP PUSH2 0x1BE PUSH2 0x44F JUMP JUMPDEST PUSH1 0x40 MLOAD PUSH2 0x1CB SWAP2 SWAP1 PUSH2 0x1A84 JUMP JUMPDEST PUSH1 0x40 MLOAD DUP1 SWAP2 SUB SWAP1 RETURN JUMPDEST CALLVALUE DUP1 ISZERO PUSH2 0x1DF JUMPI PUSH0 PUSH0 REVERT JUMPDEST POP PUSH2 0x1E8 PUSH2 0x461 JUMP JUMPDEST PUSH1 0x40 MLOAD PUSH2 0x1F5 SWAP2 SWAP1 PUSH2 0x1A51 JUMP JUMPDEST PUSH1 0x40 MLOAD DUP1 SWAP2 SUB SWAP1 RETURN JUMPDEST CALLVALUE DUP1 ISZERO PUSH2 0x209 JUMPI PUSH0 PUSH0 REVERT JUMPDEST POP PUSH2 0x212 PUSH2 0x467 JUMP JUMPDEST STOP JUMPDEST CALLVALUE DUP1 ISZERO PUSH2 0x21F JUMPI PUSH0 PUSH0 REVERT JUMPDEST POP PUSH2 0x228 PUSH2 0xA15 JUMP JUMPDEST PUSH1 0x40 MLOAD PUSH2 0x235 SWAP2 SWAP1 PUSH2 0x1A51 JUMP JUMPDEST PUSH1 0x40 MLOAD DUP1 SWAP2 SUB SWAP1 RETURN JUMPDEST CALLVALUE DUP1 ISZERO PUSH2 0x249 JUMPI PUSH0 PUSH0 REVERT JUMPDEST POP PUSH2 0x264 PUSH1 0x4 DUP1 CALLDATASIZE SUB DUP2 ADD SWAP1 PUSH2 0x25F SWAP2 SWAP1 PUSH2 0x1A9D JUMP JUMPDEST PUSH2 0xA1B JUMP JUMPDEST PUSH1 0x40 MLOAD PUSH2 0x271 SWAP2 SWAP1 PUSH2 0x1A51 JUMP JUMPDEST PUSH1 0x40 MLOAD DUP1 SWAP2 SUB SWAP1 RETURN JUMPDEST CALLVALUE DUP1 ISZERO PUSH2 0x285 JUMPI PUSH0 PUSH0 REVERT JUMPDEST POP PUSH2 0x28E PUSH2 0xA30 JUMP JUMPDEST PUSH1 0x40 MLOAD PUSH2 0x29B SWAP2 SWAP1 PUSH2 0x1A51 JUMP JUMPDEST PUSH1 0x40 MLOAD DUP1 SWAP2 SUB SWAP1 RETURN JUMPDEST CALLVALUE DUP1 ISZERO PUSH2 0x2AF JUMPI PUSH0 PUSH0 REVERT JUMPDEST POP PUSH2 0x2CA PUSH1 0x4 DUP1 CALLDATASIZE SUB DUP2 ADD SWAP1 PUSH2 0x2C5 SWAP2 SWAP1 PUSH2 0x1AC8 JUMP JUMPDEST PUSH2 0xA36 JUMP JUMPDEST STOP JUMPDEST CALLVALUE DUP1 ISZERO PUSH2 0x2D7 JUMPI PUSH0 PUSH0 REVERT JUMPDEST POP PUSH2 0x2E0 PUSH2 0xB74 JUMP JUMPDEST PUSH1 0x40 MLOAD PUSH2 0x2ED SWAP2 SWAP1 PUSH2 0x188C JUMP JUMPDEST PUSH1 0x40 MLOAD DUP1 SWAP2 SUB SWAP1 RETURN JUMPDEST PUSH2 0x2FE PUSH2 0xB99 JUMP JUMPDEST STOP JUMPDEST CALLVALUE DUP1 ISZERO PUSH2 0x30B JUMPI PUSH0 PUSH0 REVERT JUMPDEST POP PUSH2 0x314 PUSH2 0xEB3 JUMP JUMPDEST PUSH1 0x40 MLOAD PUSH2 0x321 SWAP2 SWAP1 PUSH2 0x188C JUMP JUMPDEST PUSH1 0x40 MLOAD DUP1 SWAP2 SUB SWAP1 RETURN JUMPDEST CALLVALUE DUP1 ISZERO PUSH2 0x335 JUMPI PUSH0 PUSH0 REVERT JUMPDEST POP PUSH2 0x33E PUSH2 0xED8 JUMP JUMPDEST PUSH1 0x40 MLOAD PUSH2 0x34B SWAP2 SWAP1 PUSH2 0x188C JUMP JUMPDEST PUSH1 0x40 MLOAD DUP1 SWAP2 SUB SWAP1 RETURN JUMPDEST CALLVALUE DUP1 ISZERO PUSH2 0x35F JUMPI PUSH0 PUSH0 REVERT JUMPDEST POP PUSH2 0x368 PUSH2 0xEFD JUMP JUMPDEST PUSH1 0x40 MLOAD PUSH2 0x375 SWAP2 SWAP1 PUSH2 0x188C JUMP JUMPDEST PUSH1 0x40 MLOAD DUP1 SWAP2 SUB SWAP1 RETURN JUMPDEST CALLVALUE DUP1 ISZERO PUSH2 0x389 JUMPI PUSH0 PUSH0 REVERT JUMPDEST POP PUSH2 0x392 PUSH2 0xF22 JUMP JUMPDEST PUSH1 0x40 MLOAD PUSH2 0x39F SWAP2 SWAP1 PUSH2 0x1A51 JUMP JUMPDEST PUSH1 0x40 MLOAD DUP1 SWAP2 SUB SWAP1 RETURN JUMPDEST CALLVALUE DUP1 ISZERO PUSH2 0x3B3 JUMPI PUSH0 PUSH0 REVERT JUMPDEST POP PUSH2 0x3BC PUSH2 0xF28 JUMP JUMPDEST STOP JUMPDEST CALLVALUE DUP1 ISZERO PUSH2 0x3C9 JUMPI PUSH0 PUSH0 REVERT JUMPDEST POP PUSH2 0x3D2 PUSH2 0x1163 JUMP JUMPDEST PUSH1 0x40 MLOAD PUSH2 0x3DF SWAP2 SWAP1 PUSH2 0x1A51 JUMP JUMPDEST PUSH1 0x40 MLOAD DUP1 SWAP2 SUB SWAP1 RETURN JUMPDEST CALLVALUE DUP1 ISZERO PUSH2 0x3F3 JUMPI PUSH0 PUSH0 REVERT JUMPDEST POP PUSH2 0x40E PUSH1 0x4 DUP1 CALLDATASIZE SUB DUP2 ADD SWAP1 PUSH2 0x409 SWAP2 SWAP1 PUSH2 0x1B51 JUMP JUMPDEST PUSH2 0x1169 JUMP JUMPDEST STOP JUMPDEST PUSH1 0x2 PUSH0 SWAP1 SLOAD SWAP1 PUSH2 0x100 EXP SWAP1 DIV PUSH20 0xFFFFFFFFFFFFFFFFFFFFFFFFFFFFFFFFFFFFFFFF AND DUP2 JUMP JUMPDEST PUSH0 PUSH4 0x150B7A02 PUSH1 0xE0 SHL SWAP1 POP SWAP6 SWAP5 POP POP POP POP POP JUMP JUMPDEST PUSH1 0xB SLOAD DUP2 JUMP JUMPDEST PUSH1 0xC PUSH0 SWAP1 SLOAD SWAP1 PUSH2 0x100 EXP SWAP1 DIV PUSH1 0xFF AND DUP2 JUMP JUMPDEST PUSH1 0x6 SLOAD DUP2 JUMP JUMPDEST PUSH1 0x2 PUSH0 SWAP1 SLOAD SWAP1 PUSH2 0x100 EXP SWAP1 DIV PUSH20 0xFFFFFFFFFFFFFFFFFFFFFFFFFFFFFFFFFFFFFFFF AND PUSH20 0xFFFFFFFFFFFFFFFFFFFFFFFFFFFFFFFFFFFFFFFF AND CALLER PUSH20 0xFFFFFFFFFFFFFFFFFFFFFFFFFFFFFFFFFFFFFFFF AND EQ PUSH2 0x4F6 JUMPI PUSH1 0x40 MLOAD PUSH32 0x8C379A000000000000000000000000000000000000000000000000000000000 DUP2 MSTORE PUSH1 0x4 ADD PUSH2 0x4ED SWAP1 PUSH2 0x1C0F JUMP JUMPDEST PUSH1 0x40 MLOAD DUP1 SWAP2 SUB SWAP1 REVERT JUMPDEST PUSH1 0x5 SLOAD TIMESTAMP LT ISZERO DUP1 ISZERO PUSH2 0x50A JUMPI POP PUSH1 0x6 SLOAD TIMESTAMP GT ISZERO JUMPDEST PUSH2 0x549 JUMPI PUSH1 0x40 MLOAD PUSH32 0x8C379A000000000000000000000000000000000000000000000000000000000 DUP2 MSTORE PUSH1 0x4 ADD PUSH2 0x540 SWAP1 PUSH2 0x1C77 JUMP JUMPDEST PUSH1 0x40 MLOAD DUP1 SWAP2 SUB SWAP1 REVERT JUMPDEST PUSH1 0xC PUSH0 SWAP1 SLOAD SWAP1 PUSH2 0x100 EXP SWAP1 DIV PUSH1 0xFF AND ISZERO PUSH2 0x598 JUMPI PUSH1 0x40 MLOAD PUSH32 0x8C379A000000000000000000000000000000000000000000000000000000000 DUP2 MSTORE PUSH1 0x4 ADD PUSH2 0x58F SWAP1 PUSH2 0x1CDF JUMP JUMPDEST PUSH1 0x40 MLOAD DUP1 SWAP2 SUB SWAP1 REVERT JUMPDEST PUSH1 0x1 PUSH1 0xC PUSH0 PUSH2 0x100 EXP DUP2 SLOAD DUP2 PUSH1 0xFF MUL NOT AND SWAP1 DUP4 ISZERO ISZERO MUL OR SWAP1 SSTORE POP PUSH0 PUSH20 0xFFFFFFFFFFFFFFFFFFFFFFFFFFFFFFFFFFFFFFFF AND PUSH1 0x9 PUSH0 SWAP1 SLOAD SWAP1 PUSH2 0x100 EXP SWAP1 DIV PUSH20 0xFFFFFFFFFFFFFFFFFFFFFFFFFFFFFFFFFFFFFFFF AND PUSH20 0xFFFFFFFFFFFFFFFFFFFFFFFFFFFFFFFFFFFFFFFF AND EQ PUSH2 0x8DD JUMPI PUSH1 0x3 PUSH0 SWAP1 SLOAD SWAP1 PUSH2 0x100 EXP SWAP1 DIV PUSH20 0xFFFFFFFFFFFFFFFFFFFFFFFFFFFFFFFFFFFFFFFF AND PUSH20 0xFFFFFFFFFFFFFFFFFFFFFFFFFFFFFFFFFFFFFFFF AND PUSH4 0x23B872DD ADDRESS PUSH1 0x9 PUSH0 SWAP1 SLOAD SWAP1 PUSH2 0x100 EXP SWAP1 DIV PUSH20 0xFFFFFFFFFFFFFFFFFFFFFFFFFFFFFFFFFFFFFFFF AND PUSH1 0x4 SLOAD PUSH1 0x40 MLOAD DUP5 PUSH4 0xFFFFFFFF AND PUSH1 0xE0 SHL DUP2 MSTORE PUSH1 0x4 ADD PUSH2 0x687 SWAP4 SWAP3 SWAP2 SWAP1 PUSH2 0x1CFD JUMP JUMPDEST PUSH0 PUSH1 0x40 MLOAD DUP1 DUP4 SUB DUP2 PUSH0 DUP8 DUP1 EXTCODESIZE ISZERO DUP1 ISZERO PUSH2 0x69E JUMPI PUSH0 PUSH0 REVERT JUMPDEST POP GAS CALL ISZERO DUP1 ISZERO PUSH2 0x6B0 JUMPI RETURNDATASIZE PUSH0 PUSH0 RETURNDATACOPY RETURNDATASIZE PUSH0 REVERT JUMPDEST POP POP POP POP PUSH0 PUSH20 0xFFFFFFFFFFFFFFFFFFFFFFFFFFFFFFFFFFFFFFFF AND PUSH1 0xA PUSH0 SWAP1 SLOAD SWAP1 PUSH2 0x100 EXP SWAP1 DIV PUSH20 0xFFFFFFFFFFFFFFFFFFFFFFFFFFFFFFFFFFFFFFFF AND PUSH20 0xFFFFFFFFFFFFFFFFFFFFFFFFFFFFFFFFFFFFFFFF AND SUB PUSH2 0x7D9 JUMPI PUSH0 PUSH1 0x2 PUSH0 SWAP1 SLOAD SWAP1 PUSH2 0x100 EXP SWAP1 DIV PUSH20 0xFFFFFFFFFFFFFFFFFFFFFFFFFFFFFFFFFFFFFFFF AND PUSH20 0xFFFFFFFFFFFFFFFFFFFFFFFFFFFFFFFFFFFFFFFF AND PUSH1 0xB SLOAD PUSH1 0x40 MLOAD PUSH2 0x750 SWAP1 PUSH2 0x1D5F JUMP JUMPDEST PUSH0 PUSH1 0x40 MLOAD DUP1 DUP4 SUB DUP2 DUP6 DUP8 GAS CALL SWAP3 POP POP POP RETURNDATASIZE DUP1 PUSH0 DUP2 EQ PUSH2 0x78A JUMPI PUSH1 0x40 MLOAD SWAP2 POP PUSH1 0x1F NOT PUSH1 0x3F RETURNDATASIZE ADD AND DUP3 ADD PUSH1 0x40 MSTORE RETURNDATASIZE DUP3 MSTORE RETURNDATASIZE PUSH0 PUSH1 0x20 DUP5 ADD RETURNDATACOPY PUSH2 0x78F JUMP JUMPDEST PUSH1 0x60 SWAP2 POP JUMPDEST POP POP SWAP1 POP DUP1 PUSH2 0x7D3 JUMPI PUSH1 0x40 MLOAD PUSH32 0x8C379A000000000000000000000000000000000000000000000000000000000 DUP2 MSTORE PUSH1 0x4 ADD PUSH2 0x7CA SWAP1 PUSH2 0x1DBD JUMP JUMPDEST PUSH1 0x40 MLOAD DUP1 SWAP2 SUB SWAP1 REVERT JUMPDEST POP PUSH2 0x8D8 JUMP JUMPDEST PUSH1 0xA PUSH0 SWAP1 SLOAD SWAP1 PUSH2 0x100 EXP SWAP1 DIV PUSH20 0xFFFFFFFFFFFFFFFFFFFFFFFFFFFFFFFFFFFFFFFF AND PUSH20 0xFFFFFFFFFFFFFFFFFFFFFFFFFFFFFFFFFFFFFFFF AND PUSH4 0xA9059CBB PUSH1 0x2 PUSH0 SWAP1 SLOAD SWAP1 PUSH2 0x100 EXP SWAP1 DIV PUSH20 0xFFFFFFFFFFFFFFFFFFFFFFFFFFFFFFFFFFFFFFFF AND PUSH1 0xB SLOAD PUSH1 0x40 MLOAD DUP4 PUSH4 0xFFFFFFFF AND PUSH1 0xE0 SHL DUP2 MSTORE PUSH1 0x4 ADD PUSH2 0x858 SWAP3 SWAP2 SWAP1 PUSH2 0x1DDB JUMP JUMPDEST PUSH1 0x20 PUSH1 0x40 MLOAD DUP1 DUP4 SUB DUP2 PUSH0 DUP8 GAS CALL ISZERO DUP1 ISZERO PUSH2 0x874 JUMPI RETURNDATASIZE PUSH0 PUSH0 RETURNDATACOPY RETURNDATASIZE PUSH0 REVERT JUMPDEST POP POP POP POP PUSH1 0x40 MLOAD RETURNDATASIZE PUSH1 0x1F NOT PUSH1 0x1F DUP3 ADD AND DUP3 ADD DUP1 PUSH1 0x40 MSTORE POP DUP2 ADD SWAP1 PUSH2 0x898 SWAP2 SWAP1 PUSH2 0x1E2C JUMP JUMPDEST PUSH2 0x8D7 JUMPI PUSH1 0x40 MLOAD PUSH32 0x8C379A000000000000000000000000000000000000000000000000000000000 DUP2 MSTORE PUSH1 0x4 ADD PUSH2 0x8CE SWAP1 PUSH2 0x1EA1 JUMP JUMPDEST PUSH1 0x40 MLOAD DUP1 SWAP2 SUB SWAP1 REVERT JUMPDEST JUMPDEST PUSH2 0x98C JUMP JUMPDEST PUSH1 0x3 PUSH0 SWAP1 SLOAD SWAP1 PUSH2 0x100 EXP SWAP1 DIV PUSH20 0xFFFFFFFFFFFFFFFFFFFFFFFFFFFFFFFFFFFFFFFF AND PUSH20 0xFFFFFFFFFFFFFFFFFFFFFFFFFFFFFFFFFFFFFFFF AND PUSH4 0x23B872DD ADDRESS PUSH1 0x2 PUSH0 SWAP1 SLOAD SWAP1 PUSH2 0x100 EXP SWAP1 DIV PUSH20 0xFFFFFFFFFFFFFFFFFFFFFFFFFFFFFFFFFFFFFFFF AND PUSH1 0x4 SLOAD PUSH1 0x40 MLOAD DUP5 PUSH4 0xFFFFFFFF AND PUSH1 0xE0 SHL DUP2 MSTORE PUSH1 0x4 ADD PUSH2 0x95E SWAP4 SWAP3 SWAP2 SWAP1 PUSH2 0x1CFD JUMP JUMPDEST PUSH0 PUSH1 0x40 MLOAD DUP1 DUP4 SUB DUP2 PUSH0 DUP8 DUP1 EXTCODESIZE ISZERO DUP1 ISZERO PUSH2 0x975 JUMPI PUSH0 PUSH0 REVERT JUMPDEST POP GAS CALL ISZERO DUP1 ISZERO PUSH2 0x987 JUMPI RETURNDATASIZE PUSH0 PUSH0 RETURNDATACOPY RETURNDATASIZE PUSH0 REVERT JUMPDEST POP POP POP POP JUMPDEST PUSH1 0x1 PUSH0 SWAP1 SLOAD SWAP1 PUSH2 0x100 EXP SWAP1 DIV PUSH20 0xFFFFFFFFFFFFFFFFFFFFFFFFFFFFFFFFFFFFFFFF AND PUSH20 0xFFFFFFFFFFFFFFFFFFFFFFFFFFFFFFFFFFFFFFFF AND PUSH4 0x1CA54219 ADDRESS PUSH1 0x40 MLOAD DUP3 PUSH4 0xFFFFFFFF AND PUSH1 0xE0 SHL DUP2 MSTORE PUSH1 0x4 ADD PUSH2 0x9E6 SWAP2 SWAP1 PUSH2 0x188C JUMP JUMPDEST PUSH0 PUSH1 0x40 MLOAD DUP1 DUP4 SUB DUP2 PUSH0 DUP8 DUP1 EXTCODESIZE ISZERO DUP1 ISZERO PUSH2 0x9FD JUMPI PUSH0 PUSH0 REVERT JUMPDEST POP GAS CALL ISZERO DUP1 ISZERO PUSH2 0xA0F JUMPI RETURNDATASIZE PUSH0 PUSH0 RETURNDATACOPY RETURNDATASIZE PUSH0 REVERT JUMPDEST POP POP POP POP JUMP JUMPDEST PUSH1 0x5 SLOAD DUP2 JUMP JUMPDEST PUSH1 0xD PUSH1 0x20 MSTORE DUP1 PUSH0 MSTORE PUSH1 0x40 PUSH0 KECCAK256 PUSH0 SWAP2 POP SWAP1 POP SLOAD DUP2 JUMP JUMPDEST PUSH1 0x4 SLOAD DUP2 JUMP JUMPDEST PUSH1 0x1 PUSH0 SWAP1 SLOAD SWAP1 PUSH2 0x100 EXP SWAP1 DIV PUSH20 0xFFFFFFFFFFFFFFFFFFFFFFFFFFFFFFFFFFFFFFFF AND PUSH20 0xFFFFFFFFFFFFFFFFFFFFFFFFFFFFFFFFFFFFFFFF AND CALLER PUSH20 0xFFFFFFFFFFFFFFFFFFFFFFFFFFFFFFFFFFFFFFFF AND EQ PUSH2 0xAC5 JUMPI PUSH1 0x40 MLOAD PUSH32 0x8C379A000000000000000000000000000000000000000000000000000000000 DUP2 MSTORE PUSH1 0x4 ADD PUSH2 0xABC SWAP1 PUSH2 0x1F2F JUMP JUMPDEST PUSH1 0x40 MLOAD DUP1 SWAP2 SUB SWAP1 REVERT JUMPDEST DUP6 PUSH1 0x2 PUSH0 PUSH2 0x100 EXP DUP2 SLOAD DUP2 PUSH20 0xFFFFFFFFFFFFFFFFFFFFFFFFFFFFFFFFFFFFFFFF MUL NOT AND SWAP1 DUP4 PUSH20 0xFFFFFFFFFFFFFFFFFFFFFFFFFFFFFFFFFFFFFFFF AND MUL OR SWAP1 SSTORE POP DUP5 PUSH1 0x3 PUSH0 PUSH2 0x100 EXP DUP2 SLOAD DUP2 PUSH20 0xFFFFFFFFFFFFFFFFFFFFFFFFFFFFFFFFFFFFFFFF MUL NOT AND SWAP1 DUP4 PUSH20 0xFFFFFFFFFFFFFFFFFFFFFFFFFFFFFFFFFFFFFFFF AND MUL OR SWAP1 SSTORE POP DUP4 PUSH1 0x4 DUP2 SWAP1 SSTORE POP DUP3 PUSH1 0x7 DUP2 SWAP1 SSTORE POP DUP2 PUSH1 0x5 DUP2 SWAP1 SSTORE POP DUP1 DUP3 PUSH2 0xB66 SWAP2 SWAP1 PUSH2 0x1F7A JUMP JUMPDEST PUSH1 0x6 DUP2 SWAP1 SSTORE POP POP POP POP POP POP POP JUMP JUMPDEST PUSH1 0x9 PUSH0 SWAP1 SLOAD SWAP1 PUSH2 0x100 EXP SWAP1 DIV PUSH20 0xFFFFFFFFFFFFFFFFFFFFFFFFFFFFFFFFFFFFFFFF AND DUP2 JUMP JUMPDEST PUSH2 0xBA1 PUSH2 0x1585 JUMP JUMPDEST PUSH1 0x5 SLOAD TIMESTAMP LT ISZERO DUP1 ISZERO PUSH2 0xBB5 JUMPI POP PUSH1 0x6 SLOAD TIMESTAMP GT ISZERO JUMPDEST PUSH2 0xBF4 JUMPI PUSH1 0x40 MLOAD PUSH32 0x8C379A000000000000000000000000000000000000000000000000000000000 DUP2 MSTORE PUSH1 0x4 ADD PUSH2 0xBEB SWAP1 PUSH2 0x1C77 JUMP JUMPDEST PUSH1 0x40 MLOAD DUP1 SWAP2 SUB SWAP1 REVERT JUMPDEST PUSH1 0xC PUSH0 SWAP1 SLOAD SWAP1 PUSH2 0x100 EXP SWAP1 DIV PUSH1 0xFF AND ISZERO PUSH2 0xC43 JUMPI PUSH1 0x40 MLOAD PUSH32 0x8C379A000000000000000000000000000000000000000000000000000000000 DUP2 MSTORE PUSH1 0x4 ADD PUSH2 0xC3A SWAP1 PUSH2 0x1CDF JUMP JUMPDEST PUSH1 0x40 MLOAD DUP1 SWAP2 SUB SWAP1 REVERT JUMPDEST PUSH0 PUSH1 0x1 PUSH0 SWAP1 SLOAD SWAP1 PUSH2 0x100 EXP SWAP1 DIV PUSH20 0xFFFFFFFFFFFFFFFFFFFFFFFFFFFFFFFFFFFFFFFF AND PUSH20 0xFFFFFFFFFFFFFFFFFFFFFFFFFFFFFFFFFFFFFFFF AND PUSH4 0xC01895BB CALLVALUE PUSH1 0x40 MLOAD DUP3 PUSH4 0xFFFFFFFF AND PUSH1 0xE0 SHL DUP2 MSTORE PUSH1 0x4 ADD PUSH2 0xC9E SWAP2 SWAP1 PUSH2 0x1A51 JUMP JUMPDEST PUSH1 0x20 PUSH1 0x40 MLOAD DUP1 DUP4 SUB DUP2 PUSH0 DUP8 GAS CALL ISZERO DUP1 ISZERO PUSH2 0xCBA JUMPI RETURNDATASIZE PUSH0 PUSH0 RETURNDATACOPY RETURNDATASIZE PUSH0 REVERT JUMPDEST POP POP POP POP PUSH1 0x40 MLOAD RETURNDATASIZE PUSH1 0x1F NOT PUSH1 0x1F DUP3 ADD AND DUP3 ADD DUP1 PUSH1 0x40 MSTORE POP DUP2 ADD SWAP1 PUSH2 0xCDE SWAP2 SWAP1 PUSH2 0x1FC1 JUMP JUMPDEST SWAP1 POP PUSH0 PUSH1 0x1 PUSH0 SWAP1 SLOAD SWAP1 PUSH2 0x100 EXP SWAP1 DIV PUSH20 0xFFFFFFFFFFFFFFFFFFFFFFFFFFFFFFFFFFFFFFFF AND PUSH20 0xFFFFFFFFFFFFFFFFFFFFFFFFFFFFFFFFFFFFFFFF AND PUSH4 0xC01895BB PUSH1 0x7 SLOAD PUSH1 0x40 MLOAD DUP3 PUSH4 0xFFFFFFFF AND PUSH1 0xE0 SHL DUP2 MSTORE PUSH1 0x4 ADD PUSH2 0xD3D SWAP2 SWAP1 PUSH2 0x1A51 JUMP JUMPDEST PUSH1 0x20 PUSH1 0x40 MLOAD DUP1 DUP4 SUB DUP2 PUSH0 DUP8 GAS CALL ISZERO DUP1 ISZERO PUSH2 0xD59 JUMPI RETURNDATASIZE PUSH0 PUSH0 RETURNDATACOPY RETURNDATASIZE PUSH0 REVERT JUMPDEST POP POP POP POP PUSH1 0x40 MLOAD RETURNDATASIZE PUSH1 0x1F NOT PUSH1 0x1F DUP3 ADD AND DUP3 ADD DUP1 PUSH1 0x40 MSTORE POP DUP2 ADD SWAP1 PUSH2 0xD7D SWAP2 SWAP1 PUSH2 0x1FC1 JUMP JUMPDEST SWAP1 POP PUSH1 0x8 SLOAD DUP3 GT DUP1 ISZERO PUSH2 0xD90 JUMPI POP DUP1 DUP3 LT ISZERO JUMPDEST PUSH2 0xDCF JUMPI PUSH1 0x40 MLOAD PUSH32 0x8C379A000000000000000000000000000000000000000000000000000000000 DUP2 MSTORE PUSH1 0x4 ADD PUSH2 0xDC6 SWAP1 PUSH2 0x2036 JUMP JUMPDEST PUSH1 0x40 MLOAD DUP1 SWAP2 SUB SWAP1 REVERT JUMPDEST PUSH2 0xDD7 PUSH2 0x15C9 JUMP JUMPDEST CALLER PUSH1 0x9 PUSH0 PUSH2 0x100 EXP DUP2 SLOAD DUP2 PUSH20 0xFFFFFFFFFFFFFFFFFFFFFFFFFFFFFFFFFFFFFFFF MUL NOT AND SWAP1 DUP4 PUSH20 0xFFFFFFFFFFFFFFFFFFFFFFFFFFFFFFFFFFFFFFFF AND MUL OR SWAP1 SSTORE POP DUP2 PUSH1 0x8 DUP2 SWAP1 SSTORE POP PUSH0 PUSH1 0xA PUSH0 PUSH2 0x100 EXP DUP2 SLOAD DUP2 PUSH20 0xFFFFFFFFFFFFFFFFFFFFFFFFFFFFFFFFFFFFFFFF MUL NOT AND SWAP1 DUP4 PUSH20 0xFFFFFFFFFFFFFFFFFFFFFFFFFFFFFFFFFFFFFFFF AND MUL OR SWAP1 SSTORE POP CALLVALUE PUSH1 0xB DUP2 SWAP1 SSTORE POP DUP2 PUSH1 0xD PUSH0 CALLER PUSH20 0xFFFFFFFFFFFFFFFFFFFFFFFFFFFFFFFFFFFFFFFF AND PUSH20 0xFFFFFFFFFFFFFFFFFFFFFFFFFFFFFFFFFFFFFFFF AND DUP2 MSTORE PUSH1 0x20 ADD SWAP1 DUP2 MSTORE PUSH1 0x20 ADD PUSH0 KECCAK256 DUP2 SWAP1 SSTORE POP POP POP PUSH2 0xEB1 PUSH2 0x1844 JUMP JUMPDEST JUMP JUMPDEST PUSH1 0xA PUSH0 SWAP1 SLOAD SWAP1 PUSH2 0x100 EXP SWAP1 DIV PUSH20 0xFFFFFFFFFFFFFFFFFFFFFFFFFFFFFFFFFFFFFFFF AND DUP2 JUMP JUMPDEST PUSH1 0x1 PUSH0 SWAP1 SLOAD SWAP1 PUSH2 0x100 EXP SWAP1 DIV PUSH20 0xFFFFFFFFFFFFFFFFFFFFFFFFFFFFFFFFFFFFFFFF AND DUP2 JUMP JUMPDEST PUSH1 0x3 PUSH0 SWAP1 SLOAD SWAP1 PUSH2 0x100 EXP SWAP1 DIV PUSH20 0xFFFFFFFFFFFFFFFFFFFFFFFFFFFFFFFFFFFFFFFF AND DUP2 JUMP JUMPDEST PUSH1 0x8 SLOAD DUP2 JUMP JUMPDEST PUSH1 0x2 PUSH0 SWAP1 SLOAD SWAP1 PUSH2 0x100 EXP SWAP1 DIV PUSH20 0xFFFFFFFFFFFFFFFFFFFFFFFFFFFFFFFFFFFFFFFF AND PUSH20 0xFFFFFFFFFFFFFFFFFFFFFFFFFFFFFFFFFFFFFFFF AND CALLER PUSH20 0xFFFFFFFFFFFFFFFFFFFFFFFFFFFFFFFFFFFFFFFF AND EQ PUSH2 0xFB7 JUMPI PUSH1 0x40 MLOAD PUSH32 0x8C379A000000000000000000000000000000000000000000000000000000000 DUP2 MSTORE PUSH1 0x4 ADD PUSH2 0xFAE SWAP1 PUSH2 0x1C0F JUMP JUMPDEST PUSH1 0x40 MLOAD DUP1 SWAP2 SUB SWAP1 REVERT JUMPDEST PUSH1 0x5 SLOAD TIMESTAMP LT ISZERO DUP1 ISZERO PUSH2 0xFCB JUMPI POP PUSH1 0x6 SLOAD TIMESTAMP GT ISZERO JUMPDEST PUSH2 0x100A JUMPI PUSH1 0x40 MLOAD PUSH32 0x8C379A000000000000000000000000000000000000000000000000000000000 DUP2 MSTORE PUSH1 0x4 ADD PUSH2 0x1001 SWAP1 PUSH2 0x1C77 JUMP JUMPDEST PUSH1 0x40 MLOAD DUP1 SWAP2 SUB SWAP1 REVERT JUMPDEST PUSH1 0x1 PUSH1 0xC PUSH0 PUSH2 0x100 EXP DUP2 SLOAD DUP2 PUSH1 0xFF MUL NOT AND SWAP1 DUP4 ISZERO ISZERO MUL OR SWAP1 SSTORE POP PUSH1 0x3 PUSH0 SWAP1 SLOAD SWAP1 PUSH2 0x100 EXP SWAP1 DIV PUSH20 0xFFFFFFFFFFFFFFFFFFFFFFFFFFFFFFFFFFFFFFFF AND PUSH20 0xFFFFFFFFFFFFFFFFFFFFFFFFFFFFFFFFFFFFFFFF AND PUSH4 0x23B872DD ADDRESS PUSH1 0x2 PUSH0 SWAP1 SLOAD SWAP1 PUSH2 0x100 EXP SWAP1 DIV PUSH20 0xFFFFFFFFFFFFFFFFFFFFFFFFFFFFFFFFFFFFFFFF AND PUSH1 0x4 SLOAD PUSH1 0x40 MLOAD DUP5 PUSH4 0xFFFFFFFF AND PUSH1 0xE0 SHL DUP2 MSTORE PUSH1 0x4 ADD PUSH2 0x10A5 SWAP4 SWAP3 SWAP2 SWAP1 PUSH2 0x1CFD JUMP JUMPDEST PUSH0 PUSH1 0x40 MLOAD DUP1 DUP4 SUB DUP2 PUSH0 DUP8 DUP1 EXTCODESIZE ISZERO DUP1 ISZERO PUSH2 0x10BC JUMPI PUSH0 PUSH0 REVERT JUMPDEST POP GAS CALL ISZERO DUP1 ISZERO PUSH2 0x10CE JUMPI RETURNDATASIZE PUSH0 PUSH0 RETURNDATACOPY RETURNDATASIZE PUSH0 REVERT JUMPDEST POP POP POP POP PUSH2 0x10DA PUSH2 0x15C9 JUMP JUMPDEST PUSH1 0x1 PUSH0 SWAP1 SLOAD SWAP1 PUSH2 0x100 EXP SWAP1 DIV PUSH20 0xFFFFFFFFFFFFFFFFFFFFFFFFFFFFFFFFFFFFFFFF AND PUSH20 0xFFFFFFFFFFFFFFFFFFFFFFFFFFFFFFFFFFFFFFFF AND PUSH4 0x1CA54219 ADDRESS PUSH1 0x40 MLOAD DUP3 PUSH4 0xFFFFFFFF AND PUSH1 0xE0 SHL DUP2 MSTORE PUSH1 0x4 ADD PUSH2 0x1134 SWAP2 SWAP1 PUSH2 0x188C JUMP JUMPDEST PUSH0 PUSH1 0x40 MLOAD DUP1 DUP4 SUB DUP2 PUSH0 DUP8 DUP1 EXTCODESIZE ISZERO DUP1 ISZERO PUSH2 0x114B JUMPI PUSH0 PUSH0 REVERT JUMPDEST POP GAS CALL ISZERO DUP1 ISZERO PUSH2 0x115D JUMPI RETURNDATASIZE PUSH0 PUSH0 RETURNDATACOPY RETURNDATASIZE PUSH0 REVERT JUMPDEST POP POP POP POP JUMP JUMPDEST PUSH1 0x7 SLOAD DUP2 JUMP JUMPDEST PUSH2 0x1171 PUSH2 0x1585 JUMP JUMPDEST PUSH1 0x5 SLOAD TIMESTAMP LT ISZERO DUP1 ISZERO PUSH2 0x1185 JUMPI POP PUSH1 0x6 SLOAD TIMESTAMP GT ISZERO JUMPDEST PUSH2 0x11C4 JUMPI PUSH1 0x40 MLOAD PUSH32 0x8C379A000000000000000000000000000000000000000000000000000000000 DUP2 MSTORE PUSH1 0x4 ADD PUSH2 0x11BB SWAP1 PUSH2 0x1C77 JUMP JUMPDEST PUSH1 0x40 MLOAD DUP1 SWAP2 SUB SWAP1 REVERT JUMPDEST PUSH1 0xC PUSH0 SWAP1 SLOAD SWAP1 PUSH2 0x100 EXP SWAP1 DIV PUSH1 0xFF AND ISZERO PUSH2 0x1213 JUMPI PUSH1 0x40 MLOAD PUSH32 0x8C379A000000000000000000000000000000000000000000000000000000000 DUP2 MSTORE PUSH1 0x4 ADD PUSH2 0x120A SWAP1 PUSH2 0x1CDF JUMP JUMPDEST PUSH1 0x40 MLOAD DUP1 SWAP2 SUB SWAP1 REVERT JUMPDEST PUSH20 0x779877A7B0D9E8603169DDBD7836E478B4624789 PUSH20 0xFFFFFFFFFFFFFFFFFFFFFFFFFFFFFFFFFFFFFFFF AND DUP3 PUSH20 0xFFFFFFFFFFFFFFFFFFFFFFFFFFFFFFFFFFFFFFFF AND EQ PUSH2 0x1295 JUMPI PUSH1 0x40 MLOAD PUSH32 0x8C379A000000000000000000000000000000000000000000000000000000000 DUP2 MSTORE PUSH1 0x4 ADD PUSH2 0x128C SWAP1 PUSH2 0x209E JUMP JUMPDEST PUSH1 0x40 MLOAD DUP1 SWAP2 SUB SWAP1 REVERT JUMPDEST PUSH0 PUSH1 0x1 PUSH0 SWAP1 SLOAD SWAP1 PUSH2 0x100 EXP SWAP1 DIV PUSH20 0xFFFFFFFFFFFFFFFFFFFFFFFFFFFFFFFFFFFFFFFF AND PUSH20 0xFFFFFFFFFFFFFFFFFFFFFFFFFFFFFFFFFFFFFFFF AND PUSH4 0x135597FD DUP4 PUSH1 0x40 MLOAD DUP3 PUSH4 0xFFFFFFFF AND PUSH1 0xE0 SHL DUP2 MSTORE PUSH1 0x4 ADD PUSH2 0x12F0 SWAP2 SWAP1 PUSH2 0x1A51 JUMP JUMPDEST PUSH1 0x20 PUSH1 0x40 MLOAD DUP1 DUP4 SUB DUP2 PUSH0 DUP8 GAS CALL ISZERO DUP1 ISZERO PUSH2 0x130C JUMPI RETURNDATASIZE PUSH0 PUSH0 RETURNDATACOPY RETURNDATASIZE PUSH0 REVERT JUMPDEST POP POP POP POP PUSH1 0x40 MLOAD RETURNDATASIZE PUSH1 0x1F NOT PUSH1 0x1F DUP3 ADD AND DUP3 ADD DUP1 PUSH1 0x40 MSTORE POP DUP2 ADD SWAP1 PUSH2 0x1330 SWAP2 SWAP1 PUSH2 0x1FC1 JUMP JUMPDEST SWAP1 POP PUSH0 PUSH1 0x1 PUSH0 SWAP1 SLOAD SWAP1 PUSH2 0x100 EXP SWAP1 DIV PUSH20 0xFFFFFFFFFFFFFFFFFFFFFFFFFFFFFFFFFFFFFFFF AND PUSH20 0xFFFFFFFFFFFFFFFFFFFFFFFFFFFFFFFFFFFFFFFF AND PUSH4 0x135597FD PUSH1 0x7 SLOAD PUSH1 0x40 MLOAD DUP3 PUSH4 0xFFFFFFFF AND PUSH1 0xE0 SHL DUP2 MSTORE PUSH1 0x4 ADD PUSH2 0x138F SWAP2 SWAP1 PUSH2 0x1A51 JUMP JUMPDEST PUSH1 0x20 PUSH1 0x40 MLOAD DUP1 DUP4 SUB DUP2 PUSH0 DUP8 GAS CALL ISZERO DUP1 ISZERO PUSH2 0x13AB JUMPI RETURNDATASIZE PUSH0 PUSH0 RETURNDATACOPY RETURNDATASIZE PUSH0 REVERT JUMPDEST POP POP POP POP PUSH1 0x40 MLOAD RETURNDATASIZE PUSH1 0x1F NOT PUSH1 0x1F DUP3 ADD AND DUP3 ADD DUP1 PUSH1 0x40 MSTORE POP DUP2 ADD SWAP1 PUSH2 0x13CF SWAP2 SWAP1 PUSH2 0x1FC1 JUMP JUMPDEST SWAP1 POP PUSH1 0x8 SLOAD DUP3 GT DUP1 ISZERO PUSH2 0x13E2 JUMPI POP DUP1 DUP3 LT ISZERO JUMPDEST PUSH2 0x1421 JUMPI PUSH1 0x40 MLOAD PUSH32 0x8C379A000000000000000000000000000000000000000000000000000000000 DUP2 MSTORE PUSH1 0x4 ADD PUSH2 0x1418 SWAP1 PUSH2 0x2036 JUMP JUMPDEST PUSH1 0x40 MLOAD DUP1 SWAP2 SUB SWAP1 REVERT JUMPDEST DUP4 PUSH20 0xFFFFFFFFFFFFFFFFFFFFFFFFFFFFFFFFFFFFFFFF AND PUSH4 0x23B872DD CALLER ADDRESS DUP7 PUSH1 0x40 MLOAD DUP5 PUSH4 0xFFFFFFFF AND PUSH1 0xE0 SHL DUP2 MSTORE PUSH1 0x4 ADD PUSH2 0x145E SWAP4 SWAP3 SWAP2 SWAP1 PUSH2 0x1CFD JUMP JUMPDEST PUSH1 0x20 PUSH1 0x40 MLOAD DUP1 DUP4 SUB DUP2 PUSH0 DUP8 GAS CALL ISZERO DUP1 ISZERO PUSH2 0x147A JUMPI RETURNDATASIZE PUSH0 PUSH0 RETURNDATACOPY RETURNDATASIZE PUSH0 REVERT JUMPDEST POP POP POP POP PUSH1 0x40 MLOAD RETURNDATASIZE PUSH1 0x1F NOT PUSH1 0x1F DUP3 ADD AND DUP3 ADD DUP1 PUSH1 0x40 MSTORE POP DUP2 ADD SWAP1 PUSH2 0x149E SWAP2 SWAP1 PUSH2 0x1E2C JUMP JUMPDEST POP PUSH2 0x14A7 PUSH2 0x15C9 JUMP JUMPDEST CALLER PUSH1 0x9 PUSH0 PUSH2 0x100 EXP DUP2 SLOAD DUP2 PUSH20 0xFFFFFFFFFFFFFFFFFFFFFFFFFFFFFFFFFFFFFFFF MUL NOT AND SWAP1 DUP4 PUSH20 0xFFFFFFFFFFFFFFFFFFFFFFFFFFFFFFFFFFFFFFFF AND MUL OR SWAP1 SSTORE POP DUP2 PUSH1 0x8 DUP2 SWAP1 SSTORE POP DUP4 PUSH1 0xA PUSH0 PUSH2 0x100 EXP DUP2 SLOAD DUP2 PUSH20 0xFFFFFFFFFFFFFFFFFFFFFFFFFFFFFFFFFFFFFFFF MUL NOT AND SWAP1 DUP4 PUSH20 0xFFFFFFFFFFFFFFFFFFFFFFFFFFFFFFFFFFFFFFFF AND MUL OR SWAP1 SSTORE POP DUP3 PUSH1 0xB DUP2 SWAP1 SSTORE POP DUP2 PUSH1 0xD PUSH0 CALLER PUSH20 0xFFFFFFFFFFFFFFFFFFFFFFFFFFFFFFFFFFFFFFFF AND PUSH20 0xFFFFFFFFFFFFFFFFFFFFFFFFFFFFFFFFFFFFFFFF AND DUP2 MSTORE PUSH1 0x20 ADD SWAP1 DUP2 MSTORE PUSH1 0x20 ADD PUSH0 KECCAK256 DUP2 SWAP1 SSTORE POP POP POP PUSH2 0x1581 PUSH2 0x1844 JUMP JUMPDEST POP POP JUMP JUMPDEST PUSH1 0x2 PUSH0 SLOAD SUB PUSH2 0x15C0 JUMPI PUSH1 0x40 MLOAD PUSH32 0x3EE5AEB500000000000000000000000000000000000000000000000000000000 DUP2 MSTORE PUSH1 0x4 ADD PUSH1 0x40 MLOAD DUP1 SWAP2 SUB SWAP1 REVERT JUMPDEST PUSH1 0x2 PUSH0 DUP2 SWAP1 SSTORE POP JUMP JUMPDEST PUSH0 PUSH20 0xFFFFFFFFFFFFFFFFFFFFFFFFFFFFFFFFFFFFFFFF AND PUSH1 0x9 PUSH0 SWAP1 SLOAD SWAP1 PUSH2 0x100 EXP SWAP1 DIV PUSH20 0xFFFFFFFFFFFFFFFFFFFFFFFFFFFFFFFFFFFFFFFF AND PUSH20 0xFFFFFFFFFFFFFFFFFFFFFFFFFFFFFFFFFFFFFFFF AND EQ PUSH2 0x1842 JUMPI PUSH0 PUSH20 0xFFFFFFFFFFFFFFFFFFFFFFFFFFFFFFFFFFFFFFFF AND PUSH1 0xA PUSH0 SWAP1 SLOAD SWAP1 PUSH2 0x100 EXP SWAP1 DIV PUSH20 0xFFFFFFFFFFFFFFFFFFFFFFFFFFFFFFFFFFFFFFFF AND PUSH20 0xFFFFFFFFFFFFFFFFFFFFFFFFFFFFFFFFFFFFFFFF AND SUB PUSH2 0x1742 JUMPI PUSH0 PUSH1 0x9 PUSH0 SWAP1 SLOAD SWAP1 PUSH2 0x100 EXP SWAP1 DIV PUSH20 0xFFFFFFFFFFFFFFFFFFFFFFFFFFFFFFFFFFFFFFFF AND PUSH20 0xFFFFFFFFFFFFFFFFFFFFFFFFFFFFFFFFFFFFFFFF AND PUSH1 0xB SLOAD PUSH1 0x40 MLOAD PUSH2 0x16B9 SWAP1 PUSH2 0x1D5F JUMP JUMPDEST PUSH0 PUSH1 0x40 MLOAD DUP1 DUP4 SUB DUP2 DUP6 DUP8 GAS CALL SWAP3 POP POP POP RETURNDATASIZE DUP1 PUSH0 DUP2 EQ PUSH2 0x16F3 JUMPI PUSH1 0x40 MLOAD SWAP2 POP PUSH1 0x1F NOT PUSH1 0x3F RETURNDATASIZE ADD AND DUP3 ADD PUSH1 0x40 MSTORE RETURNDATASIZE DUP3 MSTORE RETURNDATASIZE PUSH0 PUSH1 0x20 DUP5 ADD RETURNDATACOPY PUSH2 0x16F8 JUMP JUMPDEST PUSH1 0x60 SWAP2 POP JUMPDEST POP POP SWAP1 POP DUP1 PUSH2 0x173C JUMPI PUSH1 0x40 MLOAD PUSH32 0x8C379A000000000000000000000000000000000000000000000000000000000 DUP2 MSTORE PUSH1 0x4 ADD PUSH2 0x1733 SWAP1 PUSH2 0x1DBD JUMP JUMPDEST PUSH1 0x40 MLOAD DUP1 SWAP2 SUB SWAP1 REVERT JUMPDEST POP PUSH2 0x1841 JUMP JUMPDEST PUSH1 0xA PUSH0 SWAP1 SLOAD SWAP1 PUSH2 0x100 EXP SWAP1 DIV PUSH20 0xFFFFFFFFFFFFFFFFFFFFFFFFFFFFFFFFFFFFFFFF AND PUSH20 0xFFFFFFFFFFFFFFFFFFFFFFFFFFFFFFFFFFFFFFFF AND PUSH4 0xA9059CBB PUSH1 0x9 PUSH0 SWAP1 SLOAD SWAP1 PUSH2 0x100 EXP SWAP1 DIV PUSH20 0xFFFFFFFFFFFFFFFFFFFFFFFFFFFFFFFFFFFFFFFF AND PUSH1 0xB SLOAD PUSH1 0x40 MLOAD DUP4 PUSH4 0xFFFFFFFF AND PUSH1 0xE0 SHL DUP2 MSTORE PUSH1 0x4 ADD PUSH2 0x17C1 SWAP3 SWAP2 SWAP1 PUSH2 0x1DDB JUMP JUMPDEST PUSH1 0x20 PUSH1 0x40 MLOAD DUP1 DUP4 SUB DUP2 PUSH0 DUP8 GAS CALL ISZERO DUP1 ISZERO PUSH2 0x17DD JUMPI RETURNDATASIZE PUSH0 PUSH0 RETURNDATACOPY RETURNDATASIZE PUSH0 REVERT JUMPDEST POP POP POP POP PUSH1 0x40 MLOAD RETURNDATASIZE PUSH1 0x1F NOT PUSH1 0x1F DUP3 ADD AND DUP3 ADD DUP1 PUSH1 0x40 MSTORE POP DUP2 ADD SWAP1 PUSH2 0x1801 SWAP2 SWAP1 PUSH2 0x1E2C JUMP JUMPDEST PUSH2 0x1840 JUMPI PUSH1 0x40 MLOAD PUSH32 0x8C379A000000000000000000000000000000000000000000000000000000000 DUP2 MSTORE PUSH1 0x4 ADD PUSH2 0x1837 SWAP1 PUSH2 0x1EA1 JUMP JUMPDEST PUSH1 0x40 MLOAD DUP1 SWAP2 SUB SWAP1 REVERT JUMPDEST JUMPDEST JUMPDEST JUMP JUMPDEST PUSH1 0x1 PUSH0 DUP2 SWAP1 SSTORE POP JUMP JUMPDEST PUSH0 PUSH20 0xFFFFFFFFFFFFFFFFFFFFFFFFFFFFFFFFFFFFFFFF DUP3 AND SWAP1 POP SWAP2 SWAP1 POP JUMP JUMPDEST PUSH0 PUSH2 0x1876 DUP3 PUSH2 0x184D JUMP JUMPDEST SWAP1 POP SWAP2 SWAP1 POP JUMP JUMPDEST PUSH2 0x1886 DUP2 PUSH2 0x186C JUMP JUMPDEST DUP3 MSTORE POP POP JUMP JUMPDEST PUSH0 PUSH1 0x20 DUP3 ADD SWAP1 POP PUSH2 0x189F PUSH0 DUP4 ADD DUP5 PUSH2 0x187D JUMP JUMPDEST SWAP3 SWAP2 POP POP JUMP JUMPDEST PUSH0 PUSH0 REVERT JUMPDEST PUSH0 PUSH0 REVERT JUMPDEST PUSH2 0x18B6 DUP2 PUSH2 0x186C JUMP JUMPDEST DUP2 EQ PUSH2 0x18C0 JUMPI PUSH0 PUSH0 REVERT JUMPDEST POP JUMP JUMPDEST PUSH0 DUP2 CALLDATALOAD SWAP1 POP PUSH2 0x18D1 DUP2 PUSH2 0x18AD JUMP JUMPDEST SWAP3 SWAP2 POP POP JUMP JUMPDEST PUSH0 DUP2 SWAP1 POP SWAP2 SWAP1 POP JUMP JUMPDEST PUSH2 0x18E9 DUP2 PUSH2 0x18D7 JUMP JUMPDEST DUP2 EQ PUSH2 0x18F3 JUMPI PUSH0 PUSH0 REVERT JUMPDEST POP JUMP JUMPDEST PUSH0 DUP2 CALLDATALOAD SWAP1 POP PUSH2 0x1904 DUP2 PUSH2 0x18E0 JUMP JUMPDEST SWAP3 SWAP2 POP POP JUMP JUMPDEST PUSH0 PUSH0 REVERT JUMPDEST PUSH0 PUSH0 REVERT JUMPDEST PUSH0 PUSH0 REVERT JUMPDEST PUSH0 PUSH0 DUP4 PUSH1 0x1F DUP5 ADD SLT PUSH2 0x192B JUMPI PUSH2 0x192A PUSH2 0x190A JUMP JUMPDEST JUMPDEST DUP3 CALLDATALOAD SWAP1 POP PUSH8 0xFFFFFFFFFFFFFFFF DUP2 GT ISZERO PUSH2 0x1948 JUMPI PUSH2 0x1947 PUSH2 0x190E JUMP JUMPDEST JUMPDEST PUSH1 0x20 DUP4 ADD SWAP2 POP DUP4 PUSH1 0x1 DUP3 MUL DUP4 ADD GT ISZERO PUSH2 0x1964 JUMPI PUSH2 0x1963 PUSH2 0x1912 JUMP JUMPDEST JUMPDEST SWAP3 POP SWAP3 SWAP1 POP JUMP JUMPDEST PUSH0 PUSH0 PUSH0 PUSH0 PUSH0 PUSH1 0x80 DUP7 DUP9 SUB SLT ISZERO PUSH2 0x1984 JUMPI PUSH2 0x1983 PUSH2 0x18A5 JUMP JUMPDEST JUMPDEST PUSH0 PUSH2 0x1991 DUP9 DUP3 DUP10 ADD PUSH2 0x18C3 JUMP JUMPDEST SWAP6 POP POP PUSH1 0x20 PUSH2 0x19A2 DUP9 DUP3 DUP10 ADD PUSH2 0x18C3 JUMP JUMPDEST SWAP5 POP POP PUSH1 0x40 PUSH2 0x19B3 DUP9 DUP3 DUP10 ADD PUSH2 0x18F6 JUMP JUMPDEST SWAP4 POP POP PUSH1 0x60 DUP7 ADD CALLDATALOAD PUSH8 0xFFFFFFFFFFFFFFFF DUP2 GT ISZERO PUSH2 0x19D4 JUMPI PUSH2 0x19D3 PUSH2 0x18A9 JUMP JUMPDEST JUMPDEST PUSH2 0x19E0 DUP9 DUP3 DUP10 ADD PUSH2 0x1916 JUMP JUMPDEST SWAP3 POP SWAP3 POP POP SWAP3 SWAP6 POP SWAP3 SWAP6 SWAP1 SWAP4 POP JUMP JUMPDEST PUSH0 PUSH32 0xFFFFFFFF00000000000000000000000000000000000000000000000000000000 DUP3 AND SWAP1 POP SWAP2 SWAP1 POP JUMP JUMPDEST PUSH2 0x1A23 DUP2 PUSH2 0x19EF JUMP JUMPDEST DUP3 MSTORE POP POP JUMP JUMPDEST PUSH0 PUSH1 0x20 DUP3 ADD SWAP1 POP PUSH2 0x1A3C PUSH0 DUP4 ADD DUP5 PUSH2 0x1A1A JUMP JUMPDEST SWAP3 SWAP2 POP POP JUMP JUMPDEST PUSH2 0x1A4B DUP2 PUSH2 0x18D7 JUMP JUMPDEST DUP3 MSTORE POP POP JUMP JUMPDEST PUSH0 PUSH1 0x20 DUP3 ADD SWAP1 POP PUSH2 0x1A64 PUSH0 DUP4 ADD DUP5 PUSH2 0x1A42 JUMP JUMPDEST SWAP3 SWAP2 POP POP JUMP JUMPDEST PUSH0 DUP2 ISZERO ISZERO SWAP1 POP SWAP2 SWAP1 POP JUMP JUMPDEST PUSH2 0x1A7E DUP2 PUSH2 0x1A6A JUMP JUMPDEST DUP3 MSTORE POP POP JUMP JUMPDEST PUSH0 PUSH1 0x20 DUP3 ADD SWAP1 POP PUSH2 0x1A97 PUSH0 DUP4 ADD DUP5 PUSH2 0x1A75 JUMP JUMPDEST SWAP3 SWAP2 POP POP JUMP JUMPDEST PUSH0 PUSH1 0x20 DUP3 DUP5 SUB SLT ISZERO PUSH2 0x1AB2 JUMPI PUSH2 0x1AB1 PUSH2 0x18A5 JUMP JUMPDEST JUMPDEST PUSH0 PUSH2 0x1ABF DUP5 DUP3 DUP6 ADD PUSH2 0x18C3 JUMP JUMPDEST SWAP2 POP POP SWAP3 SWAP2 POP POP JUMP JUMPDEST PUSH0 PUSH0 PUSH0 PUSH0 PUSH0 PUSH0 PUSH1 0xC0 DUP8 DUP10 SUB SLT ISZERO PUSH2 0x1AE2 JUMPI PUSH2 0x1AE1 PUSH2 0x18A5 JUMP JUMPDEST JUMPDEST PUSH0 PUSH2 0x1AEF DUP10 DUP3 DUP11 ADD PUSH2 0x18C3 JUMP JUMPDEST SWAP7 POP POP PUSH1 0x20 PUSH2 0x1B00 DUP10 DUP3 DUP11 ADD PUSH2 0x18C3 JUMP JUMPDEST SWAP6 POP POP PUSH1 0x40 PUSH2 0x1B11 DUP10 DUP3 DUP11 ADD PUSH2 0x18F6 JUMP JUMPDEST SWAP5 POP POP PUSH1 0x60 PUSH2 0x1B22 DUP10 DUP3 DUP11 ADD PUSH2 0x18F6 JUMP JUMPDEST SWAP4 POP POP PUSH1 0x80 PUSH2 0x1B33 DUP10 DUP3 DUP11 ADD PUSH2 0x18F6 JUMP JUMPDEST SWAP3 POP POP PUSH1 0xA0 PUSH2 0x1B44 DUP10 DUP3 DUP11 ADD PUSH2 0x18F6 JUMP JUMPDEST SWAP2 POP POP SWAP3 SWAP6 POP SWAP3 SWAP6 POP SWAP3 SWAP6 JUMP JUMPDEST PUSH0 PUSH0 PUSH1 0x40 DUP4 DUP6 SUB SLT ISZERO PUSH2 0x1B67 JUMPI PUSH2 0x1B66 PUSH2 0x18A5 JUMP JUMPDEST JUMPDEST PUSH0 PUSH2 0x1B74 DUP6 DUP3 DUP7 ADD PUSH2 0x18C3 JUMP JUMPDEST SWAP3 POP POP PUSH1 0x20 PUSH2 0x1B85 DUP6 DUP3 DUP7 ADD PUSH2 0x18F6 JUMP JUMPDEST SWAP2 POP POP SWAP3 POP SWAP3 SWAP1 POP JUMP JUMPDEST PUSH0 DUP3 DUP3 MSTORE PUSH1 0x20 DUP3 ADD SWAP1 POP SWAP3 SWAP2 POP POP JUMP JUMPDEST PUSH32 0x4F6E6C792073656C6C65722063616E2063616C6C20746869732066756E637469 PUSH0 DUP3 ADD MSTORE PUSH32 0x6F6E000000000000000000000000000000000000000000000000000000000000 PUSH1 0x20 DUP3 ADD MSTORE POP JUMP JUMPDEST PUSH0 PUSH2 0x1BF9 PUSH1 0x22 DUP4 PUSH2 0x1B8F JUMP JUMPDEST SWAP2 POP PUSH2 0x1C04 DUP3 PUSH2 0x1B9F JUMP JUMPDEST PUSH1 0x40 DUP3 ADD SWAP1 POP SWAP2 SWAP1 POP JUMP JUMPDEST PUSH0 PUSH1 0x20 DUP3 ADD SWAP1 POP DUP2 DUP2 SUB PUSH0 DUP4 ADD MSTORE PUSH2 0x1C26 DUP2 PUSH2 0x1BED JUMP JUMPDEST SWAP1 POP SWAP2 SWAP1 POP JUMP JUMPDEST PUSH32 0x417574696F6E206E6F74207374617274206F7220656E64000000000000000000 PUSH0 DUP3 ADD MSTORE POP JUMP JUMPDEST PUSH0 PUSH2 0x1C61 PUSH1 0x17 DUP4 PUSH2 0x1B8F JUMP JUMPDEST SWAP2 POP PUSH2 0x1C6C DUP3 PUSH2 0x1C2D JUMP JUMPDEST PUSH1 0x20 DUP3 ADD SWAP1 POP SWAP2 SWAP1 POP JUMP JUMPDEST PUSH0 PUSH1 0x20 DUP3 ADD SWAP1 POP DUP2 DUP2 SUB PUSH0 DUP4 ADD MSTORE PUSH2 0x1C8E DUP2 PUSH2 0x1C55 JUMP JUMPDEST SWAP1 POP SWAP2 SWAP1 POP JUMP JUMPDEST PUSH32 0x417574696F6E2068617320656E64000000000000000000000000000000000000 PUSH0 DUP3 ADD MSTORE POP JUMP JUMPDEST PUSH0 PUSH2 0x1CC9 PUSH1 0xE DUP4 PUSH2 0x1B8F JUMP JUMPDEST SWAP2 POP PUSH2 0x1CD4 DUP3 PUSH2 0x1C95 JUMP JUMPDEST PUSH1 0x20 DUP3 ADD SWAP1 POP SWAP2 SWAP1 POP JUMP JUMPDEST PUSH0 PUSH1 0x20 DUP3 ADD SWAP1 POP DUP2 DUP2 SUB PUSH0 DUP4 ADD MSTORE PUSH2 0x1CF6 DUP2 PUSH2 0x1CBD JUMP JUMPDEST SWAP1 POP SWAP2 SWAP1 POP JUMP JUMPDEST PUSH0 PUSH1 0x60 DUP3 ADD SWAP1 POP PUSH2 0x1D10 PUSH0 DUP4 ADD DUP7 PUSH2 0x187D JUMP JUMPDEST PUSH2 0x1D1D PUSH1 0x20 DUP4 ADD DUP6 PUSH2 0x187D JUMP JUMPDEST PUSH2 0x1D2A PUSH1 0x40 DUP4 ADD DUP5 PUSH2 0x1A42 JUMP JUMPDEST SWAP5 SWAP4 POP POP POP POP JUMP JUMPDEST PUSH0 DUP2 SWAP1 POP SWAP3 SWAP2 POP POP JUMP JUMPDEST POP JUMP JUMPDEST PUSH0 PUSH2 0x1D4A PUSH0 DUP4 PUSH2 0x1D32 JUMP JUMPDEST SWAP2 POP PUSH2 0x1D55 DUP3 PUSH2 0x1D3C JUMP JUMPDEST PUSH0 DUP3 ADD SWAP1 POP SWAP2 SWAP1 POP JUMP JUMPDEST PUSH0 PUSH2 0x1D69 DUP3 PUSH2 0x1D3F JUMP JUMPDEST SWAP2 POP DUP2 SWAP1 POP SWAP2 SWAP1 POP JUMP JUMPDEST PUSH32 0x455448207472616E73666572206661696C656400000000000000000000000000 PUSH0 DUP3 ADD MSTORE POP JUMP JUMPDEST PUSH0 PUSH2 0x1DA7 PUSH1 0x13 DUP4 PUSH2 0x1B8F JUMP JUMPDEST SWAP2 POP PUSH2 0x1DB2 DUP3 PUSH2 0x1D73 JUMP JUMPDEST PUSH1 0x20 DUP3 ADD SWAP1 POP SWAP2 SWAP1 POP JUMP JUMPDEST PUSH0 PUSH1 0x20 DUP3 ADD SWAP1 POP DUP2 DUP2 SUB PUSH0 DUP4 ADD MSTORE PUSH2 0x1DD4 DUP2 PUSH2 0x1D9B JUMP JUMPDEST SWAP1 POP SWAP2 SWAP1 POP JUMP JUMPDEST PUSH0 PUSH1 0x40 DUP3 ADD SWAP1 POP PUSH2 0x1DEE PUSH0 DUP4 ADD DUP6 PUSH2 0x187D JUMP JUMPDEST PUSH2 0x1DFB PUSH1 0x20 DUP4 ADD DUP5 PUSH2 0x1A42 JUMP JUMPDEST SWAP4 SWAP3 POP POP POP JUMP JUMPDEST PUSH2 0x1E0B DUP2 PUSH2 0x1A6A JUMP JUMPDEST DUP2 EQ PUSH2 0x1E15 JUMPI PUSH0 PUSH0 REVERT JUMPDEST POP JUMP JUMPDEST PUSH0 DUP2 MLOAD SWAP1 POP PUSH2 0x1E26 DUP2 PUSH2 0x1E02 JUMP JUMPDEST SWAP3 SWAP2 POP POP JUMP JUMPDEST PUSH0 PUSH1 0x20 DUP3 DUP5 SUB SLT ISZERO PUSH2 0x1E41 JUMPI PUSH2 0x1E40 PUSH2 0x18A5 JUMP JUMPDEST JUMPDEST PUSH0 PUSH2 0x1E4E DUP5 DUP3 DUP6 ADD PUSH2 0x1E18 JUMP JUMPDEST SWAP2 POP POP SWAP3 SWAP2 POP POP JUMP JUMPDEST PUSH32 0x546F6B656E207472616E73666572206661696C65640000000000000000000000 PUSH0 DUP3 ADD MSTORE POP JUMP JUMPDEST PUSH0 PUSH2 0x1E8B PUSH1 0x15 DUP4 PUSH2 0x1B8F JUMP JUMPDEST SWAP2 POP PUSH2 0x1E96 DUP3 PUSH2 0x1E57 JUMP JUMPDEST PUSH1 0x20 DUP3 ADD SWAP1 POP SWAP2 SWAP1 POP JUMP JUMPDEST PUSH0 PUSH1 0x20 DUP3 ADD SWAP1 POP DUP2 DUP2 SUB PUSH0 DUP4 ADD MSTORE PUSH2 0x1EB8 DUP2 PUSH2 0x1E7F JUMP JUMPDEST SWAP1 POP SWAP2 SWAP1 POP JUMP JUMPDEST PUSH32 0x4F6E6C7920666163746F72792063616E2063616C6C20746869732066756E6374 PUSH0 DUP3 ADD MSTORE PUSH32 0x696F6E0000000000000000000000000000000000000000000000000000000000 PUSH1 0x20 DUP3 ADD MSTORE POP JUMP JUMPDEST PUSH0 PUSH2 0x1F19 PUSH1 0x23 DUP4 PUSH2 0x1B8F JUMP JUMPDEST SWAP2 POP PUSH2 0x1F24 DUP3 PUSH2 0x1EBF JUMP JUMPDEST PUSH1 0x40 DUP3 ADD SWAP1 POP SWAP2 SWAP1 POP JUMP JUMPDEST PUSH0 PUSH1 0x20 DUP3 ADD SWAP1 POP DUP2 DUP2 SUB PUSH0 DUP4 ADD MSTORE PUSH2 0x1F46 DUP2 PUSH2 0x1F0D JUMP JUMPDEST SWAP1 POP SWAP2 SWAP1 POP JUMP JUMPDEST PUSH32 0x4E487B7100000000000000000000000000000000000000000000000000000000 PUSH0 MSTORE PUSH1 0x11 PUSH1 0x4 MSTORE PUSH1 0x24 PUSH0 REVERT JUMPDEST PUSH0 PUSH2 0x1F84 DUP3 PUSH2 0x18D7 JUMP JUMPDEST SWAP2 POP PUSH2 0x1F8F DUP4 PUSH2 0x18D7 JUMP JUMPDEST SWAP3 POP DUP3 DUP3 ADD SWAP1 POP DUP1 DUP3 GT ISZERO PUSH2 0x1FA7 JUMPI PUSH2 0x1FA6 PUSH2 0x1F4D JUMP JUMPDEST JUMPDEST SWAP3 SWAP2 POP POP JUMP JUMPDEST PUSH0 DUP2 MLOAD SWAP1 POP PUSH2 0x1FBB DUP2 PUSH2 0x18E0 JUMP JUMPDEST SWAP3 SWAP2 POP POP JUMP JUMPDEST PUSH0 PUSH1 0x20 DUP3 DUP5 SUB SLT ISZERO PUSH2 0x1FD6 JUMPI PUSH2 0x1FD5 PUSH2 0x18A5 JUMP JUMPDEST JUMPDEST PUSH0 PUSH2 0x1FE3 DUP5 DUP3 DUP6 ADD PUSH2 0x1FAD JUMP JUMPDEST SWAP2 POP POP SWAP3 SWAP2 POP POP JUMP JUMPDEST PUSH32 0x426964206E6F74206869676820656E6F75676800000000000000000000000000 PUSH0 DUP3 ADD MSTORE POP JUMP JUMPDEST PUSH0 PUSH2 0x2020 PUSH1 0x13 DUP4 PUSH2 0x1B8F JUMP JUMPDEST SWAP2 POP PUSH2 0x202B DUP3 PUSH2 0x1FEC JUMP JUMPDEST PUSH1 0x20 DUP3 ADD SWAP1 POP SWAP2 SWAP1 POP JUMP JUMPDEST PUSH0 PUSH1 0x20 DUP3 ADD SWAP1 POP DUP2 DUP2 SUB PUSH0 DUP4 ADD MSTORE PUSH2 0x204D DUP2 PUSH2 0x2014 JUMP JUMPDEST SWAP1 POP SWAP2 SWAP1 POP JUMP JUMPDEST PUSH32 0x6F6E6C7920616363657074206C696E6B00000000000000000000000000000000 PUSH0 DUP3 ADD MSTORE POP JUMP JUMPDEST PUSH0 PUSH2 0x2088 PUSH1 0x10 DUP4 PUSH2 0x1B8F JUMP JUMPDEST SWAP2 POP PUSH2 0x2093 DUP3 PUSH2 0x2054 JUMP JUMPDEST PUSH1 0x20 DUP3 ADD SWAP1 POP SWAP2 SWAP1 POP JUMP JUMPDEST PUSH0 PUSH1 0x20 DUP3 ADD SWAP1 POP DUP2 DUP2 SUB PUSH0 DUP4 ADD MSTORE PUSH2 0x20B5 DUP2 PUSH2 0x207C JUMP JUMPDEST SWAP1 POP SWAP2 SWAP1 POP JUMP INVALID LOG2 PUSH5 0x6970667358 0x22 SLT KECCAK256 0xDF SWAP14 SAR PUSH3 0x439343 PUSH1 0xFC JUMPDEST CALLVALUE 0xB4 INVALID SWAP11 EXTCODESIZE 0xA9 OR PUSH31 0x50C2D9D0370D6E49C7AAF2E36CF564736F6C634300081E0033A26469706673 PC 0x22 SLT KECCAK256 0xD3 CALLDATASIZE PUSH28 0x77086727662148CD34F46B5C2987734EF9D5BCD9F8884C9698A23745 ORIGIN PUSH5 0x736F6C6343 STOP ADDMOD 0x1E STOP CALLER "
				},
				"gasEstimates": {
					"creation": {
						"codeDepositCost": "2361800",
						"executionCost": "infinite",
						"totalCost": "infinite"
					},
					"external": {
						"autionEnd(address)": "infinite",
						"autions(uint256)": "4965",
						"createAution(address,uint256,uint256,uint256)": "infinite",
						"formatEthToUsdtPrice(uint256)": "infinite",
						"formatLinkToUsdtPrice(uint256)": "infinite",
						"getAutionContract(uint256)": "2897",
						"getAutionCount()": "2439"
					}
				},
				"methodIdentifiers": {
					"autionEnd(address)": "1ca54219",
					"autions(uint256)": "72ccb1a3",
					"createAution(address,uint256,uint256,uint256)": "d0ff630f",
					"formatEthToUsdtPrice(uint256)": "c01895bb",
					"formatLinkToUsdtPrice(uint256)": "135597fd",
					"getAutionContract(uint256)": "6097ee20",
					"getAutionCount()": "697b6a07"
				}
			},
			"storageLayout": {
				"storage": [
					{
						"astId": 844,
						"contract": "contracts/AutionFactory.sol:AutionFactory",
						"label": "autions",
						"offset": 0,
						"slot": "0",
						"type": "t_array(t_address)dyn_storage"
					},
					{
						"astId": 846,
						"contract": "contracts/AutionFactory.sol:AutionFactory",
						"label": "marketOwner",
						"offset": 0,
						"slot": "1",
						"type": "t_address"
					},
					{
						"astId": 849,
						"contract": "contracts/AutionFactory.sol:AutionFactory",
						"label": "_nextAutionId",
						"offset": 0,
						"slot": "2",
						"type": "t_uint256"
					},
					{
						"astId": 853,
						"contract": "contracts/AutionFactory.sol:AutionFactory",
						"label": "_autionData",
						"offset": 0,
						"slot": "3",
						"type": "t_mapping(t_uint256,t_address)"
					},
					{
						"astId": 858,
						"contract": "contracts/AutionFactory.sol:AutionFactory",
						"label": "_priceFeeds",
						"offset": 0,
						"slot": "4",
						"type": "t_mapping(t_address,t_contract(AggregatorV3Interface)45)"
					},
					{
						"astId": 861,
						"contract": "contracts/AutionFactory.sol:AutionFactory",
						"label": "linkAddress",
						"offset": 0,
						"slot": "5",
						"type": "t_address"
					},
					{
						"astId": 864,
						"contract": "contracts/AutionFactory.sol:AutionFactory",
						"label": "ethAddress",
						"offset": 0,
						"slot": "6",
						"type": "t_address"
					},
					{
						"astId": 871,
						"contract": "contracts/AutionFactory.sol:AutionFactory",
						"label": "_isHardHat",
						"offset": 20,
						"slot": "6",
						"type": "t_bool"
					}
				],
				"types": {
					"t_address": {
						"encoding": "inplace",
						"label": "address",
						"numberOfBytes": "20"
					},
					"t_array(t_address)dyn_storage": {
						"base": "t_address",
						"encoding": "dynamic_array",
						"label": "address[]",
						"numberOfBytes": "32"
					},
					"t_bool": {
						"encoding": "inplace",
						"label": "bool",
						"numberOfBytes": "1"
					},
					"t_contract(AggregatorV3Interface)45": {
						"encoding": "inplace",
						"label": "contract AggregatorV3Interface",
						"numberOfBytes": "20"
					},
					"t_mapping(t_address,t_contract(AggregatorV3Interface)45)": {
						"encoding": "mapping",
						"key": "t_address",
						"label": "mapping(address => contract AggregatorV3Interface)",
						"numberOfBytes": "32",
						"value": "t_contract(AggregatorV3Interface)45"
					},
					"t_mapping(t_uint256,t_address)": {
						"encoding": "mapping",
						"key": "t_uint256",
						"label": "mapping(uint256 => address)",
						"numberOfBytes": "32",
						"value": "t_address"
					},
					"t_uint256": {
						"encoding": "inplace",
						"label": "uint256",
						"numberOfBytes": "32"
					}
				}
			},
			"userdoc": {
				"kind": "user",
				"methods": {
					"getAutionContract(uint256)": {
						"notice": "获取拍卖Id对应的合约地址 "
					}
				},
				"version": 1
			}
		}
	}
}