{
	"data": {
		"bytecode": {
			"linkReferences": {},
			"object": "60a06040523073ffffffffffffffffffffffffffffffffffffffff1660809073ffffffffffffffffffffffffffffffffffffffff16815250348015610042575f5ffd5b5061005161005660201b60201c565b6101d1565b5f61006561015460201b60201c565b9050805f0160089054906101000a900460ff16156100af576040517ff92ee8a900000000000000000000000000000000000000000000000000000000815260040160405180910390fd5b67ffffffffffffffff8016815f015f9054906101000a900467ffffffffffffffff1667ffffffffffffffff16146101515767ffffffffffffffff815f015f6101000a81548167ffffffffffffffff021916908367ffffffffffffffff1602179055507fc7f505b2f371ae2175ee4913f4499e1f2633a7b5936321eed1cdaeb6115181d267ffffffffffffffff60405161014891906101b8565b60405180910390a15b50565b5f5f61016461016d60201b60201c565b90508091505090565b5f7ff0c57e16840df040f15088dc2f81fe391c3923bec73e23a9662efc9c229c6a005f1b905090565b5f67ffffffffffffffff82169050919050565b6101b281610196565b82525050565b5f6020820190506101cb5f8301846101a9565b92915050565b6080516136356101f75f395f81816115440152818161159901526117da01526136355ff3fe608060405260043610610180575f3560e01c806370a08231116100d0578063ad3cb1cc11610089578063c87b56dd11610063578063c87b56dd1461055e578063caa0f92a1461059a578063e985e9c5146105c4578063efba2b491461060057610180565b8063ad3cb1cc146104e2578063b2bdfa7b1461050c578063b88d4fde1461053657610180565b806370a08231146103c657806388ba16ab146104025780638da5cb5b1461043e57806394ab67fe1461046857806395d89b4114610490578063a22cb465146104ba57610180565b80631798de811161013d5780634a60f620116101175780634a60f6201461031a5780634f1ef2861461034457806352d1902d146103605780636352211e1461038a57610180565b80631798de81146102a257806323b872dd146102ca57806342842e0e146102f257610180565b806301ffc9a71461018457806306fdde03146101c0578063081812fc146101ea578063095ea7b3146102265780630de229841461024e5780631544298e14610278575b5f5ffd5b34801561018f575f5ffd5b506101aa60048036038101906101a5919061277d565b61063c565b6040516101b791906127c2565b60405180910390f35b3480156101cb575f5ffd5b506101d461064d565b6040516101e1919061284b565b60405180910390f35b3480156101f5575f5ffd5b50610210600480360381019061020b919061289e565b6106ea565b60405161021d9190612908565b60405180910390f35b348015610231575f5ffd5b5061024c6004803603810190610247919061294b565b610705565b005b348015610259575f5ffd5b5061026261071b565b60405161026f9190612908565b60405180910390f35b348015610283575f5ffd5b5061028c61073f565b60405161029991906129ab565b60405180910390f35b3480156102ad575f5ffd5b506102c860048036038101906102c391906129ee565b610758565b005b3480156102d5575f5ffd5b506102f060048036038101906102eb9190612a2c565b6109c5565b005b3480156102fd575f5ffd5b5061031860048036038101906103139190612a2c565b610ac4565b005b348015610325575f5ffd5b5061032e610ae3565b60405161033b9190612a8b565b60405180910390f35b61035e60048036038101906103599190612bd0565b610ae9565b005b34801561036b575f5ffd5b50610374610b08565b6040516103819190612c42565b60405180910390f35b348015610395575f5ffd5b506103b060048036038101906103ab919061289e565b610b39565b6040516103bd9190612908565b60405180910390f35b3480156103d1575f5ffd5b506103ec60048036038101906103e79190612c5b565b610b4a565b6040516103f99190612a8b565b60405180910390f35b34801561040d575f5ffd5b5061042860048036038101906104239190612cb0565b610c0e565b60405161043591906127c2565b60405180910390f35b348015610449575f5ffd5b50610452610c2b565b60405161045f9190612908565b60405180910390f35b348015610473575f5ffd5b5061048e6004803603810190610489919061294b565b610c53565b005b34801561049b575f5ffd5b506104a4610cd0565b6040516104b1919061284b565b60405180910390f35b3480156104c5575f5ffd5b506104e060048036038101906104db9190612d05565b610d6e565b005b3480156104ed575f5ffd5b506104f6610d84565b604051610503919061284b565b60405180910390f35b348015610517575f5ffd5b50610520610dbd565b60405161052d9190612908565b60405180910390f35b348015610541575f5ffd5b5061055c60048036038101906105579190612d43565b610de2565b005b348015610569575f5ffd5b50610584600480360381019061057f919061289e565b610e07565b604051610591919061284b565b60405180910390f35b3480156105a5575f5ffd5b506105ae610f21565b6040516105bb9190612a8b565b60405180910390f35b3480156105cf575f5ffd5b506105ea60048036038101906105e59190612dc3565b610f2a565b6040516105f791906127c2565b60405180910390f35b34801561060b575f5ffd5b5061062660048036038101906106219190612e9f565b610fc6565b6040516106339190612a8b565b60405180910390f35b5f61064682611132565b9050919050565b60605f61065861119b565b9050805f01805461066890612f26565b80601f016020809104026020016040519081016040528092919081815260200182805461069490612f26565b80156106df5780601f106106b6576101008083540402835291602001916106df565b820191905f5260205f20905b8154815290600101906020018083116106c257829003601f168201915b505050505091505090565b5f6106f4826111c2565b506106fe82611248565b9050919050565b610717828261071261128f565b611296565b5050565b5f5f9054906101000a900473ffffffffffffffffffffffffffffffffffffffff1681565b5f60149054906101000a900467ffffffffffffffff1681565b5f6107616112a8565b90505f815f0160089054906101000a900460ff161590505f825f015f9054906101000a900467ffffffffffffffff1690505f5f8267ffffffffffffffff161480156107a95750825b90505f60018367ffffffffffffffff161480156107dc57505f3073ffffffffffffffffffffffffffffffffffffffff163b145b9050811580156107ea575080155b15610821576040517ff92ee8a900000000000000000000000000000000000000000000000000000000815260040160405180910390fd5b6001855f015f6101000a81548167ffffffffffffffff021916908367ffffffffffffffff160217905550831561086e576001855f0160086101000a81548160ff0219169083151502179055505b6108e26040518060400160405280600881526020017f4d794d61726b65740000000000000000000000000000000000000000000000008152506040518060400160405280600381526020017f4d4d4b00000000000000000000000000000000000000000000000000000000008152506112bb565b6108ea6112d1565b6108f3876112db565b3360025f6101000a81548173ffffffffffffffffffffffffffffffffffffffff021916908373ffffffffffffffffffffffffffffffffffffffff160217905550855f60146101000a81548167ffffffffffffffff021916908367ffffffffffffffff1602179055505f60018190555083156109bc575f855f0160086101000a81548160ff0219169083151502179055507fc7f505b2f371ae2175ee4913f4499e1f2633a7b5936321eed1cdaeb6115181d260016040516109b39190612f98565b60405180910390a15b50505050505050565b5f73ffffffffffffffffffffffffffffffffffffffff168273ffffffffffffffffffffffffffffffffffffffff1603610a35575f6040517f64a0ae92000000000000000000000000000000000000000000000000000000008152600401610a2c9190612908565b60405180910390fd5b5f610a488383610a4361128f565b611325565b90508373ffffffffffffffffffffffffffffffffffffffff168173ffffffffffffffffffffffffffffffffffffffff1614610abe578382826040517f64283d7b000000000000000000000000000000000000000000000000000000008152600401610ab593929190612fb1565b60405180910390fd5b50505050565b610ade83838360405180602001604052805f815250610de2565b505050565b60015481565b610af1611542565b610afa82611628565b610b0482826116ba565b5050565b5f610b116117d8565b7f360894a13ba1a3210667c828492db98dca3e2076cc3735a920a3ca505d382bbc5f1b905090565b5f610b43826111c2565b9050919050565b5f5f610b5461119b565b90505f73ffffffffffffffffffffffffffffffffffffffff168373ffffffffffffffffffffffffffffffffffffffff1603610bc6575f6040517f89c62b64000000000000000000000000000000000000000000000000000000008152600401610bbd9190612908565b60405180910390fd5b806003015f8473ffffffffffffffffffffffffffffffffffffffff1673ffffffffffffffffffffffffffffffffffffffff1681526020019081526020015f2054915050919050565b6003602052805f5260405f205f915054906101000a900460ff1681565b5f60025f9054906101000a900473ffffffffffffffffffffffffffffffffffffffff16905090565b5f73ffffffffffffffffffffffffffffffffffffffff168273ffffffffffffffffffffffffffffffffffffffff1603610cc1576040517f08c379a0000000000000000000000000000000000000000000000000000000008152600401610cb890613030565b60405180910390fd5b610ccc338383610ac4565b5050565b60605f610cdb61119b565b9050806001018054610cec90612f26565b80601f0160208091040260200160405190810160405280929190818152602001828054610d1890612f26565b8015610d635780601f10610d3a57610100808354040283529160200191610d63565b820191905f5260205f20905b815481529060010190602001808311610d4657829003601f168201915b505050505091505090565b610d80610d7961128f565b838361185f565b5050565b6040518060400160405280600581526020017f352e302e3000000000000000000000000000000000000000000000000000000081525081565b60025f9054906101000a900473ffffffffffffffffffffffffffffffffffffffff1681565b610ded8484846109c5565b610e01610df861128f565b858585856119d6565b50505050565b60605f610e12611b82565b9050610e1d836111c2565b505f815f015f8581526020019081526020015f208054610e3c90612f26565b80601f0160208091040260200160405190810160405280929190818152602001828054610e6890612f26565b8015610eb35780601f10610e8a57610100808354040283529160200191610eb3565b820191905f5260205f20905b815481529060010190602001808311610e9657829003601f168201915b505050505090505f610ec3611ba9565b90505f815103610ed857819350505050610f1c565b5f82511115610f0d578082604051602001610ef4929190613088565b6040516020818303038152906040529350505050610f1c565b610f1685611bbf565b93505050505b919050565b5f600154905090565b5f5f610f3461119b565b9050806005015f8573ffffffffffffffffffffffffffffffffffffffff1673ffffffffffffffffffffffffffffffffffffffff1681526020019081526020015f205f8473ffffffffffffffffffffffffffffffffffffffff1673ffffffffffffffffffffffffffffffffffffffff1681526020019081526020015f205f9054906101000a900460ff1691505092915050565b5f60025f9054906101000a900473ffffffffffffffffffffffffffffffffffffffff1673ffffffffffffffffffffffffffffffffffffffff163373ffffffffffffffffffffffffffffffffffffffff1614611056576040517f08c379a000000000000000000000000000000000000000000000000000000000815260040161104d9061311b565b60405180910390fd5b5f73ffffffffffffffffffffffffffffffffffffffff168373ffffffffffffffffffffffffffffffffffffffff16036110c4576040517f08c379a00000000000000000000000000000000000000000000000000000000081526004016110bb90613030565b60405180910390fd5b5f60015f81546110d390613166565b91905081905590506110e58482611c25565b6110ef8184611d18565b7fdee31b461073185f1b22d811627e966c74844680eead825ccef5308c8990e74e84846040516111209291906131ad565b60405180910390a18091505092915050565b5f7f345c9ffd000000000000000000000000000000000000000000000000000000007bffffffffffffffffffffffffffffffffffffffffffffffffffffffff1916827bffffffffffffffffffffffffffffffffffffffffffffffffffffffff1916149050919050565b5f7f80bb2b638cc20bc4d0a60d66940f3ab4a00c1d7b313497ca82fb0b4ab0079300905090565b5f5f6111cd83611d7f565b90505f73ffffffffffffffffffffffffffffffffffffffff168173ffffffffffffffffffffffffffffffffffffffff160361123f57826040517f7e2732890000000000000000000000000000000000000000000000000000000081526004016112369190612a8b565b60405180910390fd5b80915050919050565b5f5f61125261119b565b9050806004015f8481526020019081526020015f205f9054906101000a900473ffffffffffffffffffffffffffffffffffffffff16915050919050565b5f33905090565b6112a38383836001611dc6565b505050565b5f5f6112b2611f93565b90508091505090565b6112c3611fbc565b6112cd8282611ffc565b5050565b6112d9611fbc565b565b6112e3611fbc565b805f5f6101000a81548173ffffffffffffffffffffffffffffffffffffffff021916908373ffffffffffffffffffffffffffffffffffffffff16021790555050565b5f5f61132f61119b565b90505f61133b85611d7f565b90505f73ffffffffffffffffffffffffffffffffffffffff168473ffffffffffffffffffffffffffffffffffffffff161461137c5761137b818587612037565b5b5f73ffffffffffffffffffffffffffffffffffffffff168173ffffffffffffffffffffffffffffffffffffffff1614611409576113bb5f865f5f611dc6565b6001826003015f8373ffffffffffffffffffffffffffffffffffffffff1673ffffffffffffffffffffffffffffffffffffffff1681526020019081526020015f205f82825403925050819055505b5f73ffffffffffffffffffffffffffffffffffffffff168673ffffffffffffffffffffffffffffffffffffffff161461148a576001826003015f8873ffffffffffffffffffffffffffffffffffffffff1673ffffffffffffffffffffffffffffffffffffffff1681526020019081526020015f205f82825401925050819055505b85826002015f8781526020019081526020015f205f6101000a81548173ffffffffffffffffffffffffffffffffffffffff021916908373ffffffffffffffffffffffffffffffffffffffff160217905550848673ffffffffffffffffffffffffffffffffffffffff168273ffffffffffffffffffffffffffffffffffffffff167fddf252ad1be2c89b69c2b068fc378daa952ba7f163c4a11628f55a4df523b3ef60405160405180910390a480925050509392505050565b7f000000000000000000000000000000000000000000000000000000000000000073ffffffffffffffffffffffffffffffffffffffff163073ffffffffffffffffffffffffffffffffffffffff1614806115ef57507f000000000000000000000000000000000000000000000000000000000000000073ffffffffffffffffffffffffffffffffffffffff166115d66120fa565b73ffffffffffffffffffffffffffffffffffffffff1614155b15611626576040517fe07c8dba00000000000000000000000000000000000000000000000000000000815260040160405180910390fd5b565b60025f9054906101000a900473ffffffffffffffffffffffffffffffffffffffff1673ffffffffffffffffffffffffffffffffffffffff163373ffffffffffffffffffffffffffffffffffffffff16146116b7576040517f08c379a00000000000000000000000000000000000000000000000000000000081526004016116ae9061311b565b60405180910390fd5b50565b8173ffffffffffffffffffffffffffffffffffffffff166352d1902d6040518163ffffffff1660e01b8152600401602060405180830381865afa92505050801561172257506040513d601f19601f8201168201806040525081019061171f91906131ef565b60015b61176357816040517f4c9c8ce300000000000000000000000000000000000000000000000000000000815260040161175a9190612908565b60405180910390fd5b7f360894a13ba1a3210667c828492db98dca3e2076cc3735a920a3ca505d382bbc5f1b81146117c957806040517faa1d49a40000000000000000000000000000000000000000000000000000000081526004016117c09190612c42565b60405180910390fd5b6117d3838361214d565b505050565b7f000000000000000000000000000000000000000000000000000000000000000073ffffffffffffffffffffffffffffffffffffffff163073ffffffffffffffffffffffffffffffffffffffff161461185d576040517fe07c8dba00000000000000000000000000000000000000000000000000000000815260040160405180910390fd5b565b5f61186861119b565b90505f73ffffffffffffffffffffffffffffffffffffffff168373ffffffffffffffffffffffffffffffffffffffff16036118da57826040517f5b08ba180000000000000000000000000000000000000000000000000000000081526004016118d19190612908565b60405180910390fd5b81816005015f8673ffffffffffffffffffffffffffffffffffffffff1673ffffffffffffffffffffffffffffffffffffffff1681526020019081526020015f205f8573ffffffffffffffffffffffffffffffffffffffff1673ffffffffffffffffffffffffffffffffffffffff1681526020019081526020015f205f6101000a81548160ff0219169083151502179055508273ffffffffffffffffffffffffffffffffffffffff168473ffffffffffffffffffffffffffffffffffffffff167f17307eab39ab6107e8899845ad3d59bd9653f200f220920489ca2b5937696c31846040516119c891906127c2565b60405180910390a350505050565b5f8373ffffffffffffffffffffffffffffffffffffffff163b1115611b7b578273ffffffffffffffffffffffffffffffffffffffff1663150b7a02868685856040518563ffffffff1660e01b8152600401611a34949392919061326c565b6020604051808303815f875af1925050508015611a6f57506040513d601f19601f82011682018060405250810190611a6c91906132ca565b60015b611af0573d805f8114611a9d576040519150601f19603f3d011682016040523d82523d5f602084013e611aa2565b606091505b505f815103611ae857836040517f64a0ae92000000000000000000000000000000000000000000000000000000008152600401611adf9190612908565b60405180910390fd5b805181602001fd5b63150b7a0260e01b7bffffffffffffffffffffffffffffffffffffffffffffffffffffffff1916817bffffffffffffffffffffffffffffffffffffffffffffffffffffffff191614611b7957836040517f64a0ae92000000000000000000000000000000000000000000000000000000008152600401611b709190612908565b60405180910390fd5b505b5050505050565b5f7f0542a41881ee128a365a727b282c86fa859579490b9bb45aab8503648c8e7900905090565b606060405180602001604052805f815250905090565b6060611bca826111c2565b505f611bd4611ba9565b90505f815111611bf25760405180602001604052805f815250611c1d565b80611bfc846121bf565b604051602001611c0d929190613088565b6040516020818303038152906040525b915050919050565b5f73ffffffffffffffffffffffffffffffffffffffff168273ffffffffffffffffffffffffffffffffffffffff1603611c95575f6040517f64a0ae92000000000000000000000000000000000000000000000000000000008152600401611c8c9190612908565b60405180910390fd5b5f611ca183835f611325565b90505f73ffffffffffffffffffffffffffffffffffffffff168173ffffffffffffffffffffffffffffffffffffffff1614611d13575f6040517f73c6ac6e000000000000000000000000000000000000000000000000000000008152600401611d0a9190612908565b60405180910390fd5b505050565b5f611d21611b82565b905081815f015f8581526020019081526020015f209081611d42919061348c565b507ff8e1a15aba9398e019f0b49df1a4fde98ee17ae345cb5f6b5e2c27f5033e8ce783604051611d729190612a8b565b60405180910390a1505050565b5f5f611d8961119b565b9050806002015f8481526020019081526020015f205f9054906101000a900473ffffffffffffffffffffffffffffffffffffffff16915050919050565b5f611dcf61119b565b90508180611e0957505f73ffffffffffffffffffffffffffffffffffffffff168373ffffffffffffffffffffffffffffffffffffffff1614155b15611f3b575f611e18856111c2565b90505f73ffffffffffffffffffffffffffffffffffffffff168473ffffffffffffffffffffffffffffffffffffffff1614158015611e8257508373ffffffffffffffffffffffffffffffffffffffff168173ffffffffffffffffffffffffffffffffffffffff1614155b8015611e955750611e938185610f2a565b155b15611ed757836040517fa9fbf51f000000000000000000000000000000000000000000000000000000008152600401611ece9190612908565b60405180910390fd5b8215611f3957848673ffffffffffffffffffffffffffffffffffffffff168273ffffffffffffffffffffffffffffffffffffffff167f8c5be1e5ebec7d5bd14f71427d1e84f3dd0314c0f7b2291e5b200ac8c7c3b92560405160405180910390a45b505b84816004015f8681526020019081526020015f205f6101000a81548173ffffffffffffffffffffffffffffffffffffffff021916908373ffffffffffffffffffffffffffffffffffffffff1602179055505050505050565b5f7ff0c57e16840df040f15088dc2f81fe391c3923bec73e23a9662efc9c229c6a005f1b905090565b611fc4612289565b611ffa576040517fd7e6bcf800000000000000000000000000000000000000000000000000000000815260040160405180910390fd5b565b612004611fbc565b5f61200d61119b565b905082815f01908161201f919061348c565b5081816001019081612031919061348c565b50505050565b6120428383836122a7565b6120f5575f73ffffffffffffffffffffffffffffffffffffffff168373ffffffffffffffffffffffffffffffffffffffff16036120b657806040517f7e2732890000000000000000000000000000000000000000000000000000000081526004016120ad9190612a8b565b60405180910390fd5b81816040517f177e802f0000000000000000000000000000000000000000000000000000000081526004016120ec92919061355b565b60405180910390fd5b505050565b5f6121267f360894a13ba1a3210667c828492db98dca3e2076cc3735a920a3ca505d382bbc5f1b612367565b5f015f9054906101000a900473ffffffffffffffffffffffffffffffffffffffff16905090565b61215682612370565b8173ffffffffffffffffffffffffffffffffffffffff167fbc7cd75a20ee27fd9adebab32041f755214dbc6bffa90cc0225b39da2e5c2d3b60405160405180910390a25f815111156121b2576121ac8282612439565b506121bb565b6121ba6124b9565b5b5050565b60605f60016121cd846124f5565b0190505f8167ffffffffffffffff8111156121eb576121ea612aac565b5b6040519080825280601f01601f19166020018201604052801561221d5781602001600182028036833780820191505090505b5090505f82602001820190505b60011561227e578080600190039150507f3031323334353637383961626364656600000000000000000000000000000000600a86061a8153600a858161227357612272613582565b5b0494505f850361222a575b819350505050919050565b5f6122926112a8565b5f0160089054906101000a900460ff16905090565b5f5f73ffffffffffffffffffffffffffffffffffffffff168373ffffffffffffffffffffffffffffffffffffffff161415801561235e57508273ffffffffffffffffffffffffffffffffffffffff168473ffffffffffffffffffffffffffffffffffffffff16148061231f575061231e8484610f2a565b5b8061235d57508273ffffffffffffffffffffffffffffffffffffffff1661234583611248565b73ffffffffffffffffffffffffffffffffffffffff16145b5b90509392505050565b5f819050919050565b5f8173ffffffffffffffffffffffffffffffffffffffff163b036123cb57806040517f4c9c8ce30000000000000000000000000000000000000000000000000000000081526004016123c29190612908565b60405180910390fd5b806123f77f360894a13ba1a3210667c828492db98dca3e2076cc3735a920a3ca505d382bbc5f1b612367565b5f015f6101000a81548173ffffffffffffffffffffffffffffffffffffffff021916908373ffffffffffffffffffffffffffffffffffffffff16021790555050565b60605f5f8473ffffffffffffffffffffffffffffffffffffffff168460405161246291906135e9565b5f60405180830381855af49150503d805f811461249a576040519150601f19603f3d011682016040523d82523d5f602084013e61249f565b606091505b50915091506124af858383612646565b9250505092915050565b5f3411156124f3576040517fb398979f00000000000000000000000000000000000000000000000000000000815260040160405180910390fd5b565b5f5f5f90507a184f03e93ff9f4daa797ed6e38ed64bf6a1f0100000000000000008310612551577a184f03e93ff9f4daa797ed6e38ed64bf6a1f010000000000000000838161254757612546613582565b5b0492506040810190505b6d04ee2d6d415b85acef8100000000831061258e576d04ee2d6d415b85acef8100000000838161258457612583613582565b5b0492506020810190505b662386f26fc1000083106125bd57662386f26fc1000083816125b3576125b2613582565b5b0492506010810190505b6305f5e10083106125e6576305f5e10083816125dc576125db613582565b5b0492506008810190505b612710831061260b57612710838161260157612600613582565b5b0492506004810190505b6064831061262e576064838161262457612623613582565b5b0492506002810190505b600a831061263d576001810190505b80915050919050565b60608261265b57612656826126d3565b6126cb565b5f825114801561268157505f8473ffffffffffffffffffffffffffffffffffffffff163b145b156126c357836040517f9996b3150000000000000000000000000000000000000000000000000000000081526004016126ba9190612908565b60405180910390fd5b8190506126cc565b5b9392505050565b5f815111156126e55780518082602001fd5b6040517fd6bda27500000000000000000000000000000000000000000000000000000000815260040160405180910390fd5b5f604051905090565b5f5ffd5b5f5ffd5b5f7fffffffff0000000000000000000000000000000000000000000000000000000082169050919050565b61275c81612728565b8114612766575f5ffd5b50565b5f8135905061277781612753565b92915050565b5f6020828403121561279257612791612720565b5b5f61279f84828501612769565b91505092915050565b5f8115159050919050565b6127bc816127a8565b82525050565b5f6020820190506127d55f8301846127b3565b92915050565b5f81519050919050565b5f82825260208201905092915050565b8281835e5f83830152505050565b5f601f19601f8301169050919050565b5f61281d826127db565b61282781856127e5565b93506128378185602086016127f5565b61284081612803565b840191505092915050565b5f6020820190508181035f8301526128638184612813565b905092915050565b5f819050919050565b61287d8161286b565b8114612887575f5ffd5b50565b5f8135905061289881612874565b92915050565b5f602082840312156128b3576128b2612720565b5b5f6128c08482850161288a565b91505092915050565b5f73ffffffffffffffffffffffffffffffffffffffff82169050919050565b5f6128f2826128c9565b9050919050565b612902816128e8565b82525050565b5f60208201905061291b5f8301846128f9565b92915050565b61292a816128e8565b8114612934575f5ffd5b50565b5f8135905061294581612921565b92915050565b5f5f6040838503121561296157612960612720565b5b5f61296e85828601612937565b925050602061297f8582860161288a565b9150509250929050565b5f67ffffffffffffffff82169050919050565b6129a581612989565b82525050565b5f6020820190506129be5f83018461299c565b92915050565b6129cd81612989565b81146129d7575f5ffd5b50565b5f813590506129e8816129c4565b92915050565b5f5f60408385031215612a0457612a03612720565b5b5f612a1185828601612937565b9250506020612a22858286016129da565b9150509250929050565b5f5f5f60608486031215612a4357612a42612720565b5b5f612a5086828701612937565b9350506020612a6186828701612937565b9250506040612a728682870161288a565b9150509250925092565b612a858161286b565b82525050565b5f602082019050612a9e5f830184612a7c565b92915050565b5f5ffd5b5f5ffd5b7f4e487b71000000000000000000000000000000000000000000000000000000005f52604160045260245ffd5b612ae282612803565b810181811067ffffffffffffffff82111715612b0157612b00612aac565b5b80604052505050565b5f612b13612717565b9050612b1f8282612ad9565b919050565b5f67ffffffffffffffff821115612b3e57612b3d612aac565b5b612b4782612803565b9050602081019050919050565b828183375f83830152505050565b5f612b74612b6f84612b24565b612b0a565b905082815260208101848484011115612b9057612b8f612aa8565b5b612b9b848285612b54565b509392505050565b5f82601f830112612bb757612bb6612aa4565b5b8135612bc7848260208601612b62565b91505092915050565b5f5f60408385031215612be657612be5612720565b5b5f612bf385828601612937565b925050602083013567ffffffffffffffff811115612c1457612c13612724565b5b612c2085828601612ba3565b9150509250929050565b5f819050919050565b612c3c81612c2a565b82525050565b5f602082019050612c555f830184612c33565b92915050565b5f60208284031215612c7057612c6f612720565b5b5f612c7d84828501612937565b91505092915050565b612c8f81612c2a565b8114612c99575f5ffd5b50565b5f81359050612caa81612c86565b92915050565b5f60208284031215612cc557612cc4612720565b5b5f612cd284828501612c9c565b91505092915050565b612ce4816127a8565b8114612cee575f5ffd5b50565b5f81359050612cff81612cdb565b92915050565b5f5f60408385031215612d1b57612d1a612720565b5b5f612d2885828601612937565b9250506020612d3985828601612cf1565b9150509250929050565b5f5f5f5f60808587031215612d5b57612d5a612720565b5b5f612d6887828801612937565b9450506020612d7987828801612937565b9350506040612d8a8782880161288a565b925050606085013567ffffffffffffffff811115612dab57612daa612724565b5b612db787828801612ba3565b91505092959194509250565b5f5f60408385031215612dd957612dd8612720565b5b5f612de685828601612937565b9250506020612df785828601612937565b9150509250929050565b5f67ffffffffffffffff821115612e1b57612e1a612aac565b5b612e2482612803565b9050602081019050919050565b5f612e43612e3e84612e01565b612b0a565b905082815260208101848484011115612e5f57612e5e612aa8565b5b612e6a848285612b54565b509392505050565b5f82601f830112612e8657612e85612aa4565b5b8135612e96848260208601612e31565b91505092915050565b5f5f60408385031215612eb557612eb4612720565b5b5f612ec285828601612937565b925050602083013567ffffffffffffffff811115612ee357612ee2612724565b5b612eef85828601612e72565b9150509250929050565b7f4e487b71000000000000000000000000000000000000000000000000000000005f52602260045260245ffd5b5f6002820490506001821680612f3d57607f821691505b602082108103612f5057612f4f612ef9565b5b50919050565b5f819050919050565b5f819050919050565b5f612f82612f7d612f7884612f56565b612f5f565b612989565b9050919050565b612f9281612f68565b82525050565b5f602082019050612fab5f830184612f89565b92915050565b5f606082019050612fc45f8301866128f9565b612fd16020830185612a7c565b612fde60408301846128f9565b949350505050565b7f526563697069656e7420616464726573732063616e6e6f74206265207a65726f5f82015250565b5f61301a6020836127e5565b915061302582612fe6565b602082019050919050565b5f6020820190508181035f8301526130478161300e565b9050919050565b5f81905092915050565b5f613062826127db565b61306c818561304e565b935061307c8185602086016127f5565b80840191505092915050565b5f6130938285613058565b915061309f8284613058565b91508190509392505050565b7f4f6e6c79206f776e65722063616e2063616c6c20746869732066756e6374696f5f8201527f6e00000000000000000000000000000000000000000000000000000000000000602082015250565b5f6131056021836127e5565b9150613110826130ab565b604082019050919050565b5f6020820190508181035f830152613132816130f9565b9050919050565b7f4e487b71000000000000000000000000000000000000000000000000000000005f52601160045260245ffd5b5f6131708261286b565b91507fffffffffffffffffffffffffffffffffffffffffffffffffffffffffffffffff82036131a2576131a1613139565b5b600182019050919050565b5f6040820190506131c05f8301856128f9565b81810360208301526131d28184612813565b90509392505050565b5f815190506131e981612c86565b92915050565b5f6020828403121561320457613203612720565b5b5f613211848285016131db565b91505092915050565b5f81519050919050565b5f82825260208201905092915050565b5f61323e8261321a565b6132488185613224565b93506132588185602086016127f5565b61326181612803565b840191505092915050565b5f60808201905061327f5f8301876128f9565b61328c60208301866128f9565b6132996040830185612a7c565b81810360608301526132ab8184613234565b905095945050505050565b5f815190506132c481612753565b92915050565b5f602082840312156132df576132de612720565b5b5f6132ec848285016132b6565b91505092915050565b5f819050815f5260205f209050919050565b5f6020601f8301049050919050565b5f82821b905092915050565b5f600883026133517fffffffffffffffffffffffffffffffffffffffffffffffffffffffffffffffff82613316565b61335b8683613316565b95508019841693508086168417925050509392505050565b5f61338d6133886133838461286b565b612f5f565b61286b565b9050919050565b5f819050919050565b6133a683613373565b6133ba6133b282613394565b848454613322565b825550505050565b5f5f905090565b6133d16133c2565b6133dc81848461339d565b505050565b5b818110156133ff576133f45f826133c9565b6001810190506133e2565b5050565b601f82111561344457613415816132f5565b61341e84613307565b8101602085101561342d578190505b61344161343985613307565b8301826133e1565b50505b505050565b5f82821c905092915050565b5f6134645f1984600802613449565b1980831691505092915050565b5f61347c8383613455565b9150826002028217905092915050565b613495826127db565b67ffffffffffffffff8111156134ae576134ad612aac565b5b6134b88254612f26565b6134c3828285613403565b5f60209050601f8311600181146134f4575f84156134e2578287015190505b6134ec8582613471565b865550613553565b601f198416613502866132f5565b5f5b8281101561352957848901518255600182019150602085019450602081019050613504565b868310156135465784890151613542601f891682613455565b8355505b6001600288020188555050505b505050505050565b5f60408201905061356e5f8301856128f9565b61357b6020830184612a7c565b9392505050565b7f4e487b71000000000000000000000000000000000000000000000000000000005f52601260045260245ffd5b5f81905092915050565b5f6135c38261321a565b6135cd81856135af565b93506135dd8185602086016127f5565b80840191505092915050565b5f6135f482846135b9565b91508190509291505056fea26469706673582212209120f84d6bc828d00825e599f561b0e3891526f7f5ce56e17b9bd2a0c251706c64736f6c634300081e0033",
			"opcodes": "PUSH1 0xA0 PUSH1 0x40 MSTORE ADDRESS PUSH20 0xFFFFFFFFFFFFFFFFFFFFFFFFFFFFFFFFFFFFFFFF AND PUSH1 0x80 SWAP1 PUSH20 0xFFFFFFFFFFFFFFFFFFFFFFFFFFFFFFFFFFFFFFFF AND DUP2 MSTORE POP CALLVALUE DUP1 ISZERO PUSH2 0x42 JUMPI PUSH0 PUSH0 REVERT JUMPDEST POP PUSH2 0x51 PUSH2 0x56 PUSH1 0x20 SHL PUSH1 0x20 SHR JUMP JUMPDEST PUSH2 0x1D1 JUMP JUMPDEST PUSH0 PUSH2 0x65 PUSH2 0x154 PUSH1 0x20 SHL PUSH1 0x20 SHR JUMP JUMPDEST SWAP1 POP DUP1 PUSH0 ADD PUSH1 0x8 SWAP1 SLOAD SWAP1 PUSH2 0x100 EXP SWAP1 DIV PUSH1 0xFF AND ISZERO PUSH2 0xAF JUMPI PUSH1 0x40 MLOAD PUSH32 0xF92EE8A900000000000000000000000000000000000000000000000000000000 DUP2 MSTORE PUSH1 0x4 ADD PUSH1 0x40 MLOAD DUP1 SWAP2 SUB SWAP1 REVERT JUMPDEST PUSH8 0xFFFFFFFFFFFFFFFF DUP1 AND DUP2 PUSH0 ADD PUSH0 SWAP1 SLOAD SWAP1 PUSH2 0x100 EXP SWAP1 DIV PUSH8 0xFFFFFFFFFFFFFFFF AND PUSH8 0xFFFFFFFFFFFFFFFF AND EQ PUSH2 0x151 JUMPI PUSH8 0xFFFFFFFFFFFFFFFF DUP2 PUSH0 ADD PUSH0 PUSH2 0x100 EXP DUP2 SLOAD DUP2 PUSH8 0xFFFFFFFFFFFFFFFF MUL NOT AND SWAP1 DUP4 PUSH8 0xFFFFFFFFFFFFFFFF AND MUL OR SWAP1 SSTORE POP PUSH32 0xC7F505B2F371AE2175EE4913F4499E1F2633A7B5936321EED1CDAEB6115181D2 PUSH8 0xFFFFFFFFFFFFFFFF PUSH1 0x40 MLOAD PUSH2 0x148 SWAP2 SWAP1 PUSH2 0x1B8 JUMP JUMPDEST PUSH1 0x40 MLOAD DUP1 SWAP2 SUB SWAP1 LOG1 JUMPDEST POP JUMP JUMPDEST PUSH0 PUSH0 PUSH2 0x164 PUSH2 0x16D PUSH1 0x20 SHL PUSH1 0x20 SHR JUMP JUMPDEST SWAP1 POP DUP1 SWAP2 POP POP SWAP1 JUMP JUMPDEST PUSH0 PUSH32 0xF0C57E16840DF040F15088DC2F81FE391C3923BEC73E23A9662EFC9C229C6A00 PUSH0 SHL SWAP1 POP SWAP1 JUMP JUMPDEST PUSH0 PUSH8 0xFFFFFFFFFFFFFFFF DUP3 AND SWAP1 POP SWAP2 SWAP1 POP JUMP JUMPDEST PUSH2 0x1B2 DUP2 PUSH2 0x196 JUMP JUMPDEST DUP3 MSTORE POP POP JUMP JUMPDEST PUSH0 PUSH1 0x20 DUP3 ADD SWAP1 POP PUSH2 0x1CB PUSH0 DUP4 ADD DUP5 PUSH2 0x1A9 JUMP JUMPDEST SWAP3 SWAP2 POP POP JUMP JUMPDEST PUSH1 0x80 MLOAD PUSH2 0x3635 PUSH2 0x1F7 PUSH0 CODECOPY PUSH0 DUP2 DUP2 PUSH2 0x1544 ADD MSTORE DUP2 DUP2 PUSH2 0x1599 ADD MSTORE PUSH2 0x17DA ADD MSTORE PUSH2 0x3635 PUSH0 RETURN INVALID PUSH1 0x80 PUSH1 0x40 MSTORE PUSH1 0x4 CALLDATASIZE LT PUSH2 0x180 JUMPI PUSH0 CALLDATALOAD PUSH1 0xE0 SHR DUP1 PUSH4 0x70A08231 GT PUSH2 0xD0 JUMPI DUP1 PUSH4 0xAD3CB1CC GT PUSH2 0x89 JUMPI DUP1 PUSH4 0xC87B56DD GT PUSH2 0x63 JUMPI DUP1 PUSH4 0xC87B56DD EQ PUSH2 0x55E JUMPI DUP1 PUSH4 0xCAA0F92A EQ PUSH2 0x59A JUMPI DUP1 PUSH4 0xE985E9C5 EQ PUSH2 0x5C4 JUMPI DUP1 PUSH4 0xEFBA2B49 EQ PUSH2 0x600 JUMPI PUSH2 0x180 JUMP JUMPDEST DUP1 PUSH4 0xAD3CB1CC EQ PUSH2 0x4E2 JUMPI DUP1 PUSH4 0xB2BDFA7B EQ PUSH2 0x50C JUMPI DUP1 PUSH4 0xB88D4FDE EQ PUSH2 0x536 JUMPI PUSH2 0x180 JUMP JUMPDEST DUP1 PUSH4 0x70A08231 EQ PUSH2 0x3C6 JUMPI DUP1 PUSH4 0x88BA16AB EQ PUSH2 0x402 JUMPI DUP1 PUSH4 0x8DA5CB5B EQ PUSH2 0x43E JUMPI DUP1 PUSH4 0x94AB67FE EQ PUSH2 0x468 JUMPI DUP1 PUSH4 0x95D89B41 EQ PUSH2 0x490 JUMPI DUP1 PUSH4 0xA22CB465 EQ PUSH2 0x4BA JUMPI PUSH2 0x180 JUMP JUMPDEST DUP1 PUSH4 0x1798DE81 GT PUSH2 0x13D JUMPI DUP1 PUSH4 0x4A60F620 GT PUSH2 0x117 JUMPI DUP1 PUSH4 0x4A60F620 EQ PUSH2 0x31A JUMPI DUP1 PUSH4 0x4F1EF286 EQ PUSH2 0x344 JUMPI DUP1 PUSH4 0x52D1902D EQ PUSH2 0x360 JUMPI DUP1 PUSH4 0x6352211E EQ PUSH2 0x38A JUMPI PUSH2 0x180 JUMP JUMPDEST DUP1 PUSH4 0x1798DE81 EQ PUSH2 0x2A2 JUMPI DUP1 PUSH4 0x23B872DD EQ PUSH2 0x2CA JUMPI DUP1 PUSH4 0x42842E0E EQ PUSH2 0x2F2 JUMPI PUSH2 0x180 JUMP JUMPDEST DUP1 PUSH4 0x1FFC9A7 EQ PUSH2 0x184 JUMPI DUP1 PUSH4 0x6FDDE03 EQ PUSH2 0x1C0 JUMPI DUP1 PUSH4 0x81812FC EQ PUSH2 0x1EA JUMPI DUP1 PUSH4 0x95EA7B3 EQ PUSH2 0x226 JUMPI DUP1 PUSH4 0xDE22984 EQ PUSH2 0x24E JUMPI DUP1 PUSH4 0x1544298E EQ PUSH2 0x278 JUMPI JUMPDEST PUSH0 PUSH0 REVERT JUMPDEST CALLVALUE DUP1 ISZERO PUSH2 0x18F JUMPI PUSH0 PUSH0 REVERT JUMPDEST POP PUSH2 0x1AA PUSH1 0x4 DUP1 CALLDATASIZE SUB DUP2 ADD SWAP1 PUSH2 0x1A5 SWAP2 SWAP1 PUSH2 0x277D JUMP JUMPDEST PUSH2 0x63C JUMP JUMPDEST PUSH1 0x40 MLOAD PUSH2 0x1B7 SWAP2 SWAP1 PUSH2 0x27C2 JUMP JUMPDEST PUSH1 0x40 MLOAD DUP1 SWAP2 SUB SWAP1 RETURN JUMPDEST CALLVALUE DUP1 ISZERO PUSH2 0x1CB JUMPI PUSH0 PUSH0 REVERT JUMPDEST POP PUSH2 0x1D4 PUSH2 0x64D JUMP JUMPDEST PUSH1 0x40 MLOAD PUSH2 0x1E1 SWAP2 SWAP1 PUSH2 0x284B JUMP JUMPDEST PUSH1 0x40 MLOAD DUP1 SWAP2 SUB SWAP1 RETURN JUMPDEST CALLVALUE DUP1 ISZERO PUSH2 0x1F5 JUMPI PUSH0 PUSH0 REVERT JUMPDEST POP PUSH2 0x210 PUSH1 0x4 DUP1 CALLDATASIZE SUB DUP2 ADD SWAP1 PUSH2 0x20B SWAP2 SWAP1 PUSH2 0x289E JUMP JUMPDEST PUSH2 0x6EA JUMP JUMPDEST PUSH1 0x40 MLOAD PUSH2 0x21D SWAP2 SWAP1 PUSH2 0x2908 JUMP JUMPDEST PUSH1 0x40 MLOAD DUP1 SWAP2 SUB SWAP1 RETURN JUMPDEST CALLVALUE DUP1 ISZERO PUSH2 0x231 JUMPI PUSH0 PUSH0 REVERT JUMPDEST POP PUSH2 0x24C PUSH1 0x4 DUP1 CALLDATASIZE SUB DUP2 ADD SWAP1 PUSH2 0x247 SWAP2 SWAP1 PUSH2 0x294B JUMP JUMPDEST PUSH2 0x705 JUMP JUMPDEST STOP JUMPDEST CALLVALUE DUP1 ISZERO PUSH2 0x259 JUMPI PUSH0 PUSH0 REVERT JUMPDEST POP PUSH2 0x262 PUSH2 0x71B JUMP JUMPDEST PUSH1 0x40 MLOAD PUSH2 0x26F SWAP2 SWAP1 PUSH2 0x2908 JUMP JUMPDEST PUSH1 0x40 MLOAD DUP1 SWAP2 SUB SWAP1 RETURN JUMPDEST CALLVALUE DUP1 ISZERO PUSH2 0x283 JUMPI PUSH0 PUSH0 REVERT JUMPDEST POP PUSH2 0x28C PUSH2 0x73F JUMP JUMPDEST PUSH1 0x40 MLOAD PUSH2 0x299 SWAP2 SWAP1 PUSH2 0x29AB JUMP JUMPDEST PUSH1 0x40 MLOAD DUP1 SWAP2 SUB SWAP1 RETURN JUMPDEST CALLVALUE DUP1 ISZERO PUSH2 0x2AD JUMPI PUSH0 PUSH0 REVERT JUMPDEST POP PUSH2 0x2C8 PUSH1 0x4 DUP1 CALLDATASIZE SUB DUP2 ADD SWAP1 PUSH2 0x2C3 SWAP2 SWAP1 PUSH2 0x29EE JUMP JUMPDEST PUSH2 0x758 JUMP JUMPDEST STOP JUMPDEST CALLVALUE DUP1 ISZERO PUSH2 0x2D5 JUMPI PUSH0 PUSH0 REVERT JUMPDEST POP PUSH2 0x2F0 PUSH1 0x4 DUP1 CALLDATASIZE SUB DUP2 ADD SWAP1 PUSH2 0x2EB SWAP2 SWAP1 PUSH2 0x2A2C JUMP JUMPDEST PUSH2 0x9C5 JUMP JUMPDEST STOP JUMPDEST CALLVALUE DUP1 ISZERO PUSH2 0x2FD JUMPI PUSH0 PUSH0 REVERT JUMPDEST POP PUSH2 0x318 PUSH1 0x4 DUP1 CALLDATASIZE SUB DUP2 ADD SWAP1 PUSH2 0x313 SWAP2 SWAP1 PUSH2 0x2A2C JUMP JUMPDEST PUSH2 0xAC4 JUMP JUMPDEST STOP JUMPDEST CALLVALUE DUP1 ISZERO PUSH2 0x325 JUMPI PUSH0 PUSH0 REVERT JUMPDEST POP PUSH2 0x32E PUSH2 0xAE3 JUMP JUMPDEST PUSH1 0x40 MLOAD PUSH2 0x33B SWAP2 SWAP1 PUSH2 0x2A8B JUMP JUMPDEST PUSH1 0x40 MLOAD DUP1 SWAP2 SUB SWAP1 RETURN JUMPDEST PUSH2 0x35E PUSH1 0x4 DUP1 CALLDATASIZE SUB DUP2 ADD SWAP1 PUSH2 0x359 SWAP2 SWAP1 PUSH2 0x2BD0 JUMP JUMPDEST PUSH2 0xAE9 JUMP JUMPDEST STOP JUMPDEST CALLVALUE DUP1 ISZERO PUSH2 0x36B JUMPI PUSH0 PUSH0 REVERT JUMPDEST POP PUSH2 0x374 PUSH2 0xB08 JUMP JUMPDEST PUSH1 0x40 MLOAD PUSH2 0x381 SWAP2 SWAP1 PUSH2 0x2C42 JUMP JUMPDEST PUSH1 0x40 MLOAD DUP1 SWAP2 SUB SWAP1 RETURN JUMPDEST CALLVALUE DUP1 ISZERO PUSH2 0x395 JUMPI PUSH0 PUSH0 REVERT JUMPDEST POP PUSH2 0x3B0 PUSH1 0x4 DUP1 CALLDATASIZE SUB DUP2 ADD SWAP1 PUSH2 0x3AB SWAP2 SWAP1 PUSH2 0x289E JUMP JUMPDEST PUSH2 0xB39 JUMP JUMPDEST PUSH1 0x40 MLOAD PUSH2 0x3BD SWAP2 SWAP1 PUSH2 0x2908 JUMP JUMPDEST PUSH1 0x40 MLOAD DUP1 SWAP2 SUB SWAP1 RETURN JUMPDEST CALLVALUE DUP1 ISZERO PUSH2 0x3D1 JUMPI PUSH0 PUSH0 REVERT JUMPDEST POP PUSH2 0x3EC PUSH1 0x4 DUP1 CALLDATASIZE SUB DUP2 ADD SWAP1 PUSH2 0x3E7 SWAP2 SWAP1 PUSH2 0x2C5B JUMP JUMPDEST PUSH2 0xB4A JUMP JUMPDEST PUSH1 0x40 MLOAD PUSH2 0x3F9 SWAP2 SWAP1 PUSH2 0x2A8B JUMP JUMPDEST PUSH1 0x40 MLOAD DUP1 SWAP2 SUB SWAP1 RETURN JUMPDEST CALLVALUE DUP1 ISZERO PUSH2 0x40D JUMPI PUSH0 PUSH0 REVERT JUMPDEST POP PUSH2 0x428 PUSH1 0x4 DUP1 CALLDATASIZE SUB DUP2 ADD SWAP1 PUSH2 0x423 SWAP2 SWAP1 PUSH2 0x2CB0 JUMP JUMPDEST PUSH2 0xC0E JUMP JUMPDEST PUSH1 0x40 MLOAD PUSH2 0x435 SWAP2 SWAP1 PUSH2 0x27C2 JUMP JUMPDEST PUSH1 0x40 MLOAD DUP1 SWAP2 SUB SWAP1 RETURN JUMPDEST CALLVALUE DUP1 ISZERO PUSH2 0x449 JUMPI PUSH0 PUSH0 REVERT JUMPDEST POP PUSH2 0x452 PUSH2 0xC2B JUMP JUMPDEST PUSH1 0x40 MLOAD PUSH2 0x45F SWAP2 SWAP1 PUSH2 0x2908 JUMP JUMPDEST PUSH1 0x40 MLOAD DUP1 SWAP2 SUB SWAP1 RETURN JUMPDEST CALLVALUE DUP1 ISZERO PUSH2 0x473 JUMPI PUSH0 PUSH0 REVERT JUMPDEST POP PUSH2 0x48E PUSH1 0x4 DUP1 CALLDATASIZE SUB DUP2 ADD SWAP1 PUSH2 0x489 SWAP2 SWAP1 PUSH2 0x294B JUMP JUMPDEST PUSH2 0xC53 JUMP JUMPDEST STOP JUMPDEST CALLVALUE DUP1 ISZERO PUSH2 0x49B JUMPI PUSH0 PUSH0 REVERT JUMPDEST POP PUSH2 0x4A4 PUSH2 0xCD0 JUMP JUMPDEST PUSH1 0x40 MLOAD PUSH2 0x4B1 SWAP2 SWAP1 PUSH2 0x284B JUMP JUMPDEST PUSH1 0x40 MLOAD DUP1 SWAP2 SUB SWAP1 RETURN JUMPDEST CALLVALUE DUP1 ISZERO PUSH2 0x4C5 JUMPI PUSH0 PUSH0 REVERT JUMPDEST POP PUSH2 0x4E0 PUSH1 0x4 DUP1 CALLDATASIZE SUB DUP2 ADD SWAP1 PUSH2 0x4DB SWAP2 SWAP1 PUSH2 0x2D05 JUMP JUMPDEST PUSH2 0xD6E JUMP JUMPDEST STOP JUMPDEST CALLVALUE DUP1 ISZERO PUSH2 0x4ED JUMPI PUSH0 PUSH0 REVERT JUMPDEST POP PUSH2 0x4F6 PUSH2 0xD84 JUMP JUMPDEST PUSH1 0x40 MLOAD PUSH2 0x503 SWAP2 SWAP1 PUSH2 0x284B JUMP JUMPDEST PUSH1 0x40 MLOAD DUP1 SWAP2 SUB SWAP1 RETURN JUMPDEST CALLVALUE DUP1 ISZERO PUSH2 0x517 JUMPI PUSH0 PUSH0 REVERT JUMPDEST POP PUSH2 0x520 PUSH2 0xDBD JUMP JUMPDEST PUSH1 0x40 MLOAD PUSH2 0x52D SWAP2 SWAP1 PUSH2 0x2908 JUMP JUMPDEST PUSH1 0x40 MLOAD DUP1 SWAP2 SUB SWAP1 RETURN JUMPDEST CALLVALUE DUP1 ISZERO PUSH2 0x541 JUMPI PUSH0 PUSH0 REVERT JUMPDEST POP PUSH2 0x55C PUSH1 0x4 DUP1 CALLDATASIZE SUB DUP2 ADD SWAP1 PUSH2 0x557 SWAP2 SWAP1 PUSH2 0x2D43 JUMP JUMPDEST PUSH2 0xDE2 JUMP JUMPDEST STOP JUMPDEST CALLVALUE DUP1 ISZERO PUSH2 0x569 JUMPI PUSH0 PUSH0 REVERT JUMPDEST POP PUSH2 0x584 PUSH1 0x4 DUP1 CALLDATASIZE SUB DUP2 ADD SWAP1 PUSH2 0x57F SWAP2 SWAP1 PUSH2 0x289E JUMP JUMPDEST PUSH2 0xE07 JUMP JUMPDEST PUSH1 0x40 MLOAD PUSH2 0x591 SWAP2 SWAP1 PUSH2 0x284B JUMP JUMPDEST PUSH1 0x40 MLOAD DUP1 SWAP2 SUB SWAP1 RETURN JUMPDEST CALLVALUE DUP1 ISZERO PUSH2 0x5A5 JUMPI PUSH0 PUSH0 REVERT JUMPDEST POP PUSH2 0x5AE PUSH2 0xF21 JUMP JUMPDEST PUSH1 0x40 MLOAD PUSH2 0x5BB SWAP2 SWAP1 PUSH2 0x2A8B JUMP JUMPDEST PUSH1 0x40 MLOAD DUP1 SWAP2 SUB SWAP1 RETURN JUMPDEST CALLVALUE DUP1 ISZERO PUSH2 0x5CF JUMPI PUSH0 PUSH0 REVERT JUMPDEST POP PUSH2 0x5EA PUSH1 0x4 DUP1 CALLDATASIZE SUB DUP2 ADD SWAP1 PUSH2 0x5E5 SWAP2 SWAP1 PUSH2 0x2DC3 JUMP JUMPDEST PUSH2 0xF2A JUMP JUMPDEST PUSH1 0x40 MLOAD PUSH2 0x5F7 SWAP2 SWAP1 PUSH2 0x27C2 JUMP JUMPDEST PUSH1 0x40 MLOAD DUP1 SWAP2 SUB SWAP1 RETURN JUMPDEST CALLVALUE DUP1 ISZERO PUSH2 0x60B JUMPI PUSH0 PUSH0 REVERT JUMPDEST POP PUSH2 0x626 PUSH1 0x4 DUP1 CALLDATASIZE SUB DUP2 ADD SWAP1 PUSH2 0x621 SWAP2 SWAP1 PUSH2 0x2E9F JUMP JUMPDEST PUSH2 0xFC6 JUMP JUMPDEST PUSH1 0x40 MLOAD PUSH2 0x633 SWAP2 SWAP1 PUSH2 0x2A8B JUMP JUMPDEST PUSH1 0x40 MLOAD DUP1 SWAP2 SUB SWAP1 RETURN JUMPDEST PUSH0 PUSH2 0x646 DUP3 PUSH2 0x1132 JUMP JUMPDEST SWAP1 POP SWAP2 SWAP1 POP JUMP JUMPDEST PUSH1 0x60 PUSH0 PUSH2 0x658 PUSH2 0x119B JUMP JUMPDEST SWAP1 POP DUP1 PUSH0 ADD DUP1 SLOAD PUSH2 0x668 SWAP1 PUSH2 0x2F26 JUMP JUMPDEST DUP1 PUSH1 0x1F ADD PUSH1 0x20 DUP1 SWAP2 DIV MUL PUSH1 0x20 ADD PUSH1 0x40 MLOAD SWAP1 DUP2 ADD PUSH1 0x40 MSTORE DUP1 SWAP3 SWAP2 SWAP1 DUP2 DUP2 MSTORE PUSH1 0x20 ADD DUP3 DUP1 SLOAD PUSH2 0x694 SWAP1 PUSH2 0x2F26 JUMP JUMPDEST DUP1 ISZERO PUSH2 0x6DF JUMPI DUP1 PUSH1 0x1F LT PUSH2 0x6B6 JUMPI PUSH2 0x100 DUP1 DUP4 SLOAD DIV MUL DUP4 MSTORE SWAP2 PUSH1 0x20 ADD SWAP2 PUSH2 0x6DF JUMP JUMPDEST DUP3 ADD SWAP2 SWAP1 PUSH0 MSTORE PUSH1 0x20 PUSH0 KECCAK256 SWAP1 JUMPDEST DUP2 SLOAD DUP2 MSTORE SWAP1 PUSH1 0x1 ADD SWAP1 PUSH1 0x20 ADD DUP1 DUP4 GT PUSH2 0x6C2 JUMPI DUP3 SWAP1 SUB PUSH1 0x1F AND DUP3 ADD SWAP2 JUMPDEST POP POP POP POP POP SWAP2 POP POP SWAP1 JUMP JUMPDEST PUSH0 PUSH2 0x6F4 DUP3 PUSH2 0x11C2 JUMP JUMPDEST POP PUSH2 0x6FE DUP3 PUSH2 0x1248 JUMP JUMPDEST SWAP1 POP SWAP2 SWAP1 POP JUMP JUMPDEST PUSH2 0x717 DUP3 DUP3 PUSH2 0x712 PUSH2 0x128F JUMP JUMPDEST PUSH2 0x1296 JUMP JUMPDEST POP POP JUMP JUMPDEST PUSH0 PUSH0 SWAP1 SLOAD SWAP1 PUSH2 0x100 EXP SWAP1 DIV PUSH20 0xFFFFFFFFFFFFFFFFFFFFFFFFFFFFFFFFFFFFFFFF AND DUP2 JUMP JUMPDEST PUSH0 PUSH1 0x14 SWAP1 SLOAD SWAP1 PUSH2 0x100 EXP SWAP1 DIV PUSH8 0xFFFFFFFFFFFFFFFF AND DUP2 JUMP JUMPDEST PUSH0 PUSH2 0x761 PUSH2 0x12A8 JUMP JUMPDEST SWAP1 POP PUSH0 DUP2 PUSH0 ADD PUSH1 0x8 SWAP1 SLOAD SWAP1 PUSH2 0x100 EXP SWAP1 DIV PUSH1 0xFF AND ISZERO SWAP1 POP PUSH0 DUP3 PUSH0 ADD PUSH0 SWAP1 SLOAD SWAP1 PUSH2 0x100 EXP SWAP1 DIV PUSH8 0xFFFFFFFFFFFFFFFF AND SWAP1 POP PUSH0 PUSH0 DUP3 PUSH8 0xFFFFFFFFFFFFFFFF AND EQ DUP1 ISZERO PUSH2 0x7A9 JUMPI POP DUP3 JUMPDEST SWAP1 POP PUSH0 PUSH1 0x1 DUP4 PUSH8 0xFFFFFFFFFFFFFFFF AND EQ DUP1 ISZERO PUSH2 0x7DC JUMPI POP PUSH0 ADDRESS PUSH20 0xFFFFFFFFFFFFFFFFFFFFFFFFFFFFFFFFFFFFFFFF AND EXTCODESIZE EQ JUMPDEST SWAP1 POP DUP2 ISZERO DUP1 ISZERO PUSH2 0x7EA JUMPI POP DUP1 ISZERO JUMPDEST ISZERO PUSH2 0x821 JUMPI PUSH1 0x40 MLOAD PUSH32 0xF92EE8A900000000000000000000000000000000000000000000000000000000 DUP2 MSTORE PUSH1 0x4 ADD PUSH1 0x40 MLOAD DUP1 SWAP2 SUB SWAP1 REVERT JUMPDEST PUSH1 0x1 DUP6 PUSH0 ADD PUSH0 PUSH2 0x100 EXP DUP2 SLOAD DUP2 PUSH8 0xFFFFFFFFFFFFFFFF MUL NOT AND SWAP1 DUP4 PUSH8 0xFFFFFFFFFFFFFFFF AND MUL OR SWAP1 SSTORE POP DUP4 ISZERO PUSH2 0x86E JUMPI PUSH1 0x1 DUP6 PUSH0 ADD PUSH1 0x8 PUSH2 0x100 EXP DUP2 SLOAD DUP2 PUSH1 0xFF MUL NOT AND SWAP1 DUP4 ISZERO ISZERO MUL OR SWAP1 SSTORE POP JUMPDEST PUSH2 0x8E2 PUSH1 0x40 MLOAD DUP1 PUSH1 0x40 ADD PUSH1 0x40 MSTORE DUP1 PUSH1 0x8 DUP2 MSTORE PUSH1 0x20 ADD PUSH32 0x4D794D61726B6574000000000000000000000000000000000000000000000000 DUP2 MSTORE POP PUSH1 0x40 MLOAD DUP1 PUSH1 0x40 ADD PUSH1 0x40 MSTORE DUP1 PUSH1 0x3 DUP2 MSTORE PUSH1 0x20 ADD PUSH32 0x4D4D4B0000000000000000000000000000000000000000000000000000000000 DUP2 MSTORE POP PUSH2 0x12BB JUMP JUMPDEST PUSH2 0x8EA PUSH2 0x12D1 JUMP JUMPDEST PUSH2 0x8F3 DUP8 PUSH2 0x12DB JUMP JUMPDEST CALLER PUSH1 0x2 PUSH0 PUSH2 0x100 EXP DUP2 SLOAD DUP2 PUSH20 0xFFFFFFFFFFFFFFFFFFFFFFFFFFFFFFFFFFFFFFFF MUL NOT AND SWAP1 DUP4 PUSH20 0xFFFFFFFFFFFFFFFFFFFFFFFFFFFFFFFFFFFFFFFF AND MUL OR SWAP1 SSTORE POP DUP6 PUSH0 PUSH1 0x14 PUSH2 0x100 EXP DUP2 SLOAD DUP2 PUSH8 0xFFFFFFFFFFFFFFFF MUL NOT AND SWAP1 DUP4 PUSH8 0xFFFFFFFFFFFFFFFF AND MUL OR SWAP1 SSTORE POP PUSH0 PUSH1 0x1 DUP2 SWAP1 SSTORE POP DUP4 ISZERO PUSH2 0x9BC JUMPI PUSH0 DUP6 PUSH0 ADD PUSH1 0x8 PUSH2 0x100 EXP DUP2 SLOAD DUP2 PUSH1 0xFF MUL NOT AND SWAP1 DUP4 ISZERO ISZERO MUL OR SWAP1 SSTORE POP PUSH32 0xC7F505B2F371AE2175EE4913F4499E1F2633A7B5936321EED1CDAEB6115181D2 PUSH1 0x1 PUSH1 0x40 MLOAD PUSH2 0x9B3 SWAP2 SWAP1 PUSH2 0x2F98 JUMP JUMPDEST PUSH1 0x40 MLOAD DUP1 SWAP2 SUB SWAP1 LOG1 JUMPDEST POP POP POP POP POP POP POP JUMP JUMPDEST PUSH0 PUSH20 0xFFFFFFFFFFFFFFFFFFFFFFFFFFFFFFFFFFFFFFFF AND DUP3 PUSH20 0xFFFFFFFFFFFFFFFFFFFFFFFFFFFFFFFFFFFFFFFF AND SUB PUSH2 0xA35 JUMPI PUSH0 PUSH1 0x40 MLOAD PUSH32 0x64A0AE9200000000000000000000000000000000000000000000000000000000 DUP2 MSTORE PUSH1 0x4 ADD PUSH2 0xA2C SWAP2 SWAP1 PUSH2 0x2908 JUMP JUMPDEST PUSH1 0x40 MLOAD DUP1 SWAP2 SUB SWAP1 REVERT JUMPDEST PUSH0 PUSH2 0xA48 DUP4 DUP4 PUSH2 0xA43 PUSH2 0x128F JUMP JUMPDEST PUSH2 0x1325 JUMP JUMPDEST SWAP1 POP DUP4 PUSH20 0xFFFFFFFFFFFFFFFFFFFFFFFFFFFFFFFFFFFFFFFF AND DUP2 PUSH20 0xFFFFFFFFFFFFFFFFFFFFFFFFFFFFFFFFFFFFFFFF AND EQ PUSH2 0xABE JUMPI DUP4 DUP3 DUP3 PUSH1 0x40 MLOAD PUSH32 0x64283D7B00000000000000000000000000000000000000000000000000000000 DUP2 MSTORE PUSH1 0x4 ADD PUSH2 0xAB5 SWAP4 SWAP3 SWAP2 SWAP1 PUSH2 0x2FB1 JUMP JUMPDEST PUSH1 0x40 MLOAD DUP1 SWAP2 SUB SWAP1 REVERT JUMPDEST POP POP POP POP JUMP JUMPDEST PUSH2 0xADE DUP4 DUP4 DUP4 PUSH1 0x40 MLOAD DUP1 PUSH1 0x20 ADD PUSH1 0x40 MSTORE DUP1 PUSH0 DUP2 MSTORE POP PUSH2 0xDE2 JUMP JUMPDEST POP POP POP JUMP JUMPDEST PUSH1 0x1 SLOAD DUP2 JUMP JUMPDEST PUSH2 0xAF1 PUSH2 0x1542 JUMP JUMPDEST PUSH2 0xAFA DUP3 PUSH2 0x1628 JUMP JUMPDEST PUSH2 0xB04 DUP3 DUP3 PUSH2 0x16BA JUMP JUMPDEST POP POP JUMP JUMPDEST PUSH0 PUSH2 0xB11 PUSH2 0x17D8 JUMP JUMPDEST PUSH32 0x360894A13BA1A3210667C828492DB98DCA3E2076CC3735A920A3CA505D382BBC PUSH0 SHL SWAP1 POP SWAP1 JUMP JUMPDEST PUSH0 PUSH2 0xB43 DUP3 PUSH2 0x11C2 JUMP JUMPDEST SWAP1 POP SWAP2 SWAP1 POP JUMP JUMPDEST PUSH0 PUSH0 PUSH2 0xB54 PUSH2 0x119B JUMP JUMPDEST SWAP1 POP PUSH0 PUSH20 0xFFFFFFFFFFFFFFFFFFFFFFFFFFFFFFFFFFFFFFFF AND DUP4 PUSH20 0xFFFFFFFFFFFFFFFFFFFFFFFFFFFFFFFFFFFFFFFF AND SUB PUSH2 0xBC6 JUMPI PUSH0 PUSH1 0x40 MLOAD PUSH32 0x89C62B6400000000000000000000000000000000000000000000000000000000 DUP2 MSTORE PUSH1 0x4 ADD PUSH2 0xBBD SWAP2 SWAP1 PUSH2 0x2908 JUMP JUMPDEST PUSH1 0x40 MLOAD DUP1 SWAP2 SUB SWAP1 REVERT JUMPDEST DUP1 PUSH1 0x3 ADD PUSH0 DUP5 PUSH20 0xFFFFFFFFFFFFFFFFFFFFFFFFFFFFFFFFFFFFFFFF AND PUSH20 0xFFFFFFFFFFFFFFFFFFFFFFFFFFFFFFFFFFFFFFFF AND DUP2 MSTORE PUSH1 0x20 ADD SWAP1 DUP2 MSTORE PUSH1 0x20 ADD PUSH0 KECCAK256 SLOAD SWAP2 POP POP SWAP2 SWAP1 POP JUMP JUMPDEST PUSH1 0x3 PUSH1 0x20 MSTORE DUP1 PUSH0 MSTORE PUSH1 0x40 PUSH0 KECCAK256 PUSH0 SWAP2 POP SLOAD SWAP1 PUSH2 0x100 EXP SWAP1 DIV PUSH1 0xFF AND DUP2 JUMP JUMPDEST PUSH0 PUSH1 0x2 PUSH0 SWAP1 SLOAD SWAP1 PUSH2 0x100 EXP SWAP1 DIV PUSH20 0xFFFFFFFFFFFFFFFFFFFFFFFFFFFFFFFFFFFFFFFF AND SWAP1 POP SWAP1 JUMP JUMPDEST PUSH0 PUSH20 0xFFFFFFFFFFFFFFFFFFFFFFFFFFFFFFFFFFFFFFFF AND DUP3 PUSH20 0xFFFFFFFFFFFFFFFFFFFFFFFFFFFFFFFFFFFFFFFF AND SUB PUSH2 0xCC1 JUMPI PUSH1 0x40 MLOAD PUSH32 0x8C379A000000000000000000000000000000000000000000000000000000000 DUP2 MSTORE PUSH1 0x4 ADD PUSH2 0xCB8 SWAP1 PUSH2 0x3030 JUMP JUMPDEST PUSH1 0x40 MLOAD DUP1 SWAP2 SUB SWAP1 REVERT JUMPDEST PUSH2 0xCCC CALLER DUP4 DUP4 PUSH2 0xAC4 JUMP JUMPDEST POP POP JUMP JUMPDEST PUSH1 0x60 PUSH0 PUSH2 0xCDB PUSH2 0x119B JUMP JUMPDEST SWAP1 POP DUP1 PUSH1 0x1 ADD DUP1 SLOAD PUSH2 0xCEC SWAP1 PUSH2 0x2F26 JUMP JUMPDEST DUP1 PUSH1 0x1F ADD PUSH1 0x20 DUP1 SWAP2 DIV MUL PUSH1 0x20 ADD PUSH1 0x40 MLOAD SWAP1 DUP2 ADD PUSH1 0x40 MSTORE DUP1 SWAP3 SWAP2 SWAP1 DUP2 DUP2 MSTORE PUSH1 0x20 ADD DUP3 DUP1 SLOAD PUSH2 0xD18 SWAP1 PUSH2 0x2F26 JUMP JUMPDEST DUP1 ISZERO PUSH2 0xD63 JUMPI DUP1 PUSH1 0x1F LT PUSH2 0xD3A JUMPI PUSH2 0x100 DUP1 DUP4 SLOAD DIV MUL DUP4 MSTORE SWAP2 PUSH1 0x20 ADD SWAP2 PUSH2 0xD63 JUMP JUMPDEST DUP3 ADD SWAP2 SWAP1 PUSH0 MSTORE PUSH1 0x20 PUSH0 KECCAK256 SWAP1 JUMPDEST DUP2 SLOAD DUP2 MSTORE SWAP1 PUSH1 0x1 ADD SWAP1 PUSH1 0x20 ADD DUP1 DUP4 GT PUSH2 0xD46 JUMPI DUP3 SWAP1 SUB PUSH1 0x1F AND DUP3 ADD SWAP2 JUMPDEST POP POP POP POP POP SWAP2 POP POP SWAP1 JUMP JUMPDEST PUSH2 0xD80 PUSH2 0xD79 PUSH2 0x128F JUMP JUMPDEST DUP4 DUP4 PUSH2 0x185F JUMP JUMPDEST POP POP JUMP JUMPDEST PUSH1 0x40 MLOAD DUP1 PUSH1 0x40 ADD PUSH1 0x40 MSTORE DUP1 PUSH1 0x5 DUP2 MSTORE PUSH1 0x20 ADD PUSH32 0x352E302E30000000000000000000000000000000000000000000000000000000 DUP2 MSTORE POP DUP2 JUMP JUMPDEST PUSH1 0x2 PUSH0 SWAP1 SLOAD SWAP1 PUSH2 0x100 EXP SWAP1 DIV PUSH20 0xFFFFFFFFFFFFFFFFFFFFFFFFFFFFFFFFFFFFFFFF AND DUP2 JUMP JUMPDEST PUSH2 0xDED DUP5 DUP5 DUP5 PUSH2 0x9C5 JUMP JUMPDEST PUSH2 0xE01 PUSH2 0xDF8 PUSH2 0x128F JUMP JUMPDEST DUP6 DUP6 DUP6 DUP6 PUSH2 0x19D6 JUMP JUMPDEST POP POP POP POP JUMP JUMPDEST PUSH1 0x60 PUSH0 PUSH2 0xE12 PUSH2 0x1B82 JUMP JUMPDEST SWAP1 POP PUSH2 0xE1D DUP4 PUSH2 0x11C2 JUMP JUMPDEST POP PUSH0 DUP2 PUSH0 ADD PUSH0 DUP6 DUP2 MSTORE PUSH1 0x20 ADD SWAP1 DUP2 MSTORE PUSH1 0x20 ADD PUSH0 KECCAK256 DUP1 SLOAD PUSH2 0xE3C SWAP1 PUSH2 0x2F26 JUMP JUMPDEST DUP1 PUSH1 0x1F ADD PUSH1 0x20 DUP1 SWAP2 DIV MUL PUSH1 0x20 ADD PUSH1 0x40 MLOAD SWAP1 DUP2 ADD PUSH1 0x40 MSTORE DUP1 SWAP3 SWAP2 SWAP1 DUP2 DUP2 MSTORE PUSH1 0x20 ADD DUP3 DUP1 SLOAD PUSH2 0xE68 SWAP1 PUSH2 0x2F26 JUMP JUMPDEST DUP1 ISZERO PUSH2 0xEB3 JUMPI DUP1 PUSH1 0x1F LT PUSH2 0xE8A JUMPI PUSH2 0x100 DUP1 DUP4 SLOAD DIV MUL DUP4 MSTORE SWAP2 PUSH1 0x20 ADD SWAP2 PUSH2 0xEB3 JUMP JUMPDEST DUP3 ADD SWAP2 SWAP1 PUSH0 MSTORE PUSH1 0x20 PUSH0 KECCAK256 SWAP1 JUMPDEST DUP2 SLOAD DUP2 MSTORE SWAP1 PUSH1 0x1 ADD SWAP1 PUSH1 0x20 ADD DUP1 DUP4 GT PUSH2 0xE96 JUMPI DUP3 SWAP1 SUB PUSH1 0x1F AND DUP3 ADD SWAP2 JUMPDEST POP POP POP POP POP SWAP1 POP PUSH0 PUSH2 0xEC3 PUSH2 0x1BA9 JUMP JUMPDEST SWAP1 POP PUSH0 DUP2 MLOAD SUB PUSH2 0xED8 JUMPI DUP2 SWAP4 POP POP POP POP PUSH2 0xF1C JUMP JUMPDEST PUSH0 DUP3 MLOAD GT ISZERO PUSH2 0xF0D JUMPI DUP1 DUP3 PUSH1 0x40 MLOAD PUSH1 0x20 ADD PUSH2 0xEF4 SWAP3 SWAP2 SWAP1 PUSH2 0x3088 JUMP JUMPDEST PUSH1 0x40 MLOAD PUSH1 0x20 DUP2 DUP4 SUB SUB DUP2 MSTORE SWAP1 PUSH1 0x40 MSTORE SWAP4 POP POP POP POP PUSH2 0xF1C JUMP JUMPDEST PUSH2 0xF16 DUP6 PUSH2 0x1BBF JUMP JUMPDEST SWAP4 POP POP POP POP JUMPDEST SWAP2 SWAP1 POP JUMP JUMPDEST PUSH0 PUSH1 0x1 SLOAD SWAP1 POP SWAP1 JUMP JUMPDEST PUSH0 PUSH0 PUSH2 0xF34 PUSH2 0x119B JUMP JUMPDEST SWAP1 POP DUP1 PUSH1 0x5 ADD PUSH0 DUP6 PUSH20 0xFFFFFFFFFFFFFFFFFFFFFFFFFFFFFFFFFFFFFFFF AND PUSH20 0xFFFFFFFFFFFFFFFFFFFFFFFFFFFFFFFFFFFFFFFF AND DUP2 MSTORE PUSH1 0x20 ADD SWAP1 DUP2 MSTORE PUSH1 0x20 ADD PUSH0 KECCAK256 PUSH0 DUP5 PUSH20 0xFFFFFFFFFFFFFFFFFFFFFFFFFFFFFFFFFFFFFFFF AND PUSH20 0xFFFFFFFFFFFFFFFFFFFFFFFFFFFFFFFFFFFFFFFF AND DUP2 MSTORE PUSH1 0x20 ADD SWAP1 DUP2 MSTORE PUSH1 0x20 ADD PUSH0 KECCAK256 PUSH0 SWAP1 SLOAD SWAP1 PUSH2 0x100 EXP SWAP1 DIV PUSH1 0xFF AND SWAP2 POP POP SWAP3 SWAP2 POP POP JUMP JUMPDEST PUSH0 PUSH1 0x2 PUSH0 SWAP1 SLOAD SWAP1 PUSH2 0x100 EXP SWAP1 DIV PUSH20 0xFFFFFFFFFFFFFFFFFFFFFFFFFFFFFFFFFFFFFFFF AND PUSH20 0xFFFFFFFFFFFFFFFFFFFFFFFFFFFFFFFFFFFFFFFF AND CALLER PUSH20 0xFFFFFFFFFFFFFFFFFFFFFFFFFFFFFFFFFFFFFFFF AND EQ PUSH2 0x1056 JUMPI PUSH1 0x40 MLOAD PUSH32 0x8C379A000000000000000000000000000000000000000000000000000000000 DUP2 MSTORE PUSH1 0x4 ADD PUSH2 0x104D SWAP1 PUSH2 0x311B JUMP JUMPDEST PUSH1 0x40 MLOAD DUP1 SWAP2 SUB SWAP1 REVERT JUMPDEST PUSH0 PUSH20 0xFFFFFFFFFFFFFFFFFFFFFFFFFFFFFFFFFFFFFFFF AND DUP4 PUSH20 0xFFFFFFFFFFFFFFFFFFFFFFFFFFFFFFFFFFFFFFFF AND SUB PUSH2 0x10C4 JUMPI PUSH1 0x40 MLOAD PUSH32 0x8C379A000000000000000000000000000000000000000000000000000000000 DUP2 MSTORE PUSH1 0x4 ADD PUSH2 0x10BB SWAP1 PUSH2 0x3030 JUMP JUMPDEST PUSH1 0x40 MLOAD DUP1 SWAP2 SUB SWAP1 REVERT JUMPDEST PUSH0 PUSH1 0x1 PUSH0 DUP2 SLOAD PUSH2 0x10D3 SWAP1 PUSH2 0x3166 JUMP JUMPDEST SWAP2 SWAP1 POP DUP2 SWAP1 SSTORE SWAP1 POP PUSH2 0x10E5 DUP5 DUP3 PUSH2 0x1C25 JUMP JUMPDEST PUSH2 0x10EF DUP2 DUP5 PUSH2 0x1D18 JUMP JUMPDEST PUSH32 0xDEE31B461073185F1B22D811627E966C74844680EEAD825CCEF5308C8990E74E DUP5 DUP5 PUSH1 0x40 MLOAD PUSH2 0x1120 SWAP3 SWAP2 SWAP1 PUSH2 0x31AD JUMP JUMPDEST PUSH1 0x40 MLOAD DUP1 SWAP2 SUB SWAP1 LOG1 DUP1 SWAP2 POP POP SWAP3 SWAP2 POP POP JUMP JUMPDEST PUSH0 PUSH32 0x345C9FFD00000000000000000000000000000000000000000000000000000000 PUSH28 0xFFFFFFFFFFFFFFFFFFFFFFFFFFFFFFFFFFFFFFFFFFFFFFFFFFFFFFFF NOT AND DUP3 PUSH28 0xFFFFFFFFFFFFFFFFFFFFFFFFFFFFFFFFFFFFFFFFFFFFFFFFFFFFFFFF NOT AND EQ SWAP1 POP SWAP2 SWAP1 POP JUMP JUMPDEST PUSH0 PUSH32 0x80BB2B638CC20BC4D0A60D66940F3AB4A00C1D7B313497CA82FB0B4AB0079300 SWAP1 POP SWAP1 JUMP JUMPDEST PUSH0 PUSH0 PUSH2 0x11CD DUP4 PUSH2 0x1D7F JUMP JUMPDEST SWAP1 POP PUSH0 PUSH20 0xFFFFFFFFFFFFFFFFFFFFFFFFFFFFFFFFFFFFFFFF AND DUP2 PUSH20 0xFFFFFFFFFFFFFFFFFFFFFFFFFFFFFFFFFFFFFFFF AND SUB PUSH2 0x123F JUMPI DUP3 PUSH1 0x40 MLOAD PUSH32 0x7E27328900000000000000000000000000000000000000000000000000000000 DUP2 MSTORE PUSH1 0x4 ADD PUSH2 0x1236 SWAP2 SWAP1 PUSH2 0x2A8B JUMP JUMPDEST PUSH1 0x40 MLOAD DUP1 SWAP2 SUB SWAP1 REVERT JUMPDEST DUP1 SWAP2 POP POP SWAP2 SWAP1 POP JUMP JUMPDEST PUSH0 PUSH0 PUSH2 0x1252 PUSH2 0x119B JUMP JUMPDEST SWAP1 POP DUP1 PUSH1 0x4 ADD PUSH0 DUP5 DUP2 MSTORE PUSH1 0x20 ADD SWAP1 DUP2 MSTORE PUSH1 0x20 ADD PUSH0 KECCAK256 PUSH0 SWAP1 SLOAD SWAP1 PUSH2 0x100 EXP SWAP1 DIV PUSH20 0xFFFFFFFFFFFFFFFFFFFFFFFFFFFFFFFFFFFFFFFF AND SWAP2 POP POP SWAP2 SWAP1 POP JUMP JUMPDEST PUSH0 CALLER SWAP1 POP SWAP1 JUMP JUMPDEST PUSH2 0x12A3 DUP4 DUP4 DUP4 PUSH1 0x1 PUSH2 0x1DC6 JUMP JUMPDEST POP POP POP JUMP JUMPDEST PUSH0 PUSH0 PUSH2 0x12B2 PUSH2 0x1F93 JUMP JUMPDEST SWAP1 POP DUP1 SWAP2 POP POP SWAP1 JUMP JUMPDEST PUSH2 0x12C3 PUSH2 0x1FBC JUMP JUMPDEST PUSH2 0x12CD DUP3 DUP3 PUSH2 0x1FFC JUMP JUMPDEST POP POP JUMP JUMPDEST PUSH2 0x12D9 PUSH2 0x1FBC JUMP JUMPDEST JUMP JUMPDEST PUSH2 0x12E3 PUSH2 0x1FBC JUMP JUMPDEST DUP1 PUSH0 PUSH0 PUSH2 0x100 EXP DUP2 SLOAD DUP2 PUSH20 0xFFFFFFFFFFFFFFFFFFFFFFFFFFFFFFFFFFFFFFFF MUL NOT AND SWAP1 DUP4 PUSH20 0xFFFFFFFFFFFFFFFFFFFFFFFFFFFFFFFFFFFFFFFF AND MUL OR SWAP1 SSTORE POP POP JUMP JUMPDEST PUSH0 PUSH0 PUSH2 0x132F PUSH2 0x119B JUMP JUMPDEST SWAP1 POP PUSH0 PUSH2 0x133B DUP6 PUSH2 0x1D7F JUMP JUMPDEST SWAP1 POP PUSH0 PUSH20 0xFFFFFFFFFFFFFFFFFFFFFFFFFFFFFFFFFFFFFFFF AND DUP5 PUSH20 0xFFFFFFFFFFFFFFFFFFFFFFFFFFFFFFFFFFFFFFFF AND EQ PUSH2 0x137C JUMPI PUSH2 0x137B DUP2 DUP6 DUP8 PUSH2 0x2037 JUMP JUMPDEST JUMPDEST PUSH0 PUSH20 0xFFFFFFFFFFFFFFFFFFFFFFFFFFFFFFFFFFFFFFFF AND DUP2 PUSH20 0xFFFFFFFFFFFFFFFFFFFFFFFFFFFFFFFFFFFFFFFF AND EQ PUSH2 0x1409 JUMPI PUSH2 0x13BB PUSH0 DUP7 PUSH0 PUSH0 PUSH2 0x1DC6 JUMP JUMPDEST PUSH1 0x1 DUP3 PUSH1 0x3 ADD PUSH0 DUP4 PUSH20 0xFFFFFFFFFFFFFFFFFFFFFFFFFFFFFFFFFFFFFFFF AND PUSH20 0xFFFFFFFFFFFFFFFFFFFFFFFFFFFFFFFFFFFFFFFF AND DUP2 MSTORE PUSH1 0x20 ADD SWAP1 DUP2 MSTORE PUSH1 0x20 ADD PUSH0 KECCAK256 PUSH0 DUP3 DUP3 SLOAD SUB SWAP3 POP POP DUP2 SWAP1 SSTORE POP JUMPDEST PUSH0 PUSH20 0xFFFFFFFFFFFFFFFFFFFFFFFFFFFFFFFFFFFFFFFF AND DUP7 PUSH20 0xFFFFFFFFFFFFFFFFFFFFFFFFFFFFFFFFFFFFFFFF AND EQ PUSH2 0x148A JUMPI PUSH1 0x1 DUP3 PUSH1 0x3 ADD PUSH0 DUP9 PUSH20 0xFFFFFFFFFFFFFFFFFFFFFFFFFFFFFFFFFFFFFFFF AND PUSH20 0xFFFFFFFFFFFFFFFFFFFFFFFFFFFFFFFFFFFFFFFF AND DUP2 MSTORE PUSH1 0x20 ADD SWAP1 DUP2 MSTORE PUSH1 0x20 ADD PUSH0 KECCAK256 PUSH0 DUP3 DUP3 SLOAD ADD SWAP3 POP POP DUP2 SWAP1 SSTORE POP JUMPDEST DUP6 DUP3 PUSH1 0x2 ADD PUSH0 DUP8 DUP2 MSTORE PUSH1 0x20 ADD SWAP1 DUP2 MSTORE PUSH1 0x20 ADD PUSH0 KECCAK256 PUSH0 PUSH2 0x100 EXP DUP2 SLOAD DUP2 PUSH20 0xFFFFFFFFFFFFFFFFFFFFFFFFFFFFFFFFFFFFFFFF MUL NOT AND SWAP1 DUP4 PUSH20 0xFFFFFFFFFFFFFFFFFFFFFFFFFFFFFFFFFFFFFFFF AND MUL OR SWAP1 SSTORE POP DUP5 DUP7 PUSH20 0xFFFFFFFFFFFFFFFFFFFFFFFFFFFFFFFFFFFFFFFF AND DUP3 PUSH20 0xFFFFFFFFFFFFFFFFFFFFFFFFFFFFFFFFFFFFFFFF AND PUSH32 0xDDF252AD1BE2C89B69C2B068FC378DAA952BA7F163C4A11628F55A4DF523B3EF PUSH1 0x40 MLOAD PUSH1 0x40 MLOAD DUP1 SWAP2 SUB SWAP1 LOG4 DUP1 SWAP3 POP POP POP SWAP4 SWAP3 POP POP POP JUMP JUMPDEST PUSH32 0x0 PUSH20 0xFFFFFFFFFFFFFFFFFFFFFFFFFFFFFFFFFFFFFFFF AND ADDRESS PUSH20 0xFFFFFFFFFFFFFFFFFFFFFFFFFFFFFFFFFFFFFFFF AND EQ DUP1 PUSH2 0x15EF JUMPI POP PUSH32 0x0 PUSH20 0xFFFFFFFFFFFFFFFFFFFFFFFFFFFFFFFFFFFFFFFF AND PUSH2 0x15D6 PUSH2 0x20FA JUMP JUMPDEST PUSH20 0xFFFFFFFFFFFFFFFFFFFFFFFFFFFFFFFFFFFFFFFF AND EQ ISZERO JUMPDEST ISZERO PUSH2 0x1626 JUMPI PUSH1 0x40 MLOAD PUSH32 0xE07C8DBA00000000000000000000000000000000000000000000000000000000 DUP2 MSTORE PUSH1 0x4 ADD PUSH1 0x40 MLOAD DUP1 SWAP2 SUB SWAP1 REVERT JUMPDEST JUMP JUMPDEST PUSH1 0x2 PUSH0 SWAP1 SLOAD SWAP1 PUSH2 0x100 EXP SWAP1 DIV PUSH20 0xFFFFFFFFFFFFFFFFFFFFFFFFFFFFFFFFFFFFFFFF AND PUSH20 0xFFFFFFFFFFFFFFFFFFFFFFFFFFFFFFFFFFFFFFFF AND CALLER PUSH20 0xFFFFFFFFFFFFFFFFFFFFFFFFFFFFFFFFFFFFFFFF AND EQ PUSH2 0x16B7 JUMPI PUSH1 0x40 MLOAD PUSH32 0x8C379A000000000000000000000000000000000000000000000000000000000 DUP2 MSTORE PUSH1 0x4 ADD PUSH2 0x16AE SWAP1 PUSH2 0x311B JUMP JUMPDEST PUSH1 0x40 MLOAD DUP1 SWAP2 SUB SWAP1 REVERT JUMPDEST POP JUMP JUMPDEST DUP2 PUSH20 0xFFFFFFFFFFFFFFFFFFFFFFFFFFFFFFFFFFFFFFFF AND PUSH4 0x52D1902D PUSH1 0x40 MLOAD DUP2 PUSH4 0xFFFFFFFF AND PUSH1 0xE0 SHL DUP2 MSTORE PUSH1 0x4 ADD PUSH1 0x20 PUSH1 0x40 MLOAD DUP1 DUP4 SUB DUP2 DUP7 GAS STATICCALL SWAP3 POP POP POP DUP1 ISZERO PUSH2 0x1722 JUMPI POP PUSH1 0x40 MLOAD RETURNDATASIZE PUSH1 0x1F NOT PUSH1 0x1F DUP3 ADD AND DUP3 ADD DUP1 PUSH1 0x40 MSTORE POP DUP2 ADD SWAP1 PUSH2 0x171F SWAP2 SWAP1 PUSH2 0x31EF JUMP JUMPDEST PUSH1 0x1 JUMPDEST PUSH2 0x1763 JUMPI DUP2 PUSH1 0x40 MLOAD PUSH32 0x4C9C8CE300000000000000000000000000000000000000000000000000000000 DUP2 MSTORE PUSH1 0x4 ADD PUSH2 0x175A SWAP2 SWAP1 PUSH2 0x2908 JUMP JUMPDEST PUSH1 0x40 MLOAD DUP1 SWAP2 SUB SWAP1 REVERT JUMPDEST PUSH32 0x360894A13BA1A3210667C828492DB98DCA3E2076CC3735A920A3CA505D382BBC PUSH0 SHL DUP2 EQ PUSH2 0x17C9 JUMPI DUP1 PUSH1 0x40 MLOAD PUSH32 0xAA1D49A400000000000000000000000000000000000000000000000000000000 DUP2 MSTORE PUSH1 0x4 ADD PUSH2 0x17C0 SWAP2 SWAP1 PUSH2 0x2C42 JUMP JUMPDEST PUSH1 0x40 MLOAD DUP1 SWAP2 SUB SWAP1 REVERT JUMPDEST PUSH2 0x17D3 DUP4 DUP4 PUSH2 0x214D JUMP JUMPDEST POP POP POP JUMP JUMPDEST PUSH32 0x0 PUSH20 0xFFFFFFFFFFFFFFFFFFFFFFFFFFFFFFFFFFFFFFFF AND ADDRESS PUSH20 0xFFFFFFFFFFFFFFFFFFFFFFFFFFFFFFFFFFFFFFFF AND EQ PUSH2 0x185D JUMPI PUSH1 0x40 MLOAD PUSH32 0xE07C8DBA00000000000000000000000000000000000000000000000000000000 DUP2 MSTORE PUSH1 0x4 ADD PUSH1 0x40 MLOAD DUP1 SWAP2 SUB SWAP1 REVERT JUMPDEST JUMP JUMPDEST PUSH0 PUSH2 0x1868 PUSH2 0x119B JUMP JUMPDEST SWAP1 POP PUSH0 PUSH20 0xFFFFFFFFFFFFFFFFFFFFFFFFFFFFFFFFFFFFFFFF AND DUP4 PUSH20 0xFFFFFFFFFFFFFFFFFFFFFFFFFFFFFFFFFFFFFFFF AND SUB PUSH2 0x18DA JUMPI DUP3 PUSH1 0x40 MLOAD PUSH32 0x5B08BA1800000000000000000000000000000000000000000000000000000000 DUP2 MSTORE PUSH1 0x4 ADD PUSH2 0x18D1 SWAP2 SWAP1 PUSH2 0x2908 JUMP JUMPDEST PUSH1 0x40 MLOAD DUP1 SWAP2 SUB SWAP1 REVERT JUMPDEST DUP2 DUP2 PUSH1 0x5 ADD PUSH0 DUP7 PUSH20 0xFFFFFFFFFFFFFFFFFFFFFFFFFFFFFFFFFFFFFFFF AND PUSH20 0xFFFFFFFFFFFFFFFFFFFFFFFFFFFFFFFFFFFFFFFF AND DUP2 MSTORE PUSH1 0x20 ADD SWAP1 DUP2 MSTORE PUSH1 0x20 ADD PUSH0 KECCAK256 PUSH0 DUP6 PUSH20 0xFFFFFFFFFFFFFFFFFFFFFFFFFFFFFFFFFFFFFFFF AND PUSH20 0xFFFFFFFFFFFFFFFFFFFFFFFFFFFFFFFFFFFFFFFF AND DUP2 MSTORE PUSH1 0x20 ADD SWAP1 DUP2 MSTORE PUSH1 0x20 ADD PUSH0 KECCAK256 PUSH0 PUSH2 0x100 EXP DUP2 SLOAD DUP2 PUSH1 0xFF MUL NOT AND SWAP1 DUP4 ISZERO ISZERO MUL OR SWAP1 SSTORE POP DUP3 PUSH20 0xFFFFFFFFFFFFFFFFFFFFFFFFFFFFFFFFFFFFFFFF AND DUP5 PUSH20 0xFFFFFFFFFFFFFFFFFFFFFFFFFFFFFFFFFFFFFFFF AND PUSH32 0x17307EAB39AB6107E8899845AD3D59BD9653F200F220920489CA2B5937696C31 DUP5 PUSH1 0x40 MLOAD PUSH2 0x19C8 SWAP2 SWAP1 PUSH2 0x27C2 JUMP JUMPDEST PUSH1 0x40 MLOAD DUP1 SWAP2 SUB SWAP1 LOG3 POP POP POP POP JUMP JUMPDEST PUSH0 DUP4 PUSH20 0xFFFFFFFFFFFFFFFFFFFFFFFFFFFFFFFFFFFFFFFF AND EXTCODESIZE GT ISZERO PUSH2 0x1B7B JUMPI DUP3 PUSH20 0xFFFFFFFFFFFFFFFFFFFFFFFFFFFFFFFFFFFFFFFF AND PUSH4 0x150B7A02 DUP7 DUP7 DUP6 DUP6 PUSH1 0x40 MLOAD DUP6 PUSH4 0xFFFFFFFF AND PUSH1 0xE0 SHL DUP2 MSTORE PUSH1 0x4 ADD PUSH2 0x1A34 SWAP5 SWAP4 SWAP3 SWAP2 SWAP1 PUSH2 0x326C JUMP JUMPDEST PUSH1 0x20 PUSH1 0x40 MLOAD DUP1 DUP4 SUB DUP2 PUSH0 DUP8 GAS CALL SWAP3 POP POP POP DUP1 ISZERO PUSH2 0x1A6F JUMPI POP PUSH1 0x40 MLOAD RETURNDATASIZE PUSH1 0x1F NOT PUSH1 0x1F DUP3 ADD AND DUP3 ADD DUP1 PUSH1 0x40 MSTORE POP DUP2 ADD SWAP1 PUSH2 0x1A6C SWAP2 SWAP1 PUSH2 0x32CA JUMP JUMPDEST PUSH1 0x1 JUMPDEST PUSH2 0x1AF0 JUMPI RETURNDATASIZE DUP1 PUSH0 DUP2 EQ PUSH2 0x1A9D JUMPI PUSH1 0x40 MLOAD SWAP2 POP PUSH1 0x1F NOT PUSH1 0x3F RETURNDATASIZE ADD AND DUP3 ADD PUSH1 0x40 MSTORE RETURNDATASIZE DUP3 MSTORE RETURNDATASIZE PUSH0 PUSH1 0x20 DUP5 ADD RETURNDATACOPY PUSH2 0x1AA2 JUMP JUMPDEST PUSH1 0x60 SWAP2 POP JUMPDEST POP PUSH0 DUP2 MLOAD SUB PUSH2 0x1AE8 JUMPI DUP4 PUSH1 0x40 MLOAD PUSH32 0x64A0AE9200000000000000000000000000000000000000000000000000000000 DUP2 MSTORE PUSH1 0x4 ADD PUSH2 0x1ADF SWAP2 SWAP1 PUSH2 0x2908 JUMP JUMPDEST PUSH1 0x40 MLOAD DUP1 SWAP2 SUB SWAP1 REVERT JUMPDEST DUP1 MLOAD DUP2 PUSH1 0x20 ADD REVERT JUMPDEST PUSH4 0x150B7A02 PUSH1 0xE0 SHL PUSH28 0xFFFFFFFFFFFFFFFFFFFFFFFFFFFFFFFFFFFFFFFFFFFFFFFFFFFFFFFF NOT AND DUP2 PUSH28 0xFFFFFFFFFFFFFFFFFFFFFFFFFFFFFFFFFFFFFFFFFFFFFFFFFFFFFFFF NOT AND EQ PUSH2 0x1B79 JUMPI DUP4 PUSH1 0x40 MLOAD PUSH32 0x64A0AE9200000000000000000000000000000000000000000000000000000000 DUP2 MSTORE PUSH1 0x4 ADD PUSH2 0x1B70 SWAP2 SWAP1 PUSH2 0x2908 JUMP JUMPDEST PUSH1 0x40 MLOAD DUP1 SWAP2 SUB SWAP1 REVERT JUMPDEST POP JUMPDEST POP POP POP POP POP JUMP JUMPDEST PUSH0 PUSH32 0x542A41881EE128A365A727B282C86FA859579490B9BB45AAB8503648C8E7900 SWAP1 POP SWAP1 JUMP JUMPDEST PUSH1 0x60 PUSH1 0x40 MLOAD DUP1 PUSH1 0x20 ADD PUSH1 0x40 MSTORE DUP1 PUSH0 DUP2 MSTORE POP SWAP1 POP SWAP1 JUMP JUMPDEST PUSH1 0x60 PUSH2 0x1BCA DUP3 PUSH2 0x11C2 JUMP JUMPDEST POP PUSH0 PUSH2 0x1BD4 PUSH2 0x1BA9 JUMP JUMPDEST SWAP1 POP PUSH0 DUP2 MLOAD GT PUSH2 0x1BF2 JUMPI PUSH1 0x40 MLOAD DUP1 PUSH1 0x20 ADD PUSH1 0x40 MSTORE DUP1 PUSH0 DUP2 MSTORE POP PUSH2 0x1C1D JUMP JUMPDEST DUP1 PUSH2 0x1BFC DUP5 PUSH2 0x21BF JUMP JUMPDEST PUSH1 0x40 MLOAD PUSH1 0x20 ADD PUSH2 0x1C0D SWAP3 SWAP2 SWAP1 PUSH2 0x3088 JUMP JUMPDEST PUSH1 0x40 MLOAD PUSH1 0x20 DUP2 DUP4 SUB SUB DUP2 MSTORE SWAP1 PUSH1 0x40 MSTORE JUMPDEST SWAP2 POP POP SWAP2 SWAP1 POP JUMP JUMPDEST PUSH0 PUSH20 0xFFFFFFFFFFFFFFFFFFFFFFFFFFFFFFFFFFFFFFFF AND DUP3 PUSH20 0xFFFFFFFFFFFFFFFFFFFFFFFFFFFFFFFFFFFFFFFF AND SUB PUSH2 0x1C95 JUMPI PUSH0 PUSH1 0x40 MLOAD PUSH32 0x64A0AE9200000000000000000000000000000000000000000000000000000000 DUP2 MSTORE PUSH1 0x4 ADD PUSH2 0x1C8C SWAP2 SWAP1 PUSH2 0x2908 JUMP JUMPDEST PUSH1 0x40 MLOAD DUP1 SWAP2 SUB SWAP1 REVERT JUMPDEST PUSH0 PUSH2 0x1CA1 DUP4 DUP4 PUSH0 PUSH2 0x1325 JUMP JUMPDEST SWAP1 POP PUSH0 PUSH20 0xFFFFFFFFFFFFFFFFFFFFFFFFFFFFFFFFFFFFFFFF AND DUP2 PUSH20 0xFFFFFFFFFFFFFFFFFFFFFFFFFFFFFFFFFFFFFFFF AND EQ PUSH2 0x1D13 JUMPI PUSH0 PUSH1 0x40 MLOAD PUSH32 0x73C6AC6E00000000000000000000000000000000000000000000000000000000 DUP2 MSTORE PUSH1 0x4 ADD PUSH2 0x1D0A SWAP2 SWAP1 PUSH2 0x2908 JUMP JUMPDEST PUSH1 0x40 MLOAD DUP1 SWAP2 SUB SWAP1 REVERT JUMPDEST POP POP POP JUMP JUMPDEST PUSH0 PUSH2 0x1D21 PUSH2 0x1B82 JUMP JUMPDEST SWAP1 POP DUP2 DUP2 PUSH0 ADD PUSH0 DUP6 DUP2 MSTORE PUSH1 0x20 ADD SWAP1 DUP2 MSTORE PUSH1 0x20 ADD PUSH0 KECCAK256 SWAP1 DUP2 PUSH2 0x1D42 SWAP2 SWAP1 PUSH2 0x348C JUMP JUMPDEST POP PUSH32 0xF8E1A15ABA9398E019F0B49DF1A4FDE98EE17AE345CB5F6B5E2C27F5033E8CE7 DUP4 PUSH1 0x40 MLOAD PUSH2 0x1D72 SWAP2 SWAP1 PUSH2 0x2A8B JUMP JUMPDEST PUSH1 0x40 MLOAD DUP1 SWAP2 SUB SWAP1 LOG1 POP POP POP JUMP JUMPDEST PUSH0 PUSH0 PUSH2 0x1D89 PUSH2 0x119B JUMP JUMPDEST SWAP1 POP DUP1 PUSH1 0x2 ADD PUSH0 DUP5 DUP2 MSTORE PUSH1 0x20 ADD SWAP1 DUP2 MSTORE PUSH1 0x20 ADD PUSH0 KECCAK256 PUSH0 SWAP1 SLOAD SWAP1 PUSH2 0x100 EXP SWAP1 DIV PUSH20 0xFFFFFFFFFFFFFFFFFFFFFFFFFFFFFFFFFFFFFFFF AND SWAP2 POP POP SWAP2 SWAP1 POP JUMP JUMPDEST PUSH0 PUSH2 0x1DCF PUSH2 0x119B JUMP JUMPDEST SWAP1 POP DUP2 DUP1 PUSH2 0x1E09 JUMPI POP PUSH0 PUSH20 0xFFFFFFFFFFFFFFFFFFFFFFFFFFFFFFFFFFFFFFFF AND DUP4 PUSH20 0xFFFFFFFFFFFFFFFFFFFFFFFFFFFFFFFFFFFFFFFF AND EQ ISZERO JUMPDEST ISZERO PUSH2 0x1F3B JUMPI PUSH0 PUSH2 0x1E18 DUP6 PUSH2 0x11C2 JUMP JUMPDEST SWAP1 POP PUSH0 PUSH20 0xFFFFFFFFFFFFFFFFFFFFFFFFFFFFFFFFFFFFFFFF AND DUP5 PUSH20 0xFFFFFFFFFFFFFFFFFFFFFFFFFFFFFFFFFFFFFFFF AND EQ ISZERO DUP1 ISZERO PUSH2 0x1E82 JUMPI POP DUP4 PUSH20 0xFFFFFFFFFFFFFFFFFFFFFFFFFFFFFFFFFFFFFFFF AND DUP2 PUSH20 0xFFFFFFFFFFFFFFFFFFFFFFFFFFFFFFFFFFFFFFFF AND EQ ISZERO JUMPDEST DUP1 ISZERO PUSH2 0x1E95 JUMPI POP PUSH2 0x1E93 DUP2 DUP6 PUSH2 0xF2A JUMP JUMPDEST ISZERO JUMPDEST ISZERO PUSH2 0x1ED7 JUMPI DUP4 PUSH1 0x40 MLOAD PUSH32 0xA9FBF51F00000000000000000000000000000000000000000000000000000000 DUP2 MSTORE PUSH1 0x4 ADD PUSH2 0x1ECE SWAP2 SWAP1 PUSH2 0x2908 JUMP JUMPDEST PUSH1 0x40 MLOAD DUP1 SWAP2 SUB SWAP1 REVERT JUMPDEST DUP3 ISZERO PUSH2 0x1F39 JUMPI DUP5 DUP7 PUSH20 0xFFFFFFFFFFFFFFFFFFFFFFFFFFFFFFFFFFFFFFFF AND DUP3 PUSH20 0xFFFFFFFFFFFFFFFFFFFFFFFFFFFFFFFFFFFFFFFF AND PUSH32 0x8C5BE1E5EBEC7D5BD14F71427D1E84F3DD0314C0F7B2291E5B200AC8C7C3B925 PUSH1 0x40 MLOAD PUSH1 0x40 MLOAD DUP1 SWAP2 SUB SWAP1 LOG4 JUMPDEST POP JUMPDEST DUP5 DUP2 PUSH1 0x4 ADD PUSH0 DUP7 DUP2 MSTORE PUSH1 0x20 ADD SWAP1 DUP2 MSTORE PUSH1 0x20 ADD PUSH0 KECCAK256 PUSH0 PUSH2 0x100 EXP DUP2 SLOAD DUP2 PUSH20 0xFFFFFFFFFFFFFFFFFFFFFFFFFFFFFFFFFFFFFFFF MUL NOT AND SWAP1 DUP4 PUSH20 0xFFFFFFFFFFFFFFFFFFFFFFFFFFFFFFFFFFFFFFFF AND MUL OR SWAP1 SSTORE POP POP POP POP POP POP JUMP JUMPDEST PUSH0 PUSH32 0xF0C57E16840DF040F15088DC2F81FE391C3923BEC73E23A9662EFC9C229C6A00 PUSH0 SHL SWAP1 POP SWAP1 JUMP JUMPDEST PUSH2 0x1FC4 PUSH2 0x2289 JUMP JUMPDEST PUSH2 0x1FFA JUMPI PUSH1 0x40 MLOAD PUSH32 0xD7E6BCF800000000000000000000000000000000000000000000000000000000 DUP2 MSTORE PUSH1 0x4 ADD PUSH1 0x40 MLOAD DUP1 SWAP2 SUB SWAP1 REVERT JUMPDEST JUMP JUMPDEST PUSH2 0x2004 PUSH2 0x1FBC JUMP JUMPDEST PUSH0 PUSH2 0x200D PUSH2 0x119B JUMP JUMPDEST SWAP1 POP DUP3 DUP2 PUSH0 ADD SWAP1 DUP2 PUSH2 0x201F SWAP2 SWAP1 PUSH2 0x348C JUMP JUMPDEST POP DUP2 DUP2 PUSH1 0x1 ADD SWAP1 DUP2 PUSH2 0x2031 SWAP2 SWAP1 PUSH2 0x348C JUMP JUMPDEST POP POP POP POP JUMP JUMPDEST PUSH2 0x2042 DUP4 DUP4 DUP4 PUSH2 0x22A7 JUMP JUMPDEST PUSH2 0x20F5 JUMPI PUSH0 PUSH20 0xFFFFFFFFFFFFFFFFFFFFFFFFFFFFFFFFFFFFFFFF AND DUP4 PUSH20 0xFFFFFFFFFFFFFFFFFFFFFFFFFFFFFFFFFFFFFFFF AND SUB PUSH2 0x20B6 JUMPI DUP1 PUSH1 0x40 MLOAD PUSH32 0x7E27328900000000000000000000000000000000000000000000000000000000 DUP2 MSTORE PUSH1 0x4 ADD PUSH2 0x20AD SWAP2 SWAP1 PUSH2 0x2A8B JUMP JUMPDEST PUSH1 0x40 MLOAD DUP1 SWAP2 SUB SWAP1 REVERT JUMPDEST DUP2 DUP2 PUSH1 0x40 MLOAD PUSH32 0x177E802F00000000000000000000000000000000000000000000000000000000 DUP2 MSTORE PUSH1 0x4 ADD PUSH2 0x20EC SWAP3 SWAP2 SWAP1 PUSH2 0x355B JUMP JUMPDEST PUSH1 0x40 MLOAD DUP1 SWAP2 SUB SWAP1 REVERT JUMPDEST POP POP POP JUMP JUMPDEST PUSH0 PUSH2 0x2126 PUSH32 0x360894A13BA1A3210667C828492DB98DCA3E2076CC3735A920A3CA505D382BBC PUSH0 SHL PUSH2 0x2367 JUMP JUMPDEST PUSH0 ADD PUSH0 SWAP1 SLOAD SWAP1 PUSH2 0x100 EXP SWAP1 DIV PUSH20 0xFFFFFFFFFFFFFFFFFFFFFFFFFFFFFFFFFFFFFFFF AND SWAP1 POP SWAP1 JUMP JUMPDEST PUSH2 0x2156 DUP3 PUSH2 0x2370 JUMP JUMPDEST DUP2 PUSH20 0xFFFFFFFFFFFFFFFFFFFFFFFFFFFFFFFFFFFFFFFF AND PUSH32 0xBC7CD75A20EE27FD9ADEBAB32041F755214DBC6BFFA90CC0225B39DA2E5C2D3B PUSH1 0x40 MLOAD PUSH1 0x40 MLOAD DUP1 SWAP2 SUB SWAP1 LOG2 PUSH0 DUP2 MLOAD GT ISZERO PUSH2 0x21B2 JUMPI PUSH2 0x21AC DUP3 DUP3 PUSH2 0x2439 JUMP JUMPDEST POP PUSH2 0x21BB JUMP JUMPDEST PUSH2 0x21BA PUSH2 0x24B9 JUMP JUMPDEST JUMPDEST POP POP JUMP JUMPDEST PUSH1 0x60 PUSH0 PUSH1 0x1 PUSH2 0x21CD DUP5 PUSH2 0x24F5 JUMP JUMPDEST ADD SWAP1 POP PUSH0 DUP2 PUSH8 0xFFFFFFFFFFFFFFFF DUP2 GT ISZERO PUSH2 0x21EB JUMPI PUSH2 0x21EA PUSH2 0x2AAC JUMP JUMPDEST JUMPDEST PUSH1 0x40 MLOAD SWAP1 DUP1 DUP3 MSTORE DUP1 PUSH1 0x1F ADD PUSH1 0x1F NOT AND PUSH1 0x20 ADD DUP3 ADD PUSH1 0x40 MSTORE DUP1 ISZERO PUSH2 0x221D JUMPI DUP2 PUSH1 0x20 ADD PUSH1 0x1 DUP3 MUL DUP1 CALLDATASIZE DUP4 CALLDATACOPY DUP1 DUP3 ADD SWAP2 POP POP SWAP1 POP JUMPDEST POP SWAP1 POP PUSH0 DUP3 PUSH1 0x20 ADD DUP3 ADD SWAP1 POP JUMPDEST PUSH1 0x1 ISZERO PUSH2 0x227E JUMPI DUP1 DUP1 PUSH1 0x1 SWAP1 SUB SWAP2 POP POP PUSH32 0x3031323334353637383961626364656600000000000000000000000000000000 PUSH1 0xA DUP7 MOD BYTE DUP2 MSTORE8 PUSH1 0xA DUP6 DUP2 PUSH2 0x2273 JUMPI PUSH2 0x2272 PUSH2 0x3582 JUMP JUMPDEST JUMPDEST DIV SWAP5 POP PUSH0 DUP6 SUB PUSH2 0x222A JUMPI JUMPDEST DUP2 SWAP4 POP POP POP POP SWAP2 SWAP1 POP JUMP JUMPDEST PUSH0 PUSH2 0x2292 PUSH2 0x12A8 JUMP JUMPDEST PUSH0 ADD PUSH1 0x8 SWAP1 SLOAD SWAP1 PUSH2 0x100 EXP SWAP1 DIV PUSH1 0xFF AND SWAP1 POP SWAP1 JUMP JUMPDEST PUSH0 PUSH0 PUSH20 0xFFFFFFFFFFFFFFFFFFFFFFFFFFFFFFFFFFFFFFFF AND DUP4 PUSH20 0xFFFFFFFFFFFFFFFFFFFFFFFFFFFFFFFFFFFFFFFF AND EQ ISZERO DUP1 ISZERO PUSH2 0x235E JUMPI POP DUP3 PUSH20 0xFFFFFFFFFFFFFFFFFFFFFFFFFFFFFFFFFFFFFFFF AND DUP5 PUSH20 0xFFFFFFFFFFFFFFFFFFFFFFFFFFFFFFFFFFFFFFFF AND EQ DUP1 PUSH2 0x231F JUMPI POP PUSH2 0x231E DUP5 DUP5 PUSH2 0xF2A JUMP JUMPDEST JUMPDEST DUP1 PUSH2 0x235D JUMPI POP DUP3 PUSH20 0xFFFFFFFFFFFFFFFFFFFFFFFFFFFFFFFFFFFFFFFF AND PUSH2 0x2345 DUP4 PUSH2 0x1248 JUMP JUMPDEST PUSH20 0xFFFFFFFFFFFFFFFFFFFFFFFFFFFFFFFFFFFFFFFF AND EQ JUMPDEST JUMPDEST SWAP1 POP SWAP4 SWAP3 POP POP POP JUMP JUMPDEST PUSH0 DUP2 SWAP1 POP SWAP2 SWAP1 POP JUMP JUMPDEST PUSH0 DUP2 PUSH20 0xFFFFFFFFFFFFFFFFFFFFFFFFFFFFFFFFFFFFFFFF AND EXTCODESIZE SUB PUSH2 0x23CB JUMPI DUP1 PUSH1 0x40 MLOAD PUSH32 0x4C9C8CE300000000000000000000000000000000000000000000000000000000 DUP2 MSTORE PUSH1 0x4 ADD PUSH2 0x23C2 SWAP2 SWAP1 PUSH2 0x2908 JUMP JUMPDEST PUSH1 0x40 MLOAD DUP1 SWAP2 SUB SWAP1 REVERT JUMPDEST DUP1 PUSH2 0x23F7 PUSH32 0x360894A13BA1A3210667C828492DB98DCA3E2076CC3735A920A3CA505D382BBC PUSH0 SHL PUSH2 0x2367 JUMP JUMPDEST PUSH0 ADD PUSH0 PUSH2 0x100 EXP DUP2 SLOAD DUP2 PUSH20 0xFFFFFFFFFFFFFFFFFFFFFFFFFFFFFFFFFFFFFFFF MUL NOT AND SWAP1 DUP4 PUSH20 0xFFFFFFFFFFFFFFFFFFFFFFFFFFFFFFFFFFFFFFFF AND MUL OR SWAP1 SSTORE POP POP JUMP JUMPDEST PUSH1 0x60 PUSH0 PUSH0 DUP5 PUSH20 0xFFFFFFFFFFFFFFFFFFFFFFFFFFFFFFFFFFFFFFFF AND DUP5 PUSH1 0x40 MLOAD PUSH2 0x2462 SWAP2 SWAP1 PUSH2 0x35E9 JUMP JUMPDEST PUSH0 PUSH1 0x40 MLOAD DUP1 DUP4 SUB DUP2 DUP6 GAS DELEGATECALL SWAP2 POP POP RETURNDATASIZE DUP1 PUSH0 DUP2 EQ PUSH2 0x249A JUMPI PUSH1 0x40 MLOAD SWAP2 POP PUSH1 0x1F NOT PUSH1 0x3F RETURNDATASIZE ADD AND DUP3 ADD PUSH1 0x40 MSTORE RETURNDATASIZE DUP3 MSTORE RETURNDATASIZE PUSH0 PUSH1 0x20 DUP5 ADD RETURNDATACOPY PUSH2 0x249F JUMP JUMPDEST PUSH1 0x60 SWAP2 POP JUMPDEST POP SWAP2 POP SWAP2 POP PUSH2 0x24AF DUP6 DUP4 DUP4 PUSH2 0x2646 JUMP JUMPDEST SWAP3 POP POP POP SWAP3 SWAP2 POP POP JUMP JUMPDEST PUSH0 CALLVALUE GT ISZERO PUSH2 0x24F3 JUMPI PUSH1 0x40 MLOAD PUSH32 0xB398979F00000000000000000000000000000000000000000000000000000000 DUP2 MSTORE PUSH1 0x4 ADD PUSH1 0x40 MLOAD DUP1 SWAP2 SUB SWAP1 REVERT JUMPDEST JUMP JUMPDEST PUSH0 PUSH0 PUSH0 SWAP1 POP PUSH27 0x184F03E93FF9F4DAA797ED6E38ED64BF6A1F010000000000000000 DUP4 LT PUSH2 0x2551 JUMPI PUSH27 0x184F03E93FF9F4DAA797ED6E38ED64BF6A1F010000000000000000 DUP4 DUP2 PUSH2 0x2547 JUMPI PUSH2 0x2546 PUSH2 0x3582 JUMP JUMPDEST JUMPDEST DIV SWAP3 POP PUSH1 0x40 DUP2 ADD SWAP1 POP JUMPDEST PUSH14 0x4EE2D6D415B85ACEF8100000000 DUP4 LT PUSH2 0x258E JUMPI PUSH14 0x4EE2D6D415B85ACEF8100000000 DUP4 DUP2 PUSH2 0x2584 JUMPI PUSH2 0x2583 PUSH2 0x3582 JUMP JUMPDEST JUMPDEST DIV SWAP3 POP PUSH1 0x20 DUP2 ADD SWAP1 POP JUMPDEST PUSH7 0x2386F26FC10000 DUP4 LT PUSH2 0x25BD JUMPI PUSH7 0x2386F26FC10000 DUP4 DUP2 PUSH2 0x25B3 JUMPI PUSH2 0x25B2 PUSH2 0x3582 JUMP JUMPDEST JUMPDEST DIV SWAP3 POP PUSH1 0x10 DUP2 ADD SWAP1 POP JUMPDEST PUSH4 0x5F5E100 DUP4 LT PUSH2 0x25E6 JUMPI PUSH4 0x5F5E100 DUP4 DUP2 PUSH2 0x25DC JUMPI PUSH2 0x25DB PUSH2 0x3582 JUMP JUMPDEST JUMPDEST DIV SWAP3 POP PUSH1 0x8 DUP2 ADD SWAP1 POP JUMPDEST PUSH2 0x2710 DUP4 LT PUSH2 0x260B JUMPI PUSH2 0x2710 DUP4 DUP2 PUSH2 0x2601 JUMPI PUSH2 0x2600 PUSH2 0x3582 JUMP JUMPDEST JUMPDEST DIV SWAP3 POP PUSH1 0x4 DUP2 ADD SWAP1 POP JUMPDEST PUSH1 0x64 DUP4 LT PUSH2 0x262E JUMPI PUSH1 0x64 DUP4 DUP2 PUSH2 0x2624 JUMPI PUSH2 0x2623 PUSH2 0x3582 JUMP JUMPDEST JUMPDEST DIV SWAP3 POP PUSH1 0x2 DUP2 ADD SWAP1 POP JUMPDEST PUSH1 0xA DUP4 LT PUSH2 0x263D JUMPI PUSH1 0x1 DUP2 ADD SWAP1 POP JUMPDEST DUP1 SWAP2 POP POP SWAP2 SWAP1 POP JUMP JUMPDEST PUSH1 0x60 DUP3 PUSH2 0x265B JUMPI PUSH2 0x2656 DUP3 PUSH2 0x26D3 JUMP JUMPDEST PUSH2 0x26CB JUMP JUMPDEST PUSH0 DUP3 MLOAD EQ DUP1 ISZERO PUSH2 0x2681 JUMPI POP PUSH0 DUP5 PUSH20 0xFFFFFFFFFFFFFFFFFFFFFFFFFFFFFFFFFFFFFFFF AND EXTCODESIZE EQ JUMPDEST ISZERO PUSH2 0x26C3 JUMPI DUP4 PUSH1 0x40 MLOAD PUSH32 0x9996B31500000000000000000000000000000000000000000000000000000000 DUP2 MSTORE PUSH1 0x4 ADD PUSH2 0x26BA SWAP2 SWAP1 PUSH2 0x2908 JUMP JUMPDEST PUSH1 0x40 MLOAD DUP1 SWAP2 SUB SWAP1 REVERT JUMPDEST DUP2 SWAP1 POP PUSH2 0x26CC JUMP JUMPDEST JUMPDEST SWAP4 SWAP3 POP POP POP JUMP JUMPDEST PUSH0 DUP2 MLOAD GT ISZERO PUSH2 0x26E5 JUMPI DUP1 MLOAD DUP1 DUP3 PUSH1 0x20 ADD REVERT JUMPDEST PUSH1 0x40 MLOAD PUSH32 0xD6BDA27500000000000000000000000000000000000000000000000000000000 DUP2 MSTORE PUSH1 0x4 ADD PUSH1 0x40 MLOAD DUP1 SWAP2 SUB SWAP1 REVERT JUMPDEST PUSH0 PUSH1 0x40 MLOAD SWAP1 POP SWAP1 JUMP JUMPDEST PUSH0 PUSH0 REVERT JUMPDEST PUSH0 PUSH0 REVERT JUMPDEST PUSH0 PUSH32 0xFFFFFFFF00000000000000000000000000000000000000000000000000000000 DUP3 AND SWAP1 POP SWAP2 SWAP1 POP JUMP JUMPDEST PUSH2 0x275C DUP2 PUSH2 0x2728 JUMP JUMPDEST DUP2 EQ PUSH2 0x2766 JUMPI PUSH0 PUSH0 REVERT JUMPDEST POP JUMP JUMPDEST PUSH0 DUP2 CALLDATALOAD SWAP1 POP PUSH2 0x2777 DUP2 PUSH2 0x2753 JUMP JUMPDEST SWAP3 SWAP2 POP POP JUMP JUMPDEST PUSH0 PUSH1 0x20 DUP3 DUP5 SUB SLT ISZERO PUSH2 0x2792 JUMPI PUSH2 0x2791 PUSH2 0x2720 JUMP JUMPDEST JUMPDEST PUSH0 PUSH2 0x279F DUP5 DUP3 DUP6 ADD PUSH2 0x2769 JUMP JUMPDEST SWAP2 POP POP SWAP3 SWAP2 POP POP JUMP JUMPDEST PUSH0 DUP2 ISZERO ISZERO SWAP1 POP SWAP2 SWAP1 POP JUMP JUMPDEST PUSH2 0x27BC DUP2 PUSH2 0x27A8 JUMP JUMPDEST DUP3 MSTORE POP POP JUMP JUMPDEST PUSH0 PUSH1 0x20 DUP3 ADD SWAP1 POP PUSH2 0x27D5 PUSH0 DUP4 ADD DUP5 PUSH2 0x27B3 JUMP JUMPDEST SWAP3 SWAP2 POP POP JUMP JUMPDEST PUSH0 DUP2 MLOAD SWAP1 POP SWAP2 SWAP1 POP JUMP JUMPDEST PUSH0 DUP3 DUP3 MSTORE PUSH1 0x20 DUP3 ADD SWAP1 POP SWAP3 SWAP2 POP POP JUMP JUMPDEST DUP3 DUP2 DUP4 MCOPY PUSH0 DUP4 DUP4 ADD MSTORE POP POP POP JUMP JUMPDEST PUSH0 PUSH1 0x1F NOT PUSH1 0x1F DUP4 ADD AND SWAP1 POP SWAP2 SWAP1 POP JUMP JUMPDEST PUSH0 PUSH2 0x281D DUP3 PUSH2 0x27DB JUMP JUMPDEST PUSH2 0x2827 DUP2 DUP6 PUSH2 0x27E5 JUMP JUMPDEST SWAP4 POP PUSH2 0x2837 DUP2 DUP6 PUSH1 0x20 DUP7 ADD PUSH2 0x27F5 JUMP JUMPDEST PUSH2 0x2840 DUP2 PUSH2 0x2803 JUMP JUMPDEST DUP5 ADD SWAP2 POP POP SWAP3 SWAP2 POP POP JUMP JUMPDEST PUSH0 PUSH1 0x20 DUP3 ADD SWAP1 POP DUP2 DUP2 SUB PUSH0 DUP4 ADD MSTORE PUSH2 0x2863 DUP2 DUP5 PUSH2 0x2813 JUMP JUMPDEST SWAP1 POP SWAP3 SWAP2 POP POP JUMP JUMPDEST PUSH0 DUP2 SWAP1 POP SWAP2 SWAP1 POP JUMP JUMPDEST PUSH2 0x287D DUP2 PUSH2 0x286B JUMP JUMPDEST DUP2 EQ PUSH2 0x2887 JUMPI PUSH0 PUSH0 REVERT JUMPDEST POP JUMP JUMPDEST PUSH0 DUP2 CALLDATALOAD SWAP1 POP PUSH2 0x2898 DUP2 PUSH2 0x2874 JUMP JUMPDEST SWAP3 SWAP2 POP POP JUMP JUMPDEST PUSH0 PUSH1 0x20 DUP3 DUP5 SUB SLT ISZERO PUSH2 0x28B3 JUMPI PUSH2 0x28B2 PUSH2 0x2720 JUMP JUMPDEST JUMPDEST PUSH0 PUSH2 0x28C0 DUP5 DUP3 DUP6 ADD PUSH2 0x288A JUMP JUMPDEST SWAP2 POP POP SWAP3 SWAP2 POP POP JUMP JUMPDEST PUSH0 PUSH20 0xFFFFFFFFFFFFFFFFFFFFFFFFFFFFFFFFFFFFFFFF DUP3 AND SWAP1 POP SWAP2 SWAP1 POP JUMP JUMPDEST PUSH0 PUSH2 0x28F2 DUP3 PUSH2 0x28C9 JUMP JUMPDEST SWAP1 POP SWAP2 SWAP1 POP JUMP JUMPDEST PUSH2 0x2902 DUP2 PUSH2 0x28E8 JUMP JUMPDEST DUP3 MSTORE POP POP JUMP JUMPDEST PUSH0 PUSH1 0x20 DUP3 ADD SWAP1 POP PUSH2 0x291B PUSH0 DUP4 ADD DUP5 PUSH2 0x28F9 JUMP JUMPDEST SWAP3 SWAP2 POP POP JUMP JUMPDEST PUSH2 0x292A DUP2 PUSH2 0x28E8 JUMP JUMPDEST DUP2 EQ PUSH2 0x2934 JUMPI PUSH0 PUSH0 REVERT JUMPDEST POP JUMP JUMPDEST PUSH0 DUP2 CALLDATALOAD SWAP1 POP PUSH2 0x2945 DUP2 PUSH2 0x2921 JUMP JUMPDEST SWAP3 SWAP2 POP POP JUMP JUMPDEST PUSH0 PUSH0 PUSH1 0x40 DUP4 DUP6 SUB SLT ISZERO PUSH2 0x2961 JUMPI PUSH2 0x2960 PUSH2 0x2720 JUMP JUMPDEST JUMPDEST PUSH0 PUSH2 0x296E DUP6 DUP3 DUP7 ADD PUSH2 0x2937 JUMP JUMPDEST SWAP3 POP POP PUSH1 0x20 PUSH2 0x297F DUP6 DUP3 DUP7 ADD PUSH2 0x288A JUMP JUMPDEST SWAP2 POP POP SWAP3 POP SWAP3 SWAP1 POP JUMP JUMPDEST PUSH0 PUSH8 0xFFFFFFFFFFFFFFFF DUP3 AND SWAP1 POP SWAP2 SWAP1 POP JUMP JUMPDEST PUSH2 0x29A5 DUP2 PUSH2 0x2989 JUMP JUMPDEST DUP3 MSTORE POP POP JUMP JUMPDEST PUSH0 PUSH1 0x20 DUP3 ADD SWAP1 POP PUSH2 0x29BE PUSH0 DUP4 ADD DUP5 PUSH2 0x299C JUMP JUMPDEST SWAP3 SWAP2 POP POP JUMP JUMPDEST PUSH2 0x29CD DUP2 PUSH2 0x2989 JUMP JUMPDEST DUP2 EQ PUSH2 0x29D7 JUMPI PUSH0 PUSH0 REVERT JUMPDEST POP JUMP JUMPDEST PUSH0 DUP2 CALLDATALOAD SWAP1 POP PUSH2 0x29E8 DUP2 PUSH2 0x29C4 JUMP JUMPDEST SWAP3 SWAP2 POP POP JUMP JUMPDEST PUSH0 PUSH0 PUSH1 0x40 DUP4 DUP6 SUB SLT ISZERO PUSH2 0x2A04 JUMPI PUSH2 0x2A03 PUSH2 0x2720 JUMP JUMPDEST JUMPDEST PUSH0 PUSH2 0x2A11 DUP6 DUP3 DUP7 ADD PUSH2 0x2937 JUMP JUMPDEST SWAP3 POP POP PUSH1 0x20 PUSH2 0x2A22 DUP6 DUP3 DUP7 ADD PUSH2 0x29DA JUMP JUMPDEST SWAP2 POP POP SWAP3 POP SWAP3 SWAP1 POP JUMP JUMPDEST PUSH0 PUSH0 PUSH0 PUSH1 0x60 DUP5 DUP7 SUB SLT ISZERO PUSH2 0x2A43 JUMPI PUSH2 0x2A42 PUSH2 0x2720 JUMP JUMPDEST JUMPDEST PUSH0 PUSH2 0x2A50 DUP7 DUP3 DUP8 ADD PUSH2 0x2937 JUMP JUMPDEST SWAP4 POP POP PUSH1 0x20 PUSH2 0x2A61 DUP7 DUP3 DUP8 ADD PUSH2 0x2937 JUMP JUMPDEST SWAP3 POP POP PUSH1 0x40 PUSH2 0x2A72 DUP7 DUP3 DUP8 ADD PUSH2 0x288A JUMP JUMPDEST SWAP2 POP POP SWAP3 POP SWAP3 POP SWAP3 JUMP JUMPDEST PUSH2 0x2A85 DUP2 PUSH2 0x286B JUMP JUMPDEST DUP3 MSTORE POP POP JUMP JUMPDEST PUSH0 PUSH1 0x20 DUP3 ADD SWAP1 POP PUSH2 0x2A9E PUSH0 DUP4 ADD DUP5 PUSH2 0x2A7C JUMP JUMPDEST SWAP3 SWAP2 POP POP JUMP JUMPDEST PUSH0 PUSH0 REVERT JUMPDEST PUSH0 PUSH0 REVERT JUMPDEST PUSH32 0x4E487B7100000000000000000000000000000000000000000000000000000000 PUSH0 MSTORE PUSH1 0x41 PUSH1 0x4 MSTORE PUSH1 0x24 PUSH0 REVERT JUMPDEST PUSH2 0x2AE2 DUP3 PUSH2 0x2803 JUMP JUMPDEST DUP2 ADD DUP2 DUP2 LT PUSH8 0xFFFFFFFFFFFFFFFF DUP3 GT OR ISZERO PUSH2 0x2B01 JUMPI PUSH2 0x2B00 PUSH2 0x2AAC JUMP JUMPDEST JUMPDEST DUP1 PUSH1 0x40 MSTORE POP POP POP JUMP JUMPDEST PUSH0 PUSH2 0x2B13 PUSH2 0x2717 JUMP JUMPDEST SWAP1 POP PUSH2 0x2B1F DUP3 DUP3 PUSH2 0x2AD9 JUMP JUMPDEST SWAP2 SWAP1 POP JUMP JUMPDEST PUSH0 PUSH8 0xFFFFFFFFFFFFFFFF DUP3 GT ISZERO PUSH2 0x2B3E JUMPI PUSH2 0x2B3D PUSH2 0x2AAC JUMP JUMPDEST JUMPDEST PUSH2 0x2B47 DUP3 PUSH2 0x2803 JUMP JUMPDEST SWAP1 POP PUSH1 0x20 DUP2 ADD SWAP1 POP SWAP2 SWAP1 POP JUMP JUMPDEST DUP3 DUP2 DUP4 CALLDATACOPY PUSH0 DUP4 DUP4 ADD MSTORE POP POP POP JUMP JUMPDEST PUSH0 PUSH2 0x2B74 PUSH2 0x2B6F DUP5 PUSH2 0x2B24 JUMP JUMPDEST PUSH2 0x2B0A JUMP JUMPDEST SWAP1 POP DUP3 DUP2 MSTORE PUSH1 0x20 DUP2 ADD DUP5 DUP5 DUP5 ADD GT ISZERO PUSH2 0x2B90 JUMPI PUSH2 0x2B8F PUSH2 0x2AA8 JUMP JUMPDEST JUMPDEST PUSH2 0x2B9B DUP5 DUP3 DUP6 PUSH2 0x2B54 JUMP JUMPDEST POP SWAP4 SWAP3 POP POP POP JUMP JUMPDEST PUSH0 DUP3 PUSH1 0x1F DUP4 ADD SLT PUSH2 0x2BB7 JUMPI PUSH2 0x2BB6 PUSH2 0x2AA4 JUMP JUMPDEST JUMPDEST DUP2 CALLDATALOAD PUSH2 0x2BC7 DUP5 DUP3 PUSH1 0x20 DUP7 ADD PUSH2 0x2B62 JUMP JUMPDEST SWAP2 POP POP SWAP3 SWAP2 POP POP JUMP JUMPDEST PUSH0 PUSH0 PUSH1 0x40 DUP4 DUP6 SUB SLT ISZERO PUSH2 0x2BE6 JUMPI PUSH2 0x2BE5 PUSH2 0x2720 JUMP JUMPDEST JUMPDEST PUSH0 PUSH2 0x2BF3 DUP6 DUP3 DUP7 ADD PUSH2 0x2937 JUMP JUMPDEST SWAP3 POP POP PUSH1 0x20 DUP4 ADD CALLDATALOAD PUSH8 0xFFFFFFFFFFFFFFFF DUP2 GT ISZERO PUSH2 0x2C14 JUMPI PUSH2 0x2C13 PUSH2 0x2724 JUMP JUMPDEST JUMPDEST PUSH2 0x2C20 DUP6 DUP3 DUP7 ADD PUSH2 0x2BA3 JUMP JUMPDEST SWAP2 POP POP SWAP3 POP SWAP3 SWAP1 POP JUMP JUMPDEST PUSH0 DUP2 SWAP1 POP SWAP2 SWAP1 POP JUMP JUMPDEST PUSH2 0x2C3C DUP2 PUSH2 0x2C2A JUMP JUMPDEST DUP3 MSTORE POP POP JUMP JUMPDEST PUSH0 PUSH1 0x20 DUP3 ADD SWAP1 POP PUSH2 0x2C55 PUSH0 DUP4 ADD DUP5 PUSH2 0x2C33 JUMP JUMPDEST SWAP3 SWAP2 POP POP JUMP JUMPDEST PUSH0 PUSH1 0x20 DUP3 DUP5 SUB SLT ISZERO PUSH2 0x2C70 JUMPI PUSH2 0x2C6F PUSH2 0x2720 JUMP JUMPDEST JUMPDEST PUSH0 PUSH2 0x2C7D DUP5 DUP3 DUP6 ADD PUSH2 0x2937 JUMP JUMPDEST SWAP2 POP POP SWAP3 SWAP2 POP POP JUMP JUMPDEST PUSH2 0x2C8F DUP2 PUSH2 0x2C2A JUMP JUMPDEST DUP2 EQ PUSH2 0x2C99 JUMPI PUSH0 PUSH0 REVERT JUMPDEST POP JUMP JUMPDEST PUSH0 DUP2 CALLDATALOAD SWAP1 POP PUSH2 0x2CAA DUP2 PUSH2 0x2C86 JUMP JUMPDEST SWAP3 SWAP2 POP POP JUMP JUMPDEST PUSH0 PUSH1 0x20 DUP3 DUP5 SUB SLT ISZERO PUSH2 0x2CC5 JUMPI PUSH2 0x2CC4 PUSH2 0x2720 JUMP JUMPDEST JUMPDEST PUSH0 PUSH2 0x2CD2 DUP5 DUP3 DUP6 ADD PUSH2 0x2C9C JUMP JUMPDEST SWAP2 POP POP SWAP3 SWAP2 POP POP JUMP JUMPDEST PUSH2 0x2CE4 DUP2 PUSH2 0x27A8 JUMP JUMPDEST DUP2 EQ PUSH2 0x2CEE JUMPI PUSH0 PUSH0 REVERT JUMPDEST POP JUMP JUMPDEST PUSH0 DUP2 CALLDATALOAD SWAP1 POP PUSH2 0x2CFF DUP2 PUSH2 0x2CDB JUMP JUMPDEST SWAP3 SWAP2 POP POP JUMP JUMPDEST PUSH0 PUSH0 PUSH1 0x40 DUP4 DUP6 SUB SLT ISZERO PUSH2 0x2D1B JUMPI PUSH2 0x2D1A PUSH2 0x2720 JUMP JUMPDEST JUMPDEST PUSH0 PUSH2 0x2D28 DUP6 DUP3 DUP7 ADD PUSH2 0x2937 JUMP JUMPDEST SWAP3 POP POP PUSH1 0x20 PUSH2 0x2D39 DUP6 DUP3 DUP7 ADD PUSH2 0x2CF1 JUMP JUMPDEST SWAP2 POP POP SWAP3 POP SWAP3 SWAP1 POP JUMP JUMPDEST PUSH0 PUSH0 PUSH0 PUSH0 PUSH1 0x80 DUP6 DUP8 SUB SLT ISZERO PUSH2 0x2D5B JUMPI PUSH2 0x2D5A PUSH2 0x2720 JUMP JUMPDEST JUMPDEST PUSH0 PUSH2 0x2D68 DUP8 DUP3 DUP9 ADD PUSH2 0x2937 JUMP JUMPDEST SWAP5 POP POP PUSH1 0x20 PUSH2 0x2D79 DUP8 DUP3 DUP9 ADD PUSH2 0x2937 JUMP JUMPDEST SWAP4 POP POP PUSH1 0x40 PUSH2 0x2D8A DUP8 DUP3 DUP9 ADD PUSH2 0x288A JUMP JUMPDEST SWAP3 POP POP PUSH1 0x60 DUP6 ADD CALLDATALOAD PUSH8 0xFFFFFFFFFFFFFFFF DUP2 GT ISZERO PUSH2 0x2DAB JUMPI PUSH2 0x2DAA PUSH2 0x2724 JUMP JUMPDEST JUMPDEST PUSH2 0x2DB7 DUP8 DUP3 DUP9 ADD PUSH2 0x2BA3 JUMP JUMPDEST SWAP2 POP POP SWAP3 SWAP6 SWAP2 SWAP5 POP SWAP3 POP JUMP JUMPDEST PUSH0 PUSH0 PUSH1 0x40 DUP4 DUP6 SUB SLT ISZERO PUSH2 0x2DD9 JUMPI PUSH2 0x2DD8 PUSH2 0x2720 JUMP JUMPDEST JUMPDEST PUSH0 PUSH2 0x2DE6 DUP6 DUP3 DUP7 ADD PUSH2 0x2937 JUMP JUMPDEST SWAP3 POP POP PUSH1 0x20 PUSH2 0x2DF7 DUP6 DUP3 DUP7 ADD PUSH2 0x2937 JUMP JUMPDEST SWAP2 POP POP SWAP3 POP SWAP3 SWAP1 POP JUMP JUMPDEST PUSH0 PUSH8 0xFFFFFFFFFFFFFFFF DUP3 GT ISZERO PUSH2 0x2E1B JUMPI PUSH2 0x2E1A PUSH2 0x2AAC JUMP JUMPDEST JUMPDEST PUSH2 0x2E24 DUP3 PUSH2 0x2803 JUMP JUMPDEST SWAP1 POP PUSH1 0x20 DUP2 ADD SWAP1 POP SWAP2 SWAP1 POP JUMP JUMPDEST PUSH0 PUSH2 0x2E43 PUSH2 0x2E3E DUP5 PUSH2 0x2E01 JUMP JUMPDEST PUSH2 0x2B0A JUMP JUMPDEST SWAP1 POP DUP3 DUP2 MSTORE PUSH1 0x20 DUP2 ADD DUP5 DUP5 DUP5 ADD GT ISZERO PUSH2 0x2E5F JUMPI PUSH2 0x2E5E PUSH2 0x2AA8 JUMP JUMPDEST JUMPDEST PUSH2 0x2E6A DUP5 DUP3 DUP6 PUSH2 0x2B54 JUMP JUMPDEST POP SWAP4 SWAP3 POP POP POP JUMP JUMPDEST PUSH0 DUP3 PUSH1 0x1F DUP4 ADD SLT PUSH2 0x2E86 JUMPI PUSH2 0x2E85 PUSH2 0x2AA4 JUMP JUMPDEST JUMPDEST DUP2 CALLDATALOAD PUSH2 0x2E96 DUP5 DUP3 PUSH1 0x20 DUP7 ADD PUSH2 0x2E31 JUMP JUMPDEST SWAP2 POP POP SWAP3 SWAP2 POP POP JUMP JUMPDEST PUSH0 PUSH0 PUSH1 0x40 DUP4 DUP6 SUB SLT ISZERO PUSH2 0x2EB5 JUMPI PUSH2 0x2EB4 PUSH2 0x2720 JUMP JUMPDEST JUMPDEST PUSH0 PUSH2 0x2EC2 DUP6 DUP3 DUP7 ADD PUSH2 0x2937 JUMP JUMPDEST SWAP3 POP POP PUSH1 0x20 DUP4 ADD CALLDATALOAD PUSH8 0xFFFFFFFFFFFFFFFF DUP2 GT ISZERO PUSH2 0x2EE3 JUMPI PUSH2 0x2EE2 PUSH2 0x2724 JUMP JUMPDEST JUMPDEST PUSH2 0x2EEF DUP6 DUP3 DUP7 ADD PUSH2 0x2E72 JUMP JUMPDEST SWAP2 POP POP SWAP3 POP SWAP3 SWAP1 POP JUMP JUMPDEST PUSH32 0x4E487B7100000000000000000000000000000000000000000000000000000000 PUSH0 MSTORE PUSH1 0x22 PUSH1 0x4 MSTORE PUSH1 0x24 PUSH0 REVERT JUMPDEST PUSH0 PUSH1 0x2 DUP3 DIV SWAP1 POP PUSH1 0x1 DUP3 AND DUP1 PUSH2 0x2F3D JUMPI PUSH1 0x7F DUP3 AND SWAP2 POP JUMPDEST PUSH1 0x20 DUP3 LT DUP2 SUB PUSH2 0x2F50 JUMPI PUSH2 0x2F4F PUSH2 0x2EF9 JUMP JUMPDEST JUMPDEST POP SWAP2 SWAP1 POP JUMP JUMPDEST PUSH0 DUP2 SWAP1 POP SWAP2 SWAP1 POP JUMP JUMPDEST PUSH0 DUP2 SWAP1 POP SWAP2 SWAP1 POP JUMP JUMPDEST PUSH0 PUSH2 0x2F82 PUSH2 0x2F7D PUSH2 0x2F78 DUP5 PUSH2 0x2F56 JUMP JUMPDEST PUSH2 0x2F5F JUMP JUMPDEST PUSH2 0x2989 JUMP JUMPDEST SWAP1 POP SWAP2 SWAP1 POP JUMP JUMPDEST PUSH2 0x2F92 DUP2 PUSH2 0x2F68 JUMP JUMPDEST DUP3 MSTORE POP POP JUMP JUMPDEST PUSH0 PUSH1 0x20 DUP3 ADD SWAP1 POP PUSH2 0x2FAB PUSH0 DUP4 ADD DUP5 PUSH2 0x2F89 JUMP JUMPDEST SWAP3 SWAP2 POP POP JUMP JUMPDEST PUSH0 PUSH1 0x60 DUP3 ADD SWAP1 POP PUSH2 0x2FC4 PUSH0 DUP4 ADD DUP7 PUSH2 0x28F9 JUMP JUMPDEST PUSH2 0x2FD1 PUSH1 0x20 DUP4 ADD DUP6 PUSH2 0x2A7C JUMP JUMPDEST PUSH2 0x2FDE PUSH1 0x40 DUP4 ADD DUP5 PUSH2 0x28F9 JUMP JUMPDEST SWAP5 SWAP4 POP POP POP POP JUMP JUMPDEST PUSH32 0x526563697069656E7420616464726573732063616E6E6F74206265207A65726F PUSH0 DUP3 ADD MSTORE POP JUMP JUMPDEST PUSH0 PUSH2 0x301A PUSH1 0x20 DUP4 PUSH2 0x27E5 JUMP JUMPDEST SWAP2 POP PUSH2 0x3025 DUP3 PUSH2 0x2FE6 JUMP JUMPDEST PUSH1 0x20 DUP3 ADD SWAP1 POP SWAP2 SWAP1 POP JUMP JUMPDEST PUSH0 PUSH1 0x20 DUP3 ADD SWAP1 POP DUP2 DUP2 SUB PUSH0 DUP4 ADD MSTORE PUSH2 0x3047 DUP2 PUSH2 0x300E JUMP JUMPDEST SWAP1 POP SWAP2 SWAP1 POP JUMP JUMPDEST PUSH0 DUP2 SWAP1 POP SWAP3 SWAP2 POP POP JUMP JUMPDEST PUSH0 PUSH2 0x3062 DUP3 PUSH2 0x27DB JUMP JUMPDEST PUSH2 0x306C DUP2 DUP6 PUSH2 0x304E JUMP JUMPDEST SWAP4 POP PUSH2 0x307C DUP2 DUP6 PUSH1 0x20 DUP7 ADD PUSH2 0x27F5 JUMP JUMPDEST DUP1 DUP5 ADD SWAP2 POP POP SWAP3 SWAP2 POP POP JUMP JUMPDEST PUSH0 PUSH2 0x3093 DUP3 DUP6 PUSH2 0x3058 JUMP JUMPDEST SWAP2 POP PUSH2 0x309F DUP3 DUP5 PUSH2 0x3058 JUMP JUMPDEST SWAP2 POP DUP2 SWAP1 POP SWAP4 SWAP3 POP POP POP JUMP JUMPDEST PUSH32 0x4F6E6C79206F776E65722063616E2063616C6C20746869732066756E6374696F PUSH0 DUP3 ADD MSTORE PUSH32 0x6E00000000000000000000000000000000000000000000000000000000000000 PUSH1 0x20 DUP3 ADD MSTORE POP JUMP JUMPDEST PUSH0 PUSH2 0x3105 PUSH1 0x21 DUP4 PUSH2 0x27E5 JUMP JUMPDEST SWAP2 POP PUSH2 0x3110 DUP3 PUSH2 0x30AB JUMP JUMPDEST PUSH1 0x40 DUP3 ADD SWAP1 POP SWAP2 SWAP1 POP JUMP JUMPDEST PUSH0 PUSH1 0x20 DUP3 ADD SWAP1 POP DUP2 DUP2 SUB PUSH0 DUP4 ADD MSTORE PUSH2 0x3132 DUP2 PUSH2 0x30F9 JUMP JUMPDEST SWAP1 POP SWAP2 SWAP1 POP JUMP JUMPDEST PUSH32 0x4E487B7100000000000000000000000000000000000000000000000000000000 PUSH0 MSTORE PUSH1 0x11 PUSH1 0x4 MSTORE PUSH1 0x24 PUSH0 REVERT JUMPDEST PUSH0 PUSH2 0x3170 DUP3 PUSH2 0x286B JUMP JUMPDEST SWAP2 POP PUSH32 0xFFFFFFFFFFFFFFFFFFFFFFFFFFFFFFFFFFFFFFFFFFFFFFFFFFFFFFFFFFFFFFFF DUP3 SUB PUSH2 0x31A2 JUMPI PUSH2 0x31A1 PUSH2 0x3139 JUMP JUMPDEST JUMPDEST PUSH1 0x1 DUP3 ADD SWAP1 POP SWAP2 SWAP1 POP JUMP JUMPDEST PUSH0 PUSH1 0x40 DUP3 ADD SWAP1 POP PUSH2 0x31C0 PUSH0 DUP4 ADD DUP6 PUSH2 0x28F9 JUMP JUMPDEST DUP2 DUP2 SUB PUSH1 0x20 DUP4 ADD MSTORE PUSH2 0x31D2 DUP2 DUP5 PUSH2 0x2813 JUMP JUMPDEST SWAP1 POP SWAP4 SWAP3 POP POP POP JUMP JUMPDEST PUSH0 DUP2 MLOAD SWAP1 POP PUSH2 0x31E9 DUP2 PUSH2 0x2C86 JUMP JUMPDEST SWAP3 SWAP2 POP POP JUMP JUMPDEST PUSH0 PUSH1 0x20 DUP3 DUP5 SUB SLT ISZERO PUSH2 0x3204 JUMPI PUSH2 0x3203 PUSH2 0x2720 JUMP JUMPDEST JUMPDEST PUSH0 PUSH2 0x3211 DUP5 DUP3 DUP6 ADD PUSH2 0x31DB JUMP JUMPDEST SWAP2 POP POP SWAP3 SWAP2 POP POP JUMP JUMPDEST PUSH0 DUP2 MLOAD SWAP1 POP SWAP2 SWAP1 POP JUMP JUMPDEST PUSH0 DUP3 DUP3 MSTORE PUSH1 0x20 DUP3 ADD SWAP1 POP SWAP3 SWAP2 POP POP JUMP JUMPDEST PUSH0 PUSH2 0x323E DUP3 PUSH2 0x321A JUMP JUMPDEST PUSH2 0x3248 DUP2 DUP6 PUSH2 0x3224 JUMP JUMPDEST SWAP4 POP PUSH2 0x3258 DUP2 DUP6 PUSH1 0x20 DUP7 ADD PUSH2 0x27F5 JUMP JUMPDEST PUSH2 0x3261 DUP2 PUSH2 0x2803 JUMP JUMPDEST DUP5 ADD SWAP2 POP POP SWAP3 SWAP2 POP POP JUMP JUMPDEST PUSH0 PUSH1 0x80 DUP3 ADD SWAP1 POP PUSH2 0x327F PUSH0 DUP4 ADD DUP8 PUSH2 0x28F9 JUMP JUMPDEST PUSH2 0x328C PUSH1 0x20 DUP4 ADD DUP7 PUSH2 0x28F9 JUMP JUMPDEST PUSH2 0x3299 PUSH1 0x40 DUP4 ADD DUP6 PUSH2 0x2A7C JUMP JUMPDEST DUP2 DUP2 SUB PUSH1 0x60 DUP4 ADD MSTORE PUSH2 0x32AB DUP2 DUP5 PUSH2 0x3234 JUMP JUMPDEST SWAP1 POP SWAP6 SWAP5 POP POP POP POP POP JUMP JUMPDEST PUSH0 DUP2 MLOAD SWAP1 POP PUSH2 0x32C4 DUP2 PUSH2 0x2753 JUMP JUMPDEST SWAP3 SWAP2 POP POP JUMP JUMPDEST PUSH0 PUSH1 0x20 DUP3 DUP5 SUB SLT ISZERO PUSH2 0x32DF JUMPI PUSH2 0x32DE PUSH2 0x2720 JUMP JUMPDEST JUMPDEST PUSH0 PUSH2 0x32EC DUP5 DUP3 DUP6 ADD PUSH2 0x32B6 JUMP JUMPDEST SWAP2 POP POP SWAP3 SWAP2 POP POP JUMP JUMPDEST PUSH0 DUP2 SWAP1 POP DUP2 PUSH0 MSTORE PUSH1 0x20 PUSH0 KECCAK256 SWAP1 POP SWAP2 SWAP1 POP JUMP JUMPDEST PUSH0 PUSH1 0x20 PUSH1 0x1F DUP4 ADD DIV SWAP1 POP SWAP2 SWAP1 POP JUMP JUMPDEST PUSH0 DUP3 DUP3 SHL SWAP1 POP SWAP3 SWAP2 POP POP JUMP JUMPDEST PUSH0 PUSH1 0x8 DUP4 MUL PUSH2 0x3351 PUSH32 0xFFFFFFFFFFFFFFFFFFFFFFFFFFFFFFFFFFFFFFFFFFFFFFFFFFFFFFFFFFFFFFFF DUP3 PUSH2 0x3316 JUMP JUMPDEST PUSH2 0x335B DUP7 DUP4 PUSH2 0x3316 JUMP JUMPDEST SWAP6 POP DUP1 NOT DUP5 AND SWAP4 POP DUP1 DUP7 AND DUP5 OR SWAP3 POP POP POP SWAP4 SWAP3 POP POP POP JUMP JUMPDEST PUSH0 PUSH2 0x338D PUSH2 0x3388 PUSH2 0x3383 DUP5 PUSH2 0x286B JUMP JUMPDEST PUSH2 0x2F5F JUMP JUMPDEST PUSH2 0x286B JUMP JUMPDEST SWAP1 POP SWAP2 SWAP1 POP JUMP JUMPDEST PUSH0 DUP2 SWAP1 POP SWAP2 SWAP1 POP JUMP JUMPDEST PUSH2 0x33A6 DUP4 PUSH2 0x3373 JUMP JUMPDEST PUSH2 0x33BA PUSH2 0x33B2 DUP3 PUSH2 0x3394 JUMP JUMPDEST DUP5 DUP5 SLOAD PUSH2 0x3322 JUMP JUMPDEST DUP3 SSTORE POP POP POP POP JUMP JUMPDEST PUSH0 PUSH0 SWAP1 POP SWAP1 JUMP JUMPDEST PUSH2 0x33D1 PUSH2 0x33C2 JUMP JUMPDEST PUSH2 0x33DC DUP2 DUP5 DUP5 PUSH2 0x339D JUMP JUMPDEST POP POP POP JUMP JUMPDEST JUMPDEST DUP2 DUP2 LT ISZERO PUSH2 0x33FF JUMPI PUSH2 0x33F4 PUSH0 DUP3 PUSH2 0x33C9 JUMP JUMPDEST PUSH1 0x1 DUP2 ADD SWAP1 POP PUSH2 0x33E2 JUMP JUMPDEST POP POP JUMP JUMPDEST PUSH1 0x1F DUP3 GT ISZERO PUSH2 0x3444 JUMPI PUSH2 0x3415 DUP2 PUSH2 0x32F5 JUMP JUMPDEST PUSH2 0x341E DUP5 PUSH2 0x3307 JUMP JUMPDEST DUP2 ADD PUSH1 0x20 DUP6 LT ISZERO PUSH2 0x342D JUMPI DUP2 SWAP1 POP JUMPDEST PUSH2 0x3441 PUSH2 0x3439 DUP6 PUSH2 0x3307 JUMP JUMPDEST DUP4 ADD DUP3 PUSH2 0x33E1 JUMP JUMPDEST POP POP JUMPDEST POP POP POP JUMP JUMPDEST PUSH0 DUP3 DUP3 SHR SWAP1 POP SWAP3 SWAP2 POP POP JUMP JUMPDEST PUSH0 PUSH2 0x3464 PUSH0 NOT DUP5 PUSH1 0x8 MUL PUSH2 0x3449 JUMP JUMPDEST NOT DUP1 DUP4 AND SWAP2 POP POP SWAP3 SWAP2 POP POP JUMP JUMPDEST PUSH0 PUSH2 0x347C DUP4 DUP4 PUSH2 0x3455 JUMP JUMPDEST SWAP2 POP DUP3 PUSH1 0x2 MUL DUP3 OR SWAP1 POP SWAP3 SWAP2 POP POP JUMP JUMPDEST PUSH2 0x3495 DUP3 PUSH2 0x27DB JUMP JUMPDEST PUSH8 0xFFFFFFFFFFFFFFFF DUP2 GT ISZERO PUSH2 0x34AE JUMPI PUSH2 0x34AD PUSH2 0x2AAC JUMP JUMPDEST JUMPDEST PUSH2 0x34B8 DUP3 SLOAD PUSH2 0x2F26 JUMP JUMPDEST PUSH2 0x34C3 DUP3 DUP3 DUP6 PUSH2 0x3403 JUMP JUMPDEST PUSH0 PUSH1 0x20 SWAP1 POP PUSH1 0x1F DUP4 GT PUSH1 0x1 DUP2 EQ PUSH2 0x34F4 JUMPI PUSH0 DUP5 ISZERO PUSH2 0x34E2 JUMPI DUP3 DUP8 ADD MLOAD SWAP1 POP JUMPDEST PUSH2 0x34EC DUP6 DUP3 PUSH2 0x3471 JUMP JUMPDEST DUP7 SSTORE POP PUSH2 0x3553 JUMP JUMPDEST PUSH1 0x1F NOT DUP5 AND PUSH2 0x3502 DUP7 PUSH2 0x32F5 JUMP JUMPDEST PUSH0 JUMPDEST DUP3 DUP2 LT ISZERO PUSH2 0x3529 JUMPI DUP5 DUP10 ADD MLOAD DUP3 SSTORE PUSH1 0x1 DUP3 ADD SWAP2 POP PUSH1 0x20 DUP6 ADD SWAP5 POP PUSH1 0x20 DUP2 ADD SWAP1 POP PUSH2 0x3504 JUMP JUMPDEST DUP7 DUP4 LT ISZERO PUSH2 0x3546 JUMPI DUP5 DUP10 ADD MLOAD PUSH2 0x3542 PUSH1 0x1F DUP10 AND DUP3 PUSH2 0x3455 JUMP JUMPDEST DUP4 SSTORE POP JUMPDEST PUSH1 0x1 PUSH1 0x2 DUP9 MUL ADD DUP9 SSTORE POP POP POP JUMPDEST POP POP POP POP POP POP JUMP JUMPDEST PUSH0 PUSH1 0x40 DUP3 ADD SWAP1 POP PUSH2 0x356E PUSH0 DUP4 ADD DUP6 PUSH2 0x28F9 JUMP JUMPDEST PUSH2 0x357B PUSH1 0x20 DUP4 ADD DUP5 PUSH2 0x2A7C JUMP JUMPDEST SWAP4 SWAP3 POP POP POP JUMP JUMPDEST PUSH32 0x4E487B7100000000000000000000000000000000000000000000000000000000 PUSH0 MSTORE PUSH1 0x12 PUSH1 0x4 MSTORE PUSH1 0x24 PUSH0 REVERT JUMPDEST PUSH0 DUP2 SWAP1 POP SWAP3 SWAP2 POP POP JUMP JUMPDEST PUSH0 PUSH2 0x35C3 DUP3 PUSH2 0x321A JUMP JUMPDEST PUSH2 0x35CD DUP2 DUP6 PUSH2 0x35AF JUMP JUMPDEST SWAP4 POP PUSH2 0x35DD DUP2 DUP6 PUSH1 0x20 DUP7 ADD PUSH2 0x27F5 JUMP JUMPDEST DUP1 DUP5 ADD SWAP2 POP POP SWAP3 SWAP2 POP POP JUMP JUMPDEST PUSH0 PUSH2 0x35F4 DUP3 DUP5 PUSH2 0x35B9 JUMP JUMPDEST SWAP2 POP DUP2 SWAP1 POP SWAP3 SWAP2 POP POP JUMP INVALID LOG2 PUSH5 0x6970667358 0x22 SLT KECCAK256 SWAP2 KECCAK256 EXTCALL 0x4D PUSH12 0xC828D00825E599F561B0E389 ISZERO 0x26 0xF7 CREATE2 0xCE JUMP RJUMPI 0x7B9B 0xD2 LOG0 0xC2 MLOAD PUSH17 0x6C64736F6C634300081E00330000000000 "
		},
		"gasEstimates": {
			"creation": {
				"codeDepositCost": "2775400",
				"executionCost": "infinite",
				"totalCost": "infinite"
			},
			"external": {
				"UPGRADE_INTERFACE_VERSION()": "infinite",
				"_nextTokenId()": "2470",
				"_owner()": "2575",
				"approve(address,uint256)": "infinite",
				"balanceOf(address)": "infinite",
				"ccipRouter()": "2619",
				"getApproved(uint256)": "infinite",
				"getNextTokenId()": "2498",
				"initialize(address,uint64)": "infinite",
				"isApprovedForAll(address,address)": "infinite",
				"name()": "infinite",
				"owner()": "2582",
				"ownerOf(uint256)": "infinite",
				"processedMessages(bytes32)": "2830",
				"proxiableUUID()": "infinite",
				"safeTransferFrom(address,address,uint256)": "infinite",
				"safeTransferFrom(address,address,uint256,bytes)": "infinite",
				"sendNFT(address,string)": "infinite",
				"setApprovalForAll(address,bool)": "infinite",
				"sourceChainId()": "2650",
				"supportsInterface(bytes4)": "695",
				"symbol()": "infinite",
				"tokenURI(uint256)": "infinite",
				"transferFrom(address,address,uint256)": "infinite",
				"transferNFT(address,uint256)": "infinite",
				"upgradeToAndCall(address,bytes)": "infinite"
			},
			"internal": {
				"_authorizeUpgrade(address)": "infinite",
				"_ccipReceive(struct Client.Any2EVMMessage memory)": "infinite"
			}
		},
		"methodIdentifiers": {
			"UPGRADE_INTERFACE_VERSION()": "ad3cb1cc",
			"_nextTokenId()": "4a60f620",
			"_owner()": "b2bdfa7b",
			"approve(address,uint256)": "095ea7b3",
			"balanceOf(address)": "70a08231",
			"ccipRouter()": "0de22984",
			"getApproved(uint256)": "081812fc",
			"getNextTokenId()": "caa0f92a",
			"initialize(address,uint64)": "1798de81",
			"isApprovedForAll(address,address)": "e985e9c5",
			"name()": "06fdde03",
			"owner()": "8da5cb5b",
			"ownerOf(uint256)": "6352211e",
			"processedMessages(bytes32)": "88ba16ab",
			"proxiableUUID()": "52d1902d",
			"safeTransferFrom(address,address,uint256)": "42842e0e",
			"safeTransferFrom(address,address,uint256,bytes)": "b88d4fde",
			"sendNFT(address,string)": "efba2b49",
			"setApprovalForAll(address,bool)": "a22cb465",
			"sourceChainId()": "1544298e",
			"supportsInterface(bytes4)": "01ffc9a7",
			"symbol()": "95d89b41",
			"tokenURI(uint256)": "c87b56dd",
			"transferFrom(address,address,uint256)": "23b872dd",
			"transferNFT(address,uint256)": "94ab67fe",
			"upgradeToAndCall(address,bytes)": "4f1ef286"
		}
	},
	"abi": [
		{
			"inputs": [
				{
					"internalType": "address",
					"name": "target",
					"type": "address"
				}
			],
			"name": "AddressEmptyCode",
			"type": "error"
		},
		{
			"inputs": [
				{
					"internalType": "address",
					"name": "implementation",
					"type": "address"
				}
			],
			"name": "ERC1967InvalidImplementation",
			"type": "error"
		},
		{
			"inputs": [],
			"name": "ERC1967NonPayable",
			"type": "error"
		},
		{
			"inputs": [
				{
					"internalType": "address",
					"name": "sender",
					"type": "address"
				},
				{
					"internalType": "uint256",
					"name": "tokenId",
					"type": "uint256"
				},
				{
					"internalType": "address",
					"name": "owner",
					"type": "address"
				}
			],
			"name": "ERC721IncorrectOwner",
			"type": "error"
		},
		{
			"inputs": [
				{
					"internalType": "address",
					"name": "operator",
					"type": "address"
				},
				{
					"internalType": "uint256",
					"name": "tokenId",
					"type": "uint256"
				}
			],
			"name": "ERC721InsufficientApproval",
			"type": "error"
		},
		{
			"inputs": [
				{
					"internalType": "address",
					"name": "approver",
					"type": "address"
				}
			],
			"name": "ERC721InvalidApprover",
			"type": "error"
		},
		{
			"inputs": [
				{
					"internalType": "address",
					"name": "operator",
					"type": "address"
				}
			],
			"name": "ERC721InvalidOperator",
			"type": "error"
		},
		{
			"inputs": [
				{
					"internalType": "address",
					"name": "owner",
					"type": "address"
				}
			],
			"name": "ERC721InvalidOwner",
			"type": "error"
		},
		{
			"inputs": [
				{
					"internalType": "address",
					"name": "receiver",
					"type": "address"
				}
			],
			"name": "ERC721InvalidReceiver",
			"type": "error"
		},
		{
			"inputs": [
				{
					"internalType": "address",
					"name": "sender",
					"type": "address"
				}
			],
			"name": "ERC721InvalidSender",
			"type": "error"
		},
		{
			"inputs": [
				{
					"internalType": "uint256",
					"name": "tokenId",
					"type": "uint256"
				}
			],
			"name": "ERC721NonexistentToken",
			"type": "error"
		},
		{
			"inputs": [],
			"name": "FailedCall",
			"type": "error"
		},
		{
			"inputs": [],
			"name": "InvalidInitialization",
			"type": "error"
		},
		{
			"inputs": [],
			"name": "NotInitializing",
			"type": "error"
		},
		{
			"inputs": [],
			"name": "UUPSUnauthorizedCallContext",
			"type": "error"
		},
		{
			"inputs": [
				{
					"internalType": "bytes32",
					"name": "slot",
					"type": "bytes32"
				}
			],
			"name": "UUPSUnsupportedProxiableUUID",
			"type": "error"
		},
		{
			"anonymous": false,
			"inputs": [
				{
					"indexed": true,
					"internalType": "address",
					"name": "owner",
					"type": "address"
				},
				{
					"indexed": true,
					"internalType": "address",
					"name": "approved",
					"type": "address"
				},
				{
					"indexed": true,
					"internalType": "uint256",
					"name": "tokenId",
					"type": "uint256"
				}
			],
			"name": "Approval",
			"type": "event"
		},
		{
			"anonymous": false,
			"inputs": [
				{
					"indexed": true,
					"internalType": "address",
					"name": "owner",
					"type": "address"
				},
				{
					"indexed": true,
					"internalType": "address",
					"name": "operator",
					"type": "address"
				},
				{
					"indexed": false,
					"internalType": "bool",
					"name": "approved",
					"type": "bool"
				}
			],
			"name": "ApprovalForAll",
			"type": "event"
		},
		{
			"anonymous": false,
			"inputs": [
				{
					"indexed": false,
					"internalType": "uint256",
					"name": "_fromTokenId",
					"type": "uint256"
				},
				{
					"indexed": false,
					"internalType": "uint256",
					"name": "_toTokenId",
					"type": "uint256"
				}
			],
			"name": "BatchMetadataUpdate",
			"type": "event"
		},
		{
			"anonymous": false,
			"inputs": [
				{
					"indexed": true,
					"internalType": "bytes32",
					"name": "messageId",
					"type": "bytes32"
				},
				{
					"indexed": true,
					"internalType": "uint64",
					"name": "sourceChainId",
					"type": "uint64"
				},
				{
					"indexed": true,
					"internalType": "uint256",
					"name": "tokenId",
					"type": "uint256"
				},
				{
					"indexed": false,
					"internalType": "address",
					"name": "recipient",
					"type": "address"
				}
			],
			"name": "CrossChainMessageReceived",
			"type": "event"
		},
		{
			"anonymous": false,
			"inputs": [
				{
					"indexed": false,
					"internalType": "uint64",
					"name": "version",
					"type": "uint64"
				}
			],
			"name": "Initialized",
			"type": "event"
		},
		{
			"anonymous": false,
			"inputs": [
				{
					"indexed": false,
					"internalType": "uint256",
					"name": "_tokenId",
					"type": "uint256"
				}
			],
			"name": "MetadataUpdate",
			"type": "event"
		},
		{
			"anonymous": false,
			"inputs": [
				{
					"indexed": false,
					"internalType": "address",
					"name": "recipient",
					"type": "address"
				},
				{
					"indexed": false,
					"internalType": "string",
					"name": "tokenURI",
					"type": "string"
				}
			],
			"name": "SendNFT",
			"type": "event"
		},
		{
			"anonymous": false,
			"inputs": [
				{
					"indexed": true,
					"internalType": "address",
					"name": "from",
					"type": "address"
				},
				{
					"indexed": true,
					"internalType": "address",
					"name": "to",
					"type": "address"
				},
				{
					"indexed": true,
					"internalType": "uint256",
					"name": "tokenId",
					"type": "uint256"
				}
			],
			"name": "Transfer",
			"type": "event"
		},
		{
			"anonymous": false,
			"inputs": [
				{
					"indexed": true,
					"internalType": "address",
					"name": "implementation",
					"type": "address"
				}
			],
			"name": "Upgraded",
			"type": "event"
		},
		{
			"inputs": [],
			"name": "UPGRADE_INTERFACE_VERSION",
			"outputs": [
				{
					"internalType": "string",
					"name": "",
					"type": "string"
				}
			],
			"stateMutability": "view",
			"type": "function"
		},
		{
			"inputs": [],
			"name": "_nextTokenId",
			"outputs": [
				{
					"internalType": "uint256",
					"name": "",
					"type": "uint256"
				}
			],
			"stateMutability": "view",
			"type": "function"
		},
		{
			"inputs": [],
			"name": "_owner",
			"outputs": [
				{
					"internalType": "address",
					"name": "",
					"type": "address"
				}
			],
			"stateMutability": "view",
			"type": "function"
		},
		{
			"inputs": [
				{
					"internalType": "address",
					"name": "to",
					"type": "address"
				},
				{
					"internalType": "uint256",
					"name": "tokenId",
					"type": "uint256"
				}
			],
			"name": "approve",
			"outputs": [],
			"stateMutability": "nonpayable",
			"type": "function"
		},
		{
			"inputs": [
				{
					"internalType": "address",
					"name": "owner",
					"type": "address"
				}
			],
			"name": "balanceOf",
			"outputs": [
				{
					"internalType": "uint256",
					"name": "",
					"type": "uint256"
				}
			],
			"stateMutability": "view",
			"type": "function"
		},
		{
			"inputs": [],
			"name": "ccipRouter",
			"outputs": [
				{
					"internalType": "address",
					"name": "",
					"type": "address"
				}
			],
			"stateMutability": "view",
			"type": "function"
		},
		{
			"inputs": [
				{
					"internalType": "uint256",
					"name": "tokenId",
					"type": "uint256"
				}
			],
			"name": "getApproved",
			"outputs": [
				{
					"internalType": "address",
					"name": "",
					"type": "address"
				}
			],
			"stateMutability": "view",
			"type": "function"
		},
		{
			"inputs": [],
			"name": "getNextTokenId",
			"outputs": [
				{
					"internalType": "uint256",
					"name": "",
					"type": "uint256"
				}
			],
			"stateMutability": "view",
			"type": "function"
		},
		{
			"inputs": [
				{
					"internalType": "address",
					"name": "_ccipRouter",
					"type": "address"
				},
				{
					"internalType": "uint64",
					"name": "_sourceChainId",
					"type": "uint64"
				}
			],
			"name": "initialize",
			"outputs": [],
			"stateMutability": "nonpayable",
			"type": "function"
		},
		{
			"inputs": [
				{
					"internalType": "address",
					"name": "owner",
					"type": "address"
				},
				{
					"internalType": "address",
					"name": "operator",
					"type": "address"
				}
			],
			"name": "isApprovedForAll",
			"outputs": [
				{
					"internalType": "bool",
					"name": "",
					"type": "bool"
				}
			],
			"stateMutability": "view",
			"type": "function"
		},
		{
			"inputs": [],
			"name": "name",
			"outputs": [
				{
					"internalType": "string",
					"name": "",
					"type": "string"
				}
			],
			"stateMutability": "view",
			"type": "function"
		},
		{
			"inputs": [],
			"name": "owner",
			"outputs": [
				{
					"internalType": "address",
					"name": "",
					"type": "address"
				}
			],
			"stateMutability": "view",
			"type": "function"
		},
		{
			"inputs": [
				{
					"internalType": "uint256",
					"name": "tokenId",
					"type": "uint256"
				}
			],
			"name": "ownerOf",
			"outputs": [
				{
					"internalType": "address",
					"name": "",
					"type": "address"
				}
			],
			"stateMutability": "view",
			"type": "function"
		},
		{
			"inputs": [
				{
					"internalType": "bytes32",
					"name": "",
					"type": "bytes32"
				}
			],
			"name": "processedMessages",
			"outputs": [
				{
					"internalType": "bool",
					"name": "",
					"type": "bool"
				}
			],
			"stateMutability": "view",
			"type": "function"
		},
		{
			"inputs": [],
			"name": "proxiableUUID",
			"outputs": [
				{
					"internalType": "bytes32",
					"name": "",
					"type": "bytes32"
				}
			],
			"stateMutability": "view",
			"type": "function"
		},
		{
			"inputs": [
				{
					"internalType": "address",
					"name": "from",
					"type": "address"
				},
				{
					"internalType": "address",
					"name": "to",
					"type": "address"
				},
				{
					"internalType": "uint256",
					"name": "tokenId",
					"type": "uint256"
				}
			],
			"name": "safeTransferFrom",
			"outputs": [],
			"stateMutability": "nonpayable",
			"type": "function"
		},
		{
			"inputs": [
				{
					"internalType": "address",
					"name": "from",
					"type": "address"
				},
				{
					"internalType": "address",
					"name": "to",
					"type": "address"
				},
				{
					"internalType": "uint256",
					"name": "tokenId",
					"type": "uint256"
				},
				{
					"internalType": "bytes",
					"name": "data",
					"type": "bytes"
				}
			],
			"name": "safeTransferFrom",
			"outputs": [],
			"stateMutability": "nonpayable",
			"type": "function"
		},
		{
			"inputs": [
				{
					"internalType": "address",
					"name": "recipient",
					"type": "address"
				},
				{
					"internalType": "string",
					"name": "tokenURI",
					"type": "string"
				}
			],
			"name": "sendNFT",
			"outputs": [
				{
					"internalType": "uint256",
					"name": "",
					"type": "uint256"
				}
			],
			"stateMutability": "nonpayable",
			"type": "function"
		},
		{
			"inputs": [
				{
					"internalType": "address",
					"name": "operator",
					"type": "address"
				},
				{
					"internalType": "bool",
					"name": "approved",
					"type": "bool"
				}
			],
			"name": "setApprovalForAll",
			"outputs": [],
			"stateMutability": "nonpayable",
			"type": "function"
		},
		{
			"inputs": [],
			"name": "sourceChainId",
			"outputs": [
				{
					"internalType": "uint64",
					"name": "",
					"type": "uint64"
				}
			],
			"stateMutability": "view",
			"type": "function"
		},
		{
			"inputs": [
				{
					"internalType": "bytes4",
					"name": "interfaceId",
					"type": "bytes4"
				}
			],
			"name": "supportsInterface",
			"outputs": [
				{
					"internalType": "bool",
					"name": "",
					"type": "bool"
				}
			],
			"stateMutability": "pure",
			"type": "function"
		},
		{
			"inputs": [],
			"name": "symbol",
			"outputs": [
				{
					"internalType": "string",
					"name": "",
					"type": "string"
				}
			],
			"stateMutability": "view",
			"type": "function"
		},
		{
			"inputs": [
				{
					"internalType": "uint256",
					"name": "tokenId",
					"type": "uint256"
				}
			],
			"name": "tokenURI",
			"outputs": [
				{
					"internalType": "string",
					"name": "",
					"type": "string"
				}
			],
			"stateMutability": "view",
			"type": "function"
		},
		{
			"inputs": [
				{
					"internalType": "address",
					"name": "from",
					"type": "address"
				},
				{
					"internalType": "address",
					"name": "to",
					"type": "address"
				},
				{
					"internalType": "uint256",
					"name": "tokenId",
					"type": "uint256"
				}
			],
			"name": "transferFrom",
			"outputs": [],
			"stateMutability": "nonpayable",
			"type": "function"
		},
		{
			"inputs": [
				{
					"internalType": "address",
					"name": "to",
					"type": "address"
				},
				{
					"internalType": "uint256",
					"name": "tokenId",
					"type": "uint256"
				}
			],
			"name": "transferNFT",
			"outputs": [],
			"stateMutability": "nonpayable",
			"type": "function"
		},
		{
			"inputs": [
				{
					"internalType": "address",
					"name": "newImplementation",
					"type": "address"
				},
				{
					"internalType": "bytes",
					"name": "data",
					"type": "bytes"
				}
			],
			"name": "upgradeToAndCall",
			"outputs": [],
			"stateMutability": "payable",
			"type": "function"
		}
	]
}